:020000040800F2
:100000000000022065580108F58D0008018E0008E7
:10001000098E0008118E0008198E000800000000EB
:10002000000000000000000000000000218E000819
:100030002D8E000800000000398E0008950300088E
:10004000AD580108AD580108AD580108AD58010878
:10005000AD580108AD580108AD580108AD58010868
:10006000AD580108AD580108AD580108AD58010858
:10007000AD580108AD580108AD580108AD58010848
:10008000AD580108AD580108AD580108AD58010838
:10009000AD580108AD580108AD580108AD58010828
:1000A000AD580108AD580108AD580108AD58010818
:1000B000AD580108B1060008AD580108AD58010857
:1000C000AD580108AD580108AD580108AD580108F8
:1000D000AD580108AD580108AD580108AD580108E8
:1000E000AD580108AD580108AD580108AD580108D8
:1000F000AD580108AD580108AD580108AD580108C8
:10010000AD580108AD580108AD580108AD580108B7
:10011000AD580108AD580108AD580108AD580108A7
:10012000AD580108AD580108AD580108AD58010897
:10013000AD580108AD580108AD580108AD58010887
:10014000AD580108AD580108AD580108AD58010877
:10015000AD580108AD580108AD580108390600082E
:10016000AD580108AD580108AD580108AD58010857
:10017000AD580108AD580108AD580108AD58010847
:08018000AD580108AD5801085B
:1001880008B543F2D870074BC2F200001B1A062BC1
:1001980000D808BD40F20003C0F20003002BF8D0DD
:1001A8009847F6E7DB37002008B543F2D87043F2EA
:1001B800D873C2F20003C2F200001B1A9B1003EBB3
:1001C800D373591000D108BD40F20002C0F20002FA
:1001D800002AF8D09047F6E710B543F2D874C2F277
:1001E8000004237873B9FFF7CBFF40F20003C0F295
:1001F80000032BB14CF62830C0F60100AFF30080A5
:100208000123237010BD00BF08B540F20003C0F2FF
:1002180000034BB14CF6283043F2DC71C0F6010004
:10022800C2F20001AFF3008043F2D470C2F20000C2
:1002380003682BB140F20003C0F2000303B19847F2
:10024800BDE80840B0E700BF134B002B08BF114BB7
:100258009D46A3F5803A00218B460F461148124A65
:10026800121A15F0D3F90D4B002B00D098470C4B00
:10027800002B00D098470020002104000D000B48F7
:1002880015F066F915F094F9200029000FF0C6FA68
:1002980015F064F9000008000000000000000000EC
:1002A80000000000D8370020904000208555010844
:1002B80080B483B000AF03463960FB7197F907300B
:1002C800002B0EDA4FF46D43CEF20003FA7902F0F8
:1002D8000F02111F3A68D2B21201D2B20B441A7639
:1002E8000CE04FF46143CEF2000397F907103A6827
:1002F800D2B21201D2B20B4483F800230C37BD46A8
:100308005DF8047B704700BF80B582B000AF7860AD
:100318007B68B3F1807F01D301231AE04EF210030A
:10032800CEF200037A6822F07F42013A5A604FF019
:10033800FF300F21FFF7BCFF4EF21003CEF200038F
:1003480000229A604EF21003CEF2000307221A60D0
:10035800002318460837BD4680BD00BF80B483B06F
:1003680000AF78607A6843F2F473C2F200031A604F
:1003780000BF43F2F473C2F200031B68002BF8D1EC
:100388000C37BD465DF8047B704700BF80B400AFF2
:1003980043F2F873C2F200031B685A1C43F2F87365
:1003A800C2F200031A6043F2F473C2F200031B683E
:1003B800002B0AD043F2F473C2F200031B685A1EE2
:1003C80043F2F473C2F200031A60BD465DF8047B81
:1003D800704700BF80B483B000AF78607B68032BA0
:1003E80016D801A252F823F00104000807040008F7
:1003F8000D040008130400084FF480530AE04FF47A
:10040800005307E04FF4804304E04FF4004301E059
:100418004FF4805318460C37BD465DF8047B70478F
:1004280080B483B000AF78607B68013B032B13D89E
:1004380001A252F823F000BF510400085504000837
:10044800590400085D040008022306E0042304E0C0
:10045800082302E0102300E0022318460C37BD46AB
:100468005DF8047B704700BF80B582B000AF78604C
:100478007868FFF7AFFF03469BB24FF44060C4F2C1
:100488000200194607F0C4F90837BD4680BD00BF11
:1004980080B582B000AF78607868FFF79BFF0346AD
:1004A8009BB24FF44060C4F20200194607F0BEF94F
:1004B8000837BD4680BD00BF80B582B000AF786008
:1004C8007868FFF787FF03469BB24FF44060C4F299
:1004D8000200194607F0DEF90837BD4680BD00BFA7
:1004E80080B582B000AF00237B6000237B6005E00D
:1004F8007868FFF7CDFF7B6801337B607B68032B4F
:10050800F6DD43F60403C2F200031B681846FFF742
:10051800ABFF43F60403C2F200031B685A1CD3174F
:100528009B0F1A4402F00302D31A1A4643F6040337
:10053800C2F200031A600837BD4680BD80B582B09C
:1005480000AF78607B68002B07D10020C4F202005E
:10055800012107F00DF903460CE07868FFF760FF0A
:1005680003469BB24FF44060C4F20200194607F0FC
:10057800FFF8034618460837BD4680BD80B588B0E9
:1005880000AF0420012109F045FA2020012109F0DB
:10059800E1FA47233B730123BB730123FB7307F184
:1005A8000C03184608F0C6FC4FF40060C4F20200C1
:1005B8000621082207F080F940237B6002233B7262
:1005C8000023BB720123FB7202237B723B1D4FF495
:1005D8000060C4F20200194607F000F84FF4E13356
:1005E8003B610023BB8308237B8300233B830023D9
:1005F800FB820023BB8207F110034FF4A050C4F222
:10060800010019460EF03AF84FF4A050C4F2010068
:1006180040F2277100220EF075FB4FF4A050C4F28F
:10062800010001210EF04AF92037BD4680BD00BF08
:1006380080B500AF4FF4A050C4F2010040F227711A
:100648000EF0D4FB0346002B2DD043F6A043C2F294
:1006580000031B681B78DBB2002B15D043F6A043C0
:10066800C2F200031B681A46511C43F6A043C2F2AB
:10067800000319601378DBB24FF4A050C4F20100F4
:1006880019460EF099F90EE04FF4A050C4F201009B
:1006980040F2277100220EF035FB43F6A043C2F268
:1006A800000300221A6080BD80B500AF4FF480605F
:1006B800C4F2000001210DF039FC0346002B08D0DC
:1006C8004FF48060C4F2000001210DF059FC0FF0D6
:1006D80037F880BD80B584B000AF0220012109F051
:1006E80011FA1D233B7002237B700223BB70012388
:1006F800FB703B46184608F01DFC1D200121FFF742
:10070800D7FD44F61F63BB6041F26703BB8000233B
:10071800BB810023FB803B1D4FF48060C4F20000C6
:1007280019460CF04DFA4FF48060C4F20000012124
:1007380001220DF09DFB4FF48060C4F200000121FE
:100748000CF0CCFB1037BD4680BD00BF80B500AFB4
:1007580000F0BAFD42F6E463C2F200031A684DF6EF
:100768008363C4F21B33A3FB02139B0C1846FFF7E9
:10077800CBFD80BD80B582B000AF0820012109F013
:1007880049F94FF470433B6001233B710023BB716F
:100798000123FB7102237B713B464FF44060C4F296
:1007A8000200194606F01AFF0120FFF771FE022029
:1007B800FFF76EFE0020FFF76BFE0320FFF768FED1
:1007C8000837BD4680BD00BF80B582B000AF0920A4
:1007D800012109F01FF901233B6000233B7100232D
:1007E800BB710223FB7102237B713B460020C4F2DC
:1007F8000200194606F0F2FE7E233B603B464FF4AA
:100808004060C4F20200194606F0E8FE0837BD460B
:1008180080BD00BF80B586B000AF0120012109F07E
:10082800F9F84FF00050012109F06CF903233B75EA
:100838000023FB7510233B6107F110030020C4F26D
:100848000200194606F0CAFE20233B6107F1100397
:100858000020C4F20200194606F0C0FE04F028FA8F
:1008680000233B6000237B600023FB603B460020A5
:10087800194604F02BFA0020012104F073FA3B46D4
:100888001020194604F022FA1020012104F06AFA17
:100898001837BD4680BD00BF80B58CB000AF0420BE
:1008A800012109F0B7F84FF48060012109F052F9ED
:1008B80004233B6003233B710023FB713B464FF449
:1008C8000060C4F20200194606F088FE00F064FEDB
:1008D8000023BB600023FB6000233B6107F1080392
:1008E800184600F0DBFE0023BB6100233B770023A2
:1008F8007B7700233B6200237B620023BB620123DA
:1009080087F82C3007F118034FF40850C4F201009F
:10091800194600F04FFE4FF40850C4F201000C21B4
:100928000122002300F0B0FF4FF40850C4F2010088
:10093800012100F0F5FE3037BD4680BD80B400AF20
:100948004FF46D43CEF200034FF46D42CEF2000235
:10095800D2F8882042F47002C3F88820BD465DF8BA
:10096800047B704780B500AFFFF7F0FEFFF794FFF8
:10097800FFF750FFFFF7FEFEFFF726FFFFF7FEFD2C
:10098800FFF7DCFFFFF7A6FE80BD00BF80B582B091
:1009980000AF786043F6A043C2F200037A681A6099
:1009A8004FF4A050C4F2010040F2277101220EF06A
:1009B800A9F900BF43F6A043C2F200031B68002B4D
:1009C800F8D1786816F03AFE0346786800211A468E
:1009D80014F01CFE0837BD4680BD00BF80B586B048
:1009E80000AF87ED010A01237B61D7ED017AF5EEAF
:1009F800C07AF1EE10FA02D54FF0FF337B617B69C4
:100A080007EE103AF8EEC77A97ED017A67EE277A83
:100A1800C7ED017AD7ED017AFDEEE77A17EE903A45
:100A28003B613B6907EE103AF8EEC77A97ED017A19
:100A380037EE677ADFED167A67EE277AFDEEE77A0A
:100A480017EE903AFB607B69002B0CDD43F63C40C7
:100A5800C2F200004CF25461C0F601013A69FB6829
:100A680016F0C4FD0BE043F63C40C2F200004CF225
:100A78006061C0F601013A69FB6816F0B7FD43F6FC
:100A88003C43C2F2000318461837BD4680BD00BF7C
:100A980000401C4680B400AF43F2F873C2F2000372
:100AA8001B681846BD465DF8047B704780B582B068
:100AB80000AF0023FB804FF40850C4F2010000F09F
:100AC800A7FF00BF4FF40850C4F20100022101F053
:100AD8004DFA0346002BF5D04FF40850C4F201003C
:100AE80001F034F80346FB80FB8818460837BD46FA
:100AF80080BD00BF80B500AFFFF7D8FF034607EE03
:100B0800903AB8EE677ADFED057A87EE277AF2EE4B
:100B1800047A77EE277AB0EE670A80BDCDCC4C42D6
:100B280080B582B000AF0346FB80FB8800201946E1
:100B380004F0CCF9FB88C3F57F630F339BB2002028
:100B4800194604F0DDF90837BD4680BD80B582B08E
:100B580000AF87ED010A97ED017ADFED077A67EEBE
:100B6800277AFCEEE77A17EE903A9BB21846FFF721
:100B7800D7FF0837BD4680BDCDCC234280B500AF36
:100B8800012013F007F9FFF7EDFE012013F030F90B
:100B980080BD00BFB0B582B000AF786039607B68B7
:100BA800002B00D183E07B6893ED067A7B685B6954
:100BB800043BD3ED007A77EE677A43F60803C2F276
:100BC8000003C3ED007A7B6893ED067A7B685B6966
:100BD800083BD3ED007A77EE677A43F60C03C2F24E
:100BE8000003C3ED007A7B6893ED067A7B685B6946
:100BF8000C3BD3ED007A77EE677A43F61003C2F226
:100C08000003C3ED007A43F60803C2F200031B6831
:100C1800184613F0B3FC02460B461046194626A3A5
:100C2800D3E9002313F0FEFC02460B4614461D468A
:100C380043F60C03C2F200031B68184613F09EFC2F
:100C480002460B46104619461DA3D3E9002313F0AC
:100C5800E9FC02460B462046294613F031FB0246C2
:100C68000B4614461D4643F61003C2F200031B68E8
:100C7800184613F083FC02460B46104619464FF0FF
:100C880000024FF0000313F0CDFC02460B4620464D
:100C9800294613F015FB02460B461046194613F079
:100CA80083FF0346386800EE103A0EF043FF08371A
:100CB800BD46B0BDAFF300809A99999999614140BA
:100CC80066666666665E40C080B584B000AF7860D0
:100CD80039607B68002B00D13CE143F61403C2F273
:100CE80000034FF000021A6043F61803C2F2000333
:100CF80001221A6025E043F61803C2F200031B68BC
:100D0800591E7B68186943F61803C2F200031B6872
:100D18005A1C13469B079B1A9B0003441A6843F608
:100D28001C03C2F2000389000B441A6043F618033F
:100D3800C2F200031B685A1C43F61803C2F20003F0
:100D48001A6043F61803C2F200031B68952BD2DD24
:100D580043F61803C2F2000301221A601BE043F6AF
:100D68001803C2F200031B68591E7B685B6953F8BD
:100D7800042C43F67023C2F2000389000B441A6066
:100D880043F61803C2F200031B685A1C43F6180303
:100D9800C2F200031A6043F61803C2F200031B688C
:100DA800142BDCDD43F61803C2F2000301221A609B
:100DB80074E04FF00003FB6043F6C023C2F2000367
:100DC80001221A6038E043F61803C2F200031B68D8
:100DD800591E43F6C023C2F200031B685A1E40F294
:100DE8000403C2F20003952000FB01F10A449200BB
:100DF800134493ED007A43F6C023C2F200031B6844
:100E08005A1E43F61C03C2F2000392001344D3EDAA
:100E1800007A67EE277A97ED037A77EE277AC7ED9F
:100E2800037A43F6C023C2F200031B685A1C43F638
:100E3800C023C2F200031A6043F6C023C2F20003C3
:100E48001B68952BBFDD43F61803C2F200031B682D
:100E58005A1E43F61803C2F200031B68591E43F6D4
:100E68007023C2F2000389000B4493ED007AD7ED9A
:100E7800037A77EE277A43F6C423C2F2000392007E
:100E88001344C3ED007A43F61803C2F200031B684B
:100E98005A1C43F61803C2F200031A6043F61803FB
:100EA800C2F200031B68142B83DD43F61803C2F259
:100EB800000301221A603BE043F61803C2F2000364
:100EC8001B685A1E42F69463C2F200039200134450
:100ED80093ED007A7B68D3ED066A43F61803C2F2F5
:100EE80000031B685A1E43F6C423C2F20003920093
:100EF8001344D3ED007A76EEE77A27EE277A43F6A5
:100F08001403C2F20003D3ED007A77EE277A43F692
:100F18001403C2F20003C3ED007A43F61803C2F2C9
:100F280000031B685A1C43F61803C2F200031A6038
:100F380043F61803C2F200031B68142BBCDD43F60A
:100F48001403C2F20003D3ED007A3868B0EE670AE2
:100F58000EF0F0FD1037BD4680BD00BF80B500AF74
:100F6800042012F017FFFFF7C5FDF0EE407A43F6B4
:100F78000C40C2F20000B0EE670A0EF09BFD0420A0
:100F880012F036FF80BD00BF80B500AF022012F01E
:100F980001FF43F60C40C2F200004FF4C8714FF451
:100FA800C8729FED0B0ADFED0A0A9FED0A1A0EF0D0
:100FB8003DFCFFF76FFD00200021FFF7EBFD00204F
:100FC8000021FFF781FE022012F012FF80BD00BF52
:100FD800000000000000204298B500AF0D2012F07C
:100FE800D9FE43F60003C2F200031C6843F60C4323
:100FF800C2F200035B69043BD3ED007AB0EE670AE6
:10100800FFF7ECFC034643F6A440C2F200004CF2A2
:101018006C61C0F60101224616F0E8FA43F6A440D6
:10102800C2F20000FFF7B2FC43F60C43C2F2000321
:10103800D3ED067AB0EE670AFFF7D0FC034643F615
:10104800A440C2F200004CF27461C0F601011A46D5
:1010580016F0CCFA43F6A440C2F20000FFF796FC63
:1010680043F60C43C2F20003DB68083BD3ED007A79
:10107800B0EE670AFFF7B2FC034643F6A440C2F29B
:1010880000004CF27861C0F601011A4616F0AEFA7B
:1010980043F6A440C2F20000FFF778FC0020FFF7F7
:1010A8004DFA0346002B06D043F60003C2F20003B4
:1010B80000221A6005E043F60003C2F20003012291
:1010C8001A600120FFF73AFA0346002B08D043F6CE
:1010D8000C43C2F200034FF00002C4F220229A61CE
:1010E8000220FFF72BFA0346002B08D043F60C43E7
:1010F800C2F200034FF00002C4F248229A610320B2
:10110800FFF71CFA0346002B08D043F60C43C2F243
:1011180000034FF00002C4F270229A610420FFF726
:101128000DFA0346002B00D0FEE70D2012F060FEFA
:1011380098BD00BF80B500AF43F60003C2F20003BC
:101148001B68002B0FD10A2012F024FE43F60C4036
:10115800C2F2000043F63041C2F20001FFF71AFD67
:101168000A2012F045FE43F60003C2F200031B6892
:10117800012B0FD10B2012F00DFE43F60C40C2F2EA
:10118800000043F63041C2F20001FFF79DFD0B203D
:1011980012F02EFEFFF7A4F980BD00BF80B500AFA6
:1011A800032012F0F7FD43F63040C2F2000043F688
:1011B8000C41C2F200010EF0E1FC43F60C40C2F211
:1011C80000009FED0D0ADFED0C0A9FED0C1ADFED14
:1011D8000C1A0EF005FD43F60C40C2F200000EF0AA
:1011E800C9FDF0EE407AB0EE670AFFF7AFFC0320C6
:1011F80012F0FEFD80BD00BF0000C07F00000000AF
:101208000000C84280B500AF0220FFF72DF99FED1E
:10121800090AFFF79BFC12F061FC43F6A443C2F2F3
:1012280000030A221A8043F6A440C2F20000FFF726
:10123800ADFBFEE70000000080B500AF4FF460533F
:10124800C4F202034FF46052C4F20202126842F080
:1012580001021A604FF46053C4F2020300229A603C
:101268004FF46053C4F202034FF46052C4F2020216
:10127800126822F0847222F480321A604FF46053AC
:10128800C4F2020343F21002C2F200425A604FF461
:101298006053C4F202034FF46052C4F202021268AF
:1012A80022F480221A604FF46053C4F20203002231
:1012B800DA6000F0B3F84FF46D43CEF200034FF05C
:1012C80000629A6080BD00BF80B487B000AF002381
:1012D8003B6100237B610223FB600023BB60022388
:1012E8007B604FF46053C4F202039B6803F00C0365
:1012F8003B613B69042B0DD0082B15D0002B63D123
:1013080042F6E463C2F200034FF41052C0F2F40252
:101318001A6063E042F6E463C2F200034FF49052AD
:10132800C0F27A021A6059E04FF46053C4F2020323
:101338005B6803F480039B0DBB604FF46053C4F2F9
:1013480002035B6803F03F037B60BB68002B13D08C
:101358004FF49053C0F27A037A68B3FBF2F24FF479
:101368006053C4F20203596847F6C0730B409B09E7
:1013780003FB02F37B6112E04FF41053C0F2F40355
:101388007A68B3FBF2F24FF46053C4F2020359686F
:1013980047F6C0730B409B0903FB02F37B614FF4D4
:1013A8006053C4F202035B6803F440331B0C01333F
:1013B8005B00FB607A69FB68B2FBF3F242F6E46318
:1013C800C2F200031A6009E042F6E463C2F20003C5
:1013D8004FF41052C0F2F4021A6000BF4FF4605389
:1013E800C4F202039B6803F0F0031A0942F6E863AB
:1013F800C2F200039B5CDBB23B6142F6E463C2F2DB
:1014080000031A683B69DA4042F6E463C2F200035B
:101418001A601C37BD465DF8047B704780B483B002
:1014280000AF00237B6000233B604FF46053C4F29D
:1014380002034FF46052C4F20202126842F480328E
:101448001A604FF46053C4F202031B6803F40033BC
:101458003B607B6801337B603B68002B03D17B6872
:10146800B3F5A06FEDD14FF46053C4F202031B68CB
:1014780003F40033002B02D001233B6001E000237A
:101488003B603B68012B40F082804FF46053C4F20C
:1014980002034FF46052C4F20202126C42F080520E
:1014A8001A644FF4E043C4F200034FF4E042C4F27C
:1014B8000002126842F480421A604FF46053C4F28A
:1014C80002034FF46052C4F2020292689A604FF429
:1014D8006053C4F202034FF46052C4F202029268ED
:1014E80042F400429A604FF46053C4F202034FF48E
:1014F8006052C4F20202926842F4A0529A604FF419
:101508006053C4F2020345F20842C0F240725A60C6
:101518004FF46053C4F202034FF46052C4F2020263
:10152800126842F080721A6000BF4FF46053C4F230
:1015380002031B6803F00073002BF6D04FF47053BE
:10154800C4F2020340F205621A604FF46053C4F219
:1015580002034FF46052C4F20202926822F00302BE
:101568009A604FF46053C4F202034FF46052C4F21D
:101578000202926842F002029A6000BF4FF4605380
:10158800C4F202039B6803F00C03082BF6D10C3756
:10159800BD465DF8047B704780B500AF4FF480709E
:1015A800012108F09FFB4FF48070002108F09AFB9E
:1015B80080BD00BF80B485B000AF7860396000237B
:1015C800FB600023FB727B685B68FB60FB6823F0B1
:1015D800407323F48073FB603B681B791A023B68F5
:1015E8001B681343FA681343FB607B68FA685A6008
:1015F8007B689B68FB60FA684FF2FD73CCF2FF03CF
:101608001340FB603B681A693B68DB681A433B6818
:101618009B681A433B685B795B001343FA68134382
:10162800FB607B68FA689A607B68DB6AFB60FB6832
:1016380023F47003FB603B681B7D013BDAB2FB7A45
:101648001343FB72FB7A1B05FA681343FB607B6844
:10165800FA68DA621437BD465DF8047B704700BF4C
:1016680080B483B000AF78607B6800221A607B6822
:1016780000221A717B6800225A717B6800229A60E6
:101688007B680022DA607B6800221A617B6801228D
:101698001A750C37BD465DF8047B704780B485B079
:1016A80000AF78600023FB604FF40C53C4F20103D1
:1016B8005B68FB60FA6843F2E003CFF6FC73134003
:1016C800FB607B681A687B685B681A437B689B6869
:1016D8001A437B68DB681343FA681343FB604FF4D3
:1016E8000C53C4F20103FA685A601437BD465DF81A
:1016F800047B704780B483B000AF78607B680022B9
:101708001A607B6800225A607B6800229A607B68B6
:101718000022DA600C37BD465DF8047B704700BFD5
:1017280080B483B000AF78600B46FB70FB78002B69
:1017380006D07B689B6843F001027B689A6005E0ED
:101748007B689B6823F001027B689A600C37BD4672
:101758005DF8047B704700BF80B485B000AF786047
:1017680039600023FB607B685B68FB60FB6823F4DF
:10177800400323F40073FB60FA683B681343FB6083
:101788007B68FA685A601437BD465DF8047B704779
:1017980080B483B000AF786013460A467A803B80F5
:1017A8007A887B685A623A887B689A620C37BD46A9
:1017B8005DF8047B704700BF80B485B000AF7860E7
:1017C8000B46FB700023FB607B685B68FB60FB6873
:1017D80023F01F03FB60FB78FA681343FB607B6808
:1017E800FA685A601437BD465DF8047B704700BF3D
:1017F80080B483B000AF0346FB71FB79002B0CD09B
:101808004FF40C53C4F201034FF40C52C4F201021A
:10181800526842F400025A600BE04FF40C53C4F2D1
:1018280001034FF40C52C4F20102526822F4000280
:101838005A600C37BD465DF8047B704780B483B0AE
:1018480000AF0346FB71FB79002B0CD04FF40C530F
:10185800C4F201034FF40C52C4F20102526842F47C
:1018680080025A600BE04FF40C53C4F201034FF4AA
:101878000C52C4F20102526822F480025A600C37FA
:10188800BD465DF8047B704780B485B000AF7860D2
:10189800F970BA707B700023FB600023BB60FB7893
:1018A800092B23D97B68DB68FB60FB78A3F10A026C
:1018B80013465B001344072202FA03F3BB60BB68BC
:1018C800DB43FA681340FB607978FB78A3F10A02DE
:1018D80013465B00134401FA03F3BB60FA68BB6864
:1018E8001343FB607B68FA68DA601EE07B681B695B
:1018F800FB60FA7813465B001344072202FA03F3ED
:10190800BB60BB68DB43FA681340FB607978FA7800
:1019180013465B00134401FA03F3BB60FA68BB6823
:101928001343FB607B68FA681A61BB78062B21D8E1
:101938007B685B6BFB60BB785A1E13469B001344A5
:101948001F2202FA03F3BB60BB68DB43FA6813404B
:10195800FB60F978BB785A1E13469B00134401FAC2
:1019680003F3BB60FA68BB681343FB607B68FA68E3
:101978005A6347E0BB780C2B21D87B681B6BFB6054
:10198800BB78DA1F13469B0013441F2202FA03F3A5
:10199800BB60BB68DB43FA681340FB60F978BB782F
:1019A800DA1F13469B00134401FA03F3BB60FA687D
:1019B800BB681343FB607B68FA681A6322E07B68A4
:1019C800DB6AFB60BB78A3F10D0213469B0013444E
:1019D8001F2202FA03F3BB60BB68DB43FA681340BB
:1019E800FB60F978BB78A3F10D0213469B00134402
:1019F80001FA03F3BB60FA68BB681343FB607B68BA
:101A0800FA68DA621437BD465DF8047B704700BF98
:101A180080B483B000AF78607B689B6843F08042F5
:101A28007B689A600C37BD465DF8047B704700BF41
:101A380080B485B000AF78600023FB737B689B6837
:101A480003F48003002B02D00123FB7301E0002381
:101A5800FB73FB7B18461437BD465DF8047B704763
:101A680080B483B000AF78600B46FB70FB78002B26
:101A780006D07B689B6843F480627B689A6005E0C7
:101A88007B689B6823F480627B689A600C37BD464C
:101A98005DF8047B704700BF80B483B000AF786006
:101AA8000B46FB70FB78002B06D07B689B6843F0E5
:101AB80002027B689A6005E07B689B6823F002025B
:101AC8007B689A600C37BD465DF8047B704700BFA1
:101AD80080B485B000AF78600B46FB700023FB60D4
:101AE8000023BB607B685B68FB60FB6823F4604392
:101AF800FB60FB78013BBB60BB685B03FA68134380
:101B0800FB607B68FA685A601437BD465DF8047B51
:101B1800704700BF80B483B000AF78600B46FB709D
:101B2800FB78002B06D07B685B6843F400627B6817
:101B38005A6005E07B685B6823F400627B685A6042
:101B48000C37BD465DF8047B704700BF80B483B096
:101B580000AF78607B68DB6C9BB218460C37BD46DB
:101B68005DF8047B704700BF80B400AF42F20833D1
:101B7800C4F201031B681846BD465DF8047B704734
:101B880080B483B000AF78600B46FB70FB78002B05
:101B980006D07B689B6843F480727B689A6005E096
:101BA8007B689B6823F480727B689A600C37BD461B
:101BB8005DF8047B704700BF80B483B000AF7860E5
:101BC8000B46FB70FB78002B06D07B689B6843F4C0
:101BD80000727B689A6005E07B689B6823F400725A
:101BE8007B689A600C37BD465DF8047B704700BF80
:101BF80080B483B000AF0346FB71FB79002B0CD097
:101C08004FF40C53C4F201034FF40C52C4F2010216
:101C1800526842F400525A600BE04FF40C53C4F27D
:101C280001034FF40C52C4F20102526822F400522C
:101C38005A600C37BD465DF8047B704780B487B0A6
:101C480000AF7860F970BA707B7000237B61002365
:101C58003B610023FB60FB78092B23D97B68DB6899
:101C68007B61FB78A3F10A0213465B001344072249
:101C780002FA03F33B613B69DB437A6913407B61FA
:101C88007978FB78A3F10A0213465B00134401FA42
:101C980003F33B617A693B6913437B617B687A692B
:101CA800DA601EE07B681B697B61FA7813465B008B
:101CB8001344072202FA03F33B613B69DB437A6969
:101CC80013407B617978FA7813465B00134401FA74
:101CD80003F33B617A693B6913437B617B687A69EB
:101CE8001A617B689B6B7B617B6903F440131B0D56
:101CF800FB60FB68DBB2BA78D31ADBB20233DBB223
:101D08001A4613469B0013441F2202FA03F33B6151
:101D18003B69DB437A6913407B61F978FB68DBB286
:101D2800BA78D31ADBB20233DBB21A4613469B00E9
:101D3800134401FA03F33B617A693B6913437B61FE
:101D48007B687A699A631C37BD465DF8047B7047E7
:101D580080B485B000AF78600B46FB700023FB6051
:101D68000023BB607B689B6BFB60FB6823F440131C
:101D7800FB60FB78013BBB60BB681B05FA6813433B
:101D8800FB607B68FA689A631437BD465DF8047B8C
:101D9800704700BF80B485B000AF786013460A462C
:101DA800FA703B800023FB607B68FB60FA78FB6875
:101DB8001344FB60FB683A881A601437BD465DF827
:101DC800047B704780B485B000AF78603960002329
:101DD800FB607B689B68FB60FB6823F47023FB60F7
:101DE800FA683B681343FB607B68FA689A601437AB
:101DF800BD465DF8047B704780B485B000AF78605D
:101E080039600023FB607B689B68FB60FB6823F4F8
:101E18004013FB60FA683B681343FB607B68FA6811
:101E28009A601437BD465DF8047B704780B483B070
:101E380000AF78607B689B6843F480027B689A6097
:101E48000C37BD465DF8047B704700BF80B485B091
:101E580000AF78600023FB737B689B6803F4800302
:101E6800002B02D00123FB7301E00023FB73FB7BF3
:101E780018461437BD465DF8047B704780B483B0BC
:101E880000AF78600B46FB70FB78002B06D07B68B0
:101E98005B6843F480627B685A6005E07B685B6836
:101EA80023F480627B685A600C37BD465DF8047B7A
:101EB800704700BF80B483B000AF78600B46FB70FA
:101EC800FB78002B06D07B685B6843F480527B6804
:101ED8005A6005E07B685B6823F480527B685A602F
:101EE8000C37BD465DF8047B704700BF80B485B0F1
:101EF80000AF78600B46FB700023FB607B68FB60DB
:101F0800FA78FB6813442833FB60FB681B689BB2B4
:101F180018461437BD465DF8047B704780B485B019
:101F280000AF786013460A467A807B700023FB6016
:101F38007B88DBB2FB60FB68012202FA03F3FB60DB
:101F48007B78002B06D07B685A68FB681A437B684D
:101F58005A6006E07B685A68FB68DB431A407B6876
:101F68005A601437BD465DF8047B704780B485B06D
:101F780000AF78600B46FB700023FB737B681A6820
:101F8800FB781340002B02D00123FB7301E00023F0
:101F9800FB73FB7B18461437BD465DF8047B70471E
:101FA80080B483B000AF78600B46FB70FB78DA43EF
:101FB8007B681A600C37BD465DF8047B704700BF2C
:101FC80080B487B000AF78600B467B800023FB7538
:101FD80000233B610023FB607B881B0A9BB23B61AB
:101FE8007B685A687B88DBB2012101FA03F313404E
:101FF800FB607B681A683B691340002B05D0FB68BF
:10200800002B02D00123FB7501E00023FB75FB7D4B
:1020180018461C37BD465DF8047B704780B485B010
:1020280000AF78600B467B800023FB737B881B0A1C
:102038009BB2FB73FB7BDA437B681A601437BD469F
:102048005DF8047B704700BF80B582B000AF786050
:102058007A684FF4C843C4F200039A420AD14FF099
:102068000070012107F016FE4FF00070002107F004
:1020780011FE09E04FF08060012107F00BFE4FF0E0
:102088008060002107F006FE0837BD4680BD00BF0E
:1020980080B485B000AF786039600023FB730023FB
:1020A800BB607B681B6823F002027B681A607B6850
:1020B8001B6843F001027B681A6002E0BB680133C9
:1020C800BB607B685B6803F00103002B04D1BA682E
:1020D8004FF6FF739A42F1D17B685B6803F0010306
:1020E800002B02D10023FB739CE03B689B79012BFA
:1020F80006D17B681B6843F080027B681A6005E0A4
:102108007B681B6823F080027B681A603B68DB7978
:10211800012B06D17B681B6843F040027B681A607C
:1021280005E07B681B6823F040027B681A603B6807
:102138001B7A012B06D17B681B6843F020027B6861
:102148001A6005E07B681B6823F020027B681A6030
:102158003B685B7A012B06D17B681B6843F0100251
:102168007B681A6005E07B681B6823F010027B68B7
:102178001A603B689B7A012B06D17B681B6843F089
:1021880008027B681A6005E07B681B6823F0080278
:102198007B681A603B68DB7A012B06D17B681B6879
:1021A80043F004027B681A6005E07B681B6823F033
:1021B80004027B681A603B689B789A073B68DB7867
:1021C8001B061A433B681B791B041A433B685B795F
:1021D8001B051A433B681B88013B1A437B68DA617D
:1021E8007B681B6823F001027B681A600023BB60D0
:1021F80002E0BB680133BB607B685B6803F00103E6
:10220800002B04D0BA684FF6FF739A42F1D17B686D
:102218005B6803F00103002B02D00023FB7301E08D
:102228000123FB73FB7B18461437BD465DF8047B1E
:10223800704700BF80B485B000AF78600023FB60B2
:102248007B689B7A012202FA03F3FB604FF4C843D0
:10225800C4F200034FF4C842C4F20002D2F80022CC
:1022680042F00102C3F800224FF4C843C4F200034D
:102278004FF4C842C4F20002D2F81C12FA68D243E2
:102288000A40C3F81C227B681B7B002B2DD14FF41E
:10229800C843C4F200034FF4C842C4F20002D2F8A3
:1022A8000C12FA68D2430A40C3F80C224FF4C84310
:1022B800C4F200037A68927A7968C9880804796850
:1022C80049880143483243F832104FF4C842C4F2F7
:1022D80000027B689B7A796889880804796809888C
:1022E80001434833DB00134459607B681B7B012B97
:1022F8002CD14FF4C843C4F200034FF4C842C4F2CF
:102308000002D2F80C12FA680A43C3F80C224FF400
:10231800C843C4F200037A68927A79680988080485
:10232800796849880143483243F832104FF4C8426B
:10233800C4F200027B689B7A796889880804796806
:10234800C98801434833DB00134459607B68DB7A52
:10235800002B0FD14FF4C843C4F200034FF4C84216
:10236800C4F20002D2F80412FA68D2430A40C3F851
:1023780004220DE04FF4C843C4F200034FF4C842EE
:10238800C4F20002D2F80412FA680A43C3F804221D
:102398007B681B89002B0ED14FF4C843C4F200039D
:1023A8004FF4C842C4F20002D2F81412FA68D243B9
:1023B8000A40C3F814227B681B89012B0DD14FF406
:1023C800C843C4F200034FF4C842C4F20002D2F872
:1023D8001412FA680A43C3F814227B685B7B012B4A
:1023E8000DD14FF4C843C4F200034FF4C842C4F2FD
:1023F8000002D2F81C12FA680A43C3F81C224FF4F0
:10240800C843C4F200034FF4C842C4F20002D2F831
:10241800002222F00102C3F800221437BD465DF8FD
:10242800047B704780B483B000AF78607B6800227B
:102438009A717B680022DA717B6800221A727B68C5
:1024480000225A727B6800229A727B680022DA7234
:102458007B6800229A707B680022DA707B6803220E
:102468001A717B6802225A717B6801221A800C3724
:10247800BD465DF8047B704780B483B000AF034667
:10248800FB714FF4C843C4F200034FF4C842C4F2CE
:102498000002D2F8002242F00102C3F800224FF4F1
:1024A800C843C4F200034FF4C842C4F20002D2F891
:1024B800002222F47C5222F00E02C3F800224FF4CC
:1024C800C843C4F200034FF4C842C4F20002D2F871
:1024D8000012FA7912020A43C3F800224FF4C843E3
:1024E800C4F200034FF4C842C4F20002D2F800223A
:1024F80022F00102C3F800220C37BD465DF8047BC8
:10250800704700BF80B483B000AF78600B46FB70A3
:10251800FB78002B06D07B681B6843F480327B680D
:102528001A6005E07B681B6823F480327B681A60B8
:102538000C37BD465DF8047B704700BF80B483B09C
:1025480000AF78600B46FB70FB78002B1ED07B68D1
:102558001B6843F080027B681A607B68D3F884317B
:1025680043F480727B68C3F884217B68D3F8943184
:1025780043F480727B68C3F894217B68D3F8A43154
:1025880043F480727B68C3F8A4211DE07B681B6854
:1025980023F080027B681A607B68D3F8843123F4C7
:1025A80080727B68C3F884217B68D3F8943123F464
:1025B80080727B68C3F894217B68D3F8A43123F434
:1025C80080727B68C3F8A4210C37BD465DF8047B94
:1025D800704700BF80B485B000AF786039600023D1
:1025E800FB737B689B6803F08063002B02D0002399
:1025F800FB7313E07B689B6803F00063002B02D039
:102608000123FB730AE07B689B6803F08053002B6F
:1026180002D00223FB7301E00423FB73FB7B042B32
:1026280000F09880FB7BFA7B7968183212010A4423
:10263800126802F00102796818331B010B441A6012
:102648003B681B7A002B13D1FB7BFA7B7968183225
:1026580012010A4411683A68126850053A68527AB9
:1026680002430A43796818331B010B441A6015E0CA
:10267800FB7BFA7B7968183212010A4411683A68C0
:102688005268D0003A68127A10433A68527A024384
:102698000A43796818331B010B441A603B689B7A1C
:1026A80003F00F03DAB23B689A72FB7BFA7B796816
:1026B800183212010A44526822F00F02796818335E
:1026C8001B010B445A60FB7BFA7B796818321201B4
:1026D8000A4451683A68927A0A43796818331B01A8
:1026E8000B445A60FB7B3A68927B11063A68527B2E
:1026F800120411433A68127B120211433A68D27AE3
:102708000A4379681B010B4403F5C4731A60FB7B09
:102718003A68927C11063A68527C120411433A686E
:10272800127C120211433A68D27B0A4379681B0172
:102738000B4403F5C4735A60FB7BFA7B7968183243
:1027480012010A44126842F00102796818331B0129
:102758000B441A60FB7B18461437BD465DF8047BB2
:10276800704700BF80B485B000AF78600B46FB703F
:102778000023FB60FB78012B0BD0022B12D0002B1F
:1027880018D17B689A680323C0F200431340FB60AA
:1027980013E07B689A684FF44073C0F60003134057
:1027A800FB600AE07B689A680023C1F203031340C8
:1027B800FB6002E00023FB6000BFFB684FF48072FF
:1027C800C0F60002934229D04FF48072C0F600028E
:1027D80093420CD80122C0F2004293421BD003223C
:1027E800C0F2004293421FD0002B11D025E00022F6
:1027F800C1F20102934214D00022C1F203029342B3
:1028080018D04FF44072C0F6000293420FD014E083
:102818000223FB6014E00023FB6011E00023FB604F
:102828000EE00023FB600BE00123FB6008E00123BE
:10283800FB6005E00123FB6002E00023FB6000BFB2
:10284800FB68DBB218461437BD465DF8047B704759
:1028580080B483B000AF78600B46FB70FB78012B27
:102868000BD0022B10D0002B00D014E07B689B68A3
:1028780043F080027B689A600DE07B689B6843F4B4
:1028880000427B689A6006E07B689B6843F400021C
:102898007B689A6000BF0C37BD465DF8047B7047C3
:1028A80080B485B000AFF8600B467A60FB72FB7AA3
:1028B800FA681B331B0113441B68DBB203F00403E3
:1028C800DAB27B681A727B681B7A002B09D1FB7A13
:1028D800FA681B331B0113441B685A0D7B681A6086
:1028E80008E0FB7AFA681B331B0113441B68DA08FB
:1028F8007B685A60FB7AFA681B331B0113441B6818
:10290800DBB203F00203DAB27B685A72FB7AFA6828
:102918001B331B0113445B68DBB203F00F03DAB20D
:102928007B689A72FB7AFA681B331B0113445B6855
:102938001B0ADAB27B68DA74FB7AFA681B01134463
:1029480003F5DC731B68DAB27B68DA72FB7AFA6823
:102958001B01134403F5DC731B681B0ADAB27B689E
:102968001A73FB7AFA681B01134403F5DC731B68BE
:102978001B0CDAB27B685A73FB7AFA681B011344A2
:1029880003F5DC731B681B0EDAB27B689A73FB7A5B
:10299800FA681B01134403F5DC735B68DAB27B68E1
:1029A800DA73FB7AFA681B01134403F5DC735B687E
:1029B8001B0ADAB27B681A74FB7AFA681B011344A3
:1029C80003F5DC735B681B0CDAB27B685A74FB7A1C
:1029D800FA681B01134403F5DC735B681B0EDAB25B
:1029E8007B689A74FB7A002B06D1FB68DB6843F09E
:1029F8002002FB68DA6005E0FB681B6943F02002EF
:102A0800FB681A611437BD465DF8047B704700BF48
:102A180080B483B000AF78600B46FB70FB78002B66
:102A280006D17B68DB6843F020027B68DA6005E04A
:102A38007B681B6943F020027B681A610C37BD462E
:102A48005DF8047B704700BF80B485B000AF786044
:102A58000B46FB700023FB73FB78002B06D17B68C9
:102A6800DB68DBB203F00303FB730BE0FB78012B9D
:102A780006D17B681B69DBB203F00303FB7301E03B
:102A88000023FB73FB7B18461437BD465DF8047BB7
:102A9800704700BF80B485B000AF78600B46FB700C
:102AA8000023FB734FF6FF73BB60FB78002B20D12C
:102AB8007B681B6823F0030343F001027B681A60FC
:102AC80002E0BB68013BBB607B685B6803F0030303
:102AD800012B02D0BB68002BF3D17B685B6803F045
:102AE8000303012B02D00023FB734AE00123FB738D
:102AF80047E0FB78012B1ED17B681B6823F003029B
:102B08007B681A6002E0BB68013BBB607B685B685E
:102B180003F00303002B02D0BB68002BF3D17B68C2
:102B28005B6803F00303002B02D00023FB7328E04B
:102B38000123FB7325E0FB78022B20D17B681B68FF
:102B480023F0030343F002027B681A6002E0BB68CB
:102B5800013BBB607B685B6803F00303022B02D078
:102B6800BB68002BF3D17B685B6803F00303022B7F
:102B780002D00023FB7304E00123FB7301E0002370
:102B8800FB73FB7B18461437BD465DF8047B704722
:102B980080B485B000AF78600023FB737B681B6846
:102BA80023F0030343F002027B681A607B685B68CA
:102BB80003F00303022B01D10123FB73FB7B1846AF
:102BC8001437BD465DF8047B704700BF80B485B0FC
:102BD80000AF78604FF6FF73FB600023FB727B68E1
:102BE8001B6823F002027B681A6002E0FB68013B65
:102BF800FB607B685B6803F00203002B02D0FB6874
:102C0800002BF3D17B685B6803F00203002B01D132
:102C18000123FB72FB7A18461437BD465DF8047B26
:102C2800704700BF80B485B000AF78600023FB73A5
:102C38007B689B69DBB203F07003FB73FB7B184670
:102C48001437BD465DF8047B704700BF80B485B07B
:102C580000AF78600023FB737B689B691B0EFB73D6
:102C6800FB7B18461437BD465DF8047B704700BFF0
:102C780080B485B000AF78600023FB737B689B69E4
:102C880003F47F031B0CFB73FB7B18461437BD460C
:102C98005DF8047B704700BF80B485B000AFF86072
:102CA800B9601346FB71FB79002B06D0FB685A69A3
:102CB800BB681A43FB685A6106E0FB685A69BB683F
:102CC800DB431A40FB685A611437BD465DF8047B44
:102CD800704700BF80B485B000AF786039600023CA
:102CE800FB733B6803F47003002B0DD07B689A6973
:102CF8003B681340C3F31303002B02D00123FB737B
:102D080048E00023FB7345E03B6803F08073002B29
:102D18000DD07B685A683B681340C3F31303002B3C
:102D280002D00123FB7335E00023FB7332E03B68DC
:102D380003F00063002B0DD07B689A683B68134052
:102D4800C3F31303002B02D00123FB7322E00023FB
:102D5800FB731FE03B6803F00073002B0DD07B680A
:102D6800DA683B681340C3F31303002B02D0012336
:102D7800FB730FE00023FB730CE07B681A693B6868
:102D88001340C3F31303002B02D00123FB7301E0AC
:102D98000023FB73FB7B18461437BD465DF8047BA4
:102DA800704700BF80B485B000AF786039600023F9
:102DB800FB603A687023C3F2F0039A4203D17B6840
:102DC80000229A6121E03B68C3F31303FB603B6870
:102DD80003F00073002B03D07B68FA68DA6014E014
:102DE8003B6803F08063002B03D07B68FA681A61A4
:102DF8000BE03B6803F00063002B03D07B68FA68A4
:102E08009A6002E07B68FA685A601437BD465DF83C
:102E1800047B704780B584B000AF786039600023C8
:102E2800FB737B685A693B681340002B00F0B58040
:102E38003B68402B65D0402B0FD8042B3DD0042B8A
:102E480004D8012B24D0022B2ED0A2E0102B46D080
:102E5800202B4DD0082B39D09BE0B3F5006F00F044
:102E68008680B3F5006F09D8B3F5007F6DD0B3F550
:102E7800806F73D0B3F5807F5ED08AE0B3F5803F72
:102E880048D0B3F5003F4ED0B3F5004F78D080E07E
:102E98007B689B68184640F20111C0F2010100F0FE
:102EA800F3F80346FB7377E07B68DB681846032179
:102EB80000F0EAF80346FB736EE07B68DB681846AF
:102EC800082100F0E1F80346FB7365E07B68DB68E6
:102ED8001846102100F0D8F80346FB735CE07B68C5
:102EE8001B691846032100F0CFF80346FB7353E033
:102EF8007B681B691846082100F0C6F80346FB7377
:102F08004AE07B681B691846102100F0BDF80346AB
:102F1800FB7341E07B685B681846082100F0B4F851
:102F28000346FB7338E07B685B681846102100F0A5
:102F3800ABF80346FB732FE07B689B6918460121B9
:102F480000F0A2F80346FB7326E07B689B691846ED
:102F5800022100F099F80346FB731DE07B689B692A
:102F68001846042100F090F80346FB7314E07B68D0
:102F78009B691846702100F087F80346FB730BE045
:102F88007B685B681846042100F07EF80346FB73F3
:102F980002E00023FB7300BF01E00023FB73FB7B0F
:102FA80018461037BD4680BD80B483B000AF786046
:102FB80039603B68B3F5807F46D0B3F5807F0DD884
:102FC800082B2DD0082B04D8012B1ED0042B23D07E
:102FD80054E0202B28D0402B2AD04FE0B3F5006FC7
:102FE8003ED0B3F5006F06D8B3F5007F30D0B3F507
:102FF800806F31D042E0B3F5803F1DD0B3F5003F7C
:103008001ED0B3F5004F32D038E07A6840F2011391
:10301800C0F20103936031E07B680822DA602DE09A
:103028007B681022DA6029E07B6808221A6125E0B3
:103038007B6810221A6121E07B6808225A601DE033
:103048007B6810225A6019E07B6804225A6015E0F8
:103058007B6804225A6011E07B6804225A600DE004
:103068007B6800229A617B6804225A6006E07B68CC
:1030780000229A617B6804225A6000BF0C37BD4663
:103088005DF8047B704700BF80B485B000AF7860FE
:1030980039600023FB737A683B681340002B02D029
:1030A8000123FB7301E00023FB73FB7B18461437F5
:1030B800BD465DF8047B704780B400AF4FF44053C1
:1030C800C4F2020301229A60BD465DF8047B704792
:1030D80080B483B000AF78604FF44053C4F2020369
:1030E8007A681A604FF44053C4F202031B6818460A
:1030F8000C37BD465DF8047B704700BF80B485B0CF
:1031080000AF786039600023FB600023FB600CE0AF
:103118004FF44053C4F20203FA68920079680A44F3
:1031280012681A60FB680133FB60FA683B689A42D0
:10313800EED34FF44053C4F202031B681846143709
:10314800BD465DF8047B704780B400AF4FF4405330
:10315800C4F202031B681846BD465DF8047B70473D
:1031680080B483B000AF0346FB714FF44053C4F200
:103178000203FA791A710C37BD465DF8047B704773
:1031880080B400AF4FF44053C4F202031B79DBB2A2
:103198001846BD465DF8047B704700BF90B5BBB0CC
:1031A80000AFB9607B600346FB731346BB81002305
:1031B8007B610023C7F8D430012387F8E730BB6868
:1031C800C7F8D0307B68C7F8E030D7F8FC30C7F8CC
:1031D800DC300023C7F8D83007F11803184600F090
:1031E800F1FFBB89C02B4CD0B3F5807F00F0B480D1
:1031F800802B00D01FE10023FB87D7F8D0301B6855
:10320800C7F8CC30D7F8CC301BBAC7F8C830D7F8D5
:10321800C830BB62D7F8D0300433C7F8D030D7F8FD
:10322800D0301B68C7F8C430D7F8C4301BBAC7F809
:10323800C030D7F8C030FB62D7F8D0300433C7F8B5
:10324800D030D7F8D0301B68C7F8BC30D7F8BC30BE
:103258001BBAC7F8B830D7F8B8303B63D7F8D030C6
:103268000433C7F8D030D7F8D0301B68C7F8B4306B
:10327800D7F8B4301BBAC7F8B030D7F8B0307B6392
:10328800D9E04FF48073FB87D7F8D0301B68C7F8B4
:10329800AC30D7F8AC301BBAC7F8A830D7F8A8308C
:1032A8003B62D7F8D0300433C7F8D030D7F8D030E5
:1032B8001B68C7F8A430D7F8A4301BBAC7F8A030E9
:1032C800D7F8A0307B62D7F8D0300433C7F8D030B5
:1032D800D7F8D0301B68C7F89C30D7F89C301BBA99
:1032E800C7F89830D7F89830BB62D7F8D030043395
:1032F800C7F8D030D7F8D0301B68C7F89430D7F863
:1033080094301BBAC7F89030D7F89030FB62D7F8E2
:10331800D0300433C7F8D030D7F8D0301B68C7F89E
:103328008C30D7F88C301BBAC7F88830D7F888307B
:103338003B63D7F8D0300433C7F8D030D7F8D03053
:103348001B68C7F88430D7F884301BBAC7F88030B8
:10335800D7F880307B636EE04FF40073FB87D7F8B3
:10336800D0301B68FB67FB6F1BBABB67BB6FBB61C9
:10337800D7F8D0300433C7F8D030D7F8D0301B682E
:103388007B677B6F1BBA3B673B6FFB61D7F8D0301D
:103398000433C7F8D030D7F8D0301B68FB66FB6E13
:1033A8001BBABB66BB6E3B62D7F8D0300433C7F894
:1033B800D030D7F8D0301B687B667B6E1BBA3B6673
:1033C8003B6E7B62D7F8D0300433C7F8D030D7F8DB
:1033D800D0301B68FB65FB6D1BBABB65BB6DBB6260
:1033E800D7F8D0300433C7F8D030D7F8D0301B68BE
:1033F8007B657B6D1BBA3B653B6DFB62D7F8D030B4
:103408000433C7F8D030D7F8D0301B68FB64FB6CA6
:103418001BBABB64BB6C3B63D7F8D0300433C7F826
:10342800D030D7F8D0301B687B647B6C1BBA3B6408
:103438003B6C7B6300BFFB7B002B30D100F01CFF93
:1034480004233B8738237B870023BB8707F1380396
:10345800184600F0F9FD07F11803184600F078FE49
:10346800012000F019FF102001F0B8F80346C7F852
:10347800D4307B6901337B617B69B3F5803F03D02E
:10348800D7F8D430002BEED1D7F8D430002B03D0A6
:10349800002387F8E73009E004233B8706E007F1BB
:1034A8001803184600F054FE00233B8720237B872F
:1034B8008023BB8707F13803184600F0C5FD00F0EC
:1034C800DBFE012000F0E8FE0023C7F8D83077E0E3
:1034D800D7F8E0301B68184600F000FFD7F8E03056
:1034E8000433C7F8E030D7F8E0301B68184600F01E
:1034F800F5FED7F8E0300433C7F8E030D7F8E0300D
:103508001B68184600F0EAFED7F8E0300433C7F825
:10351800E030D7F8E0301B68184600F0DFFED7F837
:10352800E0300433C7F8E03000237B61102001F05D
:1035380055F80346C7F8D4307B6901337B617B6952
:10354800B3F5803F03D0D7F8D430002BEED1D7F8AD
:10355800D430002B03D0002387F8E7302BE0D7F8CE
:10356800DC4000F0C9FE03462360D7F8DC300433A2
:10357800C7F8DC30D7F8DC4000F0BEFE0346236015
:10358800D7F8DC300433C7F8DC30D7F8DC4000F07B
:10359800B3FE03462360D7F8DC300433C7F8DC30C9
:1035A800D7F8DC4000F0A8FE03462360D7F8DC30EB
:1035B8000433C7F8DC30D7F8D8301033C7F8D83020
:1035C800D7F8D820D7F8F8309A4204D297F8E730DD
:1035D800002B7FF47DAF002000F05EFE97F8E73007
:1035E8001846EC37BD4690BD90B5C7B000AF07F19F
:1035F80008042160391D0A601A4607F10F030146C5
:10360800197007F10C031A8007F1100300221A60E1
:103618000023C7F80431012387F817313B1D1B68C5
:10362800C7F80031D7F82831C7F81031D7F830314A
:10363800C7F80C3107F108031B68C7F8FC300023F2
:10364800C7F8083107F12403184600F0BBFD07F15D
:103658000C031B88C02B4DD0B3F5807F00F0B680DB
:10366800802B00D038E10023A7F84A30D7F8003182
:103678001B68C7F8F830D7F8F8301BBAC7F8F43029
:10368800D7F8F4307B63D7F800310433C7F800313A
:10369800D7F800311B68C7F8F030D7F8F0301BBAFC
:1036A800C7F8EC30D7F8EC30BB63D7F800310433F7
:1036B800C7F80031D7F800311B68C7F8E830D7F8E9
:1036C800E8301BBAC7F8E430D7F8E430FB63D7F822
:1036D80000310433C7F80031D7F800311B68C7F848
:1036E800E030D7F8E0301BBAC7F8DC30D7F8DC3068
:1036F8003B64F1E04FF48073A7F84A30D7F8003103
:103708001B68C7F8D830D7F8D8301BBAC7F8D430F8
:10371800D7F8D430FB62D7F800310433C7F800314A
:10372800D7F800311B68C7F8D030D7F8D0301BBAAB
:10373800C7F8CC30D7F8CC303B63D7F80031043326
:10374800C7F80031D7F800311B68C7F8C830D7F878
:10375800C8301BBAC7F8C430D7F8C4307B63D7F871
:1037680000310433C7F80031D7F800311B68C7F8B7
:10377800C030D7F8C0301BBAC7F8BC30D7F8BC3057
:10378800BB63D7F800310433C7F80031D7F80031EC
:103798001B68C7F8B830D7F8B8301BBAC7F8B430C8
:1037A800D7F8B430FB63D7F800310433C7F80031D9
:1037B800D7F800311B68C7F8B030D7F8B0301BBA5B
:1037C800C7F8AC30D7F8AC303B6485E04FF40073F1
:1037D800A7F84A30D7F800311B68C7F8A830D7F8DF
:1037E800A8301BBAC7F8A430D7F8A4307B62D7F842
:1037F80000310433C7F80031D7F800311B68C7F827
:10380800A030D7F8A0301BBAC7F89C30D7F89C3046
:10381800BB62D7F800310433C7F80031D7F800315C
:103828001B68C7F89830D7F898301BBAC7F8943097
:10383800D7F89430FB62D7F800310433C7F8003169
:10384800D7F800311B68C7F89030D7F890301BBA0A
:10385800C7F88C30D7F88C303B63D7F80031043385
:10386800C7F80031D7F800311B68C7F88830D7F897
:1038780088301BBAC7F88430D7F884307B63D7F810
:1038880000310433C7F80031D7F800311B68C7F896
:103898008030D7F880301BBAFB67FB6FBB63D7F863
:1038A80000310433C7F80031D7F800311B68BB6713
:1038B800BB6F1BBA7B677B6FFB63D7F800310433A0
:1038C800C7F80031D7F800311B683B673B6F1BBA5C
:1038D800FB66FB6E3B6400BFD7F8FC301B68BB6619
:1038E800BB6E1BBA7B667B6E1A4607F114031A601F
:1038F800D7F8FC300433C7F8FC30D7F8FC301B6825
:103908003B663B6E1BBAFB65FB6D1A4607F1140359
:103918005A60D7F8FC300433C7F8FC30D7F8FC30CD
:103928001B68BB65BB6D1BBA7B657B6D1A4607F1CF
:1039380014039A60D7F8FC300433C7F8FC30D7F882
:10394800FC301B683B653B6D1BBAFB64FB6C1A467D
:1039580007F11403DA6007F10F031B78002B3AD143
:1039680000F08AFC0423A7F844303823A7F846302F
:103978000023A7F8483007F14403184600F064FB19
:1039880007F12403184600F0E3FB012000F084FC53
:10399800102000F023FE0346C7F8043107F1100396
:1039A8001B685A1C07F110031A6007F110031B6803
:1039B800B3F5803F03D0D7F80431002BE8D1D7F80E
:1039C8000431002B03D0002387F817310BE00423C0
:1039D800A7F8443007E007F12403184600F0B8FBC5
:1039E8000023A7F844302823A7F846308023A7F8F7
:1039F800483007F14403184600F026FB07F114038A
:103A0800184600F001FC00F037FC012000F044FCEF
:103A18000023C7F808317FE0D7F810311B68184633
:103A280000F05CFCD7F810310433C7F81031D7F830
:103A380010311B68184600F051FCD7F810310433D8
:103A4800C7F81031D7F810311B68184600F046FC4B
:103A5800D7F810310433C7F81031D7F810311B6884
:103A6800184600F03BFCD7F810310433C7F8103182
:103A780007F1100300221A60102000F0AFFD034682
:103A8800C7F8043107F110031B685A1C07F110032B
:103A98001A6007F110031B68B3F5803F03D0D7F80D
:103AA8000431002BE8D1D7F80431002B03D00023D0
:103AB80087F817312BE0D7F80C4100F01DFC0346BE
:103AC8002360D7F80C310433C7F80C31D7F80C4110
:103AD80000F012FC03462360D7F80C310433C7F812
:103AE8000C31D7F80C4100F007FC03462360D7F8E7
:103AF8000C310433C7F80C31D7F80C4100F0FCFB4B
:103B080003462360D7F80C310433C7F80C31D7F8D3
:103B180008311033C7F80831D7F80821D7F82C3105
:103B28009A4204D297F81731002B7FF475AF002022
:103B380000F0B2FB97F81731184607F58E77BD46A7
:103B480090BD00BF90B5C7B000AF07F10804216071
:103B5800391D0A601A4607F10F030146197007F16B
:103B68000C031A8007F1100300221A600023C7F81B
:103B78000431012387F817313B1D1B68C7F8003152
:103B8800D7F82831C7F81031D7F83031C7F80C31D9
:103B980007F108031B68C7F8FC300023C7F8083191
:103BA80007F12403184600F00DFB07F10C031B88EE
:103BB800C02B4DD0B3F5807F00F0B680802B00D0AD
:103BC80038E10023A7F84A30D7F800311B68C7F856
:103BD800F830D7F8F8301BBAC7F8F430D7F8F43013
:103BE8007B63D7F800310433C7F80031D7F80031C8
:103BF8001B68C7F8F030D7F8F0301BBAC7F8EC30BC
:103C0800D7F8EC30BB63D7F800310433C7F800317C
:103C1800D7F800311B68C7F8E830D7F8E8301BBA86
:103C2800C7F8E430D7F8E430FB63D7F80031043341
:103C3800C7F80031D7F800311B68C7F8E030D7F86B
:103C4800E0301BBAC7F8DC30D7F8DC303B64F1E071
:103C58004FF48073A7F84A30D7F800311B68C7F8CB
:103C6800D830D7F8D8301BBAC7F8D430D7F8D43002
:103C7800FB62D7F800310433C7F80031D7F80031B8
:103C88001B68C7F8D030D7F8D0301BBAC7F8CC308B
:103C9800D7F8CC303B63D7F800310433C7F800318C
:103CA800D7F800311B68C7F8C830D7F8C8301BBA36
:103CB800C7F8C430D7F8C4307B63D7F80031043371
:103CC800C7F80031D7F800311B68C7F8C030D7F8FB
:103CD800C0301BBAC7F8BC30D7F8BC30BB63D7F8C4
:103CE80000310433C7F80031D7F800311B68C7F832
:103CF800B830D7F8B8301BBAC7F8B430D7F8B430F2
:103D0800FB63D7F800310433C7F80031D7F8003126
:103D18001B68C7F8B030D7F8B0301BBAC7F8AC305A
:103D2800D7F8AC303B6485E04FF40073A7F84A300D
:103D3800D7F800311B68C7F8A830D7F8A8301BBAE5
:103D4800C7F8A430D7F8A4307B62D7F80031043321
:103D5800C7F80031D7F800311B68C7F8A030D7F88A
:103D6800A0301BBAC7F89C30D7F89C30BB62D7F894
:103D780000310433C7F80031D7F800311B68C7F8A1
:103D88009830D7F898301BBAC7F89430D7F89430E1
:103D9800FB62D7F800310433C7F80031D7F8003197
:103DA8001B68C7F89030D7F890301BBAC7F88C302A
:103DB800D7F88C303B63D7F800310433C7F80031AB
:103DC800D7F800311B68C7F88830D7F888301BBA95
:103DD800C7F88430D7F884307B63D7F800310433D0
:103DE800C7F80031D7F800311B68C7F88030D7F81A
:103DF80080301BBAFB67FB6FBB63D7F80031043315
:103E0800C7F80031D7F800311B68BB67BB6F1BBA16
:103E18007B677B6FFB63D7F800310433C7F8003149
:103E2800D7F800311B683B673B6F1BBAFB66FB6E1C
:103E38003B6400BFD7F8FC301B68BB66BB6E1BBA7F
:103E48007B667B6E1A4607F114031A60D7F8FC30BC
:103E58000433C7F8FC30D7F8FC301B683B663B6E70
:103E68001BBAFB65FB6D1A4607F114035A60D7F8B5
:103E7800FC300433C7F8FC30D7F8FC301B68BB654E
:103E8800BB6D1BBA7B657B6D1A4607F114039A60FC
:103E9800D7F8FC300433C7F8FC30D7F8FC301B687F
:103EA8003B653B6D1BBAFB64FB6C1A4607F11403B8
:103EB800DA6007F12403184600F04AF907F10F0306
:103EC8001B78002B03D10423A7F8443002E0002319
:103ED800A7F844303023A7F846308023A7F84830A5
:103EE80007F14403184600F0AFF807F11403184629
:103EF80000F08AF900F0C0F9012000F0CDF90023A4
:103F0800C7F808317FE0D7F810311B68184600F071
:103F1800E5F9D7F810310433C7F81031D7F8103164
:103F28001B68184600F0DAF9D7F810310433C7F8DF
:103F38001031D7F810311B68184600F0CFF9D7F8C0
:103F480010310433C7F81031D7F810311B68184600
:103F580000F0C4F9D7F810310433C7F8103107F16D
:103F6800100300221A60102000F038FB0346C7F83F
:103F7800043107F110031B685A1C07F110031A607B
:103F880007F110031B68B3F5803F03D0D7F804315D
:103F9800002BE8D1D7F80431002B03D0002387F891
:103FA80017312BE0D7F80C4100F0A6F9034623603F
:103FB800D7F80C310433C7F80C31D7F80C4100F0AE
:103FC8009BF903462360D7F80C310433C7F80C314A
:103FD800D7F80C4100F090F903462360D7F80C316C
:103FE8000433C7F80C31D7F80C4100F085F90346C3
:103FF8002360D7F80C310433C7F80C31D7F80831EF
:104008001033C7F80831D7F80821D7F82C319A426D
:1040180004D297F81731002B7FF475AF002000F019
:104028003BF997F81731184607F58E77BD4690BDCE
:1040380080B500AF1020012105F0DCFD1020002123
:1040480005F0D8FD80BD00BF80B483B000AF7860B4
:104058000023C5F206030022C5F20602126822F008
:1040680038021A600023C5F206030022C5F20602D0
:1040780011687A6852880A431A600023C5F2060359
:104088000022C5F20602126822F0C0021A6000235C
:10409800C5F206030022C5F2060211687A68928802
:1040A8000A431A607B685B88202B0BD07B685B888F
:1040B800282B07D07B685B88302B03D07B685B8814
:1040C800382B14D10023C5F206030022C5F20602DC
:1040D800126822F440721A600023C5F20603002217
:1040E800C5F2060211687A68D2880A431A6000236A
:1040F800C5F206030022C5F20602126822F0040285
:104108001A600023C5F206030022C5F206021168F0
:104118007A6812880A431A600C37BD465DF8047B3A
:10412800704700BF80B483B000AF78607B6800221E
:104138001A807B6800225A807B6800229A807B68FC
:104148000022DA800C37BD465DF8047B704700BF5B
:1041580080B483B000AF78600023C5F206037A68A4
:1041680012681A620023C5F206037A6852685A6216
:104178000023C5F206037A6892689A620023C5F2A2
:1041880006037A68D268DA620023C5F206037A6801
:1041980012691A630023C5F206037A6852695A63E2
:1041A8000023C5F206037A6892699A630023C5F270
:1041B80006037A68D269DA630C37BD465DF8047B7A
:1041C800704700BF80B483B000AF78607B6800227E
:1041D8001A607B6800225A607B6800229A607B68BC
:1041E8000022DA607B6800221A617B6800225A612B
:1041F8007B6800229A617B680022DA610C37BD4631
:104208005DF8047B704700BF80B483B000AF78606E
:104218000023C5F206037A6812681A640023C5F2FF
:1042280006037A6852685A640023C5F206037A685E
:1042380092689A640023C5F206037A68D268DA6441
:104248000C37BD465DF8047B704700BF80B483B06F
:1042580000AF78607B6800221A607B6800225A6091
:104268007B6800229A607B680022DA600C37BD46C2
:104278005DF8047B704700BF80B400AF0023C5F22F
:1042880006030022C5F20602126842F480421A6050
:10429800BD465DF8047B704780B483B000AF034629
:1042A800FB71FB79002B0AD00023C5F2060300221C
:1042B800C5F20602126842F400421A6009E00023BF
:1042C800C5F206030022C5F20602126822F4004273
:1042D8001A600C37BD465DF8047B704780B483B024
:1042E80000AF78600023C5F206037A689A600C373D
:1042F800BD465DF8047B704780B400AF0023C5F26B
:104308000603DB681846BD465DF8047B704700BFAE
:1043180080B487B000AF786039600023BB600023A9
:104328007B610023FB740023C5F206030022C5F25B
:104338000602126922F001021A610023C5F206037F
:104348001B6803F00803002B02D011237B6101E0F6
:1043580015237B610023C5F206035A687B69134065
:10436800FB60BB680133BB60BA684FF6FF739A42C3
:1043780002D0FB68012BEDD10023C5F206035A6871
:104388007B691340012B02D00023FB7455E0002306
:10439800C5F206030022C5F20602126922F00202E3
:1043A8001A610023C5F206030022C5F2060212684C
:1043B80022F400421A600023C5F206031B6803F4C6
:1043C8007F727B681A600023C5F206031A6C7B684B
:1043D8005A600023C5F206035A6C7B689A60002372
:1043E800C5F206039A6C7B68DA600023C5F20603FF
:1043F800DA6C7B681A613B681A687B685A613B68AB
:104408005A687B689A613B689A687B68DA613B689E
:10441800DA687B681A623B681A697B685A623B688B
:104428005A697B689A623B689A697B68DA623B687A
:10443800DA697B681A630123FB74FB7C18461C3716
:10444800BD465DF8047B704780B483B000AF7860E8
:104458000023C5F206037A6812681A600023C5F2C1
:1044680006037A6852691A620023C5F206037A685D
:1044780092695A620023C5F206037A68D2699A6281
:104488000023C5F206037A68126ADA620023C5F2CD
:1044980006037A68526A1A630023C5F206037A682B
:1044A800926A5A630023C5F206037A68D26A9A634D
:1044B8000023C5F206037A68126BDA630023C5F29B
:1044C80006037A6852681A640023C5F206037A68FC
:1044D80092685A640023C5F206037A68D2689A641F
:1044E8000023C5F206037A681269DA640023C5F26C
:1044F80006030022C5F20602126842F400421A605E
:104508000C37BD465DF8047B704700BF80B483B0AC
:1045180000AF02460B46FA71BB71BB79002B0AD07B
:104528000023C5F206030022C5F206021169FA79D2
:104538000A431A610BE00023C5F206030022C5F204
:1045480006021169FA79D243D2B20A401A610C37CD
:10455800BD465DF8047B704780B483B000AF024667
:104568000B46FA71BB71BB79002B0AD00023C5F248
:1045780006030022C5F206025169FA790A435A6114
:104588000BE00023C5F206030022C5F206025169BA
:10459800FA79D243D2B20A405A610C37BD465DF867
:1045A800047B704780B485B000AF0346FB710023DD
:1045B800FB730023C5F20603DA69FB791340002B6D
:1045C80002D00123FB7301E00023FB73FB7B184639
:1045D8001437BD465DF8047B704700BF80B485B0D2
:1045E80000AF0346FB710023FB730023BB60FB791C
:1045F80003F02003002B05D00023C5F206039B69B6
:10460800BB6004E00023C5F206035B68BB60FA796F
:10461800BB681340002B02D00123FB7301E0002389
:10462800FB73FB7B18461437BD465DF8047B704767
:1046380090B59BB000AFB9607A603B600346FB73EE
:1046480000237B6100237B65012387F86730BB6803
:104658003B657B683B66BB6FFB650023BB6507F169
:1046680018031846FFF7AEFDFB7B012B02D1002390
:104678003B8701E004233B8710237B878023BB878C
:1046880007F138031846FFF7DFFC3B6D1B68FB6436
:10469800FB6C1BBABB64BB6C3B623B6D04333B6574
:1046A8003B6D1B687B647B6C1BBA3B643B6C7B6219
:1046B80007F118031846FFF74BFDFFF7DDFD012052
:1046C800FFF7EAFD0023BB653AE03B6E1B6818461E
:1046D800FFF704FE3B6E04333B663B6E1B681846CF
:1046E800FFF7FCFD3B6E04333B6600237B61102023
:1046F800FFF774FF03467B657B6901337B617B6948
:10470800B3F5803F02D07B6D002BF0D17B6D002B81
:1047180003D0002387F867300FE0FC6DFFF7ECFD4E
:1047280003462360FB6D0433FB65FC6DFFF7E4FD76
:1047380003462360FB6D0433FB65BB6D0833BB6523
:10474800BA6D3B689A4203D297F86730002BBCD108
:104758000020FFF7A1FD97F8673018466C37BD4673
:1047680090BD00BF90B5A3B000AFB9607A603B6060
:104778000346FB7300233B6100237B67012387F813
:104788008730BB683B673B68C7F88030D7F89C30F8
:10479800FB677B68FB660023BB6707F124031846A9
:1047A800FFF710FDFB7B012B03D10023A7F8443052
:1047B80002E00423A7F844301823A7F846308023E2
:1047C800A7F8483007F144031846FFF73DFC3B6F54
:1047D8001B68BB66BB6E1BBA7B667B6EFB623B6F5E
:1047E80004333B673B6F1B683B663B6E1BBAFB653C
:1047F800FB6D3B6307F124031846FFF7A9FCFB6E2A
:104808001B68BB65BB6D1BBA7B657B6D7B61FB6EF3
:104818000433FB66FB6E1B683B653B6D1BBAFB6490
:10482800FB6CBB6107F114031846FFF7EDFCFFF7BB
:1048380023FD0120FFF730FD0023BB6740E0D7F8D8
:1048480080301B681846FFF749FDD7F880300433DD
:10485800C7F88030D7F880301B681846FFF73EFD50
:10486800D7F880300433C7F8803000233B6110202C
:10487800FFF7B4FE03467B673B6901333B613B6945
:10488800B3F5803F02D07B6F002BF0D17B6F002BFC
:1048980003D0002387F887300FE0FC6FFFF72CFD6B
:1048A80003462360FB6F0433FB67FC6FFFF724FDAF
:1048B80003462360FB6F0433FB67BB6F0833BB679A
:1048C800BA6FD7F898309A4203D297F88730002BFE
:1048D800B5D10020FFF7E0FC97F8873018468C37F1
:1048E800BD4690BD90B5A3B000AFB9607A603B609B
:1048F8000346FB7300237B6100237B67012387F852
:104908008730BB683B677B68C7F88030D7F898303A
:10491800FB670023BB6707F118031846FFF752FC33
:10492800FB7B012B02D100233B8701E004233B875B
:1049380000237B878023BB8707F138031846FFF7DE
:1049480083FB3B6F1B68FB66FB6E1BBABB66BB6ECB
:104958003B623B6F04333B673B6F1B687B667B6E38
:104968001BBA3B663B6E7B623B6F04333B673B6F16
:104978001B68FB65FB6D1BBABB65BB6DBB623B6F00
:1049880004333B673B6F1B687B657B6D1BBA3B65DC
:104998003B6DFB623B6F04333B673B6F1B68FB64FB
:1049A800FB6C1BBABB64BB6C3B633B6F04333B675C
:1049B8003B6F1B687B647B6C1BBA3B643B6C7B6303
:1049C80007F118031846FFF7C3FBFFF755FC012052
:1049D800FFF762FC0023BB6740E0D7F880301B6814
:1049E8001846FFF77BFCD7F880300433C7F88030CF
:1049F800D7F880301B681846FFF770FCD7F880306E
:104A08000433C7F8803000237B611020FFF7E6FDF0
:104A180003467B677B6901337B617B69B3F5803F24
:104A280002D07B6F002BF0D17B6F002B03D00023CB
:104A380087F887300FE0FC6FFFF75EFC03462360C2
:104A4800FB6F0433FB67FC6FFFF756FC03462360DC
:104A5800FB6F0433FB67BB6F0833BB67BA6F3B68F8
:104A68009A4203D297F88730002BB6D10020FFF77F
:104A780013FC97F8873018468C37BD4690BD00BFA9
:104A880090B5ABB000AFB9607A603B600346FB738A
:104A980000233B610023C7F89430012387F8A7302F
:104AA800BB68C7F890303B68C7F8A030D7F8BC306F
:104AB800C7F89C307B68C7F88C300023C7F898305B
:104AC80007F124031846FFF77DFBFB7B012B03D17D
:104AD8000023A7F8443002E00423A7F84430082351
:104AE800A7F846308023A7F8483007F14403184652
:104AF800FFF7AAFAD7F890301B68C7F88830D7F8BC
:104B080088301BBAC7F88430D7F88430FB62D7F8EE
:104B180090300433C7F89030D7F890301B68C7F846
:104B28008030D7F880301BBAFB67FB6F3B63D7F840
:104B380090300433C7F89030D7F890301B68BB67C3
:104B4800BB6F1BBA7B677B6F7B63D7F890300433EE
:104B5800C7F89030D7F890301B683B673B6F1BBA9B
:104B6800FB66FB6EBB63D7F890300433C7F8903010
:104B7800D7F890301B68BB66BB6E1BBA7B667B6E32
:104B8800FB63D7F890300433C7F89030D7F89030EB
:104B98001B683B663B6E1BBAFB65FB6D3B6407F10C
:104BA80024031846FFF7D4FAD7F88C301B68BB6586
:104BB800BB6D1BBA7B657B6D7B61D7F88C3004338A
:104BC800C7F88C30D7F88C301B683B653B6D1BBA37
:104BD800FB64FB6CBB6107F114031846FFF714FB79
:104BE800FFF74AFB0120FFF757FB0023C7F898306F
:104BF8004BE0D7F8A0301B681846FFF76FFBD7F8D3
:104C0800A0300433C7F8A030D7F8A0301B68184686
:104C1800FFF764FBD7F8A0300433C7F8A0300023AF
:104C28003B611020FFF7DAFC0346C7F894303B6974
:104C380001333B613B69B3F5803F03D0D7F894302B
:104C4800002BEED1D7F89430002B03D0002387F83F
:104C5800A73015E0D7F89C40FFF74EFB03462360CA
:104C6800D7F89C300433C7F89C30D7F89C40FFF73E
:104C780043FB03462360D7F89C300433C7F89C30C5
:104C8800D7F898300833C7F89830D7F89820D7F86D
:104C9800B8309A4203D297F8A730002BA9D1002048
:104CA800FFF7FAFA97F8A7301846AC37BD4690BD1B
:104CB80080B500AF4FF00050012104F0EBFF4FF03A
:104CC8000050002104F0E6FF80BD00BF80B485B02D
:104CD80000AF786039600023FB600023BB604FF4AD
:104CE800E843C4F200031B68FB607B6840F6FE7271
:104CF80002FA03F3DB43FA681340FB603B681A6867
:104D08003B685B681A433B689B681A433B68DB68EF
:104D18001343BB607B68BA6802FA03F3FA6813436B
:104D2800FB604FF4E843C4F20003FA681A601437D2
:104D3800BD465DF8047B704780B483B000AF7860EF
:104D48007B6800221A607B6800225A607B68002218
:104D58009A607B680022DA600C37BD465DF8047BF8
:104D6800704700BF80B483B000AF78600B46FB701B
:104D7800FB78002B0FD04FF4E843C4F200034FF444
:104D8800E842C4F2000211687A68012000FA02F2CF
:104D98000A431A600FE04FF4E843C4F200034FF4EB
:104DA800E842C4F2000211687A68012000FA02F2AF
:104DB800D2430A401A600C37BD465DF8047B704741
:104DC80080B483B000AF78600B46FB70FB78002B93
:104DD80010D04FF4E843C4F200034FF4E842C4F2A1
:104DE800000251687A681209012000FA02F20A43A7
:104DF8005A6010E04FF4E843C4F200034FF4E8426D
:104E0800C4F2000251687A681209012000FA02F21D
:104E1800D2430A405A600C37BD465DF8047B7047A0
:104E280080B483B000AF0346FB71FB79002B0CD034
:104E38004FF4E843C4F200034FF4E842C4F200021E
:104E4800526842F003025A600BE04FF4E843C4F2A0
:104E580000034FF4E842C4F20002526822F0030251
:104E68005A600C37BD465DF8047B704780B485B046
:104E780000AFF860B9601346FB71FB79002B0FD0C7
:104E88004FF4E843C4F200034FF4E842C4F20002CE
:104E98001168FA68B86800FA02F20A431A600FE06B
:104EA8004FF4E843C4F200034FF4E842C4F20002AE
:104EB8001168FA68B86800FA02F2D2430A401A6028
:104EC8001437BD465DF8047B704700BF80B485B0D9
:104ED80000AF78600B467B800023FB604FF4E8430B
:104EE800C4F20003FB60FA687B6813440833FB6074
:104EF800FB687A881A601437BD465DF8047B7047F2
:104F080080B485B000AF78600B467B800023FB60DF
:104F18004FF4E843C4F20003FB60FA687B6813446B
:104F28001433FB60FB687A881A601437BD465DF855
:104F3800047B704780B485B000AF786013460A469A
:104F48007A803B800023FB600023BB607B68082BD2
:104F580005D17B881A023B881343FB6004E07B88F9
:104F68001A043B881343FB604FF4E843C4F2000380
:104F7800BB607A68BB6813442033BB60BB68FA68BF
:104F88001A601437BD465DF8047B704780B485B05D
:104F980000AF78600023FB604FF4E843C4F20003DD
:104FA800FB607B689A08FB6813442C33FB60FB6842
:104FB8001B689BB218461437BD465DF8047B7047E2
:104FC80080B483B000AF78600B46FB70FB78002B91
:104FD80010D04FF4E843C4F200034FF4E842C4F29F
:104FE800000211687A684FF4805000FA02F20A430E
:104FF8001A6010E04FF4E843C4F200034FF4E842AB
:10500800C4F2000211687A684FF4805000FA02F284
:10501800D2430A401A600C37BD465DF8047B7047DE
:1050280080B485B000AFF860B9601346FB71FB79B6
:10503800002B0FD04FF4E843C4F200034FF4E842CA
:10504800C4F200021168FA68B86800FA02F20A436A
:105058001A600FE04FF4E843C4F200034FF4E8424B
:10506800C4F200021168FA68B86800FA02F2D24382
:105078000A401A601437BD465DF8047B704700BFCC
:1050880080B485B000AF786039600023FB734FF4BB
:10509800E843C4F200035A6B7B68396801FA03F3EA
:1050A8001340002B02D00123FB7301E00023FB73A4
:1050B800FB7B18461437BD465DF8047B704700BF7C
:1050C80080B483B000AF786039604FF4E843C4F22D
:1050D80000037A68396801FA02F25A630C37BD4650
:1050E8005DF8047B704700BF80B485B000AF78607E
:1050F80039600023FB730023BB604FF4E843C4F21C
:1051080000031A687B68396801FA03F31340BB602F
:105118004FF4E843C4F200035A6B7B68396801FA1C
:1051280003F31340002B05D0BB68002B02D00123EA
:10513800FB7301E00023FB73FB7B18461437BD4665
:105148005DF8047B704700BF80B483B000AF78601F
:1051580039604FF4E843C4F200037A68396801FA09
:1051680002F25A630C37BD465DF8047B704700BFF6
:1051780080B400AF4FF40053CEF204031B681B0C3D
:105188001846BD465DF8047B704700BF80B400AF89
:105198004FF40053CEF204031B68C3F30B03184605
:1051A800BD465DF8047B704780B483B000AF78607B
:1051B8000B46FB70FB78002B0CD04FF40053CEF25B
:1051C80004034FF40052CEF2040251687A680A438D
:1051D8005A600CE04FF40053CEF204034FF400522F
:1051E800CEF2040251687A68D2430A405A600C37FA
:1051F800BD465DF8047B704780B483B000AF78602B
:105208000B46FB70FB78002B0CD04FF40053CEF20A
:1052180004034FF40052CEF2040291687A680A43FC
:105228009A600CE04FF40053CEF204034FF400529E
:10523800CEF2040291687A68D2430A409A600C3729
:10524800BD465DF8047B704780B483B000AF7860DA
:105258000B46FB70FB78002B0CD04FF40053CEF2BA
:1052680004034FF40052CEF20402D1687A680A436C
:10527800DA600CE04FF40053CEF204034FF400520E
:10528800CEF20402D1687A68D2430A40DA600C3759
:10529800BD465DF8047B704780B400AF0023C5F2BB
:1052A800050300221A600023C5F205030022DA6014
:1052B8000023C5F205031F225A610023C5F2050326
:1052C80000229A610023C5F205030022DA61002357
:1052D800C5F2050300221A620023C5F20503002265
:1052E8005A62BD465DF8047B704700BF80B485B044
:1052F80000AF78600023FB600023C5F2050300229D
:10530800C5F20502126822F4804222F001021A60F6
:105318000023C5F205031B68FB60FB6823F47F6369
:1053280023F00203FB607B681A887B685B88134361
:105338009AB27B689B8813439AB27B68DB881343D5
:105348009AB27B681B8913439AB27B685B891343C3
:105358009AB27B689B8913439BB2FA681343FB603C
:105368000023C5F20503FA681A601437BD465DF8D4
:10537800047B704780B483B000AF78607B680022FC
:105388001A807B6800225A807B6800229A807B689A
:105398000022DA807B6800221A817B6800225A8109
:1053A8007B6800229A810C37BD465DF8047B704704
:1053B80080B483B000AF78600023C5F205037A6833
:1053C800528811467A68128812040A431A62002326
:1053D800C5F205037A68D28811467A689288120461
:1053E8000A435A620C37BD465DF8047B704700BF1C
:1053F80080B483B000AF0346FB71FB79002B0AD061
:105408000023C5F205030022C5F20502126842F026
:1054180004021A6009E00023C5F205030022C5F260
:105428000502126822F004021A600C37BD465DF8C6
:10543800047B704780B483B000AF78600023C5F266
:1054480005037A68127811467A6852781202114375
:105458007A689278120411437A68D27812060A435D
:105468009A610C37BD465DF8047B704780B483B001
:1054780000AF0346FB71FB79002B0AD00023C5F26D
:1054880005030022C5F20502126842F008021A60FC
:1054980009E00023C5F205030022C5F205021268DF
:1054A80022F008021A600C37BD465DF8047B70478D
:1054B80080B483B000AF0346FB71FB79002B0AD0A0
:1054C8000023C5F205030022C5F20502126842F462
:1054D80080421A6009E00023C5F205030022C5F2E4
:1054E8000502126822F480421A600C37BD465DF846
:1054F800047B704780B483B000AF0346FB71FB792F
:10550800002B0AD00023C5F205030022C5F20502CC
:10551800126842F001021A6009E00023C5F205038F
:105528000022C5F20502126822F001021A600C3747
:10553800BD465DF8047B704780B400AF0023C5F218
:1055480005039B6A1846BD465DF8047B704700BF9B
:1055580080B483B000AF02460B46FA807B717B793A
:10556800002B0AD00023C5F205030022C5F205026C
:10557800D168FA880A43DA600BE00023C5F2050314
:105588000022C5F20502D168FA88D24392B20A40D5
:10559800DA600C37BD465DF8047B704780B487B08D
:1055A80000AF0346FB800023FB7500233B61FB88AB
:1055B8001B0B9BB2FB60FB68012B05D10023C5F2D6
:1055C80005039B683B610DE0FB68022B05D10023B6
:1055D800C5F205035B683B6104E00023C5F20503DF
:1055E8001B693B61FA883B691340002B02D00123F9
:1055F800FB7501E00023FB75FB7D18461C37BD4693
:105608005DF8047B704700BF80B483B000AF0346E9
:10561800FB800023C5F20503FA885A610C37BD46A2
:105628005DF8047B704700BF80B485B000AF0346C7
:10563800FB800023FB730023BB600023C5F2050336
:105648001A69FB881340BB60BB68002B02D001239A
:10565800FB7301E00023FB73FB7B18461437BD4640
:105668005DF8047B704700BF80B483B000AF034689
:10567800FB800023C5F20503FA885A610C37BD4642
:105688005DF8047B704700BF80B483B000AF7860DA
:105698007B681B6823F001027B681A607B68002224
:1056A8001A607B6800225A607B6800229A607B68D7
:1056B8000022DA607B6800221A617B6821225A6125
:1056C8007A6846F21003C4F202039A4206D14FF4F4
:1056D800C043C4F202033D229A60E6E07A6846F2CB
:1056E8002803C4F202039A4207D14FF4C043C4F21C
:1056F80002034FF474629A60D7E07A6846F2400376
:10570800C4F202039A4207D14FF4C043C4F2020321
:105718004FF474129A60C8E07A6846F25803C4F2EB
:1057280002039A4207D14FF4C043C4F202034FF078
:1057380074629A60B9E07A6846F27003C4F20203B0
:105748009A4208D14FF4C043C4F202033D22C2F288
:105758000002DA60A9E07A6846F28803C4F202031C
:105768009A4209D14FF4C043C4F202034FF4746261
:10577800C2F20002DA6098E07A6846F2A003C4F246
:1057880002039A4208D14FF4C043C4F20203002234
:10579800C2F23D02DA6088E07A6846F2B803C4F2E1
:1057A80002039A4207D14FF4C043C4F202034FF0F8
:1057B8003D52DA6079E07A6846F21043C4F2020397
:1057C8009A4206D14FF4C843C4F202033D229A60BC
:1057D8006BE07A6846F22843C4F202039A4207D182
:1057E8004FF4C843C4F202034FF474629A605CE059
:1057F8007A6846F24043C4F202039A4207D14FF452
:10580800C843C4F202034FF474129A604DE07A68F8
:1058180046F25843C4F202039A4207D14FF4C843F0
:10582800C4F202034FF074629A603EE07A6846F26E
:105838007043C4F202039A4208D14FF4C843C4F239
:1058480002033D22C2F20002DA602EE07A6846F2D4
:105858008843C4F202039A4209D14FF4C843C4F200
:1058680002034FF47462C2F20002DA601DE07A6843
:1058780046F2A043C4F202039A4208D14FF4C84347
:10588800C4F202030022C2F23D02DA600DE07A6837
:1058980046F2B843C4F202039A4206D14FF4C84311
:1058A800C4F202034FF03D52DA600C37BD465DF892
:1058B800047B704780B485B000AF786039600023FE
:1058C800FB607B681B68FB60FA6848F23F03CFF215
:1058D8001C031340FB603B681A683B68DB681A438B
:1058E8003B685B691A433B689B691A433B68DB6901
:1058F8001A433B681B6A1A433B685B6A1A433B6856
:105908009B6A1A433B685B6B1A433B689B6B134368
:10591800FA681343FB607B68FA681A607B685B6906
:10592800FB60FB6823F00703FB603B68DA6A3B68AF
:105938001B6B1343FA681343FB607B68FA685A6170
:105948003B681A697B685A603B685A687B689A604A
:105958003B689A687B68DA601437BD465DF8047B5B
:10596800704700BF80B483B000AF78607B680022C6
:105978001A607B6800225A607B6800229A607B6804
:105988000022DA607B6800221A617B6800225A6173
:105998007B6800229A617B680022DA617B680022BA
:1059A8001A627B6800225A627B6800229A627B68CE
:1059B8000022DA627B6800221A637B6800225A633D
:1059C8007B6800229A630C37BD465DF8047B7047FC
:1059D80080B483B000AF78600B46FB70FB78002B77
:1059E80006D07B681B6843F001027B681A6005E0FB
:1059F8007B681B6823F001027B681A600C37BD4680
:105A08005DF8047B704700BF80B483B000AF786056
:105A180039603B68002B06D07B681B6843F4004262
:105A28007B681A6005E07B681B6823F400427B688A
:105A38001A600C37BD465DF8047B704780B483B0AC
:105A480000AF786039603B68002B06D07B681B6824
:105A580043F020027B681A6005E07B681B6823F02E
:105A680020027B681A600C37BD465DF8047B7047DE
:105A780080B483B000AF78600B467B807A887B68FF
:105A88005A600C37BD465DF8047B704780B483B01C
:105A980000AF78607B685B689BB218460C37BD46E0
:105AA8005DF8047B704700BF80B485B000AFF86034
:105AB800B9607A607B68002B06D0FB681B6843F4EA
:105AC8000022FB681A6005E0FB681B6823F40022CB
