:020000040800F2
:10000000FFFF00203D720008351600084516000865
:10001000591600086D16000871160008000000004F
:10002000000000000000000000000000751600083D
:1000300079160008000000007D160008D5020008AF
:1000400085720008857200088572000885720008B4
:1000500085720008857200088572000885720008A4
:100060008572000885720008857200088572000894
:100070008572000885720008857200088572000884
:100080008572000885720008857200080000000073
:100090000000000000000000000000008572000861
:1000A0008572000885720008857200088572000854
:1000B0008572000825060008857200088572000810
:1000C0008572000885720008857200088572000834
:1000D0008572000885720008857200080000000023
:1000E0008572000885720008857200080000000013
:1000F0000000000000000000000000008572000801
:1001000000000000857200088572000885720008F2
:1001100000000000000000000000000000000000DF
:1001200085720008857200088572000885720008D3
:1001300085720008000000000000000000000000C0
:1001400000000000000000000000000085720008B0
:1001500085720008857200088572000885720008A3
:100160008572000885720008000000000000000091
:10017000000000000000000000000000000000007F
:08018000000000008572000878
:1001880008B540F6F800074BC2F200001B1A062B10
:1001980000D808BD40F20003C0F20003002BF8D0DD
:1001A8009847F6E7FB08002008B540F6F80040F647
:1001B800F803C2F20003C2F200001B1A9B1003EB03
:1001C800D373591000D108BD40F20002C0F20002FA
:1001D800002AF8D09047F6E710B540F6F804C2F2C6
:1001E8000004237873B9FFF7CBFF40F20003C0F295
:1001F80000032BB14EF2EC00C0F60000AFF3008014
:100208000123237010BD00BF08B540F20003C0F2FF
:1002180000034BB14EF2EC0040F6FC01C0F60000C2
:10022800C2F20001AFF3008040F6F400C2F2000011
:1002380003682BB140F20003C0F2000303B19847F2
:10024800BDE80840B0E700BF134B002B08BF114BB7
:100258009D46A3F5803A00218B460F461148124A65
:10026800121A06F0BBFE0D4B002B00D098470C4B22
:10027800002B00D098470020002104000D000B48F7
:1002880006F04EFE06F07CFE2000290006F0CEFFA8
:1002980006F04CFE0000080000000000000000000E
:1002A80000000000F8080020C00F0020556F00086B
:1002B80082B040F614120190019BC2F20002136052
:1002C8001368002BFCD102B0704700BF40F614132E
:1002D800C2F200035A6801325A601A6812B11A68E9
:1002E800013A1A60704700BF0138C0B202289DBFAA
:1002F8004EF20813C0F6000353F820004FF4805064
:10030800704700BF0138C0B202289FBF4EF20813E1
:10031800C0F6000303EB8000C06888BF0220704766
:100328000138C0B202289BBF4EF20813C0F6000382
:100338004FF4805133F820104FF44060C4F20200AB
:1003480001F050B90138C0B202289BBF4EF2081321
:10035800C0F600034FF4805133F820104FF440608A
:10036800C4F2020001F040B90138C0B2022808B551
:100378009DBF4EF20813C0F6000303EB8000022174
:1003880098BF81894FF44060C4F2020001F016F969
:1003980008BD00BF70B50B780D4604466BB12388C5
:1003A8005B06FCD52E46204616F8011B02F0C4FC5D
:1003B8002B786B780BB13546F1E770BD2DE9F04726
:1003C8004FF4006486B0C4F202040420012101F055
:1003D80033FB08222046062101F014F901254023A9
:1003E80002262046694600244FF4A0580093C4F220
:1003F80001088DF804608DF805608DF806408DF8C9
:10040800075001F05FF82946202001F04DFB4FF01E
:1004180008094FF4E13A404602A9ADF81440ADF896
:100428001040ADF80E40ADF80C40CDF808A0ADF87E
:100438001290274602F0C4FB4046294602F048FCC9
:10044800C4F202072846294601F0F6FA0722384680
:10045800314601F0D7F84FF48848042338466946F6
:100468000093C4F200088DF804608DF806408DF8FA
:1004780007508DF8056001F025F829464FF4003043
:1004880001F004FB0DEB09014046CDF808A0ADF8DA
:100498001440ADF81290ADF81040ADF80E40ADF82C
:1004A8000C4002F08DFB4046294602F011FC06B0D4
:1004B800BDE8F08738B500F045FC40F21403C2F2FD
:1004C800000344F6D3521B68C1F26202A2FB031276
:1004D8009209013AB2F1807F0FD24EF210034FF425
:1004E8006D41CEF20003CEF20001F0250024072072
:1004F8005A6081F823509C60186038BD70B54FF47D
:10050800406482B0C4F202040820012101F094FA88
:100518004FF47046012302222046694600258DF8D3
:1005280004308DF807308DF8052000968DF80650B8
:1005380000F0C8FF20464FF4005101F055F820465E
:100548004FF4804101F050F820464FF4805101F0FB
:100558004BF820464FF4004101F046F802B070BD58
:1005680070B54FF480708CB0012101F09DFA042021
:10057800012101F061FA4FF40060002410220323E6
:100588006946C4F202004FF4005500928DF8043019
:10059800C4F201058DF8074000F094FF00F018FC44
:1005A80002A8012602940394049400F053FC284600
:1005B80006A906948DF81C408DF81D4008940994EE
:1005C8000A948DF82C6000F011FC2846324602236C
:1005D8000E2100F093FC2846314600F057FC0CB081
:1005E80070BD00BF10B5082082B0012101F024FAC7
:1005F8004FF4406000220223C4F202007E246946C0
:1006080000948DF804208DF806208DF807308DF8B9
:10061800053000F057FF02B010BD00BF4FF48060F6
:1006280008B5C4F20000012102F022F900B908BDA2
:100638004FF48060C4F20000012102F025F9BDE802
:10064800084002F0FDBD00BF70B5012184B0022052
:1006580001F01CFA012402231D2268468DF80020AF
:100668008DF801308DF802308DF8034001F00EF856
:100678004FF46143CEF200034FF48065C4F20005E5
:10068800102283F81D232846002340F6330201A9CF
:1006980040F2CF76ADF80C30ADF80630ADF8042056
:1006A800029601F0CBFB28462146224602F0CAF802
:1006B8002846214601F070FC04B070BD4FF46D432C
:1006C800CEF20003D3F8882042F47002C3F88820E1
:1006D800704700BFFDEEC07A9FED0E7AF8EEE76A2C
:1006E80000B530EE660A9BB020EE070A4EF6F80118
:1006F800BDEEC00A17EE902A10EE103A01A8002BA2
:10070800B8BF5B42C0F6000108F05CFC01A81BB052
:100718005DF804FB00401C4640F6403010B5C2F2BC
:10072800000002F03BFFDFED0E7A20EE270A40F6CC
:100738007034BDEEC00AC2F200044EF60011204625
:10074800C0F6000110EE102A08F03CFC4FF4884077
:100758002146C4F20000BDE81040FFF71BBE00BFF1
:100768000000C84208B5022005F016F9FFF7A2FEFE
:100778004FF46D43CEF20003D3F8882042F47002A0
:10078800C3F88820FFF7BAFEFFF72CFFFFF716FE25
:10079800FFF7E6FEFFF758FF0220BDE8084005F026
:1007A80011B900BF002008B505F0F6F84FF4005065
:1007B800C4F2010000F0EEFB4FF40050C4F2010057
:1007C800022100F0CBFC0028F6D04FF40050C4F210
:1007D800010000F00FFC05F097FB0BA3D3E9002301
:1007E80005F008FC05F0C8FE00EE100A40F640309F
:1007F800C2F2000002F00AFE0020BDE8084005F041
:10080800E1B800BFAFF300807B14AE47E17A843FC4
:1008180070B504464FF4A0500D4616462146C4F262
:100828000100FFF7B7FD0EB965B970BD4FF4A050D0
:100838004EF60811C4F20100C0F60001FFF7AAFD48
:10084800002DF2D0204608F043FC00210246204645
:10085800BDE8704006F0C2BB01210A46FFF7D8BFC9
:1008680040F61413C2F200035868704770B50E467C
:100878002DED028B00284DD04369D0ED067A13ED9B
:10088800017A53ED028A13ED038A77EEE88A37EE90
:10089800C88A37EEC77A40F61413C2F2000383ED14
:1008A800027A17EE100AC3ED038A83ED048A05F075
:1008B8004DFB1BA3D3E9002305F09CFB044618EE6F
:1008C800900A0D4605F042FB17A3D3E9002305F073
:1008D80091FB02460B462046294605F0D9F9044605
:1008E80018EE100A0D4605F031FB0022002305F032
:1008F80081FB02460B462046294605F0C9F905F05A
:100908003BFEBDEC028B00EE100A3046BDE870409D
:1009180002F094BDBDEC028B70BD00BFAFF3008048
:10092800CDCCCCCCCCCC134033333333333310C0A1
:100938002DE9F00100285ED040F61418C2F2000834
:1009480002690023C8F8143008F1DC0408F1180320
:10095800043A52F8045D43F8045BA342F9D14369B1
:10096800DFF898C053F8042C3225ACF12803C8F8F6
:10097800DC5043F8042B6345FBD1204F204E012364
:10098800A7F12805C8F8DC301E4BDFED1F7A324688
:10099800B3EC017AF2EC016AA342E6EE877AF7D16A
:1009A800B5EC017A77EE877AAC4506F1C406E7EC38
:1009B800017AE9D1154B114A3224DFED137A90ED13
:1009C800066AC8F8304103F12800B2EC017AF3EC6A
:1009D800016A36EE477A8342E6EE877AF5D10B2331
:1009E800C8ED057AC8F8DC300846B0EE670ABDE8FD
:1009F800F00102F023BDBDE8F00170471C0A002099
:100A080020E100082C09002000000000C8E80008C8
:100A180008B5012004F0C0FF9FED0B0AC82140F67D
:100A28004030C2F20000F0EE400A0A46B2EE041A64
:100A380002F054FC40F61413C2F2000301205B6874
:100A4800BDE8084004F0BEBF000000004FF440605D
:100A580070B5C4F20200022100F0B0FD40F6141592
:100A6800C2F2000500B30023C5F834314FF44060EA
:100A7800C4F20200042100F0A1FD40F64034C2F2A5
:100A88000004002360B1C4F2F013A3614FF4406086
:100A9800C4F20200082100F091FD064640B1FEE7CD
:100AA800C4F22013A361F1E70123C5F83431DDE76F
:100AB8006369D5F8345113ED010AFFF70BFE4EF6C2
:100AC8000C11034640F670302A46C0F60001C2F207
:100AD800000008F077FA40F6703032460121C2F281
:100AE8000000FFF795FE94ED060AFFF7F3FD4EF6BA
:100AF8001411024640F67030C0F60001C2F2000040
:100B080008F060FA40F6703032460121C2F2000067
:100B1800FFF77EFEE36813ED020AFFF7DBFD0146EF
:100B280040F67030C2F2000008F074FA40F67030F7
:100B38000121C2F200000A46BDE87040FFF768BE16
:100B480010B540F61414C2F20004D4F8343123B1BD
:100B5800D4F83431012B14D010BD0A2004F01CFF46
:100B680040F6403040F66431C2F20000C2F20001A3
:100B7800FFF77CFE0A2004F025FFD4F83431012B5E
:100B8800EAD10B2004F008FF40F6403040F664310B
:100B9800C2F20000C2F20001FFF7CAFE0B20BDE856
:100BA800104004F00FBF00BF10B5042040F64034D9
:100BB80004F0F2FEC2F2000440F664302146C2F2AC
:100BC800000002F047FC2046F2EE040A9FED081AE6
:100BD800DFED081ABAEE040A02F052FC204602F0D1
:100BE800DDFCFFF799FD0420BDE8104004F0EABEE3
:100BF80000000000000020424FF4406008B5C4F235
:100C080002004FF4804100F0EDFC9FED030AFFF76E
:100C180083FD04F0EDFDFEE700000000AFF3008067
:100C28004FF46D42CEF200024FF46053D2F88810B0
:100C3800C4F2020341F47001C2F888101968002256
:100C480041F0010119609A60186843F2100120F020
:100C58008470C2F2004120F480301860596019682D
:100C680082B021F480211960DA60009201921A683A
:100C780042F480321A601A4603E0009BB3F5A04F95
:100C880009D0136803F400330193009B01330093E8
:100C9800019B002BF1D04FF46053C4F202031B6890
:100CA80013F4003318BF01230193019B012B08D0D3
:100CB8004FF46D43CEF200034FF000629A6002B029
:100CC80070474FF46053C4F202034FF4E042196CCA
:100CD800C4F2000241F080511964116841F44041A6
:100CE80011609A689A609A6842F400429A6099681A
:100CF80045F2084241F4A051C0F2417299605A602D
:100D08001A6842F080721A6019460A684FF46053F4
:100D18009201C4F20203F8D54FF47052C4F20202F1
:100D280040F2056111609A6822F003029A609A689D
:100D380042F002029A609A6802F00C02082AFAD17C
:100D4800B6E700BF4FF46053C4F202039A6802F09A
:100D58000C02042A36D0082A12D04FF41051C0F2DF
:100D6800F4014FF46052C4F2020240F204039268A4
:100D7800C2F20003C2F303129A5CD14019617047B2
:100D880058685A6810F4800F586815BF4FF490538C
:100D98004FF41053C0F27A03C0F2F40302F03F029A
:100DA800B3FBF2F14FF46053C4F20203C0F38810AE
:100DB8005B68C3F30143013301FB00F15B00B1FB46
:100DC800F3F1CEE74FF49051C0F27A01C9E700BFC2
:100DD80008B54FF48070012100F0ACFE4FF480702C
:100DE8000021BDE8084000F0A5BE00BFF0B4466889
:100DF8000A680B790F698D684C79D1F80CC026F018
:100E0800407626F48076324342EA032242608668BE
:100E18004FF2FD734CEA0702CCF2FF032A4333403A
:100E2800134343EA440383600B7DC26A013BDBB290
:100E380022F4700242EA0353C362F0BC704700BF59
:100E48000023012202750360037143718360C3604C
:100E5800036170474FF40C5203684168C4F2010201
:100E680030B48568C4685068194343F2E0032943E5
:100E7800CFF6FC73214303400B43536030BC7047EB
:100E88000023036043608360C3607047836819B9B7
:100E980023F001038360704743F0010383607047C8
:100EA800436823F4400323F40073194341607047F7
:100EB80041628262704700BF436823F01F031943F1
:100EC800416070474FF40C53C4F201035A6818B9D3
:100ED80022F400025A60704742F400025A607047D8
:100EE8004FF40C53C4F201035A6818B922F4800273
:100EF8005A60704742F480025A607047092970B4FA
:100F08001ED9A1F10A0404EB4404C5680726A640CB
:100F180003FA04F425EA06032343062AC3601CD90E
:100F28000C2A28D90D3AC46A02EB82021F23934087
:100F380024EA030301FA02F21A43C26270BC704742
:100F480001EB410405690726A64003FA04F425EAE3
:100F580006032343062A0361E2D8013A446B02EBF5
:100F680082021F23934024EA030301FA02F21A4380
:100F7800426370BC7047073A046B02EB82021F237E
:100F8800934024EA030301FA02F21A43026370BC95
:100F9800704700BF836843F080438360704700BF99
:100FA8008068C0F380707047836819B923F4806340
:100FB8008360704743F4806383607047836819B91E
:100FC80023F002038360704743F002038360704795
:100FD8004368013923F4604343EA41314160704773
:100FE800436819B923F400634360704743F400630E
:100FF80043607047C06C80B2704700BF42F208334C
:10100800C4F2010318687047836819B923F4807320
:101018008360704743F4807383607047836819B9AD
:1010280023F400738360704743F400738360704750
:101038004FF40C53C4F201035A6818B922F4005251
:101048005A60704742F400525A607047092970B4D8
:101058001BD801EB410405690726A64003FA04F4EE
:1010680025EA060323430361836B0232C3F3015469
:10107800121BD2B202EB82021F24944023EA04031B
:1010880091400B43836370BC7047A1F10A0404EBE1
:101098004404C5680726A64003FA04F425EA0603B3
:1010A8002343C360E0E700BF836B013923F4401397
:1010B80043EA01518163704782B000230193019094
:1010C800019B19440191019B1A6002B0704700BF4F
:1010D800836823F47023194381607047836823F47D
:1010E8004013194381607047836843F48003836029
:1010F800704700BF8068C0F380507047436819B9D3
:1011080023F480634360704743F48063436070470F
:10111800436819B923F480534360704743F48053FC
:101128004360704782B0002301930190019B2833EC
:1011380019440191019B186880B202B0704700BF42
:101148000123C9B203FA01F143681AB923EA01017C
:101158004160704719434160704700BF03681942F6
:101168000CBF002001207047C9430160704700BFD1
:101178004368006810EA112007D0C9B2012202FAB8
:1011880001F119420CBF0020012070476FEA1121BC
:101198000160704708B54FF00050012100F0BCFC19
:1011A8004FF000500021BDE8084000F0B5BC00BF7A
:1011B80070B491E860004FF4E8438C68CA68C4F2E0
:1011C800000346EA05010C431D6840F6FE762243FB
:1011D800864002FA00F025EA06021043186070BC47
:1011E800704700BF0023036043608360C36070479B
:1011F8004FF4E843C4F2000339B91A68012101FA2F
:1012080000F022EA0000186070471A68012101FA0C
:1012180000F01043186070474FF4E843C4F200032D
:10122800000939B95A68012101FA00F022EA0000E0
:10123800586070475A68012101FA00F0104358605D
:10124800704700BF4FF4E843C4F200035A6818B966
:1012580022F003025A60704742F003025A60704756
:101268004FF4E843C4F20003814022B91A6822EA25
:101278000101196070471A6811431960704700BF6F
:1012880082B04FF4E843C4F20003002201920193B4
:10129800019B083318440190019B196002B0704704
:1012A80082B04FF4E843C4F2000300220192019394
:1012B800019B143318440190019B196002B07047D8
:1012C80047F220430828C4F200030CBF42EA012178
:1012D80042EA0141C150704782B04FF4E843C4F27A
:1012E8000003002201920193019B2C3303EB900031
:1012F8000190019B186880B202B070474FF4E84330
:10130800C4F2000341B91A684FF4805101FA00F0A1
:1013180022EA0000186070471A684FF4805101FAF9
:1013280000F01043186070474FF4E843C4F200031C
:10133800814022B91A6822EA0101196070471A68C7
:1013480011431960704700BF4FF4E843C4F200032B
:1013580081405B6B19420CBF00200120704700BF21
:101368004FF4E843C4F2000381405963704700BF5B
:101378004FF4E843C4F2000381401A68586B0840F0
:1013880003D011420CBF0020012070474FF4E843FE
:10139800C4F2000381405963704700BF08B50023B9
:1013A800C4F2020398423CD04FF48063C4F20203B3
:1013B800984240D04FF40063C4F20203984244D0EC
:1013C8004FF44063C4F20203984248D04FF480536C
:1013D800C4F2020398424CD04FF4A053C4F2020363
:1013E800984250D04FF4C053C4F20203984254D0EC
:1013F8004FF4E053C4F20203984258D04FF400531C
:10140800C4F20203984200D008BD4FF48070012155
:1014180000F058FB4FF480700021BDE8084000F050
:1014280051BB0120014600F04DFB01200021BDE821
:10143800084000F047BB0220012100F043FB0220D6
:101448000021BDE8084000F03DBB0420012100F068
:1014580039FB04200021BDE8084000F033BB082018
:10146800012100F02FFB08200021BDE8084000F012
:1014780029BB1020012100F025FB10200021BDE828
:10148800084000F01FBB2020012100F01BFB20209A
:101498000021BDE8084000F015BB4020012100F004
:1014A80011FB40200021BDE8084000F00BBB802064
:1014B800012100F007FB80200021BDE8084000F072
:1014C80001BB00BF00222DE9F00713460E68012773
:1014D8004FF0030804E00133102B02F102022ED072
:1014E80007FA03F404EA0605A542F4D1D0F80090FF
:1014F80091F804C008FA02F4E44304EA0909C0F8C0
:101508000090D0F800900CFA02FA0CF1FF3C5FFA58
:101518008CFC4AEA0909BCF1010FC0F8009011D906
:10152800C56891F807C02C40C460C5680CFA02F47D
:1015380001332C43102BC46002F10202D0D1BDE864
:10154800F0077047D0F808A091F8059091F806C008
:1015580004EA0A0AC0F808A0D0F808A009FA02F9B3
:1015680049EA0A09C0F80890D0F8049029EA050564
:10157800456045680CFA03FC1FFA8CFC4CEA05052B
:101588004560CDE700234FF6FF7202600371437197
:101598008371C371704700BF82B04FF480330193E9
:1015A800019B0B430193019BC361C161019BC36113
:1015B800C3690193C369019302B070470369194273
:1015C8000CBF002001207047006980B2704700BF3F
:1015D800436919420CBF002001207047406980B25E
:1015E800704700BF01837047418370470AB9418340
:1015F80070470183704700BF416170474369594094
:1016080041617047CB0800EB830001F0070110B47B
:101618008900046A0F238B4024EA03030362036AE8
:101628005DF8044B8A401343036270474EF6181066
:10163800C0F6000000210122FFF7EAB84EF6241098
:1016480008B5C0F6000000210122FFF7E1F8FEE727
:101658004EF6381008B5C0F6000000210122FFF749
:10166800D7F8FEE7FEE700BFFEE700BF704700BF00
:10167800704700BF704700BF4FF46D4340F0BF6034
:10168800CEF2000340F40030D8607047C37870B4DD
:101698007BB902784FF461435109203102F01F02EF
:1016A8000120CEF2000300FA02F243F8212070BCB8
:1016B80070474FF46D43CEF200034678DA688478B9
:1016C8000378D243C2F30222C2F104010F25C9B242
:1016D80006FA01F145FA02F2C9B222400A4303F1BF
:1016E800604303F561431201D2B283F80023027804
:1016F8004FF4614302F01F0101205209CEF20003AA
:1017080000FA01F143F8221070BC704721F06041E3
:101718004FF46D4321F07F01CEF200030843986037
:10172800704700BF4FF46D43CEF200031A6919B930
:1017380022EA00001861704710431861704700BF23
:101748004EF21003CEF2000304281A680CBF42F0D0
:10175800040222F004021A60704700BF4FF460537D
:10176800C4F202030022196841F0010119609A606D
:10177800186843F2100120F08470C2F2004120F48E
:10178800803018605960196821F480211960DA6086
:10179800704700BF43F60203C4F2020300221A7026
:1017A8001870704782B000234FF460520193C4F25E
:1017B800020213689B030FD4019B01330193019B21
:1017C800B3F5A04FF5D14FF46053C4F20203186883
:1017D800C0F3404002B07047019B01330193019B65
:1017E800F1E700BF4FF46053C4F202031A6822F015
:1017F800F80242EAC0001860704700BF0023C4F234
:1018080047231860704700BF43F67003C4F2020311
:10181800002201281A701A7005D0042802D1052266
:101828001A70704770471870704700BF4FF46863AC
:10183800C4F247231860704710B4019C40EA046062
:101848005B0801434FF46054C4F20204013B41EACF
:10185800821242EA034363605DF8044B704700BF9D
:101868006023C4F247231860704700BF4FF46053E9
:101878000907C4F2020341EA8010C3F884007047E4
:101888006823C4F247231860704700BF4C23C4F292
:1018980047231860704700BF4FF46053C4F2020337
:1018A8009A6822F0EC62114308439860704700BFC1
:1018B8004FF46053C4F202039A6822F0784211434D
:1018C80008439860704700BF4FF46053C4F20203A6
:1018D8009A6822F003021043986070474FF46053EF
:1018E800C4F20203986800F00C0070474FF460538C
:1018F800C4F202039A6822F0F0021043986070471D
:101908004FF46053C4F202039A6822F4E052104381
:10191800986070474FF46053C4F202039A6822F447
:10192800604242EAC0009860704700BF4FF46053BD
:10193800C4F2020310B49A6802F00C02042A24D0FC
:10194800082A28D04FF41051C0F2F40101604FF476
:101958006052C4F2020240F218039468C2F2000313
:10196800C4F303141C5DE14041609468C4F382240D
:101978001C5D21FA04F4846092685DF8044BC2F39C
:1019880042329B5CD940C16070474FF49051C0F21D
:101998007A010160DBE75C685A6814F4800F5C68C0
:1019A80015BF4FF490534FF41053C0F27A03C0F2AE
:1019B800F40302F03F02B3FBF2F14FF46053C4F2B8
:1019C8000203C4F388145B68C3F30143013301FBCA
:1019D80004F15B00B1FBF3F10160B8E700F4407378
:1019E800B3F5407F0CD14FF46053C4F2020320F0EA
:1019F80070419A6821F4407122F4F8120A439A60FF
:101A08004FF46053C4F20203C0F30B001A6F104383
:101A18001867704740F63C63C4F247231860704764
:101A28004FF46463C4F24723186070474FF4AE73F1
:101A3800C4F24723186070474FF46053C4F202039E
:101A48001A6B19B922EA000018637047104318632B
:101A5800704700BF4FF46053C4F202035A6B19B9C0
:101A680022EA00005863704710435863704700BF6C
:101A78004FF46053C4F202039A6B19B922EA0000CA
:101A88009863704710439863704700BF4FF46053E2
:101A9800C4F202031A6C19B922EA000018647047EC
:101AA80010431864704700BF4FF46053C4F2020338
:101AB8005A6C19B922EA00005864704710435864F8
:101AC800704700BF4FF46053C4F202031A6919B992
:101AD80022EA00001861704710431861704700BF80
:101AE8004FF46053C4F202035A6919B922EA00009C
:101AF8005861704710435861704700BF4FF46053F6
:101B0800C4F202039A6919B922EA00009861704781
:101B180010439861704700BF4FF46053C4F202034A
:101B28001A6A19B922EA000018627047104318624D
:101B3800704700BF4FF46053C4F202035A6A19B9E0
:101B480022EA00005862704710435862704700BF8D
:101B58004FF46053C4F202031A6D19B922EA000067
:101B68001865704710431865704700BF4FF46053FD
:101B7800C4F202035A6D19B922EA00005865704789
:101B880010435865704700BF4FF46053C4F2020316
:101B98009A6D19B922EA0000986570471043986554
:101BA800704700BF4FF46053C4F202031A6E19B9AC
:101BB80022EA00001866704710431866704700BF95
:101BC8004FF46053C4F202035A6E19B922EA0000B6
:101BD8005866704710435866704700BF43F60D03B8
:101BE800C4F202031A7819B922EA00001870704783
:101BF80010431870704700BF4309012B0ED0022B09
:101C08004FF46053C4F2020300F01F000CBF1B6FB7
:101C18005B6F23FA00F000F0010070474FF4605347
:101C2800C4F2020300F01F001B6823FA00F000F062
:101C3800010070474FF46053C4F202035A6F42F038
:101C480080725A67704700BF4FF46053C4F20203B2
:101C5800DB6818420CBF00200120704743F60E03D2
:101C6800C4F202031870704708B50023C4F20103D8
:101C780098425BD0B0F1804F62D04FF48063C4F2D9
:101C88000003984266D04FF40063C4F20003984200
:101C98006AD04FF44063C4F2000398426ED04FF408
:101CA8008053C4F20003984272D04FF4A053C4F298
:101CB8000003984276D04FF48063C4F2010398423F
:101CC8007AD04FF48043C4F2010398427ED04FF497
:101CD8008843C4F20103984200F084804FF4904393
:101CE800C4F20103984200F089804FF4C053C4F253
:101CF8000003984200F08E804FF4E053C4F20003D2
:101D0800984200F091804FF40053C4F200039842C7
:101D180000D008BD4FF480700121FFF7FDFE4FF49D
:101D280080700021BDE80840FFF7F6BE012001469B
:101D3800FFF700FF01200021BDE80840FFF7FABEC9
:101D480001200146FFF7E8FE01200021BDE8084018
:101D5800FFF7E2BE02200121FFF7DEFE022000218C
:101D6800BDE80840FFF7D8BE04200121FFF7D4FEE4
:101D780004200021BDE80840FFF7CEBE082001215D
:101D8800FFF7CAFE08200021BDE80840FFF7C4BEDF
:101D980010200121FFF7C0FE10200021BDE80840F7
:101DA800FFF7BABE20200121FFF7B6FE2020002150
:101DB800BDE80840FFF7B0BE02200121FFF7BAFED8
:101DC80002200021BDE80840FFF7B4BE4FF4803080
:101DD8000121FFF7AFFE4FF480300021BDE8084035
:101DE800FFF7A8BE4FF400300121FFF7A3FE4FF420
:101DF80000300021BDE80840FFF79CBE4FF480206A
:101E08000121FFF797FE4FF480200021BDE808402C
:101E1800FFF790BE40200121FFF77EFE4020002101
:101E2800BDE80840FFF778BE80200121FFF774FE67
:101E380080200021BDE80840FFF76EBE70B4002284
:101E48004FF48064C4F201020388C4F20104904292
:101E580018BFA0429BB214BF0022012208D04FF441
:101E68008064C4F20004A04218BFB0F1804F23D1AF
:101E78004FF68F754C881D4045EA04034FF4A05671
:101E88004FF48055C4F20005C4F20006B04218BFF2
:101E9800A8421FBF0D894FF6FF441C4044EA0503C2
:101EA8004D680C880380C56204850AB18B7A038665
:101EB8000123838270BC70474FF400654FF440647F
:101EC800C4F20005C4F20004A04218BFA842D5D14C
:101ED800CEE700BF00234FF0FF324260038003814A
:101EE80043808372704700BF01858282704700BFBC
:101EF800038823F070031B041B0C194301807047EF
:101F080041627047C1627047406A7047008D80B275
:101F1800704700BF038829B923F002031B041B0C78
:101F2800038070479BB243F002030380704700BFF1
:101F3800038829B923F004031B041B0C0380704792
:101F48009BB243F004030380704700BF038829B99C
:101F580023F080031B041B0C038070479BB243F0E3
:101F680080030380704700BF038823F008031B0425
:101F78001B0C038003889BB219430180704700BF84
:101F8800038823F440731B041B0C038003889BB253
:101F980019430180704700BF038829B923F0010362
:101FA8001B041B0C038070479BB243F001030380A2
:101FB800704700BF2DE9F001048C8D89B1F802C08B
:101FC8000F8824F001042404240C0484028C8488DF
:101FD800038B4CEA050C22F0020223F073034FF442
:101FE8008066002512041B04C4F20106C4F2010530
:101FF800120C1FFA8CFC1B0CA84218BFB0424CEA0A
:102008000202A4B243EA070317D14FF6F775B1F8F5
:102018000EC0B1F812800E8A8F88154045EA0C0C64
:102028004FF6FB7248EA06064FF6FF450CEA020235
:10203800B6B225403A4346EA05048968848003839A
:10204800BDE8F00141630284704700BF2DE9F00349
:10205800048C8D89B1F802C00F8824F01004240480
:10206800240C0484028C8488038B22F0200212043E
:1020780023F4E643120C42EA05121B044FF480666F
:1020880000251B0CC4F20106C4F2010542EA0C1239
:1020980043EA0723A84218BFB04292B2A4B29BB247
:1020A80019D14FF67F76B1F80E90B1F81080B1F8DB
:1020B80004C04F8A16404FF2FF3546EA09164FF61C
:1020C800BF722540324045EA880442EA0C1244EACD
:1020D800870492B2A4B2896884800383BDE8F003C0
:1020E80081630284704700BF2DE9F003048C8D8959
:1020F800B1F802C00F8824F480742404240C0484EA
:10210800028C8488838B22F400721204120C42EA37
:10211800052223F073034FF4806600251B04C4F2E4
:102128000106C4F2010542EA0C221B0CA84218BFA2
:10213800B04292B2A4B243EA070319D14FF2FF7634
:10214800B1F80E90B1F81080B1F804C04F8A16406B
:102158004CF6FF7546EA09264FF6FF322540324015
:1021680045EA081442EA0C2244EA071492B2A4B2DF
:10217800896884808383BDE8F003C1630284704763
:10218800F0B4048C8D890F88B1F802C024F480540F
:102198002404240C0484028C8488838B22F4005247
:1021A8001204120C42EA05324FF480660025C4F28C
:1021B8000105C4F20106A84218BFB04223F4E64361
:1021C80008BF0E8A8968A4B208BF4BF6FF754FEAAC
:1021D800034308BF25404FEA134308BF45EA861466
:1021E80043EA072342EA0C3208BFA4B292B29BB278
:1021F80084808383F0BC01640284704700230380D9
:102208004380838083608381C381038243827047D4
:1022180030B4058C0124ADB28C404FF6F77325EA33
:1022280004040B400484183073B10439C1F34E011F
:1022380048F6FF730C5823400B5012020B5892B209
:102248001A430A5030BC704749084FF68F734458F8
:102258002340435043581A43425030BC704700BF94
:102268004163704781637047C16370470164704779
:10227800038B23F070031B041B0C19430183704765
:10228800038B23F4E0431B041B0C43EA01218BB2AC
:1022980003837047838B23F070031B041B0C1943C3
:1022A80081837047838B23F4E0431B041B0C43EAB0
:1022B80001218BB283837047038B23F008031B042F
:1022C8001B0C194301837047038B23F400631B0421
:1022D8001B0C43EA01218BB203837047838B23F0E5
:1022E80008031B041B0C194381837047838B23F459
:1022F80000631B041B0C43EA01218BB283837047E4
:10230800038B23F004031B041B0C19430183704740
:10231800038B23F480631B041B0C43EA01218BB25B
:1023280003837047838B23F004031B041B0C19439E
:1023380081837047838B23F480631B041B0C43EA5F
:1023480001218BB283837047038B23F080031B0426
:102358001B0C194301837047038BC3F30E0343EA35
:1023680001218BB203837047838B23F080031B0406
:102378001B0C194381837047838BC3F30E0343EA15
:1023880001218BB283837047038C23F002031B0463
:102398001B0C194301847047038C23F008031B04AA
:1023A8001B0C194301847047038C23F020031B0482
:1023B8001B0C43EA01118BB203847047038C23F092
:1023C80080031B041B0C43EA01118BB20384704782
:1023D800038C23F400731B041B0C43EA01218BB20A
:1023E80003847047038C23F400631B041B0C43EA2B
:1023F80001218BB203847047038C23F400531B0420
:102408001B0C43EA01318BB203847047038C10B470
:1024180001248C409BB223EA04030384038C5DF8F7
:10242800044B8A4013439BB203847047038C10B457
:1024380004248C409BB223EA04030384038C5DF8D4
:10244800044B8A4013439BB2038470470B88F0B453
:10245800002B32D0042B59D0082B4E88038C00F067
:1024680084808F880D89CC8823F480510904090C55
:102478000184828B038C22F4407223F400531205EA
:102488005B04120D5B0C42EA072243EA063342EA78
:1024980005329BB243F4805392B282830384838BC8
:1024A80023F440631B041B0C8383838B9BB243EA96
:1024B80004239BB28383F0BC7047038C4E888D88BD
:1024C8000F89CC8823F001010904090C0184028BCF
:1024D800038C22F0F3021204120C23F00A0342EADE
:1024E80007121B0446F0010192B21B0C2A430B434E
:1024F80002830384038B23F00C031B041B0C03834C
:10250800038B9BB223430383F0BC7047038C4E8834
:102518008D880F89CC8823F010010904090C0184E7
:10252800028B038C22F44072120523F0A003120DD3
:102538001B0442EA07321B0C43EA061392B242EA32
:1025480005229BB243F0100392B202830384038BEB
:1025580023F440631B041B0C0383038B9BB243EAE5
:1025680004239BB20383F0BC70478D880F89CC8805
:1025780023F480710904090C0184828B038C22F0F6
:10258800F30223F4206312041B04120C1B0C42EA0E
:10259800071243EA062392B29BB243F480732A439C
:1025A80082830384838B23F00C031B041B0C83831B
:1025B800838B9BB2234383837DE700BF00230122E3
:1025C800828003804380C380038170472DE9F00136
:1025D8004A888B880C88002A0CBF02260026012B0B
:1025E80014BF01270227002C54D0058CB1F80880AD
:1025F800B1F806C025F010052D042D0C0584048BB8
:10260800018C24F44074240521F0A001240D090450
:1026180044EA0834090CA4B241EA021244EA03234A
:1026280092B29BB242F0100203830284018B21F420
:1026380040610904090C0183038B9BB243EA0C2314
:102648009BB20383018C21F001010904090C018468
:10265800028B038C22F0F302120423F00A03120CFB
:102668001B0442EA08121B0C43F0010392B21E43FA
:10267800174307830684038B23F00C031B041B0CEE
:102688000383038B9BB243EA0C0CA0F818C0BDE887
:10269800F0017047048CB1F808C0CD8824F001011E
:1026A8000904090C0184018B048C21F0F30109044D
:1026B800090C24F00A0441EA0C11240442F0010236
:1026C80089B2240C14430B4303830484038B23F043
:1026D8000C031B041B0C0383038B9BB22B43038348
:1026E800038C23F010031B041B0C0384028B038C44
:1026F80022F44072120523F0A003120D1B0442EAD3
:102708000C321B0C43F0100392B243EA061642EA5D
:10271800072707830684038B23F440631B041B0CE1
:102728000383038B9BB243EA0525ADB20583BDE85D
:10273800F0017047406B7047806B7047C06B704703
:10274800006C7047038B23F00C031B041B0C0383E2
:10275800038B9BB219430183704700BF038B23F49B
:1027680040631B041B0C0383038B9BB243EA0121C8
:102778008BB20383704700BF838B23F00C031B04C9
:102788001B0C8383838B9BB219438183704700BFE3
:10279800838B23F440631B041B0C8383838B9BB2C2
:1027A80043EA01218BB28383704700BFB1F802C0AE
:1027B8000B888A89F0B48F88CE880D894C894CEAB9
:1027C80003033B4333432B43234313439BB2A0F8F8
:1027D8004430F0BC704700BF0023038043808380EF
:1027E800C380038143818381704700BFB0F84430C0
:1027F80021B9C3F30E03A0F8443070476FEA43438E
:102808006FEA53439BB2A0F844307047838829B9D4
:1028180023F004031B041B0C838070479BB243F016
:1028280004038380704700BF838829B923F001031C
:102838001B041B0C838070479BB243F00103838009
:10284800704700BF83899BB21AB923EA01018181CD
:10285800704719438181704781827047038A194202
:102868000CBF002001207047C94389B2018270471C
:10287800038A828911420CBF0020012019420CBF33
:10288800002000F001007047C94389B201827047F7
:102898000A43A0F84820704783899BB21AB923EAF3
:1028A800010181817047194381817047838829B963
:1028B80023F008031B041B0C838070479BB243F072
:1028C80008038380704700BF038923F007031B04B4
:1028D8001B0C0381704700BF038923F070031B049E
:1028E8001B0C1943018103899BB243F00703038141
:1028F800704700BF602970B427D0068C26F0010607
:102908003604360C0684058B048C25F0F3052D045B
:1029180024F00A042D0C240445F00105240C45EA92
:10292800031344F001049BB2224303830284038906
:1029380023F070031B041B0C0B43038103899BB218
:1029480043F00703038170BC7047048C24F0100423
:102958002404240C0484058B048C25F4407524F08D
:10296800A0042D0524042D0D240C45F4807544F095
:10297800100445EA033344EA02129BB292B203837D
:102988000284D4E710B4048942EA0323E4B223435F
:102998009BB21943018103895DF8044B23F0770347
:1029A8001B041B0C43F077030381704710B40489A0
:1029B80042EA0323E4B223439BB21943018103890A
:1029C8005DF8044B9BB243F480430381704700BF1A
:1029D800038923F070031B041B0C19430181704702
:1029E800838823F070031B041B0C838083889BB2AD
:1029F80019438180704700BF038923F007031B0434
:102A08001B0C038103899BB219430181704700BFE6
:102A1800038923F080031B041B0C038103899BB2E9
:102A280019430181704700BF10B40489E4B22143FF
:102A38000A4342EA03239CB204815DF8044B7047C1
:102A480070B40589048B068C24F4407426F02206A1
:102A580024F003043604360C25F007052404324319
:102A68002D04240C2D0C44F4807442EA03132943EA
:102A780044F001049EB201810483068470BC70474F
:102A8800838829B923F080031B041B0C83807047BB
:102A98009BB243F080038380704700BFA0F85010BA
:102AA800704700BF08B54FF48053C4F20103984241
:102AB80036D04FF48843C4F2000398423AD04FF41A
:102AC8009043C4F20003984240D04FF49843C4F2B4
:102AD8000003984246D04FF4A043C4F20003984242
:102AE8004CD04FF4A053C4F20103984252D04FF493
:102AF800F043C4F20003984256D04FF4F843C4F2AE
:102B08000003984200D008BD4FF000400121FFF7B4
:102B180003F84FF000400021BDE80840FEF7FCBF75
:102B280010200121FFF706F810200021BDE8084019
:102B3800FFF700B84FF400300121FEF7EDFF4FF426
:102B480000300021BDE80840FEF7E6BF4FF48020C2
:102B58000121FEF7E1FF4FF480200021BDE8084085
:102B6800FEF7DABF4FF400200121FEF7D5FF4FF43E
:102B780000200021BDE80840FEF7CEBF4FF48010CA
:102B88000121FEF7C9FF4FF480100021BDE808407D
:102B9800FEF7C2BF20200121FEF7CCFF2020002134
:102BA800BDE80840FEF7C6BF4FF080400121FEF7A0
:102BB800B3FF4FF080400021BDE80840FEF7ACBFEE
:102BC800028ACB8822F440521204F0B5120C044653
:102BD8001A430F898E8848890D4689892282A389DC
:102BE80023F4B05347EA060223F00C0302431B0404
:102BF80092B21B0C1343A381A38A23F440731B04D2
:102C08001B0C85B00B43A3826846FEF78FFEA6898E
:102C18000298039B4FF4A0514FF48052C4F2010173
:102C2800C4F20102944218BF8C4232B218BF034664
:102C3800002A2A68A08903EB8303B4BF52009200DC
:102C480003EB8303B3FBF2F348F21F52C5F2EB1216
:102C5800A2FB035100B264254909002801FB153382
:102C6800B5BFDB001B0132333233B5BFA2FB030211
:102C7800A2FB0352C2F34212C2F3431209011143E9
:102C880089B2218105B0F0BD00234FF416510C2202
:102C9800016042818380C38003818381704700BFC4
:102CA80030B40A884D888C88038AC9882A4322430D
:102CB80023F470630A431B0492B21B0C1343038270
:102CC80030BC70470023038043808380C3807047F3
:102CD800838929B923F400531B041B0C8381704793
:102CE8009BB243F400538381704700BF038B03F406
:102CF8007F430383038B9BB219430183704700BF53
:102D0800838919B9C3F30E03838170476FEA43437C
:102D18006FEA53439BB28381704700BF838A29B906
:102D280023F400631B041B0C838270479BB243F49B
:102D380000638382704700BFC1F308018180704738
:102D48008088C0F308007047038A23F00F031B0430
:102D58001B0C0382038A9BB219430182704700BF90
:102D6800838929B923F002031B041B0C8381704754
:102D78009BB243F002038381704700BF838923F429
:102D880000631B041B0C838183899BB219438181D7
:102D9800704700BF038A23F020031B041B0C038227
:102DA800038A9BB219430182704700BF038A29B97D
:102DB80023F480431B041B0C038270479BB243F42B
:102DC80080430382704700BF83899BB243F00103AD
:102DD80083817047838A29B923F008031B041B0CDD
:102DE800838270479BB243F008038382704700BF19
:102DF800038BDBB20383038B9BB243EA012101837C
:102E0800704700BF838A29B923F020031B041B0CD9
:102E1800838270479BB243F020038382704700BFD0
:102E2800838A29B923F010031B041B0C8382704783
:102E38009BB243F010038382704700BF838A23F05C
:102E480004031B041B0C8382838A9BB2194381826F
:102E5800704700BF838A29B923F002031B041B0CA7
:102E6800838270479BB243F002038382704700BF9E
:102E7800838A9BB21AB923EA0101818270471943F8
:102E88008182704701F01F0310B4C1F3421101247D
:102E9800A14204FA03F308BF0C3003D002290CBF87
:102EA8001030143004682AB924EA030303605DF87B
:102EB800044B7047234303605DF8044B704700BF21
:102EC800038819420CBF002001207047C94389B20A
:102ED80001807047C1F3421330B401F01F0201248E
:102EE800012B04FA02F416D0022B0CBF028A828A44
:102EF80092B2224003880125090A05FA01F19BB222
:102F080019420CBF00200120002A0CBF002000F04D
:102F1800010030BC7047828992B22240EAE700BFC4
:102F2800090A012303FA01F1C94389B201807047F4
:102F3800012900D07047FEE7091A10B50446881C1D
:102F4800800005F0D9FC20B1A300C3F104031844A4
:102F580010BDFEE701F18041013900EB810005F069
:102F6800D3BC00BF091A10B50446881C800005F0C0
:102F7800C3FC20B1A300C3F10403184410BDFEE74D
:102F880001F18041013900EB810005F0BDBC00BFB3
:102F98002DE9F8430E1A0446B01C800090460D46F1
:102FA8001F4605F0A9FC024608B3C8EB070701371E
:102FB80006FB07700130131D8000A3EB84069946B9
:102FC80005F09AFCA0B1031DA3EB8803A54246F8BF
:102FD800243009DDBF004B4606EB85051A683A44E4
:102FE80043F8042FAB42F9D13046BDE8F883FEE739
:102FF800FEE700BF38B5044603F1804350F82100CE
:10300800013B00EB83008D0005F07EFC281F204467
:10301800BDE8384005F078BC2DE9F8430E1A04469F
:10302800B01C800090460D461F4605F065FC024620
:1030380008B3C8EB0707013706FB07700130131DFB
:103048008000A3EB8406994605F056FCA0B1031D49
:10305800A3EB8803A54246F8243009DDBF004B46A0
:1030680006EB85051A683A4443F8042FAB42F9D1B8
:103078003046BDE8F883FEE7FEE700BF38B50446F2
:1030880003F1804350F82100013B00EB83008D00E1
:1030980005F03AFC281F2044BDE8384005F034BC50
:1030A8002DE9F04FC0EB010887B0044608F1020093
:1030B80080008B4616469946119D05F01DFC002898
:1030C80075D0C6EB0907013708FB077A0AF1010337
:1030D800A10000F104089800C1EB0808039105F06D
:1030E8000BFC039A42440592002861D010996B1A90
:1030F80001330AFB03F104304FEA860A0131CAEBB7
:10310800000548F824508800029305F0F5FB029B5F
:1031180000284ED0109A011D06F1010CA1EB820186
:10312800E14545F8261012DB9900049109F10102E6
:1031380050466146019301E0059B1D682E58049B8B
:10314800043001311E4491422E50F5D1019BA34514
:1031580029DD03990A1F03FB07F108EB8B0B890094
:10316800B80008EB0205ABF1040B03919F0009F1CD
:1031780001066B6803990344AB6055F8042F52F8B5
:103188000A20E1450A4443F80A20A4BF5146634691
:1031980007DB6A685458013304313C44B342545045
:1031A800F7D15D45E5D1404607B0BDE8F08FFEE7B1
:1031B800FEE7FEE770B5059A0D4650F82110044663
:1031C80002F1804251F82300013A00EB82009E0090
:1031D80005F09AFB54F82520301F1044AD0005F087
:1031E80093FB281F2044BDE8704005F08DBB00BF4D
:1031F80005F07ABE00207047704700BF9FED060AB1
:1032080040F640300121F0EE400AB0EE401AC2F21A
:1032180000000A4600F062B800000000704700BFD6
:10322800704700BF704700BF704700BF704700BFBE
:1032380008B5012003F07AFE704700BF704700BF51
:1032480040F22803C2F200031A68013204D01A6857
:103258001AB901221A6070477047FDF7CDBC00BF4C
:1032680070B540F22805C2F20005FDF77BFAFDF7BC
:10327800CFFB01232B6000262B6840F22804C2F202
:103288000004002BF8D0FDF78DFAFDF759FCFDF787
:103298008BFCFDF7DBFB2660EEE700BF10B5FDF702
:1032A80061FAFDF7B5FBFDF7DBFA0446FDF77AFA9C
:1032B800FDF746FCFDF778FCFDF7C8FBFDF7D0FAF3
:1032C800001BB0F57A7F06DCFDF7CAFA001BB0F5E3
:1032D8007A7FF9DDE7E7FDF78FFCF5E72DE9F84F91
:1032E80006468F002DED048B3846F16132620C469C
:1032F8009246F0EE408AB0EE608AB0EE419A05F050
:10330800FBFA80463060384605F0F6FA4FEA8A0B39
:1033180070608146584605F0EFFA002CB060C4BFD3
:10332800414607EB08040BDDE1EC018AA142FBD121
:103338000025494607EB090441F8045BA142FBD18B
:10334800BAF1000FD8BF00EB0B0206DD034600EB15
:103358000B02A3EC018A9342FBD186ED069ABDECE1
:10336800048B043708EB07034F44F360376172613D
:10337800BDE8F88F70B490E86000C469012CC2BF42
:103388002B1D321D05EB840009DD53F8041B43F89F
:10339800081C52F8041B834242F8081CF5D104F1BA
:1033A8008043013B9B001D4455ED017A70EE677A1E
:1033B800334485ED000AC3ED007A70BC704700BF46
:1033C80070B490E86000C469012CC2BF2B1D321D87
:1033D80005EB840009DD53F8041B43F8081C52F878
:1033E800041B834242F8081CF5D104F18043013BD9
:1033F8009B001D4455ED017A77EE807A3344C5ED84
:10340800007A83ED000A70BC704700BF10B4046AEC
:103418008068012CC4BF031D00EB840105DD53F84F
:10342800042B8B4243F8082CF9D100EB840404EDFB
:10343800010A5DF8044B7047FFF7E8BF012380EDF0
:10344800020A0370704700BF002380ED010A037071
:10345800704700BF0278034608461AB193ED020A86
:10346800FFF7AEBF93ED010AFFF784BF30B14CF60A
:10347800CD42CBF6CC5200234A600B70704700BF98
:103488000369C26813ED027AB4EEC70AF1EE10FAC6
:10349800C4BF70EE477AB0EE407AF4EEC70ACCBFEC
:1034A80003ED020ADFED167AF1EE10FA44BF43EDA0
:1034B800020A70EEC77A12ED027A77EE877AB4EED6
:1034C800E71AF1EE10FAC4BF31EE677AF0EE417AEE
:1034D800F4EEE71AD6BF42ED027A02ED021A9FED2A
:1034E800087AF1EE10FA44BF42ED021A31EEE77A9B
:1034F80053ED027A37EE877A03ED027A704700BF00
:1035080000000000C36853ED027AF4EEC07AF1EED1
:1035180010FA44BF30EE677AF0EE407AF4EEE70A2C
:103528004CBF03ED020A9FED097AF1EE10FA48BF8D
:1035380043ED020A036948BF30EEE77A53ED027A99
:1035480037EE877A03ED027A704700BF000000006B
:10355800036953ED027AF4EEC07AF1EE10FA44BF33
:1035680030EE677AF0EE407AF4EEE70A4CBF03EDEE
:10357800020A9FED097AF1EE10FA48BF43ED020AFC
:10358800C36848BF30EEE77A53ED027A37EE877AA0
:1035980003ED027A704700BF00000000C36813ED16
:1035A800020A7047036913ED020A7047002A2DE9E1
:1035B800F00728DD4FEA820C4FEA830800EB0C0A7B
:1035C80089460CF1040C08F10408074659F8046F01
:1035D80004252E44002B19DD7C684159DFED0F7A54
:1035E800221D04314444F2EC016AB1EC017AA24292
:1035F800E6EE877AF7D104356545E6EC017AE9D13C
:1036080004375745E2D1BDE8F0077047DFED037A8C
:1036180004356545E6EC017ADCD1F1E700000000ED
:103628002DE9F00F002B82B02DDD4FEA830AC1F19E
:10363800040301EB0A0B89460AF1040A019300EB23
:103648008207019E4E4459F8043F042503EB050CFC
:1036580003EB0A08002A1ADDDFED117A034653F856
:10366800041F8C192944D4ED006A91ED007ABB42FD
:10367800E6EE877AF3D1ECEC017AC44505F104054E
:10368800E8D1D945DDD102B0BDE8F00F7047DFEDD4
:10369800047AECEC017AC44505F10405DAD1F0E7C7
:1036A800000000002DE9F00F82B0002B8B46DDF8FA
:1036B8002CC035DD0C998C000434019491460646E3
:1036C80003F1010A0BEB8C044FF001080C99002957
:1036D8001EDDD9F80450019B042168181D44BCF173
:1036E800000F21DD7268DFED157A5B46043253F86E
:1036F800047F0F4497ED007AF2EC016AA342E6EEEC
:10370800877AF4D1E0EC017AA84201F10401E6D10C
:1037180008F10108D04509F1040906F10406D5D1DC
:1037280002B0BDE8F00F7047DFED047AE0EC017AF3
:10373800A84201F10401D2D1EAE700BF000000006D
:103748002DE9F00F84B00C9C0292002C38DD0E9D00
:10375800AA00013404320194039200EB83084FF06D
:10376800040C4FF0010B0E9C002C22DD029DDDF8AD
:103778000CA055F80C20042702EB07099244002BF3
:1037880022DDDFED167A0C46024652F8046F54F833
:10379800045F66443D44D6ED006A95ED007A4245E3
:1037A800E6EE877AF1D1E9EC017AD14507F1040711
:1037B800E5D1019A0BF1010B93450CF1040CD2D120
:1037C80004B0BDE8F00F7047DFED047AE9EC017A48
:1037D800D14507F10407D2D1EBE700BF0000000094
:1037E8002DE9F00F002B089E32DD099C4FEA860C6C
:1037F800671C9146054603F1010ABF000CF1040C51
:103808004FF00108099C002C1ADDD9F80430042077
:1038180003EB000B002E1EDD6A680C58DFED127AF0
:10382800131D04346244F3EC016AB4EC017A934248
:10383800E6EE877AF7D10430B842EBEC017AE9D1A9
:1038480008F10108D04509F1040905F10405D9D1A9
:10385800BDE8F00F7047DFED047A0430B842EBECB6
:10386800017AD7D1ECE700BF000000002DE9F00194
:10387800002B069F1EDD03F1010C4FEA87084FEA73
:103888008C0C161D08F104080425002F15DD445979
:10389800DFED0E7A231D0A1D4444F3EC016AB2ECF5
:1038A800017AA342E6EE877AF7D104356545E6EC5E
:1038B800017AEAD1BDE8F0017047DFED047A0435FA
:1038C8006545E6EC017AE0D1F4E700BF00000000AE
:1038D80010B4019C012C15D0013410D1002B0EDD41
:1038E800043000EB830304310432B0EC017AF1ECCC
:1038F800017A77EE677A9842E2EC017AF5D15DF8C1
:10390800044B7047002BFADD043000EB83030431CD
:103918000432B0EC017AF1EC017A77EE277A98421A
:10392800E2EC017AF5D15DF8044B70472DE9F0031C
:10393800079C069F012C2BD0013426D1002B24DDB7
:103948004FEA870903F1010809F104094FF0010C56
:10395800002F10DD46684D685468331D04354E4409
:103968000434B3EC017AF5EC017A77EE677AB34266
:10397800E4EC017AF5D10CF1010CC44502F1040222
:1039880000F1040001F10401E2D1BDE8F003704741
:10399800002BFADD4FEA870903F10108A44609F173
:1039A8000409002F10DD46684D685468331D04353E
:1039B8004E440434B3EC017AF5EC017A77EE277AB9
:1039C800B342E4EC017AF5D10CF1010CC44502F1E3
:1039D800040200F1040001F10401E2D1BDE8F003A2
:1039E800704700BFF0B4002B049E1CDD01F1040CED
:1039F80004305F1C0CEB86040125002E0CDD516899
:103A080063460431F3EC017A90ED007A67EE277A89
:103A1800A342E1EC017AF5D10135BD4200F1040081
:103A280002F10402E9D1F0BC704700BF002A0EDDA4
:103A380004309FED080A00EB82030431B0EC017AF0
:103A4800F1EC017A9842A7EE270AF7D170479FED6B
:103A5800010A7047000000002DE9F001069BDDF81F
:103A680014C0002B1DDD171D07EB830801EB8C0626
:103A78000425BCF1000F17DDDFED107A021D0B469F
:103A880053F8044F2C4494ED007AF2EC016AB342E7
:103A9800E6EE877AF4D1E7EC017A474505F10405AB
:103AA800E7D1BDE8F0017047DFED047AE7EC017A71
:103AB800474505F10405DCD1F3E700BF000000002D
:103AC8002DE9F001059C002C1DDD02F1040C0CEB26
:103AD800840800EB83070426002B17DDDFED107A3E
:103AE8000C1D024652F8045F3544D5ED006AB4EC6B
:103AF800017ABA42E6EE877AF4D1ECEC017AC44551
:103B080006F10406E8D1BDE8F0017047DFED047A5C
:103B1800ECEC017AC44506F10406DDD1F3E700BFF9
:103B280000000000002AF0B41BDD4FEA830C571C8C
:103B38000CF1040C0126002B0CDD45684C682A1D8D
:103B480004346544F2EC017AC7EE807AAA42E4ECC8
:103B5800017AF7D10136BE4201F1040100F10400F7
:103B6800E9D1F0BC704700BF002AF0B41BDD4FEA72
:103B7800830C571C0CF1040C0126002B0CDD456846
:103B88004C682A1D04346544F2EC017A67EE807AA9
:103B9800AA42E4EC017AF7D10136BE4201F10401F0
:103BA80000F10400E9D1F0BC704700BF000000003C
:103BB8002DE9F04F2DED028B87B004908120019103
:103BC8000392029301F0E8FE129DF7EE006AC5ED3C
:103BD800006A019D002D40F30281019A039D02981D
:103BE8009FED847A541C012155F8042F01230432D7
:103BF800994203F1010314BFF0EE477AF0EE667ABA
:103C0800A342E2EC017AF3D140F8041F0131A1424A
:103C1800EAD1019D012D40F3E580A80040F64C2330
:103C2800059000F1040C0398049DC2F200030430CF
:103C380093ED006ADFED6F5A009005F1040AA9467A
:103C480004204FF00108019D454549DB9FED697A45
:103C58004A464146434652F8045F0544D5ED007A8A
:103C6800F0EEE77AF4EEC77AF1EE10FAC8BF19461B
:103C780003F10103C8BFB0EE677AA342EBD1414517
:103C88002ED0129D049BD5ED007A53F82120D9F847
:103C98000450129BF1EE677AC3ED007A04322B1DB3
:103CA8008900654417681E6843F8047BAB4242F8F4
:103CB800046BF7D1029D2A586B58B8F1010F2B50AD
:103CC8006A500DDD039D6A58295804320B1D0144C2
:103CD80016681D6843F8046B8B4242F8045BF7D101
:103CE800019D08F10108454570DBD9F804E0009D05
:103CF80056460EEB00074146D7ED007AB0EEE77A5C
:103D0800B4EEC67AF1EE10FAC5BF72686B686B68DC
:103D18001218C3BF92ED007AC7EE277A1B181B183A
:103D280001F1010105F1040506F10406D4BFC3ED54
:103D3800005AC3ED007AA142DED1009E0EF1040EB6
:103D480055464746696872680B1D02EB000B6144D3
:103D58007246D3ED007AF2EC016A9BED007AE6EE4A
:103D6800C77AE3EC017A8B42F3D10137A74205F118
:103D7800040506F10406E5D1009A019D0432A84520
:103D88000AF1040A09F10409009200F104007FF421
:103D98005AAF129D95ED008A049B05981C46044471
:103DA800C3F10400C21853F8041F0A44D2ED007A84
:103DB800A34228EE278AF5D1812001F003FEB0EE58
:103DC800480A07B0BDEC028BBDE8F08F009A0432B8
:103DD8000AF1040A09F104090092043033E7B0EE4D
:103DE800668AE9E7019B129D9B00059395ED008A81
:103DF800D2E700BF000000002DE9F04F0E1E95B07D
:103E0800DCBF40F64C21C2F20001804608921C46F5
:103E1800D8BF03911EDD40F64C22C2F200024FEAE1
:103E2800860C576803920CF1040C054606F1010E46
:103E3800012355F8040F57F8041F021D043100EB45
:103E48000C0952F8040B4A4541F8040BF9D1013327
:103E58007345EED1039B13A99A68DB68009140462D
:103E68003146FFF7A5FE0399D1ED004AB0EEC04AEE
:103E7800B4EEE44A40F64C22F1EE10FA84ED000A62
:103E8800C2F2000202DD1E9B012B24D0002E15DD9C
:103E9800039A52680492049D012458F8041F55F8A7
:103EA800042F04310432012352F8040B01339E42DB
:103EB80041F8040BF8DA0134A642EEDAB4EEE44A2B
:103EC800F1EE10FA03D51E9B012B00F01D81012095
:103ED80015B0BDE8F08F002E40F31A8111695369BF
:103EE80004919168D2680B930792049A58F8263087
:103EF800DDF878A04FEA86094A4406920B9A4A44AC
:103F08000592089A4B444A440F93A9F104030E936F
:103F18000D920B9B049A09F10409043304329FEDB6
:103F2800806ACDF830901093119206F1010BB7EE2C
:103F3800005A8946BAF1010F09BFD9F8043004992B
:103F4800D3ED017AC5EE277A0ABF049B81ED016A99
:103F5800C3ED017A012E2CD0049A119F02F10801B9
:103F68000824022559F804005545A1EC016ADFED43
:103F78006C7A00F104030CBFF0EE455AF0EE465A95
:103F880020443A46F3EC016AB2EC017AE6EE877A0D
:103F9800834241ED017AF5D193ED007A75EEE77A27
:103FA8000135C7EE877AAB4504F1040441ED017A87
:103FB800D8D1069A0F9B059992ED007AD3ED007A35
:103FC800C7EE277A012EC1ED007A3BD0CDF82490B8
:103FD800CDF828B005990E9DDDF818C0DDF82C90B5
:103FE800DDF830B03446A64201ED016A58F8057094
:103FF800B8BFDFED4B7A11DBC9EB0103DFED487A7F
:104008003B4407EB0B000A46F3EC016AB2EC017A79
:10401800E6EE877A834241ED017AF5D17CED016ABB
:104028002F4497ED007A76EEE77A013CC7EE877A5F
:10403800012CA5F1040561ED017AD4D1DDF82490B5
:10404800DDF828B0079B109A53F8040F0D9D0793CD
:10405800089B800053F8041F52F8044B0144AB42FC
:104068000C60F7D10AF1010ADA457FF463AF0399CE
:10407800DDF830904968454604910C46012054F813
:10408800047F55F8042F3B1D04324F4453F8041B9A
:10409800BB4242F8041BF9D101308345EFD1039AA2
:1040A80008999369CDF80C80A9F104059FED1C6A65
:1040B800C2460D444FF0010C984605960F4658F835
:1040C800044F5AF8046F043404360420A4EC016A3F
:1040D800DFED137A32463B4653F8041F014491ED55
:1040E800007AF2EC016AE6EE877AAB4244ED017A97
:1040F800F2D104304845E9D10CF1010CE345DED199
:10410800DDF80C80059EC6E6002015B0BDE8F08FEE
:10411800B4EEE44AF1EE10FAF6D41E98D8E600BFE1
:104128000000000010B540F64C2384B0C2F2000332
:104138000024DA69009403ABFFF75EFE9DED030AE5
:1041480004B010BDB5EEC00AF1EE10FAFFEE007A29
:10415800B7EE000AB8BFB0EE670A70472DE9F04F16
:104168002DED048B93B00C461090832001F014FCC5
:10417800109FA74200F31E8240F64C27C2F20007A8
:104188000B97109F012F40F33E820B9F40F64C2463
:10419800C2F2000411947C6AD7F8208009949FED3C
:1041A800BA8A04240A94F7EE009A0124444500F3DD
:1041B800FD810B990B9F0A9AFB6A4E6BBF6ADDF86B
:1041C80028E0DDF828C00D6A9FEDAF7A191D9E44DE
:1041D8001744164400232246012C15BFF058F858FE
:1041E8006044D0ED017A14BFD0ED007A0EEB0300E5
:1041F80002F1010213BFC1ED007AA7EEA77AC0ED64
:10420800007AA7EEA77A954203F1040301F10401AD
:10421800E2DA17EE100A01F099FE41EC100B03F0F8
:10422800E7F851EC100B02F0A7F90B9FD7F82C8098
:10423800D8ED017AF5EEC07AF1EE10FABFEE007A09
:1042480006EE900AA8BFB0EE697AE6EE877AAC422D
:10425800C8ED017A00F3A4810A9908F10802521AFC
:10426800DFED898A02EB850208F10403F3EC017A99
:104278009342E7EEA78AF9D118EE900A01F066FE9C
:104288007FA3D3E9002306460F4602F043F900282E
:1042980000F08681B6EE009A28EE899A47EC106BFA
:1042A80003F0A6F851EC100B02F066F92B1B013352
:1042B800099A009308EE900A41464046FFF792FBA0
:1042C8000B9A119F126A7F6A0F92C4EB020E0EF1CD
:1042D8000109B9F1000F09972EDD0EF102063D46DE
:1042E80001208700042201236968F5EE408A114401
:1042F800F1EE10FA1EBFD1ED007AF1EE677AC7EE43
:10430800897A02F104020CBF81ED008AC1ED007ABE
:10431800984201BF6968C919D1ED007A77EEA97A88
:1043280003F1010308BFC1ED007AB342DCD10130CB
:10433800B04205F10405D4D1012C00F0A5810F99F4
:10434800002940F330810B9A0B9B526B1B6B0C922C
:104358000A9F0C990D930EEB04023B1F01EB82029E
:10436800194400270791012106970891099F0A9986
:104378000F9B7F1A581C0E970899069F0D9DDDF814
:1043880030E0DDF838C08C42CCBF0026012604237B
:1043980001213D44BE44BC4493468C42CCBF002717
:1043A80006F00107002F00F0EA806F68B9F1000FEE
:1043B8001F4487ED008A16DDDCF80820DDF81C8034
:1043C800DFED317A02F1040A5A4658F804BF9B44DB
:1043D8009BED007AFAEC016AE6EE877A9045C7ED24
:1043E800007AF2D193460131884203F10403D4D113
:1043F800089B069F0133043783425A460893069761
:10440800BAD10B9A0F99576B166B4FEA810E0EF1C2
:10441800040E012556F8041F57F8042F0B1D04320B
:1044280001EB0E0C53F8041B634542F8041BF9D149
:104438000135A842EED10B9F0B9BBF6BDDF83C808A
:104448000A9A1B6B08970B9F07930121C2F104027C
:10445800B8F1000F3D6A05914FF0000C06925EDD41
:104468000599079EDDF820E08C42D4BF002701277C
:10447800042001216644E64415E000BFAFF3008044
:10448800BBBDD7D9DF7CDB3D00000000DEF804208F
:1044980073680244034412681A6001318D4200F1C6
:1044A800040030DBA8468C42D4BF002201223A42E5
:1044B800ECD1736803EB000989ED008A002A68D102
:1044C800B8EB040BE9D4DEF80430DDF818A01A1DA7
:1044D800A34402EB8B0B0A9A5FED157A1344099AF1
:1044E800824452F8048FD044F3EC016A98ED007AC4
:1044F800E6EE877A5B45C9ED007AF2D101318D424B
:1045080000F10400CEDA059B01339D4205930CF1BE
:10451800040CC0F29A80A846B8F1000FA0DC0A99F2
:10452800109F01340431BC420A917FF43FAE0B9CCA
:10453800A06B616B099ACDF800804346CDF80480E2
:10454800CDF80880FFF7AEF80B9F3B6AB86B796B24
:104558007A6A009301930293FFF7A4F8B86B3B6A59
:104568007A6A0093014601930293FFF739F9832091
:1045780013B0BDEC048BBDE8F04F01F023BADEF8B0
:1045880004806F6898441F44D8F80080C7F80080FA
:1045980029E7DEF8042002441368C9F800307CE7F4
:1045A800002600277AE6DDF83C80B8E700200021E5
:1045B800454632E6109F002F7FF7DEAD40F64C27C8
:1045C800C2F200070B97BD6A109F661C4FEA870E60
:1045D80000204FEA860C0EF1040E01370121109AD3
:1045E800B24207DB6A6802EB0C03724443F8040B1F
:1045F8009342FBD10131B94205F10405EFD1109F77
:10460800012F3FF7C2AD0B9FD7F820807F6A40F695
:104618004C23C2F20003099789D1002C87DD986BDF
:104628009A6A596B436855684A68043303EB8404F3
:10463800043504324FF07E5643F8046B55F8047B7A
:10464800A34242F8047BF7D174E7002D1ADD0B9AD8
:104658004FEA850C976B166B0CF1040C05F1010EF3
:10466800012056F8041F57F8042F0B1D043201EBE4
:104678000C0853F8041B434542F8041BF9D10130D8
:104688007045EED1A8464AE70B9F0F9BB96A7A6B33
:104698000998009301930293FFF704F8D7F8208054
:1046A800119F7F6AB8F1000F09977FF738AF119F04
:1046B800099AB86B4FEA8807043708F101062346C0
:1046C8005568416805F1040C05EB070E0D1D6146A0
:1046D80051F804CB714545F804CBF9D10133B34205
:1046E80000F1040002F10402EAD118E72DE9F04FC5
:1046F80040F64C24C2F2000489B0E26B002A3CD197
:10470800206A07AF256DE2690026014600963B4600
:104718002846FFF771FBDDED077A94ED007AF0EE9D
:10472800E76AF4EEC76A40F64C26F1EE10FACDEDD2
:10473800067AC2F2000640F10F82356A002D40F376
:104748005A81366D01213046012303E00133AB4223
:1047580000F355819942F9D0426802EB8302D2ED09
:10476800007AF0EEE77AB4EEE77AF1EE10FAEDD5DA
:104778004FF0FF3009B0BDE8F08F206C616A236A02
:1047880007AF0025FEF712FF606AE16BE26900954A
:104798003B46FFF731FBDDED077A94ED007AF0EE4A
:1047A800E76AF4EEC76AF1EE10FACDED067A00F189
:1047B8005581D4F83CB0206ABBF1000FA2D0049513
:1047C8000595834500F02782BBF1000F1FDDD4F863
:1047D8002890D4F8408009EB80060BF1010C0425E1
:1047E8004FF0010E00280CDD58F805204B46043226
:1047F80053F8041F52F804AB2944B342C1F800A08F
:10480800F6D10EF1010EE64505F10405EAD1594647
:10481800FFF7A4FC0023606BE16BE26900933B4661
:10482800FFF7EAFA9DED077AD4ED007AB0EEC77A81
:10483800B4EEE77A40F64C25F1EE10FAC2F2000524
:1048480096D40126E96B6A6A686B009606ABFFF797
:10485800D3FAEB6BA86B696A0093019302932B6AF6
:10486800EA6DFEF7BDFFD5F83CB02B6A9B4500F01A
:104878003482002B25DDCBEB030C4FEA8C090BEBC4
:104888000608D5F860E0AD6B304609F104094FEA37
:10489800880803EB060ABCF1000F0BDDDEF80410F4
:1048A8006E680A1D46444944F6EC017AE2EC017A46
:1048B8008A42F9D1013050450EF1040E05F1040584
:1048C800E9D1E06D616CE26ACDF800B0CDF804B0D2
:1048D800FEF7CCFF236AE56B206E216D626A0193B7
:1048E8005D1B02930095FEF72BFF256AE36B606A58
:1048F800216EE26C0095EB1A01950293FEF7D2FE49
:10490800256AE16BE06CE269002600963B46691A6D
:10491800FFF772FA9DED077AD4ED007AB0EEC77A08
:10492800B4EEE77A40F64C26F1EE10FAC2F2000631
:104938003FF51EAF356AF16B726AF06C0127691A90
:1049480006AB0097FFF758FA336AF56B306E716A59
:10495800F26C5D1B009501950295FEF7A3FE336A84
:10496800F56BF06C316E726A01935D1B00950295D0
:10497800FEF736FF336A306DF16A726E0093019369
:10498800FEF774FF716EB06D336A00970A46FEF742
:104998009FFF336A706A716EB26E009301934FF095
:1049A800FF35FEF763FF336AF06AB16E726D0095EA
:1049B800FEF78EFF336A206D616DE26A0093019302
:1049C8000125FEF753FFA06DE16A626E236A009528
:1049D800FEF77EFF236AE56BE06D616EE26E019380
:1049E8000095FFF76DF8059B40F64C25C2F20005CF
:1049F800002B40F03C81012009B0BDE8F08F013167
:104A0800A94200F104007FF79FAE676DA46D4FF0D7
:104A1800000C06EB85053246042352F8041F19449E
:104A2800D1ED007AF0EEE76AB4EEE67AF1EE10FA2C
:104A380004EB030043BFD0ED006AF1EE666AC6EEF0
:104A4800A77AF9184CBFF918C1F800C003F104039C
:104A580048BFC1ED007AAA42DFD1CCE7236A002B18
:104A680019DD226C616A52684968D4F82CE0606CE0
:104A7800D4F848C002EB830604360432043152F8F5
:104A8800045B41F8045B4568B242CEF80450F6D1A5
:104A98000122CCF80420E26B012ADFBF002118466E
:104AA80004914FF0010840F3888040F64C2B002217
:104AB800C2F2000B4FF0020904929246002B5A46AC
:104AC8004FF00806BB464FF001084F46914640DDBF
:104AD800236C626A9859236A08F10105043052F878
:104AE80025100122043150F804EB0132934241F8B9
:104AF80004EBF8DA606AE16C2A46FEF757FDE06CD1
:104B0800E269CDF800A029465B46FFF775F9DDEDAF
:104B1800077A94ED007AF0EEE76AF4EEC76AF1EEF0
:104B280010FACDED067A38D50499D9F848307A428A
:104B380001319A510491E26B013740F64C23BA4295
:104B480006F10406C2F2000335DBD9F82030002B49
:104B5800BEDC08F10105CDE70123316A726A306DC8
:104B6800009306ABFFF748F9336A726D706AB16D4E
:104B780000930193FEF77AFE326A002A7FF73BAF73
:104B8800736D043303EB8202D3ED007AF1EE677A9A
:104B9800E3EC017A9342F7D12DE7D9F84410D9F81C
:104BA8002C20D9F84830314402EB85020968A84620
:104BB80011609F51BFE7186A5F46E26A636CD4F8D8
:104BC80040B0D4F824A0C4F83C804FEA800902F130
:104BD800040C03F1040E09F10409002101265CF814
:104BE800043B002801F104014EF8043B0CDD5AF89F
:104BF80001205BF80150131D04354A44F3EC017A97
:104C08009342E5EC017AF9D101364645E7DD012208
:104C1800C3460592D5E50023206CE2690093594606
:104C28003B46FFF7E9F89DED077AD4ED007AB0EE40
:104C3800C77AB4EEE77A40F64C25F1EE10FAC2F2E4
:104C480000053FF595AD0123296A6A6A286C00932F
:104C580006ABFFF7D1F82B6A686A696C6A6D009336
:104C68000193FEF703FED5F83CB0286AACE5EE6B7D
:104C7800002E0BDDEB6EEA6A0433043203EB860088
:104C880053F8041B834242F8041BF9D1DDF8108065
:104C9800B044B8F1000F1DDDD4F86CC0E76AA16C10
:104CA8004FF000094FEA88060023012251F8040F4B
:104CB800002807EB820003F10403C9BF05680CEB69
:104CC80003000CEB03000132CCBF0560C0F8009074
:104CD800B342EBD1C4F83C808DE65B466BE600BF7F
:104CE80010B50446006982B030B123686268009349
:104CF80001210B46FEF7C2F9606918B1012162680B
:104D0800FEF73EF9A06918B101212268FEF738F9CB
:104D1800E06918B101216268FEF732F9A06828B18C
:104D28002268012100920B46FEF7A8F9E06818B145
:104D380001212268FEF724F9002323616361A3613E
:104D4800E361A360E36002B010BD00BF2DE9F04746
:104D580080462DED028B9146F0EE408AB0EE608AD7
:104D68008A46FFF7BDFF0120494653460246C8ED73
:104D7800088AC8F800A0C8F8049088ED098AFEF7E8
:104D88004BF94946C8F810000120FEF7EBF8B9F1D5
:104D9800000FC8F814001FDD00EB89024FEA8A03F0
:104DA8000021071D0432181D4FF0040E0026CBF613
:104DB8008071BAF1000F09DDD8F8103053F80E50A1
:104DC8002C1D054444F8046BAC42FBD147F8041B86
:104DD80097420EF1040EECD151460120FEF7C2F8BD
:104DE800C8F818000120024653465146FEF714F948
:104DF8005146C8F808000120FEF7B4F84946C8F83B
:104E08000C000120FEF7AEF8BDEC028BC8F81C00C0
:104E1800BDE8F08730B540F64C24C2F2000483B0F8
:104E2800226A256FA06A9542B8BF154620B10121B4
:104E380000920B46FEF722F9A06B40F64C23C2F213
:104E4800000328B11A6A012100920B46FEF716F9F1
:104E5800606B40F64C23C2F2000328B11A6A0121A4
:104E680000920B46FEF70AF9606D40F64C23C2F239
:104E7800000318B11A6A0121FEF782F8E06E40F6C5
:104E88004C23C2F2000318B11A6F0121FEF778F81B
:104E9800206D40F64C23C2F2000328B11A6A0121A2
:104EA80000920B46FEF7EAF8A06D40F64C23C2F2DA
:104EB800000318B11A6A0121FEF762F8206C40F667
:104EC8004C23C2F2000330B11A6F1B6A0121009310
:104ED8000B46FEF7D3F8606C40F64C23C2F2000391
:104EE80018B11A6F0121FEF74BF8E06D40F64C231C
:104EF800C2F2000328B11A6A012100920B46FEF79C
:104F0800BDF8206E40F64C23C2F2000328B11A6A9D
:104F1800012100920B46FEF7B1F8A06C40F64C2335
:104F2800C2F2000318B11A6F0121FEF713F8606F7F
:104F380040F64C23C2F2000318B11A6F0121FEF7A4
:104F480009F8A06F40F64C23C2F2000318B11A6F9B
:104F58000121FDF7FFFFE06A18B101212A46FEF79B
:104F68000FF8606E18B101212A46FEF709F8A06E05
:104F780018B101212A46FEF703F8606A28B1012119
:104F880000950B462A46FEF779F8E06C28B1012116
:104F980000950B462A46FEF771F8206B28B10121CF
:104FA80000950B462A46FEF769F8606828B101218A
:104FB80000950B462A46FEF761F8A06828B1012142
:104FC80000950B462A46FEF759F8A06928B1012139
:104FD80000950B462A46FEF751F8E06818B1012102
:104FE8002A46FDF7B7FF606918B101212A46FDF787
:104FF800C7FF206918B101212A46FDF7C1FFE06902
:1050080028B1012100952A460B46FEF737F8002300
:10501800A362A36363636365E3662365A36523648F
:105028006364E3652366A3646367A367E3626366F7
:10503800A3666362E36423636360A360A361E360C0
:1050480063612361E36103B030BD00BF2DE9F04720
:105058008246FFF7DFFE9AE8300040F64C28C2F29D
:105068000008DAF82470DAF82060C8F82040012037
:10507800214623460246C8F80070C8F87C60C8F884
:105088007050FDF7C9FFD8F82010C8F82800012093
:105098000B460246FDF7C0FFD8F82010C8F83800C4
:1050A80001200B460246FDF7B7FFD8F82010C8F8D4
:1050B80034000120FDF756FFD8F87010C8F85400E6
:1050C8000120FDF74FFFD8F82010C8F86C00012028
:1050D8000B460246FDF7A0FFD8F82010C8F850008C
:1050E8000120FDF73FFFC8F858000120D8F820300C
:1050F800D8F870100246FDF78FFFD8F87010C8F87E
:1051080040000120FDF72EFFD8F82010C8F8440011
:1051180001200B460246FDF77FFFD8F82010C8F89B
:105128005C0001200B460246FDF776FFD8F87010A8
:10513800C8F860000120FDF7FFFEA542ACBFA946F4
:10514800A146DAF81030DAF81C20DAF81470DAF828
:105158001860DAF80850DAF80C40C8F84800D8F8AF
:105168007010C8F880300120C8F89420C8F88470FE
:10517800C8F88860C8F88C50C8F89040FDF7DCFE85
:10518800D8F87010C8F874000120FDF7D5FE49461C
:10519800C8F878000120FDF7E5FE4946C8F82C005C
:1051A8000120FDF7DFFE4946C8F864000120FDF73D
:1051B800D9FEC8F86800012049464B460246FDF76B
:1051C8002BFFC8F82400012049464B460246FDF74C
:1051D80023FFC8F84C00012049464B460246FDF71C
:1051E8001BFFC8F83000012049464B460246FDF730
:1051F80013FFC8F80400012049464B460246FDF754
:105208000BFFC8F8080001204B4602464946FDF747
:1052180003FF4946C8F818000120FDF78DFE4946EE
:10522800C8F80C000120FDF79DFE4946C8F8140097
:105238000120FDF797FEC8F81000012049464B46AB
:105248000246FDF7E9FEC8F81C00BDE8F08700BF7C
:1052580040F64C2C2DE9F00FC2F2000C0025DCF8CA
:105268007060CCF89850AE4282B05EDDDCF82070F9
:10527800DCF88430DCF88810DCF880A0DCF8748076
:10528800CDF804C09CED1F6ABA00012402F104099C
:10529800F1EE465A03F1040B04208C46002F49DD39
:1052A8005AF80010DFED297A0B1D0CF1040249446D
:1052B800F3EC016AB2EC017A8B42E6EE877AF7D119
:1052C800BBEC017A77EEC77AF4EEE57AF1EE10FAE4
:1052D80033D4F0EEE77AB4EEE76AF1EE10FAACBF39
:1052E8000123002304F10104AABF48F8003048F85C
:1052F8000030ED18B44200F10400CFDDDDF804C041
:105308000120DCF87840DCF87420CCF8985006448A
:10531800034652F8041F012908BF44F8203003F15E
:10532800010308BF0130B342F3D1012002B0BDE848
:10533800F00F7047DFED057AC2E7DDF804C0002002
:10534800CCF8985002B0BDE8F00F7047000000009C
:1053580040F64C2CC2F2000C2DE9F00FDCF820408E
:10536800002C48DDA600DCF85080DCF88C500436B0
:10537800671C4FF001096868D8F80420031D04323F
:10538800304453F8041B834242F8041BF9D109F155
:105398000109B94508F1040805F10405EBD1DCF869
:1053A8008820DCF85810DCF89030DCF850904FF08A
:1053B800000B02F1040A043103F10408012559F82D
:1053C800040F41F804BBDFED267A031D5246304432
:1053D800F3EC016AB2EC017AE6EE877A834241ED9A
:1053E800017AF5D1B8EC017A013577EE277AAF4228
:1053F80041ED017AE3D1DCF8986040F64C23002EA9
:10540800CCF83C60C2F2000325DD5D6CD3F8409017
:10541800D3F88080D3F878C0A7004FF0000BB6000F
:10542800043504370020002C45F804BB00F10400C3
:105438000FDD5CF8003059F8002058F823100432CA
:105448000B1D01EB070A53F8041B534542F8041BD4
:10545800F9D1B042E7D1BDE8F00FFFF747B900BF77
:10546800000000002DE9F04F2DED028B87B0FFF70B
:10547800EFFE002800F06E8140F64C2B6422C2F249
:10548800000B0292802000F087FAFFF761FF0130DD
:1054980000F05681DBF8201040F64C200029C2F2BB
:1054A8000000D8BF9FEDB07A0BDD436D9FEDAE7A5B
:1054B800043303EB8102F3EC017A9342A7EEA77A57
:1054C800F9D1DBED007AF4EEC77AF1EE10FAC0F20A
:1054D800D780DBF83C40002C40F30681DBF86C20D9
:1054E800DBF87830049D9FEDA07A043203EB840149
:1054F800F2EC017AF4EEC77AF1EE10FA48BF5D6873
:1055080003F1040348BFB0EE677A8B42F0D1B5EEE1
:10551800C07AF1EE10FA049580F2E680DBF8983054
:10552800DBF87000DBF8742004990024013BA042EA
:1055380042F82140CBF8983010DD0124DBF8785090
:105548002044234652F8041F012908BF45F8243097
:1055580003F1010308BF01348342F3D1FFF7F8FEDA
:10556800013000F0ED80DBF82080DBF87020002AA5
:10557800019239DDDBF88450DBF88830DBF8549091
:10558800DBF87460DBF8804003934FEA880C04353D
:105598000CF1040C571C4FF0000A012056F8043F88
:1055A800C3B9B8F1000F15DD6168DFED6F7A01F15D
:1055B800040E7346614409F10402F3EC016AB2EC8B
:1055C800017A8B42E6EE877AF7D1F5EEC07AF1EEF2
:1055D80010FA35D40130B84205F1040504F1040489
:1055E800DCD1BAF1000F4DD1B7EE008AB8F1000F47
:1055F80011DDDBF88830DBF85420043303EB88082E
:105608000432D3ED007AB2EC017AE7EE087AE3ECE3
:10561800017A4345F5D1F7EE007AB4EEE78AF1EE68
:1056280010FA40D4802000F0CDF9029B013B029390
:105638007FF428AF022007B0BDEC028BBDE8F08FE5
:10564800039A95ED007A131DBEEC016AF3EC016A2A
:105658007145A6EE667AF7D1BAF1000F05D187EE4B
:10566800278A05904FF0010AB4E7C7EE277AF4EECF
:10567800C87AF1EE10FA44BFB0EE678A0590A9E740
:10568800884672E718EE100A00F060FC9FED340BB4
:1056980041EC110B01F0F4FD51EC100B00F06CFF24
:1056A80008EE100AA2E7DBF89830DBF87420013323
:1056B800CBF89830059B012442F82340019C002C2C
:1056C800B0DD019BDBF8785001241819234652F805
:1056D800041F012908BF45F8243003F1010308BF5E
:1056E80001348342F3D19DE7026F40F64C23002A30
:1056F800C2F2000309DDD3F894300433002103EB30
:10570800820243F8041B9342FBD1002C0FDD836F08
:10571800C26ED0F8945003EB8404043253F8041F8B
:1057280052F8040B05EB8101A3420860F6D18020F2
:1057380000F048F9012007B0BDEC028BBDE8F08FFE
:10574800802000F03FF94FF0FF3007B0BDEC028B2E
:10575800BDE8F08F6FF00100F7E700BFAFF30080FE
:10576800000000000000F03F0000000038B50546CA
:10577800FFF76CFCFFF776FE04462846FFF74AFB66
:10578800204638BDAFF30080FDEEC07A9FED0F7A5A
:10579800F8EEE76A10B530EE660A40F6587420EE67
:1057A800070AC2F20004BDEEC00A4EF6F80110EE78
:1057B800103A17EE902A002BB8BF5B422046C0F67D
:1057C800000103F0FFFB204610BD00BF00401C464F
:1057D80010B5042003F090F80446242003F08CF858
:1057E8000346FF2100222060197020461A6210BD6E
:1057F8002DE9F04140F6E824C2F20004ADF5806DD1
:105808002368002B71D01C464EF68C1E4EF6941061
:105818004EF698174EF6A0164EF6A415C0F6000ED2
:10582800C0F60000C0F60007C0F60006C0F6000586
:105838004EF64C114EF67C124EF680132468CDF8C5
:1058480000E0C0F60001C0F60002C0F600030190B7
:1058580002970396049506A803F0B4FB06A8FAF786
:10586800FBFF4EF6DC13C0F600034EF6AC111A46E9
:105878000093019302930393049306A8C0F60001D2
:1058880003F0A0FB06A8FAF7E7FF54B32578FF2D2D
:1058980024D06769A669D4F80C8007EE107AB8EEB0
:1058A800470A07EE106AF8EE477A80EE270AFFF7F4
:1058B8006BFF009703900196CDF808802369049345
:1058C800E3694EF6E81105932A462B46C0F6000117
:1058D80006A803F077FB06A8FAF7BEFF246A002C97
:1058E800D4D10DF5806DBDE8F081FFF771FF206020
:1058F800044689E710B540F6E824C2F2000420689F
:1059080000B110BDFFF764FF206010BD38B540F648
:10591800E825C2F2000504462B6843B1186810B99F
:1059280004E0006A10B10278A242FAD138BDFFF74C
:105938004FFF28600346F1E710B540F6E824C2F2AD
:105948000004236833B1186800E01846036A002B86
:10595800FBD110BDFFF73CFF20600346F3E700BF13
:1059680038B50546FFF7D2FF044608B1204638BDD2
:10597800242002F0C1FF0446FFF7DEFF0023046283
:105988006FF000422570E26023626361A361636087
:10599800A3602361204638BD10B5FFF7E1FF01235E
:1059A8000446C361FAF75CFFA36960600133A36131
:1059B80010BD00BF08B5FFF7D3FF836901338361CA
:1059C80008BD00BF10B5FFF7A1FF0446F8B1FAF70C
:1059D80047FF6268A06090423DBF4FF6FF73C7F66D
:1059E800FF73C2EB0303C2EB00002169626938BF91
:1059F800C018E36881422CBF216120610244002164
:105A08006261834294BFE360E060E16110BD6FF0C2
:105A1800010001F08BFA00BF704700BFF8B540F6EF
:105A2800EC26C2F200060746306800F08FFA12A38F
:105A3800D3E9002300F0DEFAFB68044653F8080CAB
:105A48000D4600F083FA0EA3D3E9002300F0D2FA42
:105A58000B4602462946204600F01AF900F08CFD54
:105A6800034600EE103A38463360BDE8F840FDF7CB
:105A7800E3BC00BFAFF30080CDCCCCCCCCCCEC3FAA
:105A88009A9999999999B93F2DE9F04140F6EC26F0
:105A9800C2F200062DED028B96ED018A074618EE3C
:105AA800100A00F053FA41EC100B01F041FC0023FE
:105AB80051EC100B0022C3F6F07300F0E9F8002354
:105AC8000022C3F6E07300F095FA02460B4600F098
