:020000040800F2
:10000000FFFF002069690008D90C0008DD0C00081A
:10001000E10C0008E50C0008E90C000800000000F5
:10002000000000000000000000000000ED0C0008CF
:10003000F10C000800000000F50C0008B169000890
:10004000B1690008B1690008B1690008B169000828
:10005000B1690008B1690008B1690008B169000818
:10006000B1690008B1690008B1690008B169000808
:10007000B1690008B1690008B1690008B1690008F8
:10008000B1690008B1690008B1690008000000000A
:10009000000000000000000000000000B16900083E
:1000A000B1690008B1690008B1690008B1690008C8
:1000B000B1690008B1690008B1690008B1690008B8
:1000C000B1690008B1690008B1690008B1690008A8
:1000D000B1690008B1690008B169000800000000BA
:1000E000B1690008B1690008B169000800000000AA
:1000F000000000000000000000000000B1690008DE
:1001000000000000B1690008B1690008B169000889
:1001100000000000000000000000000000000000DF
:10012000B1690008B1690008B1690008B169000847
:10013000B16900080000000000000000000000009D
:10014000000000000000000000000000B16900088D
:10015000B1690008B1690008B1690008B169000817
:10016000B1690008B169000800000000000000004B
:10017000000000000000000000000000000000007F
:0801800000000000B169000855
:1001880008B540F6FC00074BC2F200001B1A062B0C
:1001980000D808BD40F20003C0F20003002BF8D0DD
:1001A8009847F6E7FF08002008B540F6FC0040F63F
:1001B800FC03C2F20003C2F200001B1A9B1003EBFF
:1001C800D373591000D108BD40F20002C0F20002FA
:1001D800002AF8D09047F6E710B540F6FC04C2F2C2
:1001E8000004237873B9FFF7CBFF40F20003C0F295
:1001F80000032BB14FF64450C0F60000AFF3008067
:100208000123237010BD00BF08B540F20003C0F2FF
:1002180000034BB14FF6445040F60011C0F6000001
:10022800C2F20001AFF3008040F6F800C2F200000D
:1002380003682BB140F20003C0F2000303B19847F2
:10024800BDE80840B0E700BF134B002B08BF114BB7
:100258009D46A3F5803A00218B460F461148124A65
:10026800121A06F053FA0D4B002B00D098470C4B8E
:10027800002B00D098470020002104000D000B48F7
:1002880006F0E6F906F014FA2000290006F066FBED
:1002980006F0E4F90000080000000000000000007B
:1002A80000000000FC080020A40A00208566000861
:1002B80008F0D6B94FF6F850C0F6000024210C22F9
:1002C80008F088B94FF46D42CEF200024FF4605343
:1002D800D2F88810C4F2020341F47001C2F8881001
:1002E8001968002241F0010119609A60186843F208
:1002F800100120F08470C2F2004120F480301860B0
:100308005960196882B021F480211960DA6000927E
:1003180001921A6842F480321A601A4603E0009B80
:10032800B3F5A04F09D0136803F400330193009B81
:1003380001330093019B002BF1D04FF46053C4F2BA
:1003480002031B6813F4003318BF01230193019BB8
:10035800012B08D04FF46D43CEF200034FF000623A
:100368009A6002B070474FF46053C4F202034FF42E
:10037800E042196CC4F2000241F08051196411681E
:1003880041F4404111609A689A609A6842F40042C8
:100398009A60996845F2084241F4A051C0F241724E
:1003A80099605A601A6842F080721A6019460A68A1
:1003B8004FF460539201C4F20203F8D54FF470521F
:1003C800C4F2020240F2056111609A6822F0030249
:1003D8009A609A6842F002029A609A6802F00C02E7
:1003E800082AFAD1B6E700BF4FF46053C4F20203FB
:1003F8009A6802F00C02042A36D0082A12D04FF468
:100408001051C0F2F4014FF46052C4F2020240F2FB
:1004180004039268C2F20003C2F303129A5CD1404B
:100428001961704758685A6810F4800F586815BFEA
:100438004FF490534FF41053C0F27A03C0F2F40310
:1004480002F03F02B3FBF2F14FF46053C4F202032F
:10045800C0F388105B68C3F30143013301FB00F16B
:100468005B00B1FBF3F1CEE74FF49051C0F27A0193
:10047800C9E700BF08B54FF48070012100F096FE6F
:100488004FF480700021BDE8084000F08FBE00BF27
:10049800F0B446680A680B790F698D684C79D1F811
:1004A8000CC026F0407626F48076324342EA0322D6
:1004B800426086684FF2FD734CEA0702CCF2FF03F4
:1004C8002A433340134343EA440383600B7DC26AE3
:1004D800013BDBB222F4700242EA0353C362F0BC70
:1004E800704700BF00230122027503600371437146
:1004F8008360C360036170474FF40C52036841681E
:10050800C4F2010230B48568C4685068194343F2E4
:10051800E0032943CFF6FC73214303400B435360A8
:1005280030BC70470023036043608360C36070473A
:10053800836819B923F001038360704743F001030E
:1005480083607047436823F4400323F4007319431E
:100558004160704741628262704700BF436823F080
:100568001F031943416070474FF40C53C4F2010351
:100578005A6818B922F400025A60704742F400021F
:100588005A6070474FF40C53C4F201035A6818B903
:1005980022F480025A60704742F480025A60704721
:1005A800092970B41ED9A1F10A0404EB4404C568F2
:1005B8000726A64003FA04F425EA06032343062A7D
:1005C800C3601CD90C2A28D90D3AC46A02EB8202EE
:1005D8001F23934024EA030301FA02F21A43C2627A
:1005E80070BC704701EB410405690726A64003FA71
:1005F80004F425EA06032343062A0361E2D8013AF4
:10060800446B02EB82021F23934024EA030301FA9E
:1006180002F21A43426370BC7047073A046B02EB5C
:1006280082021F23934024EA030301FA02F21A43C9
:10063800026370BC704700BF836843F080438360E7
:10064800704700BF8068C0F380707047836819B92D
:1006580023F480638360704743F48063836070474A
:10066800836819B923F002038360704743F00203DB
:10067800836070474368013923F4604343EA41319A
:1006880041607047436819B923F4006343607047B9
:1006980043F4006343607047C06C80B2704700BF8A
:1006A80042F20833C4F2010318687047836819B925
:1006B80023F480738360704743F4807383607047CA
:1006C800836819B923F400738360704743F4007397
:1006D800836070474FF40C53C4F201035A6818B989
:1006E80022F400525A60704742F400525A60704730
:1006F800092970B41BD801EB410405690726A640F7
:1007080003FA04F425EA060323430361836B0232E8
:10071800C3F30154121BD2B202EB82021F2494408D
:1007280023EA040391400B43836370BC7047A1F133
:100738000A0404EB4404C5680726A64003FA04F437
:1007480025EA06032343C360E0E700BF836B013952
:1007580023F4401343EA01518163704782B00023B8
:1007680001930190019B19440191019B1A6002B009
:10077800704700BF836823F4702319438160704772
:10078800836823F44013194381607047836843F4F6
:1007980080038360704700BF8068C0F38050704753
:1007A800436819B923F480634360704743F4806356
:1007B80043607047436819B923F480534360704716
:1007C80043F480534360704782B000230193019043
:1007D800019B283319440191019B186880B202B02B
:1007E800704700BF0123C9B203FA01F143681AB97F
:1007F80023EA01014160704719434160704700BF17
:10080800036819420CBF002001207047C9430160EA
:10081800704700BF4368006810EA112007D0C9B2CA
:10082800012202FA01F119420CBF00200120704791
:100838006FEA11210160704708B54FF0005001219F
:1008480000F0A6FC4FF000500021BDE8084000F081
:100858009FBC00BF70B491E860004FF4E8438C6817
:10086800CA68C4F2000346EA05010C431D6840F655
:10087800FE762243864002FA00F025EA060210437B
:10088800186070BC704700BF00230360436083603A
:10089800C36070474FF4E843C4F2000339B91A68DB
:1008A800012101FA00F022EA0000186070471A6876
:1008B800012101FA00F01043186070474FF4E84333
:1008C800C4F20003000939B95A68012101FA00F09D
:1008D80022EA0000586070475A68012101FA00F0C6
:1008E80010435860704700BF4FF4E843C4F2000358
:1008F8005A6818B922F003025A60704742F003029E
:100908005A6070474FF4E843C4F20003814022B9AB
:100918001A6822EA0101196070471A6811431960C0
:10092800704700BF82B04FF4E843C4F200030022CE
:1009380001920193019B083318440190019B1960AF
:1009480002B0704782B04FF4E843C4F200030022BB
:1009580001920193019B143318440190019B196083
:1009680002B0704747F220430828C4F200030CBFC6
:1009780042EA012142EA0141C150704782B04FF476
:10098800E843C4F20003002201920193019B2C3337
:1009980003EB90000190019B186880B202B0704789
:1009A8004FF4E843C4F2000341B91A684FF4805188
:1009B80001FA00F022EA0000186070471A684FF444
:1009C800805101FA00F01043186070474FF4E84373
:1009D800C4F20003814022B91A6822EA01011960B1
:1009E80070471A6811431960704700BF4FF4E84315
:1009F800C4F2000381405B6B19420CBF0020012048
:100A0800704700BF4FF4E843C4F2000381405963C4
:100A1800704700BF4FF4E843C4F2000381401A68EE
:100A2800586B084003D011420CBF002001207047CA
:100A38004FF4E843C4F2000381405963704700BF94
:100A480008B50023C4F2020398423CD04FF48063F7
:100A5800C4F20203984240D04FF40063C4F2020388
:100A6800984244D04FF44063C4F20203984248D0FD
:100A78004FF48053C4F2020398424CD04FF4A05371
:100A8800C4F20203984250D04FF4C053C4F2020398
:100A9800984254D04FF4E053C4F20203984258D01D
:100AA8004FF40053C4F20203984200D008BD4FF43B
:100AB8008070012100F042FB4FF480700021BDE8F6
:100AC800084000F03BBB0120014600F037FB012045
:100AD8000021BDE8084000F031BB0220012100F0F0
:100AE8002DFB02200021BDE8084000F027BB0420B0
:100AF800012100F023FB04200021BDE8084000F09C
:100B08001DBB0820012100F019FB08200021BDE8C9
:100B1800084000F013BB1020012100F00FFB10204B
:100B28000021BDE8084000F009BB2020012100F0A9
:100B380005FB20200021BDE8084000F0FFBA402056
:100B4800012100F0FBFA40200021BDE8084000F038
:100B5800F5BA8020012100F0F1FA80200021BDE8DB
:100B6800084000F0EBBA00BF00222DE9F007134659
:100B78000E6801274FF0030804E00133102B02F13F
:100B880002022ED007FA03F404EA0605A542F4D1BE
:100B9800D0F8009091F804C008FA02F4E44304EA9B
:100BA8000909C0F80090D0F800900CFA02FA0CF18C
:100BB800FF3C5FFA8CFC4AEA0909BCF1010FC0F856
:100BC800009011D9C56891F807C02C40C460C56869
:100BD8000CFA02F401332C43102BC46002F1020218
:100BE800D0D1BDE8F0077047D0F808A091F805907B
:100BF80091F806C004EA0A0AC0F808A0D0F808A0CC
:100C080009FA02F949EA0A09C0F80890D0F80490EC
:100C180029EA0505456045680CFA03FC1FFA8CFCB7
:100C28004CEA05054560CDE700234FF6FF720260E8
:100C3800037143718371C371704700BF82B04FF471
:100C480080330193019B0B430193019BC361C161F5
:100C5800019BC361C3690193C369019302B07047E3
:100C6800036919420CBF002001207047006980B257
:100C7800704700BF436919420CBF0020012070472C
:100C8800406980B2704700BF018370474183704755
:100C98000AB9418370470183704700BF41617047BB
:100CA8004369594041617047CB0800EB830001F06C
:100CB800070110B48900046A0F238B4024EA030358
:100CC8000362036A5DF8044B8A401343036270476A
:100CD800704700BFFEE700BFFEE700BFFEE700BFAA
:100CE800FEE700BF704700BF704700BF704700BFF6
:100CF8004FF46D4340F0BF60CEF2000340F4003083
:100D0800D8607047C37870B47BB902784FF46143F8
:100D18005109203102F01F020120CEF2000300FA2F
:100D280002F243F8212070BC70474FF46D43CEF2B5
:100D380000034678DA6884780378D243C2F3022243
:100D4800C2F104010F25C9B206FA01F145FA02F20F
:100D5800C9B222400A4303F1604303F5614312011B
:100D6800D2B283F8002302784FF4614302F01F01E6
:100D780001205209CEF2000300FA01F143F82210D3
:100D880070BC704721F060414FF46D4321F07F0142
:100D9800CEF2000308439860704700BF4FF46D43DC
:100DA800CEF200031A6919B922EA000018617047E7
:100DB80010431861704700BF4EF21003CEF20003D3
:100DC80004281A680CBF42F0040222F004021A60D8
:100DD800704700BF4FF46053C4F202030022196841
:100DE80041F0010119609A60186843F2100120F07F
:100DF8008470C2F2004120F480301860596019688C
:100E080021F480211960DA60704700BF43F60203BD
:100E1800C4F2020300221A701870704782B00023CF
:100E28004FF460520193C4F2020213689B030FD47B
:100E3800019B01330193019BB3F5A04FF5D14FF40A
:100E48006053C4F202031868C0F3404002B0704710
:100E5800019B01330193019BF1E700BF4FF46053FD
:100E6800C4F202031A6822F0F80242EAC0001860CD
:100E7800704700BF0023C4F247231860704700BFC3
:100E880043F67003C4F20203002201281A701A7094
:100E980005D0042802D105221A70704770471870CF
:100EA800704700BF4FF46863C4F247231860704767
:100EB80010B4019C40EA04605B0801434FF460549D
:100EC800C4F20204013B41EA821242EA034363602E
:100ED8005DF8044B704700BF6023C4F247231860D5
:100EE800704700BF4FF460530907C4F2020341EA98
:100EF8008010C3F8840070476823C4F24723186041
:100F0800704700BF4C23C4F247231860704700BFE6
:100F18004FF46053C4F202039A6822F0EC62114362
:100F280008439860704700BF4FF46053C4F202034F
:100F38009A6822F07842114308439860704700BFCE
:100F48004FF46053C4F202039A6822F0030210437C
:100F5800986070474FF46053C4F20203986800F039
:100F68000C0070474FF46053C4F202039A6822F0F1
:100F7800F0021043986070474FF46053C4F20203C4
:100F88009A6822F4E0521043986070474FF4605317
:100F9800C4F202039A6822F4604242EAC0009860F0
:100FA800704700BF4FF46053C4F2020310B49A684C
:100FB80002F00C02042A24D0082A28D04FF4105139
:100FC800C0F2F40101604FF46052C4F2020240F230
:100FD80018039468C2F20003C4F303141C5DE140D3
:100FE80041609468C4F382241C5D21FA04F484608F
:100FF80092685DF8044BC2F342329B5CD940C160F1
:1010080070474FF49051C0F27A010160DBE75C68E9
:101018005A6814F4800F5C6815BF4FF490534FF46E
:101028001053C0F27A03C0F2F40302F03F02B3FB9C
:10103800F2F14FF46053C4F20203C4F388145B68FE
:10104800C3F30143013301FB04F15B00B1FBF3F18E
:101058000160B8E700F44073B3F5407F0CD14FF45A
:101068006053C4F2020320F070419A6821F4407181
:1010780022F4F8120A439A604FF46053C4F2020350
:10108800C0F30B001A6F10431867704740F63C63B3
:10109800C4F24723186070474FF46463C4F24723CF
:1010A800186070474FF4AE73C4F247231860704756
:1010B8004FF46053C4F202031A6B19B922EA000014
:1010C8001863704710431863704700BF4FF46053AC
:1010D800C4F202035A6B19B922EA00005863704738
:1010E80010435863704700BF4FF46053C4F20203C3
:1010F8009A6B19B922EA0000986370471043986305
:10110800704700BF4FF46053C4F202031A6C19B958
:1011180022EA00001864704710431864704700BF43
:101128004FF46053C4F202035A6C19B922EA000062
:101138005864704710435864704700BF4FF46053B9
:10114800C4F202031A6919B922EA0000186170474B
:1011580010431861704700BF4FF46053C4F2020394
:101168005A6919B922EA000058617047104358615A
:10117800704700BF4FF46053C4F202039A6919B96B
:1011880022EA00009861704710439861704700BFD9
:101198004FF46053C4F202031A6A19B922EA000034
:1011A8001862704710431862704700BF4FF46053CD
:1011B800C4F202035A6A19B922EA00005862704759
:1011C80010435862704700BF4FF46053C4F20203E3
:1011D8001A6D19B922EA000018657047104318659E
:1011E800704700BF4FF46053C4F202035A6D19B937
:1011F80022EA00005865704710435865704700BFE1
:101208004FF46053C4F202039A6D19B922EA000040
:101218009865704710439865704700BF4FF4605356
:10122800C4F202031A6E19B922EA00001866704760
:1012380010431866704700BF4FF46053C4F20203AE
:101248005A6E19B922EA000058667047104358666A
:10125800704700BF43F60D03C4F202031A7819B9A8
:1012680022EA00001870704710431870704700BFDA
:101278004309012B0ED0022B4FF46053C4F2020332
:1012880000F01F000CBF1B6F5B6F23FA00F000F02B
:10129800010070474FF46053C4F2020300F01F00CE
:1012A8001B6823FA00F000F0010070474FF4605308
:1012B800C4F202035A6F42F080725A67704700BF47
:1012C8004FF46053C4F20203DB6818420CBF0020DD
:1012D8000120704743F60E03C4F2020318707047EA
:1012E80008B50023C4F2010398425BD0B0F1804FE7
:1012F80062D04FF48063C4F20003984266D04FF482
:101308000063C4F2000398426AD04FF44063C4F209
:10131800000398426ED04FF48053C4F20003984201
:1013280072D04FF4A053C4F20003984276D04FF421
:101338008063C4F2010398427AD04FF48043C4F228
:10134800010398427ED04FF48843C4F201039842C7
:1013580000F084804FF49043C4F20103984200F0F7
:1013680089804FF4C053C4F20003984200F08E8085
:101378004FF4E053C4F20003984200F091804FF418
:101388000053C4F20003984200D008BD4FF48070A7
:101398000121FFF7FDFE4FF480700021BDE80840F1
:1013A800FFF7F6BE01200146FFF700FF01200021EC
:1013B800BDE80840FFF7FABE01200146FFF7E8FE46
:1013C80001200021BDE80840FFF7E2BE022001210C
:1013D800FFF7DEFE02200021BDE80840FFF7D8BE77
:1013E80004200121FFF7D4FE04200021BDE80840B5
:1013F800FFF7CEBE08200121FFF7CAFE0820002112
:10140800BDE80840FFF7C4BE10200121FFF7C0FE69
:1014180010200021BDE80840FFF7BABE20200121B6
:10142800FFF7B6FE20200021BDE80840FFF7B0BE58
:1014380002200121FFF7BAFE02200021BDE8084082
:10144800FFF7B4BE4FF480300121FFF7AFFE4FF431
:1014580080300021BDE80840FFF7A8BE4FF40030F7
:101468000121FFF7A3FE4FF400300021BDE808403A
:10147800FFF79CBE4FF480200121FFF797FE4FF441
:1014880080200021BDE80840FFF790BE40200121E0
:10149800FFF77EFE40200021BDE80840FFF778BE38
:1014A80080200121FFF774FE80200021BDE808405C
:1014B800FFF76EBE70B400224FF48064C4F20102DC
:1014C8000388C4F20104904218BFA0429BB214BF23
:1014D8000022012208D04FF48064C4F20004A04224
:1014E80018BFB0F1804F23D14FF68F754C881D403F
:1014F80045EA04034FF4A0564FF48055C4F20005A2
:10150800C4F20006B04218BFA8421FBF0D894FF6AB
:10151800FF441C4044EA05034D680C880380C562FB
:1015280004850AB18B7A03860123838270BC7047D5
:101538004FF400654FF44064C4F20005C4F200049F
:10154800A04218BFA842D5D1CEE700BF00234FF074
:10155800FF3242600380038143808372704700BF7B
:1015680001858282704700BF038823F070031B0443
:101578001B0C19430180704741627047C162704774
:10158800406A7047008D80B2704700BF038829B950
:1015980023F002031B041B0C038070479BB243F02B
:1015A80002030380704700BF038829B923F00403AE
:1015B8001B041B0C038070479BB243F00403038099
:1015C800704700BF038829B923F080031B041B0C54
:1015D800038070479BB243F080030380704700BFCD
:1015E800038823F008031B041B0C038003889BB2A9
:1015F80019430180704700BF038823F440731B041C
:101608001B0C038003889BB219430180704700BFFD
:10161800038829B923F001031B041B0C03807047BE
:101628009BB243F001030380704700BF2DE9F0012E
:10163800048C8D89B1F802C00F8824F001042404B9
:10164800240C0484028C8488038B4CEA050C22F059
:10165800020223F073034FF48066002512041B0472
:10166800C4F20106C4F20105120C1FFA8CFC1B0C13
:10167800A84218BFB0424CEA0202A4B243EA0703E8
:1016880017D14FF6F775B1F80EC0B1F812800E8A6F
:101698008F88154045EA0C0C4FF6FB7248EA06069F
:1016A8004FF6FF450CEA0202B6B225403A4346EA35
:1016B8000504896884800383BDE8F00141630284DE
:1016C800704700BF2DE9F003048C8D89B1F802C082
:1016D8000F8824F010042404240C0484028C8488C9
:1016E800038B22F02002120423F4E643120C42EA90
:1016F80005121B044FF4806600251B0CC4F201067A
:10170800C4F2010542EA0C1243EA0723A84218BFB3
:10171800B04292B2A4B29BB219D14FF67F76B1F81B
:101728000E90B1F81080B1F804C04F8A16404FF2FD
:10173800FF3546EA09164FF6BF722540324045EAA2
:10174800880442EA0C1244EA870492B2A4B2896877
:1017580084800383BDE8F00381630284704700BF7F
:101768002DE9F003048C8D89B1F802C00F8824F4A8
:1017780080742404240C0484028C8488838B22F4CF
:1017880000721204120C42EA052223F073034FF48C
:10179800806600251B04C4F20106C4F2010542EA72
:1017A8000C221B0CA84218BFB04292B2A4B243EA62
:1017B800070319D14FF2FF76B1F80E90B1F81080F7
:1017C800B1F804C04F8A16404CF6FF7546EA092660
:1017D8004FF6FF322540324045EA081442EA0C220F
:1017E80044EA071492B2A4B2896884808383BDE86E
:1017F800F003C16302847047F0B4048C8D890F88AC
:10180800B1F802C024F480542404240C0484028C0B
:101818008488838B22F400521204120C42EA0532A7
:101828004FF480660025C4F20105C4F20106A842FF
:1018380018BFB04223F4E64308BF0E8A8968A4B2F1
:1018480008BF4BF6FF754FEA034308BF25404FEA30
:10185800134308BF45EA861443EA072342EA0C32D9
:1018680008BFA4B292B29BB284808383F0BC0164A7
:1018780002847047002303804380838083608381D0
:10188800C38103824382704730B4058C0124ADB212
:101898008C404FF6F77325EA04040B400484183093
:1018A80073B10439C1F34E0148F6FF730C58234055
:1018B8000B5012020B5892B21A430A5030BC7047B0
:1018C80049084FF68F7344582340435043581A43EE
:1018D800425030BC704700BF416370478163704716
:1018E800C163704701647047038B23F070031B04C6
:1018F8001B0C194301837047038B23F4E0431B043B
:101908001B0C43EA01218BB203837047838B23F0BE
:1019180070031B041B0C194381837047838B23F4CA
:10192800E0431B041B0C43EA01218BB283837047FD
:10193800038B23F008031B041B0C19430183704716
:10194800038B23F400631B041B0C43EA01218BB2B5
:1019580003837047838B23F008031B041B0C194374
:1019680081837047838B23F400631B041B0C43EAB9
:1019780001218BB283837047038B23F004031B047C
:101988001B0C194301837047038B23F480631B04EA
:101998001B0C43EA01218BB203837047838B23F02E
:1019A80004031B041B0C194381837047838B23F4A6
:1019B80080631B041B0C43EA01218BB283837047AD
:1019C800038B23F080031B041B0C1943018370470E
:1019D800038BC3F30E0343EA01218BB203837047E1
:1019E800838B23F080031B041B0C194381837047EE
:1019F800838BC3F30E0343EA01218BB283837047C1
:101A0800038C23F002031B041B0C19430184704749
:101A1800038C23F008031B041B0C19430184704733
:101A2800038C23F020031B041B0C43EA01118BB227
:101A380003847047038C23F080031B041B0C43EAC8
:101A480001118BB203847047038C23F400731B04C9
:101A58001B0C43EA01218BB203847047038C23F4E7
:101A680000631B041B0C43EA01218BB203847047FB
:101A7800038C23F400531B041B0C43EA01318BB283
:101A880003847047038C10B401248C409BB223EA72
:101A980004030384038C5DF8044B8A4013439BB210
:101AA80003847047038C10B404248C409BB223EA4F
:101AB80004030384038C5DF8044B8A4013439BB2F0
:101AC800038470470B88F0B4002B32D0042B59D014
:101AD800082B4E88038C00F084808F880D89CC8871
:101AE80023F480510904090C0184828B038C22F4AD
:101AF800407223F4005312055B04120D5B0C42EA9A
:101B0800072243EA063342EA05329BB243F4805384
:101B180092B282830384838B23F440631B041B0CDF
:101B28008383838B9BB243EA04239BB28383F0BCF9
:101B38007047038C4E888D880F89CC8823F001016B
:101B48000904090C0184028B038C22F0F3021204AD
:101B5800120C23F00A0342EA07121B0446F00101A3
:101B680092B21B0C2A430B4302830384038B23F09A
:101B78000C031B041B0C0383038B9BB223430383BB
:101B8800F0BC7047038C4E888D880F89CC8823F071
:101B980010010904090C0184028B038C22F44072A1
:101BA800120523F0A003120D1B0442EA07321B0C96
:101BB80043EA061392B242EA05229BB243F01003AD
:101BC80092B202830384038B23F440631B041B0C2F
:101BD8000383038B9BB243EA04239BB20383F0BCC9
:101BE80070478D880F89CC8823F480710904090C0B
:101BF8000184828B038C22F0F30223F42063120405
:101C08001B04120C1B0C42EA071243EA062392B289
:101C18009BB243F480732A4382830384838B23F02B
:101C28000C031B041B0C8383838B9BB2234383838A
:101C38007DE700BF00230122828003804380C380A8
:101C4800038170472DE9F0014A888B880C88002AA7
:101C58000CBF02260026012B14BF01270227002CE7
:101C680054D0058CB1F80880B1F806C025F01005ED
:101C78002D042D0C0584048B018C24F44074240558
:101C880021F0A001240D090444EA0834090CA4B287
:101C980041EA021244EA032392B29BB242F01002D4
:101CA80003830284018B21F440610904090C018338
:101CB800038B9BB243EA0C239BB20383018C21F074
:101CC80001010904090C0184028B038C22F0F30240
:101CD800120423F00A03120C1B0442EA08121B0C1C
:101CE80043F0010392B21E43174307830684038B14
:101CF80023F00C031B041B0C0383038B9BB243EAE6
:101D08000C0CA0F818C0BDE8F0017047048CB1F8BD
:101D180008C0CD8824F001010904090C0184018B55
:101D2800048C21F0F3010904090C24F00A0441EAA7
:101D38000C11240442F0010289B2240C14430B4311
:101D480003830484038B23F00C031B041B0C038301
:101D5800038B9BB22B430383038C23F010031B04D8
:101D68001B0C0384028B038C22F44072120523F0AF
:101D7800A003120D1B0442EA0C321B0C43F01003A3
:101D880092B243EA061642EA072707830684038BC2
:101D980023F440631B041B0C0383038B9BB243EAAD
:101DA8000525ADB20583BDE8F0017047406B70476B
:101DB800806B7047C06B7047006C7047038B23F0D3
:101DC8000C031B041B0C0383038B9BB21943018375
:101DD800704700BF038B23F440631B041B0C038371
:101DE800038B9BB243EA01218BB20383704700BF88
:101DF800838B23F00C031B041B0C8383838B9BB204
:101E080019438183704700BF838B23F440631B040D
:101E18001B0C8383838B9BB243EA01218BB28383A0
:101E2800704700BFB1F802C00B888A89F0B48F8868
:101E3800CE880D894C894CEA03033B4333432B433B
:101E4800234313439BB2A0F84430F0BC704700BF53
:101E58000023038043808380C3800381438183817F
:101E6800704700BFB0F8443021B9C3F30E03A0F89F
:101E7800443070476FEA43436FEA53439BB2A0F87C
:101E880044307047838829B923F004031B041B0CD2
:101E9800838070479BB243F004038380704700BF80
:101EA800838829B923F001031B041B0C8380704726
:101EB8009BB243F001038380704700BF83899BB2C4
:101EC8001AB923EA0101818170471943818170475A
:101ED80081827047038A19420CBF00200120704795
:101EE800C94389B201827047038A828911420CBFB3
:101EF8000020012019420CBF002000F001007047AB
:101F0800C94389B2018270470A43A0F84820704744
:101F180083899BB21AB923EA010181817047194369
:101F280081817047838829B923F008031B041B0C9F
:101F3800838070479BB243F008038380704700BFDB
:101F4800038923F007031B041B0C0381704700BFA0
:101F5800038923F070031B041B0C194301810389B7
:101F68009BB243F007030381704700BF602970B438
:101F780027D0068C26F001063604360C0684058B1D
:101F8800048C25F0F3052D0424F00A042D0C2404F8
:101F980045F00105240C45EA031344F001049BB203
:101FA800224303830284038923F070031B041B0C60
:101FB8000B43038103899BB243F00703038170BC81
:101FC8007047048C24F010042404240C0484058B2A
:101FD800048C25F4407524F0A0042D0524042D0D4F
:101FE800240C45F4807544F0100445EA033344EAB0
:101FF80002129BB292B203830284D4E710B404891C
:1020080042EA0323E4B223439BB2194301810389C3
:102018005DF8044B23F077031B041B0C43F0770394
:102028000381704710B4048942EA0323E4B22343CE
:102038009BB21943018103895DF8044B9BB243F4B9
:1020480080430381704700BF038923F070031B049A
:102058001B0C194301817047838823F070031B040C
:102068001B0C838083889BB219438180704700BF13
:10207800038923F007031B041B0C038103899BB20C
:1020880019430181704700BF038923F080031B04B3
:102098001B0C038103899BB219430181704700BF60
:1020A80010B40489E4B221430A4342EA03239CB2F0
:1020B80004815DF8044B704770B40589048B068C65
:1020C80024F4407426F0220624F003043604360C67
:1020D80025F00705240432432D04240C2D0C44F468
:1020E800807442EA0313294344F001049EB201813B
:1020F8000483068470BC7047838829B923F0800361
:102108001B041B0C838070479BB243F080038380C1
:10211800704700BFA0F85010704700BF08B54FF4D3
:102128008053C4F20103984236D04FF48843C4F276
:10213800000398423AD04FF49043C4F20003984207
:1021480040D04FF49843C4F20003984246D04FF46D
:10215800A043C4F2000398424CD04FF4A053C4F2F9
:102168000103984252D04FF4F043C4F2000398425E
:1021780056D04FF4F843C4F20003984200D008BD8B
:102188004FF000400121FFF703F84FF00040002115
:10219800BDE80840FEF7FCBF10200121FFF706F854
:1021A80010200021BDE80840FFF700B84FF40030C8
:1021B8000121FEF7EDFF4FF400300021BDE8084093
:1021C800FEF7E6BF4FF480200121FEF7E1FF4FF450
:1021D80080200021BDE80840FEF7DABF4FF4002058
:1021E8000121FEF7D5FF4FF400200021BDE808408B
:1021F800FEF7CEBF4FF480100121FEF7C9FF4FF460
:1022080080100021BDE80840FEF7C2BF2020012150
:10221800FEF7CCFF20200021BDE80840FEF7C6BF2E
:102228004FF080400121FEF7B3FF4FF080400021BE
:10223800BDE80840FEF7ACBF028ACB8822F44052C2
:102248001204F0B5120C04461A430F898E88488987
:102258000D4689892282A38923F4B05347EA0602EE
:1022680023F00C0302431B0492B21B0C1343A381FB
:10227800A38A23F440731B041B0C85B00B43A38271
:102288006846FEF78FFEA6890298039B4FF4A0517B
:102298004FF48052C4F20101C4F20102944218BF03
:1022A8008C4232B218BF0346002A2A68A08903EB81
:1022B8008303B4BF5200920003EB8303B3FBF2F332
:1022C80048F21F52C5F2EB12A2FB035100B264257B
:1022D8004909002801FB1533B5BFDB001B01323368
:1022E8003233B5BFA2FB0302A2FB0352C2F3421270
:1022F800C2F343120901114389B2218105B0F0BD2F
:1023080000234FF416510C22016042818380C38060
:1023180003818381704700BF30B40A884D888C8858
:10232800038AC9882A43224323F470630A431B049F
:1023380092B21B0C1343038230BC70470023038006
:1023480043808380C3807047838929B923F400536D
:102358001B041B0C838170479BB243F40053838199
:10236800704700BF038B03F47F430383038B9BB247
:1023780019430183704700BF838919B9C3F30E035A
:10238800838170476FEA43436FEA53439BB283816B
:10239800704700BF838A29B923F400631B041B0C10
:1023A800838270479BB243F400638382704700BF07
:1023B800C1F30801818070478088C0F30800704726
:1023C800038A23F00F031B041B0C0382038A9BB2AE
:1023D80019430182704700BF838929B923F002039A
:1023E8001B041B0C838170479BB243F0020383815B
:1023F800704700BF838923F400631B041B0C83818F
:1024080083899BB219438181704700BF038A23F0F7
:1024180020031B041B0C0382038A9BB2194301820D
:10242800704700BF038A29B923F480431B041B0C9F
:10243800038270479BB243F480430382704700BF16
:1024480083899BB243F0010383817047838A29B94A
:1024580023F008031B041B0C838270479BB243F0D4
:1024680008038382704700BF038BDBB20383038BAF
:102478009BB243EA01210183704700BF838A29B9CF
:1024880023F020031B041B0C838270479BB243F08C
:1024980020038382704700BF838A29B923F0100381
:1024A8001B041B0C838270479BB243F0100383828A
:1024B800704700BF838A23F004031B041B0C83822C
:1024C800838A9BB219438182704700BF838A29B9E6
:1024D80023F002031B041B0C838270479BB243F05A
:1024E80002038382704700BF838A9BB21AB923EA2A
:1024F80001018182704719438182704701F01F03EF
:1025080010B4C1F342110124A14204FA03F308BF35
:102518000C3003D002290CBF1030143004682AB9DB
:1025280024EA030303605DF8044B70472343036008
:102538005DF8044B704700BF038819420CBF0020A8
:1025480001207047C94389B201807047C1F3421323
:1025580030B401F01F020124012B04FA02F416D052
:10256800022B0CBF028A828A92B22240038801257C
:10257800090A05FA01F19BB219420CBF002001209B
:10258800002A0CBF002000F0010030BC704782898F
:1025980092B22240EAE700BF090A012303FA01F1D7
:1025A800C94389B201807047012900D07047FEE70E
:1025B800091A10B50446881C800005F035FD20B1C5
:1025C800A300C3F10403184410BDFEE701F18041E4
:1025D800013900EB810005F02FBD00BF091A10B5C5
:1025E8000446881C800005F01FFD20B1A300C3F13C
:1025F8000403184410BDFEE701F18041013900EBE6
:10260800810005F019BD00BF2DE9F8430E1A0446F4
:10261800B01C800090460D461F4605F005FD024699
:1026280008B3C8EB0707013706FB07700130131D15
:102638008000A3EB8406994605F0F6FCA0B1031DC3
:10264800A3EB8803A54246F8243009DDBF004B46BA
:1026580006EB85051A683A4443F8042FAB42F9D1D2
:102668003046BDE8F883FEE7FEE700BF38B504460C
:1026780003F1804350F82100013B00EB83008D00FB
:1026880005F0DAFC281F2044BDE8384005F0D4BC2A
:102698002DE9F8430E1A0446B01C800090460D46FA
:1026A8001F4605F0C1FC024608B3C8EB070701370F
:1026B80006FB07700130131D8000A3EB84069946C2
:1026C80005F0B2FCA0B1031DA3EB8803A54246F8B0
:1026D800243009DDBF004B4606EB85051A683A44ED
:1026E80043F8042FAB42F9D13046BDE8F883FEE742
:1026F800FEE700BF38B5044603F1804350F82100D7
:10270800013B00EB83008D0005F096FC281F204458
:10271800BDE8384005F090BC2DE9F04FC0EB01084A
:1027280087B0044608F1020080008B461646994699
:10273800119D05F079FC002875D0C6EB0907013713
:1027480008FB077A0AF10103A10000F104089800C8
:10275800C1EB0808039105F067FC039A424405920F
:10276800002861D010996B1A01330AFB03F1043079
:102778004FEA860A0131CAEB000548F82450880060
:10278800029305F051FC029B00284ED0109A011DBF
:1027980006F1010CA1EB8201E14545F8261012DB98
:1027A8009900049109F1010250466146019301E044
:1027B800059B1D682E58049B043001311E4491422C
:1027C8002E50F5D1019BA34529DD03990A1F03FB70
:1027D80007F108EB8B0B8900B80008EB0205ABF199
:1027E800040B03919F0009F101066B6803990344E8
:1027F800AB6055F8042F52F80A20E1450A4443F823
:102808000A20A4BF5146634607DB6A68545801335F
:1028180004313C44B3425450F7D15D45E5D14046BC
:1028280007B0BDE8F08FFEE7FEE7FEE770B5059A52
:102838000D4650F82110044602F1804251F8230059
:10284800013A00EB82009E0005F0F6FB54F82520C3
:10285800301F1044AD0005F0EFFB281F2044BDE8F1
:10286800704005F0E9BB00BF05F0FABE08B54FF6A9
:102878006050C0F60000FFF7F7FF002008BD00BF5A
:1028880008B50248FFF7F0FF08BD00BF6CFD00085F
:1028980008B50948FFF7E8FF9FED080A40F60C2045
:1028A8000121F0EE400AB0EE401AC2F200000A46DA
:1028B800BDE8084000F0AAB87CFD00080000000050
:1028C80008B50248FFF7D0FF08BD00BF90FD00081B
:1028D80008B50248FFF7C8FF08BD00BF9CFD000807
:1028E80008B50248FFF7C0FF08BD00BFACFD0008EF
:1028F80008B50248FFF7B8FF08BD00BFB4FD0008DF
:1029080008B50248FFF7B0FF08BD00BFC0FD0008CA
:10291800034808B5FFF7A8FF012003F09FFE00BF9A
:10292800C8FD000808B50248FFF79EFF08BD00BFB4
:10293800D0FD000808B50248FFF796FF08BD00BFA4
:10294800E4FD000840F22803C2F200031A680132CD
:1029580004D01A681AB901221A6070477047FFF745
:10296800D7BF00BFF8B540F22805C2F20005FFF74F
:1029780087FF4FF43456FFF78BFF01232B60C0F21B
:10298800311600272B6840F22804C2F20004002BFD
:10299800F8D0FFF79DFFFFF7A3FFFFF7A9FFFDF7AB
:1029A80089FC2760FFF762FFB042EBDDFFF7B0FF5D
:1029B8000020F8BD38B5FFF763FFFFF769FF4FF454
:1029C8003455C0F23115FFF751FF0446FFF780FF79
:1029D800FFF786FFFFF78CFFFDF76CFCFFF746FF5C
:1029E800A8420FDCFFF742FF001BB0F57A7F06DC38
:1029F800FFF73CFF001BB0F57A7FF9DDE3E7FFF74F
:102A080087FFF5E7FFF784FF002038BD2DE9F84F71
:102A180006468F002DED048B3846F16132620C4674
:102A28009246F0EE408AB0EE608AB0EE419A05F028
:102A3800FBFA80463060384605F0F6FA4FEA8A0B12
:102A480070608146584605F0EFFA002CB060C4BFAC
:102A5800414607EB08040BDDE1EC018AA142FBD1FA
:102A68000025494607EB090441F8045BA142FBD164
:102A7800BAF1000FD8BF00EB0B0206DD034600EBEE
:102A88000B02A3EC018A9342FBD186ED069ABDECBA
:102A9800048B043708EB07034F44F3603761726116
:102AA800BDE8F88F70B490E86000C469012CC2BF1B
:102AB8002B1D321D05EB840009DD53F8041B43F878
:102AC800081C52F8041B834242F8081CF5D104F193
:102AD8008043013B9B001D4455ED017A70EE677AF7
:102AE800334485ED000AC3ED007A70BC704700BF1F
:102AF80070B490E86000C469012CC2BF2B1D321D60
:102B080005EB840009DD53F8041B43F8081C52F850
:102B1800041B834242F8081CF5D104F18043013BB1
:102B28009B001D4455ED017A77EE807A3344C5ED5C
:102B3800007A83ED000A70BC704700BF10B4046AC5
:102B48008068012CC4BF031D00EB840105DD53F828
:102B5800042B8B4243F8082CF9D100EB840404EDD4
:102B6800010A5DF8044B7047FFF7E8BF012380EDC9
:102B7800020A0370704700BF002380ED010A03704A
:102B8800704700BF0278034608461AB193ED020A5F
:102B9800FFF7AEBF93ED010AFFF784BF30B14CF6E3
:102BA800CD42CBF6CC5200234A600B70704700BF71
:102BB8000369C26813ED027AB4EEC70AF1EE10FA9F
:102BC800C4BF70EE477AB0EE407AF4EEC70ACCBFC5
:102BD80003ED020ADFED167AF1EE10FA44BF43ED79
:102BE800020A70EEC77A12ED027A77EE877AB4EEAF
:102BF800E71AF1EE10FAC4BF31EE677AF0EE417AC7
:102C0800F4EEE71AD6BF42ED027A02ED021A9FED02
:102C1800087AF1EE10FA44BF42ED021A31EEE77A73
:102C280053ED027A37EE877A03ED027A704700BFD8
:102C380000000000C36853ED027AF4EEC07AF1EEAA
:102C480010FA44BF30EE677AF0EE407AF4EEE70A05
:102C58004CBF03ED020A9FED097AF1EE10FA48BF66
:102C680043ED020A036948BF30EEE77A53ED027A72
:102C780037EE877A03ED027A704700BF0000000044
:102C8800036953ED027AF4EEC07AF1EE10FA44BF0C
:102C980030EE677AF0EE407AF4EEE70A4CBF03EDC7
:102CA800020A9FED097AF1EE10FA48BF43ED020AD5
:102CB800C36848BF30EEE77A53ED027A37EE877A79
:102CC80003ED027A704700BF00000000C36813EDEF
:102CD800020A7047036913ED020A7047002A2DE9BA
:102CE800F00728DD4FEA820C4FEA830800EB0C0A54
:102CF80089460CF1040C08F10408074659F8046FDA
:102D080004252E44002B19DD7C684159DFED0F7A2C
:102D1800221D04314444F2EC016AB1EC017AA2426A
:102D2800E6EE877AF7D104356545E6EC017AE9D114
:102D380004375745E2D1BDE8F0077047DFED037A65
:102D480004356545E6EC017ADCD1F1E700000000C6
:102D58002DE9F00F002B82B02DDD4FEA830AC1F177
:102D6800040301EB0A0B89460AF1040A019300EBFC
:102D78008207019E4E4459F8043F042503EB050CD5
:102D880003EB0A08002A1ADDDFED117A034653F82F
:102D9800041F8C192944D4ED006A91ED007ABB42D6
:102DA800E6EE877AF3D1ECEC017AC44505F1040527
:102DB800E8D1D945DDD102B0BDE8F00F7047DFEDAD
:102DC800047AECEC017AC44505F10405DAD1F0E7A0
:102DD800000000002DE9F00F82B0002B8B46DDF8D3
:102DE8002CC035DD0C998C000434019491460646BC
:102DF80003F1010A0BEB8C044FF001080C99002930
:102E08001EDDD9F80450019B042168181D44BCF14B
:102E1800000F21DD7268DFED157A5B46043253F846
:102E2800047F0F4497ED007AF2EC016AA342E6EEC4
:102E3800877AF4D1E0EC017AA84201F10401E6D1E5
:102E480008F10108D04509F1040906F10406D5D1B5
:102E580002B0BDE8F00F7047DFED047AE0EC017ACC
:102E6800A84201F10401D2D1EAE700BF0000000046
:102E78002DE9F00F84B00C9C0292002C38DD0E9DD9
:102E8800AA00013404320194039200EB83084FF046
:102E9800040C4FF0010B0E9C002C22DD029DDDF886
:102EA8000CA055F80C20042702EB07099244002BCC
:102EB80022DDDFED167A0C46024652F8046F54F80C
:102EC800045F66443D44D6ED006A95ED007A4245BC
:102ED800E6EE877AF1D1E9EC017AD14507F10407EA
:102EE800E5D1019A0BF1010B93450CF1040CD2D1F9
:102EF80004B0BDE8F00F7047DFED047AE9EC017A21
:102F0800D14507F10407D2D1EBE700BF000000006C
:102F18002DE9F00F002B089E32DD099C4FEA860C44
:102F2800671C9146054603F1010ABF000CF1040C29
:102F38004FF00108099C002C1ADDD9F80430042050
:102F480003EB000B002E1EDD6A680C58DFED127AC9
:102F5800131D04346244F3EC016AB4EC017A934221
:102F6800E6EE877AF7D10430B842EBEC017AE9D182
:102F780008F10108D04509F1040905F10405D9D182
:102F8800BDE8F00F7047DFED047A0430B842EBEC8F
:102F9800017AD7D1ECE700BF000000002DE9F0016D
:102FA800002B069F1EDD03F1010C4FEA87084FEA4C
:102FB8008C0C161D08F104080425002F15DD445952
:102FC800DFED0E7A231D0A1D4444F3EC016AB2ECCE
:102FD800017AA342E6EE877AF7D104356545E6EC37
:102FE800017AEAD1BDE8F0017047DFED047A0435D3
:102FF8006545E6EC017AE0D1F4E700BF0000000087
:1030080010B4019C012C15D0013410D1002B0EDD19
:10301800043000EB830304310432B0EC017AF1ECA4
:10302800017A77EE677A9842E2EC017AF5D15DF899
:10303800044B7047002BFADD043000EB83030431A6
:103048000432B0EC017AF1EC017A77EE277A9842F3
:10305800E2EC017AF5D15DF8044B70472DE9F003F5
:10306800079C069F012C2BD0013426D1002B24DD90
:103078004FEA870903F1010809F104094FF0010C2F
:10308800002F10DD46684D685468331D04354E44E2
:103098000434B3EC017AF5EC017A77EE677AB3423F
:1030A800E4EC017AF5D10CF1010CC44502F10402FB
:1030B80000F1040001F10401E2D1BDE8F00370471A
:1030C800002BFADD4FEA870903F10108A44609F14C
:1030D8000409002F10DD46684D685468331D043517
:1030E8004E440434B3EC017AF5EC017A77EE277A92
:1030F800B342E4EC017AF5D10CF1010CC44502F1BC
:10310800040200F1040001F10401E2D1BDE8F0037A
:10311800704700BFF0B4002B049E1CDD01F1040CC5
:1031280004305F1C0CEB86040125002E0CDD516871
:1031380063460431F3EC017A90ED007A67EE277A62
:10314800A342E1EC017AF5D10135BD4200F104005A
:1031580002F10402E9D1F0BC704700BF002A0EDD7D
:1031680004309FED080A00EB82030431B0EC017AC9
:10317800F1EC017A9842A7EE270AF7D170479FED44
:10318800010A7047000000002DE9F001069BDDF8F8
:1031980014C0002B1DDD171D07EB830801EB8C06FF
:1031A8000425BCF1000F17DDDFED107A021D0B4678
:1031B80053F8044F2C4494ED007AF2EC016AB342C0
:1031C800E6EE877AF4D1E7EC017A474505F1040584
:1031D800E7D1BDE8F0017047DFED047AE7EC017A4A
:1031E800474505F10405DCD1F3E700BF0000000006
:1031F8002DE9F001059C002C1DDD02F1040C0CEBFF
:10320800840800EB83070426002B17DDDFED107A16
:103218000C1D024652F8045F3544D5ED006AB4EC43
:10322800017ABA42E6EE877AF4D1ECEC017AC44529
:1032380006F10406E8D1BDE8F0017047DFED047A35
:10324800ECEC017AC44506F10406DDD1F3E700BFD2
:1032580000000000002AF0B41BDD4FEA830C571C65
:103268000CF1040C0126002B0CDD45684C682A1D66
:1032780004346544F2EC017AC7EE807AAA42E4ECA1
:10328800017AF7D10136BE4201F1040100F10400D0
:10329800E9D1F0BC704700BF002AF0B41BDD4FEA4B
:1032A800830C571C0CF1040C0126002B0CDD45681F
:1032B8004C682A1D04346544F2EC017A67EE807A82
:1032C800AA42E4EC017AF7D10136BE4201F10401C9
:1032D80000F10400E9D1F0BC704700BF0000000015
:1032E8002DE9F04F2DED028B87B0049081200191DC
:1032F8000392029301F0E8FE129DF7EE006AC5ED15
:10330800006A019D002D40F30281019A039D0298F5
:103318009FED847A541C012155F8042F01230432AF
:10332800994203F1010314BFF0EE477AF0EE667A92
:10333800A342E2EC017AF3D140F8041F0131A14223
:10334800EAD1019D012D40F3E580A80040F618134D
:10335800059000F1040C0398049DC2F200030430A8
:1033680093ED006ADFED6F5A009005F1040AA94653
:1033780004204FF00108019D454549DB9FED697A1E
:103388004A464146434652F8045F0544D5ED007A63
:10339800F0EEE77AF4EEC77AF1EE10FAC8BF1946F4
:1033A80003F10103C8BFB0EE677AA342EBD14145F0
:1033B8002ED0129D049BD5ED007A53F82120D9F820
:1033C8000450129BF1EE677AC3ED007A04322B1D8C
:1033D8008900654417681E6843F8047BAB4242F8CD
:1033E800046BF7D1029D2A586B58B8F1010F2B5086
:1033F8006A500DDD039D6A58295804320B1D01449B
:1034080016681D6843F8046B8B4242F8045BF7D1D9
:10341800019D08F10108454570DBD9F804E0009DDD
:1034280056460EEB00074146D7ED007AB0EEE77A34
:10343800B4EEC67AF1EE10FAC5BF72686B686B68B5
:103448001218C3BF92ED007AC7EE277A1B181B1813
:1034580001F1010105F1040506F10406D4BFC3ED2D
:10346800005AC3ED007AA142DED1009E0EF1040E8F
:1034780055464746696872680B1D02EB000B6144AC
:103488007246D3ED007AF2EC016A9BED007AE6EE23
:10349800C77AE3EC017A8B42F3D10137A74205F1F1
:1034A800040506F10406E5D1009A019D0432A845F9
:1034B8000AF1040A09F10409009200F104007FF4FA
:1034C8005AAF129D95ED008A049B05981C4604444A
:1034D800C3F10400C21853F8041F0A44D2ED007A5D
:1034E800A34228EE278AF5D1812001F003FEB0EE31
:1034F800480A07B0BDEC028BBDE8F08F009A043291
:103508000AF1040A09F104090092043033E7B0EE25
:10351800668AE9E7019B129D9B00059395ED008A59
:10352800D2E700BF000000002DE9F04F0E1E95B055
:10353800DCBF40F61811C2F20001804608921C4612
:10354800D8BF03911EDD40F61812C2F200024FEAFE
:10355800860C576803920CF1040C054606F1010E1F
:10356800012355F8040F57F8041F021D043100EB1E
:103578000C0952F8040B4A4541F8040BF9D1013300
:103588007345EED1039B13A99A68DB680091404606
:103598003146FFF7A5FE0399D1ED004AB0EEC04AC7
:1035A800B4EEE44A40F61812F1EE10FA84ED000A7F
:1035B800C2F2000202DD1E9B012B24D0002E15DD75
:1035C800039A52680492049D012458F8041F55F880
:1035D800042F04310432012352F8040B01339E42B4
:1035E80041F8040BF8DA0134A642EEDAB4EEE44A04
:1035F800F1EE10FA03D51E9B012B00F01D8101206E
:1036080015B0BDE8F08F002E40F31A811169536997
:1036180004919168D2680B930792049A58F826305F
:10362800DDF878A04FEA86094A4406920B9A4A4484
:103638000592089A4B444A440F93A9F104030E9348
:103648000D920B9B049A09F10409043304329FED8F
:10365800806ACDF830901093119206F1010BB7EE05
:10366800005A8946BAF1010F09BFD9F80430049904
:10367800D3ED017AC5EE277A0ABF049B81ED016A72
:10368800C3ED017A012E2CD0049A119F02F1080192
:103698000824022559F804005545A1EC016ADFED1C
:1036A8006C7A00F104030CBFF0EE455AF0EE465A6E
:1036B80020443A46F3EC016AB2EC017AE6EE877AE6
:1036C800834241ED017AF5D193ED007A75EEE77A00
:1036D8000135C7EE877AAB4504F1040441ED017A60
:1036E800D8D1069A0F9B059992ED007AD3ED007A0E
:1036F800C7EE277A012EC1ED007A3BD0CDF8249091
:10370800CDF828B005990E9DDDF818C0DDF82C908D
:10371800DDF830B03446A64201ED016A58F805706C
:10372800B8BFDFED4B7A11DBC9EB0103DFED487A57
:103738003B4407EB0B000A46F3EC016AB2EC017A52
:10374800E6EE877A834241ED017AF5D17CED016A94
:103758002F4497ED007A76EEE77A013CC7EE877A38
:10376800012CA5F1040561ED017AD4D1DDF824908E
:10377800DDF828B0079B109A53F8040F0D9D0793A6
:10378800089B800053F8041F52F8044B0144AB42D5
:103798000C60F7D10AF1010ADA457FF463AF0399A7
:1037A800DDF830904968454604910C46012054F8EC
:1037B800047F55F8042F3B1D04324F4453F8041B73
:1037C800BB4242F8041BF9D101308345EFD1039A7B
:1037D80008999369CDF80C80A9F104059FED1C6A3E
:1037E800C2460D444FF0010C984605960F4658F80E
:1037F800044F5AF8046F043404360420A4EC016A18
:10380800DFED137A32463B4653F8041F014491ED2D
:10381800007AF2EC016AE6EE877AAB4244ED017A6F
:10382800F2D104304845E9D10CF1010CE345DED171
:10383800DDF80C80059EC6E6002015B0BDE8F08FC7
:10384800B4EEE44AF1EE10FAF6D41E98D8E600BFBA
:103858000000000010B540F6181384B0C2F200034F
:103868000024DA69009403ABFFF75EFE9DED030ABE
:1038780004B010BDB5EEC00AF1EE10FAFFEE007A02
:10388800B7EE000AB8BFB0EE670A70472DE9F04FEF
:103898002DED048B93B00C461090832001F014FC9E
:1038A800109FA74200F31E8240F61817C2F20007C5
:1038B8000B97109F012F40F33E820B9F40F6181480
:1038C800C2F2000411947C6AD7F8208009949FED15
:1038D800BA8A04240A94F7EE009A0124444500F3B6
:1038E800FD810B990B9F0A9AFB6A4E6BBF6ADDF844
:1038F80028E0DDF828C00D6A9FEDAF7A191D9E44B7
:103908001744164400232246012C15BFF058F858D6
:103918006044D0ED017A14BFD0ED007A0EEB0300BD
:1039280002F1010213BFC1ED007AA7EEA77AC0ED3C
:10393800007AA7EEA77A954203F1040301F1040186
:10394800E2DA17EE100A01F099FE41EC100B03F0D1
:10395800E7F851EC100B02F0A7F90B9FD7F82C8071
:10396800D8ED017AF5EEC07AF1EE10FABFEE007AE2
:1039780006EE900AA8BFB0EE697AE6EE877AAC4206
:10398800C8ED017A00F3A4810A9908F10802521AD5
:10399800DFED898A02EB850208F10403F3EC017A72
:1039A8009342E7EEA78AF9D118EE900A01F066FE75
:1039B8007FA3D3E9002306460F4602F043F9002807
:1039C80000F08681B6EE009A28EE899A47EC106BD3
:1039D80003F0A6F851EC100B02F066F92B1B01332B
:1039E800099A009308EE900A41464046FFF792FB79
:1039F8000B9A119F126A7F6A0F92C4EB020E0EF1A6
:103A08000109B9F1000F09972EDD0EF102063D46B6
:103A180001208700042201236968F5EE408A1144D9
:103A2800F1EE10FA1EBFD1ED007AF1EE677AC7EE1B
:103A3800897A02F104020CBF81ED008AC1ED007A97
:103A4800984201BF6968C919D1ED007A77EEA97A61
:103A580003F1010308BFC1ED007AB342DCD10130A4
:103A6800B04205F10405D4D1012C00F0A5810F99CD
:103A7800002940F330810B9A0B9B526B1B6B0C9205
:103A88000A9F0C990D930EEB04023B1F01EB820277
:103A9800194400270791012106970891099F0A995F
:103AA8000F9B7F1A581C0E970899069F0D9DDDF8ED
:103AB80030E0DDF838C08C42CCBF00260126042354
:103AC80001213D44BE44BC4493468C42CCBF0027F0
:103AD80006F00107002F00F0EA806F68B9F1000FC7
:103AE8001F4487ED008A16DDDCF80820DDF81C800D
:103AF800DFED317A02F1040A5A4658F804BF9B44B4
:103B08009BED007AFAEC016AE6EE877A9045C7EDFC
:103B1800007AF2D193460131884203F10403D4D1EB
:103B2800089B069F0133043783425A460893069739
:103B3800BAD10B9A0F99576B166B4FEA810E0EF19B
:103B4800040E012556F8041F57F8042F0B1D0432E4
:103B580001EB0E0C53F8041B634542F8041BF9D122
:103B68000135A842EED10B9F0B9BBF6BDDF83C8063
:103B78000A9A1B6B08970B9F07930121C2F1040255
:103B8800B8F1000F3D6A05914FF0000C06925EDD1A
:103B98000599079EDDF820E08C42D4BF0027012755
:103BA800042001216644E64415E000BFAFF300801D
:103BB800BBBDD7D9DF7CDB3D00000000DEF8042068
:103BC80073680244034412681A6001318D4200F19F
:103BD800040030DBA8468C42D4BF002201223A42BE
:103BE800ECD1736803EB000989ED008A002A68D1DB
:103BF800B8EB040BE9D4DEF80430DDF818A01A1D80
:103C0800A34402EB8B0B0A9A5FED157A1344099AC9
:103C1800824452F8048FD044F3EC016A98ED007A9C
:103C2800E6EE877A5B45C9ED007AF2D101318D4223
:103C380000F10400CEDA059B01339D4205930CF197
:103C4800040CC0F29A80A846B8F1000FA0DC0A99CB
:103C5800109F01340431BC420A917FF43FAE0B9CA3
:103C6800A06B616B099ACDF800804346CDF80480BB
:103C7800CDF80880FFF7AEF80B9F3B6AB86B796BFD
:103C88007A6A009301930293FFF7A4F8B86B3B6A32
:103C98007A6A0093014601930293FFF739F983206A
:103CA80013B0BDEC048BBDE8F04F01F023BADEF889
:103CB80004806F6898441F44D8F80080C7F80080D3
:103CC80029E7DEF8042002441368C9F800307CE7CD
:103CD800002600277AE6DDF83C80B8E700200021BE
:103CE800454632E6109F002F7FF7DEAD40F61817E5
:103CF800C2F200070B97BD6A109F661C4FEA870E39
:103D080000204FEA860C0EF1040E01370121109AAB
:103D1800B24207DB6A6802EB0C03724443F8040BF7
:103D28009342FBD10131B94205F10405EFD1109F4F
:103D3800012F3FF7C2AD0B9FD7F820807F6A40F66E
:103D48001813C2F20003099789D1002C87DD986BFC
:103D58009A6A596B436855684A68043303EB8404CC
:103D6800043504324FF07E5643F8046B55F8047B53
:103D7800A34242F8047BF7D174E7002D1ADD0B9AB1
:103D88004FEA850C976B166B0CF1040C05F1010ECC
:103D9800012056F8041F57F8042F0B1D043201EBBD
:103DA8000C0853F8041B434542F8041BF9D10130B1
:103DB8007045EED1A8464AE70B9F0F9BB96A7A6B0C
:103DC8000998009301930293FFF704F8D7F820802D
:103DD800119F7F6AB8F1000F09977FF738AF119FDD
:103DE800099AB86B4FEA8807043708F10106234699
:103DF8005568416805F1040C05EB070E0D1D614679
:103E080051F804CB714545F804CBF9D10133B342DD
:103E180000F1040002F10402EAD118E72DE9F04F9D
:103E280040F61814C2F2000489B0E26B002A3CD1B3
:103E3800206A07AF256DE2690026014600963B46D9
:103E48002846FFF771FBDDED077A94ED007AF0EE76
:103E5800E76AF4EEC76A40F61816F1EE10FACDEDEF
:103E6800067AC2F2000640F10F82356A002D40F34F
:103E78005A81366D01213046012303E00133AB42FC
:103E880000F355819942F9D0426802EB8302D2EDE2
:103E9800007AF0EEE77AB4EEE77AF1EE10FAEDD5B3
:103EA8004FF0FF3009B0BDE8F08F206C616A236ADB
:103EB80007AF0025FEF712FF606AE16BE269009523
:103EC8003B46FFF731FBDDED077A94ED007AF0EE23
:103ED800E76AF4EEC76AF1EE10FACDED067A00F162
:103EE8005581D4F83CB0206ABBF1000FA2D00495EC
:103EF8000595834500F02782BBF1000F1FDDD4F83C
:103F08002890D4F8408009EB80060BF1010C0425B9
:103F18004FF0010E00280CDD58F805204B460432FE
:103F280053F8041F52F804AB2944B342C1F800A067
:103F3800F6D10EF1010EE64505F10405EAD1594620
:103F4800FFF7A4FC0023606BE16BE26900933B463A
:103F5800FFF7EAFA9DED077AD4ED007AB0EEC77A5A
:103F6800B4EEE77A40F61815F1EE10FAC2F2000541
:103F780096D40126E96B6A6A686B009606ABFFF770
:103F8800D3FAEB6BA86B696A0093019302932B6ACF
:103F9800EA6DFEF7BDFFD5F83CB02B6A9B4500F0F3
:103FA8003482002B25DDCBEB030C4FEA8C090BEB9D
:103FB8000608D5F860E0AD6B304609F104094FEA10
:103FC800880803EB060ABCF1000F0BDDDEF80410CD
:103FD8006E680A1D46444944F6EC017AE2EC017A1F
:103FE8008A42F9D1013050450EF1040E05F104055D
:103FF800E9D1E06D616CE26ACDF800B0CDF804B0AB
:10400800FEF7CCFF236AE56B206E216D626A01938F
:104018005D1B02930095FEF72BFF256AE36B606A30
:10402800216EE26C0095EB1A01950293FEF7D2FE21
:10403800256AE16BE06CE269002600963B46691A46
:10404800FFF772FA9DED077AD4ED007AB0EEC77AE1
:10405800B4EEE77A40F61816F1EE10FAC2F200064E
:104068003FF51EAF356AF16B726AF06C0127691A69
:1040780006AB0097FFF758FA336AF56B306E716A32
:10408800F26C5D1B009501950295FEF7A3FE336A5D
:10409800F56BF06C316E726A01935D1B00950295A9
:1040A800FEF736FF336A306DF16A726E0093019342
:1040B800FEF774FF716EB06D336A00970A46FEF71B
:1040C8009FFF336A706A716EB26E009301934FF06E
:1040D800FF35FEF763FF336AF06AB16E726D0095C3
:1040E800FEF78EFF336A206D616DE26A00930193DB
:1040F8000125FEF753FFA06DE16A626E236A009501
:10410800FEF77EFF236AE56BE06D616EE26E019358
:104118000095FFF76DF8059B40F61815C2F20005EB
:10412800002B40F03C81012009B0BDE8F08F01313F
:10413800A94200F104007FF79FAE676DA46D4FF0B0
:10414800000C06EB85053246042352F8041F194477
:10415800D1ED007AF0EEE76AB4EEE67AF1EE10FA05
:1041680004EB030043BFD0ED006AF1EE666AC6EEC9
:10417800A77AF9184CBFF918C1F800C003F1040375
:1041880048BFC1ED007AAA42DFD1CCE7236A002BF1
:1041980019DD226C616A52684968D4F82CE0606CB9
:1041A800D4F848C002EB830604360432043152F8CE
:1041B800045B41F8045B4568B242CEF80450F6D17E
:1041C8000122CCF80420E26B012ADFBF0021184647
:1041D80004914FF0010840F3888040F6181B002234
:1041E800C2F2000B4FF0020904929246002B5A4685
:1041F8004FF00806BB464FF001084F46914640DD98
:10420800236C626A9859236A08F10105043052F850
:1042180025100122043150F804EB0132934241F891
:1042280004EBF8DA606AE16C2A46FEF757FDE06CA9
:10423800E269CDF800A029465B46FFF775F9DDED88
:10424800077A94ED007AF0EEE76AF4EEC76AF1EEC9
:1042580010FACDED067A38D50499D9F848307A4263
:1042680001319A510491E26B013740F61813BA42B2
:1042780006F10406C2F2000335DBD9F82030002B22
:10428800BEDC08F10105CDE70123316A726A306DA1
:10429800009306ABFFF748F9336A726D706AB16D27
:1042A80000930193FEF77AFE326A002A7FF73BAF4C
:1042B800736D043303EB8202D3ED007AF1EE677A73
:1042C800E3EC017A9342F7D12DE7D9F84410D9F8F5
:1042D8002C20D9F84830314402EB85020968A846F9
:1042E80011609F51BFE7186A5F46E26A636CD4F8B1
:1042F80040B0D4F824A0C4F83C804FEA800902F109
:10430800040C03F1040E09F10409002101265CF8EC
:10431800043B002801F104014EF8043B0CDD5AF877
:1043280001205BF80150131D04354A44F3EC017A6F
:104338009342E5EC017AF9D101364645E7DD0122E1
:10434800C3460592D5E50023206CE26900935946DF
:104358003B46FFF7E9F89DED077AD4ED007AB0EE19
:10436800C77AB4EEE77A40F61815F1EE10FAC2F201
:1043780000053FF595AD0123296A6A6A286C009308
:1043880006ABFFF7D1F82B6A686A696C6A6D00930F
:104398000193FEF703FED5F83CB0286AACE5EE6B56
:1043A800002E0BDDEB6EEA6A0433043203EB860061
:1043B80053F8041B834242F8041BF9D1DDF810803E
:1043C800B044B8F1000F1DDDD4F86CC0E76AA16CE9
:1043D8004FF000094FEA88060023012251F8040F24
:1043E800002807EB820003F10403C9BF05680CEB42
:1043F80003000CEB03000132CCBF0560C0F800904D
:10440800B342EBD1C4F83C808DE65B466BE600BF57
:1044180010B50446006982B030B123686268009321
:1044280001210B46FEF766F9606918B1012162683F
:10443800FEF7E2F8A06918B101212268FEF7DCF85E
:10444800E06918B101216268FEF7D6F8A06828B1C2
:104458002268012100920B46FEF74CF9E06818B17A
:1044680001212268FEF7C8F8002323616361A36174
:10447800E361A360E36002B010BD00BF2DE9F0471F
:1044880080462DED028B9146F0EE408AB0EE608AB0
:104498008A46FFF7BDFF0120494653460246C8ED4C
:1044A800088AC8F800A0C8F8049088ED098AFEF7C1
:1044B800EFF84946C8F810000120FEF78FF8B9F167
:1044C800000FC8F814001FDD00EB89024FEA8A03C9
:1044D8000021071D0432181D4FF0040E0026CBF6EC
:1044E8008071BAF1000F09DDD8F8103053F80E507A
:1044F8002C1D054444F8046BAC42FBD147F8041B5F
:1045080097420EF1040EECD151460120FEF766F8F1
:10451800C8F818000120024653465146FEF7B8F87D
:104528005146C8F808000120FEF758F84946C8F86F
:104538000C000120FEF752F8BDEC028BC8F81C00F5
:10454800BDE8F08730B540F61814C2F2000483B015
:10455800226A256FA06A9542B8BF154620B101218D
:1045680000920B46FEF7C6F8A06B40F61813C2F28D
:10457800000328B11A6A012100920B46FEF7BAF827
:10458800606B40F61813C2F2000328B11A6A0121C1
:1045980000920B46FEF7AEF8606D40F61813C2F2B3
:1045A800000318B11A6A0121FEF726F8E06E40F6FA
:1045B8001813C2F2000318B11A6F0121FEF71CF894
:1045C800206D40F61813C2F2000328B11A6A0121BF
:1045D80000920B46FEF78EF8A06D40F61813C2F253
:1045E800000318B11A6A0121FEF706F8206C40F69C
:1045F8001813C2F2000330B11A6F1B6A012100932D
:104608000B46FEF777F8606C40F61813C2F2000309
:1046180018B11A6F0121FDF7EFFFE06D40F618138E
:10462800C2F2000328B11A6A012100920B46FEF774
:1046380061F8206E40F61813C2F2000328B11A6A16
:10464800012100920B46FEF755F8A06C40F61813AE
:10465800C2F2000318B11A6F0121FDF7B7FF606FAE
:1046680040F61813C2F2000318B11A6F0121FDF7C2
:10467800ADFFA06F40F61813C2F2000318B11A6F0D
:104688000121FDF7A3FFE06A18B101212A46FDF7D1
:10469800B3FF606E18B101212A46FDF7ADFFA06E89
:1046A80018B101212A46FDF7A7FF606A28B1012148
:1046B80000950B462A46FEF71DF8E06C28B101214B
:1046C80000950B462A46FEF715F8206B28B1012104
:1046D80000950B462A46FEF70DF8606828B10121BF
:1046E80000950B462A46FEF705F8A06828B1012177
:1046F80000950B462A46FDF7FDFFA06928B1012168
:1047080000950B462A46FDF7F5FFE06818B1012130
:104718002A46FDF75BFF606918B101212A46FDF7BB
:104728006BFF206918B101212A46FDF765FFE06992
:1047380028B1012100952A460B46FDF7DBFF00232F
:10474800A362A36363636365E3662365A365236468
:104758006364E3652366A3646367A367E3626366D0
:10476800A3666362E36423636360A360A361E36099
:1047780063612361E36103B030BD00BF2DE9F047F9
:104788008246FFF7DFFE9AE8300040F61818C2F2BA
:104798000008DAF82470DAF82060C8F82040012010
:1047A800214623460246C8F80070C8F87C60C8F85D
:1047B8007050FDF76DFFD8F82010C8F828000120C8
:1047C8000B460246FDF764FFD8F82010C8F83800F9
:1047D80001200B460246FDF75BFFD8F82010C8F809
:1047E80034000120FDF7FAFED8F87010C8F854001C
:1047F8000120FDF7F3FED8F82010C8F86C0001205E
:104808000B460246FDF744FFD8F82010C8F85000C0
:104818000120FDF7E3FEC8F858000120D8F8203041
:10482800D8F870100246FDF733FFD8F87010C8F8B2
:1048380040000120FDF7D2FED8F82010C8F8440047
:1048480001200B460246FDF723FFD8F82010C8F8D0
:104858005C0001200B460246FDF71AFFD8F87010DD
:10486800C8F860000120FDF7A3FEA542ACBFA94629
:10487800A146DAF81030DAF81C20DAF81470DAF801
:104888001860DAF80850DAF80C40C8F84800D8F888
:104898007010C8F880300120C8F89420C8F88470D7
:1048A800C8F88860C8F88C50C8F89040FDF780FEBA
:1048B800D8F87010C8F874000120FDF779FE494651
:1048C800C8F878000120FDF789FE4946C8F82C0091
:1048D8000120FDF783FE4946C8F864000120FDF772
:1048E8007DFEC8F86800012049464B460246FDF7A0
:1048F800CFFEC8F82400012049464B460246FDF782
:10490800C7FEC8F84C00012049464B460246FDF751
:10491800BFFEC8F83000012049464B460246FDF765
:10492800B7FEC8F80400012049464B460246FDF789
:10493800AFFEC8F8080001204B4602464946FDF77D
:10494800A7FE4946C8F818000120FDF731FE494680
:10495800C8F80C000120FDF741FE4946C8F81400CC
:104968000120FDF73BFEC8F81000012049464B46E0
:104978000246FDF78DFEC8F81C00BDE8F08700BFB1
:1049880040F6181C2DE9F00FC2F2000C0025DCF8E7
:104998007060CCF89850AE4282B05EDDDCF82070D2
:1049A800DCF88430DCF88810DCF880A0DCF874804F
:1049B800CDF804C09CED1F6ABA00012402F1040975
:1049C800F1EE465A03F1040B04208C46002F49DD12
:1049D8005AF80010DFED297A0B1D0CF10402494446
:1049E800F3EC016AB2EC017A8B42E6EE877AF7D1F2
:1049F800BBEC017A77EEC77AF4EEE57AF1EE10FABD
:104A080033D4F0EEE77AB4EEE76AF1EE10FAACBF11
:104A18000123002304F10104AABF48F8003048F834
:104A28000030ED18B44200F10400CFDDDDF804C019
:104A38000120DCF87840DCF87420CCF89850064463
:104A4800034652F8041F012908BF44F8203003F137
:104A5800010308BF0130B342F3D1012002B0BDE821
:104A6800F00F7047DFED057AC2E7DDF804C00020DB
:104A7800CCF8985002B0BDE8F00F70470000000075
:104A880040F6181CC2F2000C2DE9F00FDCF82040AB
:104A9800002C48DDA600DCF85080DCF88C50043689
:104AA800671C4FF001096868D8F80420031D043218
:104AB800304453F8041B834242F8041BF9D109F12E
:104AC8000109B94508F1040805F10405EBD1DCF842
:104AD8008820DCF85810DCF89030DCF850904FF063
:104AE800000B02F1040A043103F10408012559F806
:104AF800040F41F804BBDFED267A031D524630440B
:104B0800F3EC016AB2EC017AE6EE877A834241ED72
:104B1800017AF5D1B8EC017A013577EE277AAF4200
:104B280041ED017AE3D1DCF8986040F61813002EC5
:104B3800CCF83C60C2F2000325DD5D6CD3F84090F0
:104B4800D3F88080D3F878C0A7004FF0000BB600E8
:104B5800043504370020002C45F804BB00F104009C
:104B68000FDD5CF8003059F8002058F823100432A3
:104B78000B1D01EB070A53F8041B534542F8041BAD
:104B8800F9D1B042E7D1BDE8F00FFFF747B900BF50
:104B9800000000002DE9F04F2DED028B87B0FFF7E4
:104BA800EFFE002800F06E8140F6181B6422C2F266
:104BB800000B0292802000F087FAFFF761FF0130B6
:104BC80000F05681DBF8201040F618100029C2F2D8
:104BD8000000D8BF9FEDB07A0BDD436D9FEDAE7A34
:104BE800043303EB8102F3EC017A9342A7EEA77A30
:104BF800F9D1DBED007AF4EEC77AF1EE10FAC0F2E3
:104C0800D780DBF83C40002C40F30681DBF86C20B1
:104C1800DBF87830049D9FEDA07A043203EB840121
:104C2800F2EC017AF4EEC77AF1EE10FA48BF5D684B
:104C380003F1040348BFB0EE677A8B42F0D1B5EEBA
:104C4800C07AF1EE10FA049580F2E680DBF898302D
:104C5800DBF87000DBF8742004990024013BA042C3
:104C680042F82140CBF8983010DD0124DBF8785069
:104C78002044234652F8041F012908BF45F8243070
:104C880003F1010308BF01348342F3D1FFF7F8FEB3
:104C9800013000F0ED80DBF82080DBF87020002A7E
:104CA800019239DDDBF88450DBF88830DBF854906A
:104CB800DBF87460DBF8804003934FEA880C043516
:104CC8000CF1040C571C4FF0000A012056F8043F61
:104CD800C3B9B8F1000F15DD6168DFED6F7A01F136
:104CE800040E7346614409F10402F3EC016AB2EC64
:104CF800017A8B42E6EE877AF7D1F5EEC07AF1EECB
:104D080010FA35D40130B84205F1040504F1040461
:104D1800DCD1BAF1000F4DD1B7EE008AB8F1000F1F
:104D280011DDDBF88830DBF85420043303EB880806
:104D38000432D3ED007AB2EC017AE7EE087AE3ECBC
:104D4800017A4345F5D1F7EE007AB4EEE78AF1EE41
:104D580010FA40D4802000F0CDF9029B013B029369
:104D68007FF428AF022007B0BDEC028BBDE8F08FBE
:104D7800039A95ED007A131DBEEC016AF3EC016A03
:104D88007145A6EE667AF7D1BAF1000F05D187EE24
:104D9800278A05904FF0010AB4E7C7EE277AF4EEA8
:104DA800C87AF1EE10FA44BFB0EE678A0590A9E719
:104DB800884672E718EE100A00F060FC9FED340B8D
:104DC80041EC110B01F0F2FD51EC100B00F06CFFFF
:104DD80008EE100AA2E7DBF89830DBF874200133FC
:104DE800CBF89830059B012442F82340019C002C05
:104DF800B0DD019BDBF8785001241819234652F8DE
:104E0800041F012908BF45F8243003F1010308BF36
:104E180001348342F3D19DE7026F40F61813002A4C
:104E2800C2F2000309DDD3F894300433002103EB08
:104E3800820243F8041B9342FBD1002C0FDD836FE1
:104E4800C26ED0F8945003EB8404043253F8041F64
:104E580052F8040B05EB8101A3420860F6D18020CB
:104E680000F048F9012007B0BDEC028BBDE8F08FD7
:104E7800802000F03FF94FF0FF3007B0BDEC028B07
:104E8800BDE8F08F6FF00100F7E700BFAFF30080D7
:104E9800000000000000F03F0000000038B50546A3
:104EA800FFF76CFCFFF776FE04462846FFF74AFB3F
:104EB800204638BDAFF30080FDEEC07A9FED0F7A33
:104EC800F8EEE76A10B530EE660A40F63C2420EEAC
:104ED800070AC2F20004BDEEC00A4FF6046110EEE4
:104EE800103A17EE902A002BB8BF5B422046C0F656
:104EF800000103F023FC204610BD00BF00401C4603
:104F080010B5042003F090F80446242003F08CF830
:104F18000346FF2100222060197020461A6210BD46
:104F28002DE9F04140F6B414C2F20004ADF5806DED
:104F38002368002B71D01C464FF64C6E4FF6546018
:104F48004FF658674FF660664FF66465C0F6000E78
:104F5800C0F60000C0F60007C0F60006C0F600055F
:104F68004FF60C614FF63C624FF640632468CDF86B
:104F780000E0C0F60001C0F60002C0F60003019090
:104F880002970396049506A803F0D8FB06A8FDF738
:104F98006BFC4FF69C63C0F600034FF66C611A4633
:104FA8000093019302930393049306A8C0F60001AB
:104FB80003F0C4FB06A8FDF757FC54B32578FF2D72
:104FC80024D06769A669D4F80C8007EE107AB8EE89
:104FD800470A07EE106AF8EE477A80EE270AFFF7CD
:104FE8006BFF009703900196CDF80880236904931E
:104FF800E3694FF6A86105932A462B46C0F60001DF
:1050080006A803F09BFB06A8FDF72EFC246A002CDB
:10501800D4D10DF5806DBDE8F081FFF771FF2060F8
:10502800044689E710B540F6B414C2F200042068BB
:1050380000B110BDFFF764FF206010BD38B540F621
:10504800B415C2F2000504462B6843B1186810B9BC
:1050580004E0006A10B10278A242FAD138BDFFF725
:105068004FFF28600346F1E710B540F6B414C2F2CA
:105078000004236833B1186800E01846036A002B5F
:10508800FBD110BDFFF73CFF20600346F3E700BFEC
:1050980038B50546FFF7D2FF044608B1204638BDAB
:1050A800242002F0C1FF0446FFF7DEFF002304625C
:1050B8006FF000422570E26023626361A361636060
:1050C800A3602361204638BD10B5FFF7E1FF012337
:1050D8000446C361FDF7CAFBA36960600133A3619D
:1050E80010BD00BF08B5FFF7D3FF836901338361A3
:1050F80008BD00BF10B5FFF7A1FF0446F8B1FDF7E2
:10510800B5FB6268A06090423DBF4FF6FF73C7F6DB
:10511800FF73C2EB0303C2EB00002169626938BF69
:10512800C018E36881422CBF21612061024400213C
:105138006261834294BFE360E060E16110BD6FF09B
:10514800010001F08BFA00BF704700BFF8B540F6C8
:10515800B816C2F200060746306800F08FFA12A3AC
:10516800D3E9002300F0DEFAFB68044653F8080C84
:105178000D4600F083FA0EA3D3E9002300F0D2FA1B
:105188000B4602462946204600F01AF900F08CFD2D
:10519800034600EE103A38463360BDE8F840FDF7A4
:1051A800E3BC00BFAFF30080CDCCCCCCCCCCEC3F83
:1051B8009A9999999999B93F2DE9F04140F6B8160D
:1051C800C2F200062DED028B96ED018A074618EE15
:1051D800100A00F053FA41EC100B01F041FC0023D7
:1051E80051EC100B0022C3F6F07300F0E9F800232D
:1051F8000022C3F6E07300F095FA02460B4600F071
:10520800DFF800230022C3F6E07300F0D7F800F0BF
:105218004BFDDFED157A38EE278A804618EE100A26
:1052280000F02CFA0EA3D3E9002304460D4600F043
:10523800FFFC90B10AA3D3E900232046294600F0D9
:10524800BDF800F031FD7060BDEC028B384600EE11
:10525800108ABDE8F041FDF787BC86ED018AF3E7C7
:10526800182D4454FB211940A6922B3DB7EE000A95
:10527800FDF77ABC40F6B813C2F200039A68092A0F
:1052880005DC0132B7EE000A9A60FDF76DBCB1EE9D
:10529800040AFDF769BC00BFF8B540F22C04C2F25D
:1052A800000406462568DDB1D4ED017AB8EEE70AB8
:1052B800F2EE047A80EE270A6268012D02F10103FA
:1052C8006360F6EE007A30EE670A04D1092B02DD3E
:1052D8000023236063603046BDE8F840FDF744BC16
:1052E800676807EE907AB8EEE77AF2EE0E7AC7EEC4
:1052F800277A17EE900A00F0C1F90B460021024602
:10530800C3F6F071002000F059F80023C3F6E073EB
:10531800002200F053F800F0C7FC7B1C0E2B00EEB7
:10532800100A6360D7DD012384E828003046BDE811
:10533800F840FDF719BC00BF38B540F6B814C2F202
:105348000004D4ED037AF5EE407AF1EE10FA054642
:1053580007D1002004F0BCFC03F08AF94FF07E531B
:10536800E36003F091F907EE900AFAEEE07A17EE9F
:10537800900A00F083F902460B4600F021F800235A
:10538800C3F6E073002200F019F800F08DFC00EE7F
:10539800100A2846BDE83840FDF7E6BBAFF30080A9
:1053A800E402010800000020F8080020FC080020A2
:1053B800A40A002081F0004102E000BF83F000430E
:1053C80030B54FEA41044FEA430594EA050F08BF98
:1053D80090EA020F1FBF54EA000C55EA020C7FEA5C
:1053E800645C7FEA655C00F0E2804FEA5454D4EBD9
:1053F8005555B8BF6D420CDD2C4480EA020281EAA3
:10540800030382EA000083EA010180EA020281EADA
:105418000303362D88BF30BD11F0004F4FEA01312C
:105428004FF4801C4CEA113102D0404261EB41013B
:1054380013F0004F4FEA03334CEA133302D05242C1
:1054480063EB430394EA050F00F0A780A4F101047D
:10545800D5F1200E0DDB02FA0EFC22FA05F28018B7
:1054680041F1000103FA0EF2801843FA05F359419D
:105478000EE0A5F120050EF1200E012A03FA0EFC1C
:1054880028BF4CF0020C43FA05F3C01851EBE37146
:1054980001F0004507D54FF0000EDCF1000C7EEB63
:1054A80000006EEB0101B1F5801F1BD3B1F5001FA1
:1054B8000CD349085FEA30004FEA3C0C04F10104C0
:1054C8004FEA445212F5800F80F09A80BCF1004FE9
:1054D80008BF5FEA500C50F1000041EB045141EA6B
:1054E800050130BD5FEA4C0C404141EB010111F46C
:1054F800801FA4F10104E9D191F0000F04BF014617
:105508000020B1FA81F308BF2033A3F10B03B3F1F4
:1055180020020CDA0C3208DD02F1140CC2F10C0284
:1055280001FA0CF021FA02F10CE002F11402D8BFE2
:10553800C2F1200C01FA02F120FA0CFCDCBF41EAAE
:105548000C019040E41AA2BF01EB0451294330BD7D
:105558006FEA04041F3C1CDA0C340EDC04F114045A
:10556800C4F1200220FA04F001FA02F340EA030031
:1055780021FA04F345EA030130BDC4F10C04C4F177
:10558800200220FA02F001FA04F340EA0300294657
:1055980030BD21FA04F0294630BD94F0000F83F4A1
:1055A800801306BF81F480110134013D4EE77FEA84
:1055B800645C18BF7FEA655C29D094EA050F08BFD0
:1055C80090EA020F05D054EA000C04BF19461046B1
:1055D80030BD91EA030F1EBF0021002030BD5FEAF5
:1055E800545C05D14000494128BF41F0004130BD1D
:1055F80014F580043CBF01F5801130BD01F0004571
:1056080045F0FE4141F470014FF0000030BD7FEAE3
:10561800645C1ABF194610467FEA655C1CBF0B46DE
:10562800024650EA013406BF52EA033591EA030FF5
:1056380041F4002130BD00BF90F0000F04BF0021ED
:10564800704730B54FF4806404F132044FF0000520
:105658004FF0000150E700BF90F0000F04BF002199
:10566800704730B54FF4806404F1320410F00045FF
:1056780048BF40424FF000013EE700BF42004FEAFA
:10568800E2014FEA31014FEA02701FBF12F07F4377
:1056980093F07F4F81F06051704792F0000F14BF74
:1056A80093F07F4F704730B54FF4607401F00045B8
:1056B80021F0004120E700BF50EA010208BF70470F
:1056C80030B54FF000050AE050EA010208BF704704
:1056D80030B511F0004502D5404261EB41014FF46D
:1056E800806404F132045FEA915C3FF4DCAE4FF071
:1056F80003025FEADC0C18BF03325FEADC0C18BF58
:10570800033202EBDC02C2F1200300FA03FC20FAA8
:1057180002F001FA03FE40EA0E0021FA02F11444F5
:10572800C1E600BF70B54FF0FF0C4CF4E06C1CEA0A
:1057380011541DBF1CEA135594EA0C0F95EA0C0F7F
:1057480000F0DEF82C4481EA030621EA4C5123EAF2
:105758004C5350EA013518BF52EA033541F4801121
:1057680043F4801338D0A0FB02CE4FF00005E1FBD4
:1057780002E506F00042E0FB03E54FF00006E1FB1E
:1057880003569CF0000F18BF4EF0010EA4F1FF0461
:10579800B6F5007F64F5407404D25FEA4E0E6D41A1
:1057A80046EB060642EAC62141EA55514FEAC520B2
:1057B80040EA5E504FEACE2EB4F1FD0C88BFBCF52E
:1057C800E06F1ED8BEF1004F08BF5FEA500E50F1DF
:1057D800000041EB045170BD06F0004646EA0101A5
:1057E80040EA020081EA0301B4EB5C04C2BFD4EBD7
:1057F8000C0541EA045170BD41F480114FF0000ED0
:10580800013C00F3AB8014F1360FDEBF002001F03D
:10581800004170BDC4F10004203C35DA0C341BDCB7
:1058280004F11404C4F1200500FA05F320FA04F089
:1058380001FA05F240EA020001F0004221F00041BD
:1058480010EBD37021FA04F642EB06015EEA430E30
:1058580008BF20EAD37070BDC4F10C04C4F1200560
:1058680000FA04F320FA05F001FA04F240EA020013
:1058780001F0004110EBD37041F100015EEA430EE4
:1058880008BF20EAD37070BDC4F1200500FA05F204
:105898004EEA020E20FA04F301FA05F243EA020383
:1058A80021FA04F001F0004121FA04F220EA020092
:1058B80000EBD3705EEA430E08BF20EAD37070BDD8
:1058C80094F0000F0FD101F00046400041EB0101B8
:1058D80011F4801F08BF013CF7D041EA060195F09A
:1058E800000F18BF704703F00046520043EB030354
:1058F80013F4801F08BF013DF7D043EA0603704741
:1059080094EA0C0F0CEA135518BF95EA0C0F0CD04B
:1059180050EA410618BF52EA4306D1D181EA030191
:1059280001F000414FF0000070BD50EA410606BF8B
:105938001046194652EA430619D094EA0C0F02D1D0
:1059480050EA013613D195EA0C0F05D152EA033615
:105958001CBF104619460AD181EA030101F0004133
:1059680041F0FE4141F470014FF0000070BD41F07C
:10597800FE4141F4780170BD70B54FF0FF0C4CF456
:10598800E06C1CEA11541DBF1CEA135594EA0C0F75
:1059980095EA0C0F00F0A7F8A4EB050481EA030EC2
:1059A80052EA03354FEA013100F088804FEA0333A9
:1059B8004FF0805545EA131343EA12634FEA022277
:1059C80045EA111545EA10654FEA00260EF0004138
:1059D8009D4208BF964244F1FD0404F5407402D28A
:1059E8005B084FEA3202B61A65EB03055B084FEA1B
:1059F80032024FF480104FF4002CB6EB020E75EB18
:105A0800030E22BFB61A754640EA0C005B084FEA3F
:105A18003202B6EB020E75EB030E22BFB61A7546BC
:105A280040EA5C005B084FEA3202B6EB020E75EB07
:105A3800030E22BFB61A754640EA9C005B084FEA7F
:105A48003202B6EB020E75EB030E22BFB61A75468C
:105A580040EADC0055EA060E18D04FEA051545EA7B
:105A680016754FEA06164FEAC30343EA52734FEA24
:105A7800C2025FEA1C1CC0D111F4801F0BD141EA9D
:105A880000014FF000004FF0004CB6E711F4801F02
:105A980004BF01430020B4F1FD0C88BFBCF5E06FE2
:105AA8003FF6AFAEB5EB030C04BFB6EB020C5FEAF2
:105AB800500C50F1000041EB045170BD0EF0004E47
:105AC8004EEA113114EB5C04C2BFD4EB0C0541EA79
