:020000040800F2
:10000000F84A0420DD010008732B0008372A000895
:10001000712B0008ED0A00082932000800000000DA
:10002000000000000000000000000000772B000826
:10003000A10B000800000000752B0008792B0008B8
:10004000F7010008F7010008F7010008F7010008B0
:10005000F7010008F7010008F7010008F7010008A0
:10006000F7010008F7010008F7010008F701000890
:10007000F7010008F7010008F7010008F701000880
:10008000F7010008F7010008A9090008F7010008B6
:10009000F7010008F7010008F7010008F701000860
:1000A000F7010008F7010008F7010008F701000850
:1000B000752C0008F7010008F7010008F701000897
:1000C000F7010008F7010008F7010008F701000830
:1000D000F70100081D320008F7010008F7010008C9
:1000E000F7010008F7010008F7010008F701000810
:1000F000F7010008F7010008F7010008F701000800
:10010000F7010008F7010008F7010008F7010008EF
:10011000F7010008F7010008F7010008F7010008DF
:10012000F10A0008F7010008F7010008F7010008CC
:10013000F7010008F7010008F7010008F7010008BF
:10014000F7010008F7010008F7010008F7010008AF
:10015000F7010008F7010008F7010008F70100089F
:10016000F7010008F7010008F7010008F70100088F
:10017000F7010008F7010008F7010008000000007F
:10018000F7010008F7010008F7010008F70100086F
:10019000F7010008F7010008F7010008F70100085F
:1001A000F7010008F7010008F7010008F70100084F
:1001B000F7010008F7010008F7010008F70100083F
:1001C000F7010008F7010008DFF80CD000F006FB8B
:1001D00000480047F1670008F84A042006488047B5
:1001E00006480047FEE7FEE7FEE7FEE7FEE7FEE71C
:1001F000FEE7FEE7FEE7FEE7212C0008C901000844
:100200002DE9F05F0546002092469B46884606464B
:10021000814640241BE0284641464746224600F0DE
:100220008DF853465A46C01A914110D311461846CC
:10023000224600F074F82D1A67EB01084F4622465B
:100240000120002100F06BF817EB00094E41201E41
:10025000A4F10104DFDC484631462A464346BDE8A6
:10026000F09FD2B201E000F8012B491EFBD270478B
:100270000022F6E710B513460A4604461946FFF772
:10028000F0FF204610BD421C10F8011B0029FBD1D5
:10029000801A704700F0004230F000400AD0C10DD3
:1002A00001F56071C0F3160042EA0151C20840072F
:1002B0001143704700200146704701F0004330B4FD
:1002C00021F0004150EA010206D00A0DA2F5607249
:1002D000C1F31301002A02DC30BC00207047440F38
:1002E00044EAC104C100E01830BC00EBC25000F089
:1002F00035B830B50B46014600202022012409E024
:1003000021FA02F59D4205D303FA02F5491B04FACE
:1003100002F52844151EA2F10102F1DC30BD202AAD
:1003200004DB203A00FA02F1002070479140C2F14C
:10033000200320FA03F3194390407047202A04DB7E
:10034000203A21FA02F00021704721FA02F3D0404E
:10035000C2F1200291400843194670470029A8BF06
:100360007047401C490008BF20F00100704710B4DE
:10037000B0FA80FC00FA0CF050EA010404BF10BC93
:10038000704749B1CCF1200421FA04F411FA0CF1C0
:1003900018BF012121430843A3EB0C01CB1D4FEAF9
:1003A00000614FEA102042BF002010BC704700EBF4
:1003B000C35010440029A4BF10BC7047401C490022
:1003C00008BF20F0010010BC70472DE9FE4F8046A9
:1003D00081EA0300C00F0C46009021F0004123F099
:1003E0000045B8EB0200A94105D24046214690469F
:1003F0001C460B46024623F00040104347D0270D11
:10040000C7F30A00C3F30A510290401A0190402832
:100410006BDAC3F3130040F4801B0098924620B1BE
:100420000023D2EB030A63EB0B0B01985946C0F192
:1004300040025046FFF773FF06460D4650465946A8
:10044000019A00F0DDF910EB08006141002487EA11
:10045000115284EAE7731A4340D0009A62B3019ABA
:10046000012A4FEA075215DC001B61EB02014FF035
:10047000004202EA0752CDE90042001C41F580111A
:1004800032462B4600F0DDF903B0BDE8F08F404660
:100490002146F9E7001B61EB0201001C41F58013C6
:1004A00000185B412018A2F5001747EB030140EA52
:1004B000D570B6196D4111E06D084FEA360645EA70
:1004C000C0754FEA0752001B61EB0201001C41F5A9
:1004D000801149084FEA30000019514132462B463D
:1004E00003B0BDE8F04F00F09DB900980122400034
:1004F0000023D0EB020263EBE073009821464FEA41
:10050000E074B8EB000061EB0401E9E783F000431D
:100510005BE781F0004158E72DE9FE4F81EA0304D3
:1005200004F0004421F0004100944FF0000B23F050
:10053000004350EA01045ED052EA03045BD0C3F3E7
:100540000A54C1F30A552C44A4F2F3340194A0FBDD
:100550000254C1F3130141F48011C3F3130343F4B4
:10056000801301FB024400FB034E840A970A44EA0D
:10057000815447EA8357A4FB076802958D0A05FB5F
:1005800007854FEA932C04FB0C542705029D4FEA84
:10059000065847EA1637B5EB08056EEB070C870ED1
:1005A000920E47EA811742EA8312A7FB0201B6EBDB
:1005B0000B0164EB00042B0D43EA0C335E1844EB93
:1005C0001C50DA465146E7FB0201C5F313044FEA1B
:1005D0000B3343EA14534FEA0432019C43EA060307
:1005E000A4F10C040294009CCDE900B400F029F9B8
:1005F00003B0BDE8F08F00200146F9E72DE9F04D8A
:1006000081EA030404F0004B21F0004514464FF04A
:10061000000A23F0004150EA050220D054EA01020A
:100620001DD0C5F30A570246C5F31303C1F31300E7
:10063000C1F30A5640F4801543F48013A7EB060873
:10064000101BD64608F2FD3873EB050002D308F103
:10065000010801E092185B41B8F1000F03DA0020B5
:100660000146BDE8F08D00204FF480110646844617
:100670000EE0171B73EB050705D3121B63EB050395
:1006800006434CEA010C49084FEA300092185B41DE
:1006900050EA0107EDD152EA030012D082EA0400C9
:1006A00083EA0501084305D0101BAB4106D20122A5
:1006B000002306E000224FF0004302E06FF0010249
:1006C00053101AEB06004CEB085110EB0A0041EBFB
:1006D0000B01BDE8F04D00F0A5B82DE9F04D002369
:1006E0001A461B1A8A4103DB00200146BDE8F08D43
:1006F000C1F30A52C1F3130141F480154FF0000B0E
:10070000D10702D100186D41521E0027044640F265
:10071000FF11384601EB620A3E4680460246002041
:100720004FF48011FFF70AFEC2197141BB1846EB66
:100730000100B4EB030C75EB000C04D3E41A65EB79
:10074000000517460E46241908F101006D41804648
:100750003428E3DDF91946EB0600091BA84103D252
:100760004FF0FF32134601E0002213461BEB070057
:1007700046EB0A51BDE8F04D00F054B8C1F30A52FF
:10078000C1F3130140F2FF3341F480119A4202DABF
:1007900000200146704740F233439A42A2F23342AE
:1007A00002DC5242FFF7CABDFFF7B9BD30B5041EE7
:1007B00071F1000404DB4FF00044404264EB01019E
:1007C000141E73F1000405DB1C464FF00043524237
:1007D00063EB0403994208BF904230BD064C074DBD
:1007E00006E0E06840F0010394E807009847103401
:1007F000AC42F6D3FFF7ECFC407D0008607D0008BA
:10080000202A06DBCB17203A41FA02F043EAE073D4
:1008100006E041FA02F3D040C2F1200291400843C1
:100820001946704710B5141E73F1000408DA401C15
:1008300041F1000192185B411A4301D120F00100FF
:1008400010BD2DE9F04D92469B4611B1B1FA81F2EF
:1008500002E0B0FA80F220329046FFF760FD0446D5
:100860000F4640EA0A0041EA0B0153465A46084344
:1008700013D0114653EA010019D0C8F14002504686
:10088000FFF75CFD05460E46504659464246FFF7C7
:1008900046FD084305D0012004E020463946BDE866
:1008A000F08D0020054346EAE0762C4337430A9852
:1008B0006305E40AA0EB08000022FD0A44EA47545D
:1008C0000A3002D500200146E9E701051019694107
:1008D000DDE9084500196941BDE8F04DA2E730B5F2
:1008E0008C1810F8012B12F00F0301D110F8013B06
:1008F000120906D110F8012B03E010F8015B01F892
:10090000015B5B1EF9D101E001F8013B521EFBD1F6
:10091000A142E6D3002030BD10B50146806B026CC9
:1009200012F0500F05D0026CD20626D500F02DFA39
:1009300010BD016C41F40071016401688A6812F015
:10094000405F17D18269AAB9CA6A12F4700F02D047
:100950008A6852050ED44A6822F020024A60016C6F
:1009600021F480710164016CC90403D4016C41F06D
:100970000101016400F0CAF910BD806BC26C084629
:10098000BDE81040104710B5806B40210164416CF8
:1009900041F00401416400F0F8F910BD10B5806B1E
:1009A00000F0F2F910BD0000014800F0EFB90000BE
:1009B000280900204A496FF0706210B5D1F804335D
:1009C00023F44033C1F80433D1F80433446823439B
:1009D000C1F8043301684B6823F480734B600168ED
:1009E00003694C6844EA03234B6001684B6823F0B9
:1009F00040734B60016884684B6823434B60016817
:100A00008B6823F400638B600168C4688B682343A0
:100A10008B60816AD14201688A6822F070628A60C4
:100A200001680DD0836A8A681A438A6001688A68FF
:100A300022F040528A600168C36A8A681A4302E061
:100A40008A6822F040528A6001688A6822F00202B5
:100A50008A60016882698B6843EA42028A6090F882
:100A600020100029016811D01E4A4B6843F400632E
:100A70004B6001684B6823F460434B600168446A33
:100A80004B6802EB443213434B6003E04A6822F4A4
:100A900000624A600168144BCA6A22F47002CA629A
:100AA0000168848BCA6A03EB04531A43CA62016863
:100AB0008A6822F400728A60016890F830208B689E
:100AC00043EA42228A6001688A6822F480628A606E
:100AD000016840698A6842EA8020886010BD000091
:100AE0000020014000E0FFFF0000F0FFFEE70000F3
:100AF000014800F027BC0000940A00200168182378
:100B0000CAB2103AB2FBF3F2054B6FF30901032AA4
:100B10009B5CC36500D9091D8165084670470000CC
:100B20001E7D000810B583694FF0C074826A0146CB
:100B3000002053B1B3F5005F15D072B1012A0CD07B
:100B4000022A0AD0032A09D104E01AB1012A06D0E8
:100B5000022A03D1C96AC90100D5012010BDC96AA2
:100B6000A142FAD010BD002AF7D0012AF2D0022A01
:100B7000F3D0032AF3D010BD30B50468256825F4FE
:100B800080252560046863608368402B036803D078
:100B900099600068C26030BD9A600068C16030BD75
:100BA0007047704770470000F8B50025009590F831
:100BB0003C20012A18D0012280F83C200A68072333
:100BC0004E4C0668092A1AD90A3A02EB4207F26823
:100BD000BB409A43F2600E680268A64206D10B7AC7
:100BE000D66846EA036308E00220F8BD0A3E8B6837
:100BF000D76806EB4606B3403B43D3600EE002EBFA
:100C000042073269BB409A43326103680E788A68B2
:100C10001F6906EB4606B2403A431A614A681F2331
:100C2000072A13D20668521E02EB8207726BBB4082
:100C30009A43726303680E790A88761E5F6B92B2DC
:100C400006EB8606B2403A435A6327E006680D2A4F
:100C500012D2D21F02EB8207326BBB409A4332633F
:100C600002680E790B88F61F176B9BB206EB86069F
:100C7000B3403B43136311E00D3A02EB8207F26A83
:100C8000BB409A43F26202680E790B880D3ED76A28
:100C90009BB206EB8606B3403B43D362184A036817
:100CA000934208D10B68122B05D1D2F8043343F4D8
:100CB0008003C2F80433036893421AD10B68A3423D
:100CC00001D0112B15D1D2F8043343F40003C2F83C
:100CD00004330968A1420CD10A490B4A0968B1FBE7
:100CE000F2F101EB8101490000E0491E0091002969
:100CF000FBD180F83C500020F8BD0000120000102D
:100D0000002001406401002040420F001A490023E6
:100D100030B51A4A18460B60C1F8043002EBC00522
:100D20000B6852F83040401C642823440B606B6809
:100D30004C6823444B60F1DB91ED001ADFED100AA3
:100D40009FED100AB8EE411A0B480838C1EE201A80
:100D500031EEC01AC1EE001A01EE103AB8EE411A97
:100D6000C0ED001AC1EE201A71EEC00A80EE801AA2
:100D700080ED011A30BD000050010020080600205F
:100D80000000C84200F0FF447047704770B5044649
:100D9000006801684268C1F34001C2F3401251B3D8
:100DA0004AB3216CC90603D4216C41F4007121645B
:100DB000816811F0405F17D1A169A9B9C16A11F426
:100DC000700F02D0816849050ED4416821F02001DE
:100DD0004160206C20F480702064206CC00403D437
:100DE000206C40F0010020642046FFF78FFF21684F
:100DF0006FF012000860206801684268C1F380014A
:100E0000C2F3C01289B382B3216CC90603D4216C2A
:100E100041F400512164816811F4401F1ED1816B9F
:100E200011F4401F02D08168490517D44168490573
:100E300014D4816811F0405F10D1A16971B9416883
:100E400021F080014160206C20F480502064206CEF
:100E5000C00503D4206C40F0010020642046FFF759
:100E6000A1FE21686FF00C000860206801684368EB
:100E700011F0010FC3F380110ED069B10068C007F3
:100E80000AD0206C40F480302064204600F046F800
:100E900021686FF001000860206801684268C1F3B2
:100EA00040110029C2F380620DD0002A0BD0616C82
:100EB0006FF0200541F00201616405602046FFF7F4
:100EC00064FF2068056070BD70B504004FF0000538
:100ED00003D0206C002610B107E0012070BD204631
:100EE00000F01EF8666484F83C60206CC00610D4E4
:100EF000206C20F4885040F0020020642046FFF768
:100F000059FD6664206C20F0020040F0010020646E
:100F100000E0012584F83C60284670BD7047000061
:100F2000F0B587B0064614216846FFF7A1F92149BC
:100F3000306888423CD12048016841F480610160FA
:100F4000006800F4806005901B481438016841F087
:100F50000101016000680025694600F0010005906C
:100F600003200090CDE90105144800F06BFB154803
:100F70004FF4807C124C8105021584E823000F1386
:100F8000C4E9035283142046C4E907C56562C4E975
:100F9000053700F0A7FA08B1FFF703FEB46300229B
:100FA0000321A663122000F099FC122000F088FCB7
:100FB00007B0F0BD0022014044380240000002406A
:100FC000940A00201064024018B50022009290F8A4
:100FD0003C10012907D0012180F83C1001688B6882
:100FE000DB0702D011E0022018BD8C682A4B44F0C8
:100FF00001048C6029490968B1FBF3F101EB41015F
:1010000000E0491E00910029FBD103689968C907D7
:1010100040D0016C40F20164A14341F4807101644D
:101020005968490505D5016C21F4005141F48051FE
:101030000164016CC90404D5416C21F006014164CE
:1010400000E042646FF02204154980F83C201C60E7
:10105000D1F80423D20607D002688A420AD19368E5
:1010600013F0405F02D005E000680BE0936843F0A6
:1010700080439360D1F80413C9060BD40068094972
:10108000884207D1816811F0405F03D1816841F047
:1010900080418160002018BD40420F0064010020A3
:1010A0000020014000220140F8B50D460446002111
:1010B000009190F83C00012807D0012084F83C0002
:1010C00020688368DB0702D011E00220F8BD866843
:1010D000364B46F00106866035480068B0FBF3F0F9
:1010E00000EB400000E0401E00900028FBD120688B
:1010F0008368DB0758D0236C40F20166B34343F4A6
:10110000807323644068400505D5206C20F40050AE
:1011100040F480502064206CC00404D5606C20F042
:101120000600606400E061646FF0220084F83C1007
:10113000A36B2049D963A36B1F491964A36B1F4993
:10114000D964216808602068416841F0806141608D
:101150002068816841F48071816021681346A06B2A
:101160002A464C3100F030FA1549D1F80403C00684
:10117000206811D0884207D1826812F0405F03D105
:10118000826842F080428260D1F80403C0060BD42A
:101190000C492068884207D1816811F0405F03D173
:1011A000816841F0804181600020F8BD40420F001D
:1011B00064010020190900089D090008870900083A
:1011C000002001400022014070B54379012B1AD064
:1011D0000124447102230371056840F6FE76D1E9CB
:1011E00000310B4329689640B1439340C0260B431E
:1011F0002B60016896400A68B2430A6000230471BC
:101200004371184670BD022070BD70B5040003D054
:101210002079002510B105E0012070BD20466571E0
:1012200000F008F8022121710120256120710020C1
:1012300070BD000010B586B0044614216846FFF763
:1012400017F81149206888421BD11048016841F005
:1012500000510160006800F0005005900B48103804
:10126000016841F00101016000680321002200F0E3
:101270000100059030208DE807000548694600F020
:10128000E1F906B010BD0000007400404038024093
:101290000000024008B50029016800910068104470
:1012A00004D0143000900360002008BD0830F9E736
:1012B00030B54279012A17D001224271022404710B
:1012C000002902FA01F301680C6844EA03040C6087
:1012D00001680B680AD00D6803F48024B4F5802FF0
:1012E00005F460130FD015E0022030BD0C6803F048
:1012F0000403042B04F038040CD1382C0AD14B68B9
:1013000043F0010305E0B3F5601F03D14B6843F0E0
:1013100002034B60002102714171084630BD90F814
:101320003510022903D08021416501207047052135
:1013300080F835100068016821F00101016000208B
:10134000704700002DE9F84304464FF00009644B54
:101350000820CDF800904FF41652A56D94F85C105B
:101360001B682E68B3FBF2F700FA01F131420FD08F
:1013700021680A6852070BD50A6822F004020A6045
:1013800094F85C108840A860606D40F001006065D2
:1013900094F85C104FF0010808FA01F0304208D0D0
:1013A00021684969090604D5A860606D40F0020013
:1013B000606594F85C1004208840304208D02168B1
:1013C0000968890704D5A860606D40F00400606575
:1013D00094F85C1010208840304218D021680968C9
:1013E000090714D5A86020680168490304D500687E
:1013F000000308D5A16C07E00168C90503D40168A2
:1014000021F008010160216C09B12046884794F859
:101410005C1020208840304231D021680968C9061C
:101420002DD5A86094F8350005282068016806D0FD
:10143000490347D5006800031DD4616C1CE021F00E
:10144000160101602068416921F080014161206C32
:1014500008B9A06C20B12068016821F00801016082
:1014600094F85C303F229A40AA6084F8349084F863
:101470003580216D1FE0E16B09B120468847606D22
:1014800000282BD0606DC00714D0052084F83500EB
:101490002068016821F0010101600098401C009063
:1014A000B84203D820680068C007F6D184F83490A9
:1014B00084F83580E16C002910D001B02046BDE8E9
:1014C000F04308470168C905D5D4036823F0100329
:1014D000036084F8349084F83580CCE7BDE8F88365
:1014E000640100202DE9F047044600F097F9054615
:1014F00064B14FF0000984F83490022184F835106B
:101500002068016821F0010101600EE00120BDE8C2
:10151000F08700BF00F082F9401B052805D9202183
:101520006165032084F83500F1E720680068C00792
:10153000F0D1D4E90020D4E90251D4E9043C284395
:1015400004F1180519430843116895E8E00140EAE1
:101550000C001C4B2843194040EA060040EA0700F3
:10156000B8F1040F40EA010003D1D4E90B13194389
:101570000843106020680126656A4069042D20F048
:10158000070045EA00050CD1D4E90A01054341B141
:101590002046FFF7C7FA20B14020606584F8356027
:1015A000B4E7206845612046FFF7A8FA94F85C305C
:1015B0003F229A408260C4F8549084F8356000203D
:1015C000A5E700003F8010F02DE9F041044690F8B7
:1015D000340000250128A66D0ED094F835C00127EF
:1015E000002084F83470BCF1010F07D0022584F884
:1015F00034002846BDE8F0810220FBE7022784F88A
:10160000357060652046FFF7B7FA94F85C103F200C
:101610008840B0602068016841F0160101602068D0
:10162000416941F080014161206C20B1206801686E
:1016300041F0080101602068016841F0010101608A
:10164000D7E700002DE9F84FDFF89CE100224FF0CA
:1016500001084FF0030B4FF00F0A00BF0B6808FAA8
:1016600002F42340A34271D14D68022D01D0122D06
:101670000FD1D5080E69570700EB8505A9462D6ADD
:10168000FF0E0AFA07FCBE4025EA0C052E43C9F8F6
:1016900020600F79550006680BFA05FC07F0030778
:1016A00026EA0C06AF40374307604E68012E05D08E
:1016B000022E03D0112E01D0122E0ED18668CF68D3
:1016C00026EA0C06AF403743876046680F79A64389
:1016D000C7F30017974037434760C4688E6824EA11
:1016E0000C04AE402643C6604C68E40075D53F4C00
:1016F000256845F480452560246822F00306950797
:1017000004F4804400943A4C2D0F2644D6F808483F
:10171000DFF8E0C00AFA05F7604524EA070401D1C2
:1017200000272EE0344FB84201D1012729E0334F82
:10173000B84201D1022724E0314FB84201D103273A
:101740001FE0304FB84202D104271AE045E02E4F87
:10175000B84201D1052714E02C4FB84201D1062729
:101760000FE02B4FB84201D107270AE0294FB842BA
:1017700001D1082705E0284FB84201D1092700E030
:101780000A27AF4027437546C6F808784E68DEF84A
:101790000040F60324EA030400D51C43124E2C60DB
:1017A000361D4D683468AD0324EA030400D51C439C
:1017B0000D4F346008374D683C68ED0224EA03049D
:1017C00000D51C43084D3C600C354E682C68B602B1
:1017D00024EA030400D51C432C60521C102AFFF499
:1017E0003DAFBDE8F88F0000003C014044380240A6
:1017F00000300140000002400004024000080240A6
:10180000000C024000100240001402400018024088
:10181000001C024000200240002402400148806871
:101820007047000058010020024881680278114486
:101830008160704758010020032010B500F06EF859
:10184000052000F005F800F023F8002010BD00008E
:1018500070B50D4D04464FF47A700C4A2978126821
:10186000B0FBF1F0B2FBF0F000F0CEFD48B9102C67
:1018700007D200222146501E00F030F800206C6094
:1018800070BD012070BD00005801002064010020DF
:101890000A4808B5016841F080510160006800F015
:1018A000805000900548001D016841F480410160AE
:1018B000006800F48040009008BD000040380240FD
:1018C000002809DB410900F01F028900012001F115
:1018D000E0219040C1F80001704700000E4BF0B4C9
:1018E0001B680D46C3F30223C3F10706042E00D97B
:1018F0000426191D072901D2002300E0DB1E012464
:1019000004FA06F19C40491E2940641E9940144087
:101910002143F0BC01F0AEBC0CED00E0064900F044
:10192000070210B54FF6FF040868044B204040EA58
:1019300002201843086010BD0CED00E00000FA051D
:101940001848F8B5016841F0805101600068164CF4
:1019500000F080500090206840F480302060FFF755
:101960005DFF4FF47A76054605E000BFFFF756FFAE
:10197000401BB0420FD86068C003F7D5206840F420
:1019800000302060FFF74AFF054606E0FFF746FFFC
:10199000401BB04201D90320F8BD60688003F5D533
:1019A0000020F8BD40380240007000402DE9F84F9B
:1019B00004460078DFF824944FF000063746C0074D
:1019C0000ED0D9F8001021F40001C9F80010D9F8A0
:1019D0000010626B1143C9F80010606B00B901265A
:1019E000FE4D2068843500030ED5E16B286820F495
:1019F000401008432860E06BB0F5801F01D010B1A3
:101A000002E0012600E0012720684FF4800BC002AD
:101A10000CD5216C286820F4400008432860206C15
:101A2000584501D1012601E000B901272068C10114
:101A300000D50126800666D5E8483830016841F0B7
:101A4000805101600068DFF898A300F0805000909A
:101A5000DAF8001041F48071CAF80010FFF7DEFEDA
:101A6000804605E0FFF7DAFEA0EB080064287DD889
:101A7000DAF80000C005F5D5DFF8608308F16808E2
:101A8000D8F8000010F440702AD0218E01F4407183
:101A9000814225D0D8F80010D8F8002021F44071F8
:101AA00042F48032C8F80020D8F8002022F48032B6
:101AB000C8F80020C8F80010D8F80000C0070FD000
:101AC000FFF7ACFE824607E0FFF7A8FEA0EB0A0195
:101AD00041F288308142CAD8D8F800008007F3D597
:101AE000206BC0F3012103297ED0D9F8001021F426
:101AF000F811C9F80010228ED8F80010C2F30B02BA
:101B00001143C8F800102078C00607D5286820F0D7
:101B1000807028602868A16B084328602188AF483E
:101B20008830490405D5626E016821F440311143C3
:101B300001602188090405D5A26E016821F44021C5
:101B4000114301602168C90305D5E26E016821F4E3
:101B50004011114301602168890305D5226F016896
:101B600021F4400111430160217800E018E14906A9
:101B700005D5626C016821F00301114301602178F1
:101B8000090605D5A26C016821F00C011143016022
:101B90002188C90505D5E26C016821F030011143A7
:101BA00001602188890505D5226D016821F0C001F9
:101BB000114301602188490505D5626D016821F452
:101BC0004071114301602188090505D5A26D0168A6
:101BD00021F44061114301602188C90407D5E26DF9
:101BE000016821F4405100E041E011430160218887
:101BF000890405D5226E016821F44041114301603A
:101C00002168490205D5A26F016821F08061114366
:101C1000016021684FF0006A890209D5E26F01680E
:101C200021F0006111430160E16F514500D10127AE
:101C300021680A0700D50127490305D5626F0168AD
:101C400021F04071114301602168090206D5D4F8E2
:101C50008020016821F0805111430160DFF88491F8
:101C6000012E0ED02068B0F1007F0AD08FE05E4ACE
:101C7000D9F80030104023F4F8120243C9F80020CC
:101C800039E7D9F800004E4620F08060C9F800001E
:101C9000FFF7C4FD804605E0FFF7C0FDA0EB08009C
:101CA00064287DD830680001F6D421784B487C3018
:101CB000C90712D0616B81B9237A62680168D0F8D4
:101CC00000C09201C1F3014142EA0142CCF3036139
:101CD00042EA016141EA0371016021680A0303D508
:101CE000E26BB2F5801F04D0C9021AD5216C5945A8
:101CF00017D16368016894F80CC002689B01C1F3B6
:101D0000014143EA0141C2F3027241EA0C6141EA36
:101D1000027101602968626A21F01F01521E11439D
:101D200029602168C90110D5238A62680168D0F84A
:101D300000C09201C1F3036142EA034242EA016238
:101D4000CCF3027142EA01710160216889010CD56E
:101D50006168228A237B94F808C0890141EA024124
:101D600041EA036141EA0C7101603168B04641F01B
:101D700080613160FFF752FD064604E0FFF74EFD3B
:101D8000801B64280CD8D8F800000001F6D56FB38A
:101D9000D9F800004E4620F08050C9F8000000E05D
:101DA00079E0FFF73BFD074605E000BFFFF736FD92
:101DB000C01B64286FD83068C0438000F6D5074840
:101DC000216880300A0301D5E26B1AB1C90225D51A
:101DD000216C19BB63690168277E08E0083802405E
:101DE0000070004000380240FFFCFF0F5AE002681C
:101DF000C1F301419B0143EA0143C2F3027143EA8B
:101E0000076242EA0171016029686FF0FF03A26A6C
:101E100021F4F85103EB0222114329602168890261
:101E200012D5E16F51450FD1238C626901680768B3
:101E30009201C1F3036142EA034242EA0162C7F33D
:101E4000027142EA017101602178090716D56169C2
:101E50000268D0F800C08B01277FC2F30362CCF385
:101E6000014143EA014141EA026141EA077101602F
:101E70002868E16A20F4403008432860306840F068
:101E800080503060FFF7CAFC044607E0FFF7C6FC4D
:101E9000001B642802D90320BDE8F88F3068C043D6
:101EA0008000F3D40020F7E72DE9F04705000F4646
:101EB00063D0444E306800F00F00B84209D2306859
:101EC00020F00F0038433060306800F00F00B84257
:101ED00053D128683C4C810712D5400703D52068B0
:101EE00040F4E05020602878000703D5206840F4D3
:101EF00060402060A968206820F0F000084320605E
:101F00002878C0072AD0304968680839012810D0DD
:101F10000968022810D0890700292EDA216821F0EB
:101F2000030101432160FFF779FC804641F28839C3
:101F30000DE009688903EFE78901EDE7FFF76EFC23
:101F4000A0EB0801494502D90320BDE8F087686885
:101F5000216801F00C01B1EB800FEFD1306800F087
:101F60000F00B8420BD9306820F00F0038433060C2
:101F7000306800F00F00B84201D00120E5E7287872
:101F8000400705D5E968206820F4E0500843206048
:101F90002878000706D52869216821F4604141EAC4
:101FA000C000206000F036F82168084AC1F3031130
:101FB000515CC840064908600520FFF749FC002035
:101FC000C3E70000003C024008380240267D0008BC
:101FD000640100200449054809680068044AC1F307
:101FE0008221515CC84070470838024064010020DB
:101FF000367D00080449054809680068044AC1F3B1
:102000004231515CC84070470838024064010020EA
:10201000367D0008154910B51548096811F00C0205
:1020200013D04110042A0FD0082A0ED10F4C241FC0
:102030002268236802F03F025B0207D52068C0F3E4
:102040008810A0FB010106E0084610BD2168C1F31D
:102050008811A1FB00010023FEF7D2F82168C1F32B
:102060000141491C4900B0FBF1F010BD08380240A5
:102070000024F4002DE9F84F05004FF000076ED062
:102080002878DFF81C93A9F1040AC007AAF1040418
:102090004CD0D9F800104846C1F38101012908D07D
:1020A0000068C0F3810002280AD1DAF8000040027B
:1020B00006D52068800339D568680028DFD035E070
:1020C0006868B0F5803F0BD010B1B0F5A02F11D0EB
:1020D000206820F480302060206820F4802002E016
:1020E000206840F480302060686890B1FFF796FB6C
:1020F00006460AE0206840F480202060F0E700BF38
:10210000FFF78CFB801B642872D820688003F7D50A
:102110000CE0FFF783FB064605E000BFFFF77EFB00
:10212000801B6428F0D820688003F7D428788007C3
:1021300042D5D9F80010484611F00C0F08D00068BD
:10214000C0F3810002280BD1DAF80000400207D466
:102150002068800718D5E868012800D114E01CE148
:10216000E8680028206817D040F001002060FFF7E1
:1021700055FB064605E000BFFFF750FB801B022819
:10218000C2D820688007F7D52869216821F0F801B6
:1021900041EAC00020600FE020F001002060FFF75E
:1021A0003DFB064605E000BFFFF738FB801B022819
:1021B0001ED820688007F7D42878000729D57848EA
:1021C00069696C3000298046016812D041F0010134
:1021D0000160FFF723FB064605E000BFFFF71EFB8B
:1021E000801B022804D8D8F800008007F6D510E03C
:1021F00089E021F001010160FFF710FB064604E0D1
:10220000FFF70CFB801B02287DD8D8F80000800760
:10221000F6D4287840076BD5DFF8848108F13808B8
:10222000D8F80000C0000BD4D8F8001041F080515D
:10223000C8F80010D8F80000012700F08050009086
:1022400058480168C90512D40168834641F4807179
:102250000160FFF7E3FA064605E000BFFFF7DEFA8C
:10226000801B64284FD8DBF80000C005F6D54C4E23
:10227000A868683601280AD008B1052811D030684E
:1022800020F001003060306820F0040002E0306887
:1022900040F001003060A868A0B1FFF7BFFA8346A4
:1022A0000CE0306840F004003060F0E7FFF7B6FA69
:1022B000A0EB0B0141F28830814266D8306880077C
:1022C000F4D50EE0FFF7AAFA834607E0FFF7A6FA77
:1022D000A0EB0B0141F28830814256D8306880076C
:1022E000F4D42FB1D8F8001021F08051C8F80010B4
:1022F000A869C8B3D9F80010C1F3810102294CD0F4
:102300000228206800E040E020F08070206003D0C8
:10231000FFF784FA05463BE0FFF780FA064604E043
:10232000FFF77CFA801B02282FD820688001F7D4A1
:10233000D5E90962D5E907011B4B570895F82C2010
:10234000084303EB074343EA8611084340EA02606F
:1023500040F00050CAF80000206840F08070206013
:10236000FFF75CFA054606E015E000BFFFF756FAF6
:10237000401B022809D820688001F7D50BE000BF78
:10238000FFF74CFA401B022802D90320BDE8F88F62
:1023900020688001F4D40020F8E70120F6E700006F
:1023A00008380240007000400000FFFF70B50400D4
:1023B00003D06079002510B105E0012070BD2046F2
:1023C000257100F00DF8022060710121206802687B
:1023D00042F0040202606171A560002070BD00003F
:1023E00008B500680649884208D10648016841F0EE
:1023F00040010160006800F04000009008BD00004E
:102400000008065034380240401EB0F1807F10B5FD
:1024100001D3012010BD4FF0E02460610F2160174F
:1024200000F028FF0020A0610721216110BD704746
:102430007047704770B590F83C20012A24D0134CA7
:10244000012580F83C50022280F83D200268536844
:10245000A242966802D00E4CA24203D14C6823F4EB
:10246000700323430C6823F0700389681C43546095
:10247000002326F0800602683143916080F83D50C9
:1024800080F83C30184670BD022070BD000001404D
:102490000004014010B5040003D094F83D0010B1D1
:1024A00007E0012010BD002084F83C00204600F029
:1024B0000DF8022084F83D002068211D00F0E0FBAB
:1024C000012084F83D00002010BD000008B501681F
:1024D0001048B1F1804F0BD00F4A914207D10168EB
:1024E00041F008010160006800F00800009008BD9C
:1024F000016841F00101016000680022012100F043
:10250000010000901C20FFF7E9F9BDE808401C20FD
:10251000FFF7D6B940380240000C00400168094A74
:10252000CB6843F00103CB6001688868104006283F
:1025300006D0B0F5803F03D0086840F00100086085
:10254000002070470700010070B5044690F83C0079
:10255000012817D0324B012584F83C50022084F822
:102560003D0022689068184020F47F409060086821
:10257000502830D00DDC20284DD005DC98B3102831
:102580003BD148E0022070BD302844D0402834D1EF
:1025900039E0602828D0702806D0B0F5805F2CD0B4
:1025A000B0F5005F29D10AE04A682068D1E902133A
:1025B00000F0CCFB2068816841F0770109E04A68AF
:1025C0002068D1E9021300F0C1FB2068816841F462
:1025D0008041816011E0CA684968206800F0C7FB4B
:1025E0002068502107E016E0CA684968206800F0BA
:1025F000CFFB2068602100F0B2FB002084F83D5042
:1026000084F83C0070BDCA684968206800F0AFFBE0
:1026100020684021EFE7226801461046EBE7000002
:1026200088FFFEFF704770B5044600680025016909
:10263000C943890715D4C168C943890711D4EA1E63
:10264000026101212177206880698007204602D03D
:10265000FFF7E8FF04E000F0A7F8204600F0A5F837
:10266000257720680169C943490717D4C168C94360
:10267000490713D402216FF0040202612177206818
:10268000806910F4407F204602D0FFF7CBFF04E0C2
:1026900000F08AF8204600F088F825772068016964
:1026A000C943090716D4C168C943090712D40421D4
:1026B0006FF00802026121772068C0698007204618
:1026C00002D0FFF7AFFF04E000F06EF8204600F004
:1026D0006CF8257720680169C943C90617D4C16819
:1026E000C943C90613D408216FF010020261217793
:1026F0002068C06910F4407F204602D0FFF792FFA7
:1027000004E000F051F8204600F04FF825772068EB
:102710000169C943C90708D1C168C943C90704D1C0
:10272000891E0161204600F041F820680169C94313
:10273000090609D4C168C943090605D46FF08001B0
:1027400001612046FFF774FE20680169C943C9058D
:1027500009D4C168C943090605D46FF480710161C9
:102760002046FFF764FE20680169C943490609D481
:10277000C168C943490605D46FF040010161204694
:1027800000F01BF820680169C94389060BD4C168B1
:10279000C943890607D46FF0200101612046BDE8D6
:1027A0007040FFF746BE70BD704770470068B0F1DB
:1027B000804F01D105F076BA7047704770470146E7
:1027C000406F896F084370472DE9F0410268044665
:1027D0000025D0691168936810F00F0F5BD003F0EB
:1027E000010601F49077374369D0C70707D0CF05BA
:1027F00005D501271762E26F42F00102E267820706
:1028000008D5DA0706D0276802223A62E26F42F062
:102810000402E267420708D5DA0706D023680422DB
:102820001A62E26F42F00202E26702070AD501F083
:102830002002324306D0236808221A62E26F42F077
:102840000802E267E26F002A32D0800605D58806CA
:1028500003D5216E09B1204688472168E06F896859
:10286000490601D4000725D5204600F02FFB20683B
:102870008168490619D5816821F040018160E06EC8
:1028800098B11A490165E06EFEF749FD00280FD0A6
:10289000E06E016D06E0830611D58B060FD5216E23
:1028A00012E02046BDE8F04108472046FFF786FFCA
:1028B000BDE8F0812046FFF781FFE567F8E70306F2
:1028C00005D50B0603D5616E0029EAD1F0E7400675
:1028D000EED54806ECD513682021204623F04003AE
:1028E00013606167656600F0A5F8E1E7B92E00089E
:1028F00010B5040002D0606F10B107E0012010BDD8
:10290000002084F87000204600F026F8242060673C
:102910002068016821F001010160204600F0E6FA1C
:102920000128ECD0606A10B1204600F043FA20681C
:10293000416821F4904141602068816821F02A01BA
:1029400081602068016841F0010101602046BDE816
:10295000104000F093BA000010B586B00446142170
:102960006846FDF785FC16492068884226D115483F
:10297000016841F010010160006800F0100005904E
:1029800010481438016841F001010160006802211B
:10299000002200F001000590032307244FF4C060DB
:1029A0008DE81F0008486946FEF74CFE00222520EE
:1029B0001146FEF793FF2520FEF782FF06B010BDFB
:1029C00000100140443802400000024070B5436FDF
:1029D000202B28D1B1B1AAB190F87030012B22D0B0
:1029E0008668012480F87040002343662125C16475
:1029F000B6F5805FA0F85020A0F85220C367456765
:102A000002D003E0012070BD016951B10749416660
:102A100080F870300068016841F08001016000209A
:102A200070BD0349F3E7022070BD0000813100084A
:102A3000413100087047FEE77FB5012515480024A5
:102A400013492A0400940194022602940394C0E9D5
:102A500000120561856184600F4980F82040C0E95B
:102A60000A14C661C46080F830504561FEF72CFA44
:102A7000062000946946CDE901500648FEF794F817
:102A8000009569460348CDE90164FEF78DF87FBDE6
:102A900000220140280900200100000F10B588B075
:102AA0001248002440F2E7324FF0804142F63023D2
:102AB000009401940294039404940594069480E88D
:102AC0001600C0E903348461FFF7E4FC4FF4805042
:102AD000009006486946FFF737FD044804A90494AE
:102AE0000694FFF7A7FC08B010BD00009409002071
:102AF00010B588B0114800240F49621E009401945B
:102B000002940394049405940694C0E90014C0E967
:102B1000024204618461FFF7BDFC4FF480500090D5
:102B200006486946FFF710FD044804A9049406947A
:102B3000FFF780FC08B010BD000C0040D409002055
:102B40000A48002130B4084C08224FF4E1330460F5
:102B5000C0E90131C160C0E904128161C161016253
:102B6000416230BCFFF7C4BE00100140140A0020CF
:102B7000FEE7704770477047FEF756BE70B5B4B0B9
:102B8000302121A8FDF774FB14212DA8FDF770FB5F
:102B900084216846FDF76CFB1E48016841F08051B6
:102BA0000160006800F0805032901B48016841F4D9
:102BB0004041016000680224D82500F44040329072
:102BC00001200926820501040423CDE92742CDE92D
:102BD0002101CDE92935CDE92B4621A8FFF74AFA95
:102BE000FEF7AEFEE2024FF4A0510025CDE930120F
:102BF0002DAA0F20072182E831002DA8FFF754F9F4
:102C0000064811951F9500906846FEF7CFFE34B038
:102C100070BD0000403802400070004040002000BD
:102C2000104A30B51048146800210F4B44F470046A
:102C30001460083305680D4A0D4C45F00105056028
:102C400019600368051D1340074A03600C322C60AD
:102C50000568E305034C25F480250560803C116080
:102C6000236030BD88ED00E000380240FFFFF6FE33
:102C7000103000240148FFF7D6BC00009409002062
:102C8000F0B5274B4FF0804E264D02689842264EF5
:102C9000264F274C09D0704507D0A84205D0B04236
:102CA00003D0B84201D0A04205D1D1F804C022F02F
:102CB00070024CEA020298421BD0704519D0A8421B
:102CC00017D0B04215D0B84213D0A04211D0194D40
:102CD000A8420ED0184DA8420BD0184DA84208D0DB
:102CE000174DA84205D0174DA84202D0164DA84254
:102CF00003D1CD6822F440722A434D6922F080024C
:102D00002A43026098428A68C2620A68826201D0DD
:102D1000A04201D10969016301214161F0BD0000B8
:102D2000000001400004004000080040000C00408A
:102D300000040140004001400044014000480140BF
:102D400000180040001C00400020004042EA03221E
:102D500083680A4323F47F410A4382607047826894
:102D600022F070020A4342F007018160704710B5FB
:102D7000036A046A23F00A0324F0010404628469EC
:102D80000B4324F0F00141EA02118161036210BD9E
:102D900010B5036A23F0100303628369046A23F405
:102DA000704324F0A00443EA0232826144EA011134
:102DB000016210BD90F82410C90706D00168836A2B
:102DC0004A6822F400321A434A6090F824108907B6
:102DD00006D50168C36A4A6822F480321A434A6001
:102DE00090F82410490706D50168036B4A6822F45D
:102DF00080221A434A6090F82410090706D501681A
:102E0000436B4A6822F400421A434A6090F8241047
:102E1000C90606D50168836B8A6822F480521A437A
:102E20008A6090F82410890606D50168C36B8A6809
:102E300022F400521A438A6090F82410490611D5F2
:102E40000168036C4A6822F480121A434A60016CDC
:102E5000B1F5801F06D10168436C4A6822F4C002B4
:102E60001A434A6090F82410090606D50168826C5E
:102E7000486820F4002010434860704738B50025AA
:102E80000446C567FEF7CAFC0346206800680007D1
:102E90000BD56FF07E400090002220464FF40011C9
:102EA00000F08CF908B1032038BD2020606784F859
:102EB0007050A067002038BD10B5806B0021A0F8CD
:102EC0005A10A0F85210FFF779FC10BD10B5016838
:102ED000202200230C6824F490740C6001688C6834
:102EE00024F001048C608267036610BD2DE9F04177
:102EF00004468068DFF818C2864F2368D4E904527C
:102F0000E16928431E6800250A438349104306EA05
:102F10000C0606431E604FF400422068E6684368D2
:102F200023F44053334343602368A669206AD3F8EF
:102F300008C030432CF4306606439E602068B842D7
:102F40000AD1086810F0030052D001287BD0022873
:102F50007AD003286ED186E0704B98420AD1086877
:102F600010F00C0079D004287BD0082877D00C28EA
:102F700060D178E06A4B98420AD1086810F03000BE
:102F80006BD010286DD0202869D0302852D16AE04B
:102F9000644B98420AD1086810F0C0005DD0402808
:102FA0005FD080285BD0C02844D15CE05E4B984263
:102FB0000DD1086810F440704FD0B0F5807F50D02C
:102FC000B0F5007F4BD0B0F5407F33D14BE0574B8D
:102FD00098420FD1086810F4406009D0B0F5806FB6
:102FE0003FD0B0F5006F3AD0B0F5406F22D13AE053
:102FF000012120E04E4B98420DD1086810F440505A
:103000002BD0B0F5805F2CD0B0F5005F27D0B0F5A5
:10301000405F0FD127E0474B98420BD1086810F46E
:1030200040401AD0B0F5804F1BD0904217D0B0F579
:10303000404F18D01021E0694FF6EF76904238D11A
:1030400009295DD202E00CE009E006E0DFE801F0CA
:103050000D1027582A5858582D000021EBE702215F
:10306000E9E70421E7E70821E5E7FEF7B3FF01E020
:10307000FEF7C0FF0146D4F80400490001EB5001FF
:10308000B1FBF0F080B2A0F11001B14238D84FF698
:10309000F0732168C0F342021840104324E026492F
:1030A0006068EBE7FEF7B6FFE4E760684FF4803155
:1030B000E4E7092924D2DFE801F0050819231C23DD
:1030C00023231F00FEF786FF01E0FEF793FF014672
:1030D000D4F8040001EB5001B1FBF0F080B2A0F194
:1030E0001001B1420CD82168C8600AE01349606839
:1030F000F0E7FEF78FFFEAE7606802EB5001EBE7CD
:1031000001250020206660662846BDE8F0810000A9
:10311000F369FFEF00100140903802400044004086
:1031200000480040004C00400050004000140140A6
:1031300000780040007C00400048E8010024F400D2
:10314000416F212910D1B0F8521071B1C16C0268E1
:103150000988C1F308019162C16C891CC164B0F88F
:103160005210491EA0F85210704701680A6822F0F8
:1031700080020A600068016841F040010160704708
:10318000416F21290ED1B0F8521061B1C16C0268B3
:1031900009789162C16C491CC164B0F85210491E93
:1031A000A0F85210704701680A6822F080020A6095
:1031B0000068016841F04001016070472DE9F0416D
:1031C000984617460E460446069D08E0681C06D041
:1031D000FEF724FBA0EB0800A8420BD855B12068ED
:1031E000C06936EA000017D00020B842EED00020B7
:1031F000BDE8F0812168202000220B6823F4D07301
:103200000B6021688B6823F001038B606067A06707
:10321000032084F87020EBE70120E6E70148FFF780
:10322000D3BA0000140A0020FEE700000FB4054BDB
:1032300010B503A9044A029800F084F910BC5DF8A7
:1032400014FB0000C95C0008680100200FB4084BA3
:1032500010B504A902AA039800F074F9044602A963
:10326000002000F006FD204610BC5DF814FB0000B5
:10327000733C0008090700284FEA116104DB00F1E4
:10328000E02080F80014704700F00F0000F1E0200B
:1032900080F8141D704710B502F08EFB10BD10B5FC
:1032A00002F0B0FB10BD10B502F024FD10BD00B55A
:1032B0002DED048BB0EE409AF0EE609A83B051ECA5
:1032C000190BFDF70AFA41EC180B18EE100A18EE6C
:1032D000901A8DED008B002818BF0120084320F0C4
:1032E0000040C0F17F6000F1E040C00F14D019EE43
:1032F000101A19EE900A8DED009B002918BF0121CC
:10330000084320F00040C0F17F6000F1E040C00FB2
:1033100004BF012000F058F8B0EE480A03B0F0EE08
:10332000680ABDEC048B00BD10B502F0E5FC10BDD1
:1033300010B502F0EDFC10BD10B503F085F910BD1D
:10334000004870474801002010B503F0A1FA10BDF5
:1033500002E008C8121F08C1002AFAD1704770475E
:10336000002001E001C1121F002AFBD170470000BC
:1033700010B50022044611462DED028B9FED108AF8
:10338000D0ED000A0F48B0EE480A00EE880ABCEE05
:10339000C00A10EE103AFDF77DFFD4ED010AB0EE41
:1033A000480A0022074800EE880A1021BDEC028B73
:1033B000BDE81040BCEEC00A10EE103AFDF76ABF3F
:1033C00000F0FF44700900200149086070470000C8
:1033D0007401002004F064FC10B504F07DFC10BD05
:1033E0002DE9FF5FDDE90220010DDDF838B0024371
:1033F00018D044F61050A1F2FF3141430D140F983C
:10340000012820D0A5EB0B00401C5FEA000A4FF01A
:103410000004474EDFF81C91A046504616D5CAF16D
:10342000000728E00F98012443A2012808D00021BA
:1034300000980F9BC0E90021C0E90243BDE8FF9F4F
:103440006FEA0B01F4E7CBF10000DEE7074612E07C
:10345000F80707D02246334640464946FDF75CF858
:10346000804689462246334610461946FDF754F8F1
:1034700004460E467F10002FEAD1DDE90201BAF1C1
:10348000000F42464B4602DAFDF746F801E0FDF731
:10349000B5F804460E460022284BFDF787F903D8FD
:1034A0004FF0FF30014607E00022254B2046314611
:1034B000FCF78BFFFDF762F9102409E0002C0ADB12
:1034C0000A220023FCF79CFE019B30321A55641E31
:1034D00050EA0102F2D1641C019AC4F111031444B0
:1034E0000F9A012A03D0012208430DD10AE00843B4
:1034F00004D000204FF0110B0F9080E7A3EB0B05D9
:103500006D1E0DE05B4504DD4FF0000205F1010585
:1035100004E003DA4FF00002A5F10105002AECD027
:1035200000980F99C0E90231C0E9004586E7000024
:10353000000024400000F03F300000000000F04395
:103540000000E03F2DE9FF4F95B09B4689460646B7
:1035500000250FE2252877D100242746F84A0121CB
:10356000059400E0044316F8013F203B01FA03F004
:103570001042F7D130782A2811D06FF02F0330781D
:10358000A0F13002092A16D8059A44F0020402EB91
:10359000820203EB42021044761C0590EFE759F8D3
:1035A000042B0592002A03DA504244F4005405909B
:1035B00044F00204761C30782E2816D116F8010F3C
:1035C00044F004042A280DD06FF02F023078A0F1C7
:1035D0003003092B09D807EB870302EB4303C71815
:1035E000761CF3E759F8047B761C30786C280FD0F2
:1035F00006DC4C2817D068280DD06A2814D104E0C6
:10360000742810D07A280FD10DE044F400140AE099
:1036100044F4801401E044F440147278824202D1F0
:1036200004F58014761C761C307866280BD013DCE9
:10363000582877D009DC002875D04528F6D04628D0
:10364000F4D047281AD19DE118E0632835D06428CA
:1036500079D0652812D195E1702873D008DC6728ED
:10366000F1D069286FD06E280DD06F2806D1B5E053
:1036700073282CD0752875D0782874D05A4617999D
:1036800090476D1C75E1C4F30250022809D003284D
:103690000DD0D9F8001004280DD00D6009F10409EF
:1036A00067E1D9F80010EA17C1E90052F6E7D9F846
:1036B00000100D80F2E70D70F0E719F8041B8DF88B
:1036C000001000208DF80100EA46012003E059F8BF
:1036D00004AB4FF0FF3061074FF0000102D40DE062
:1036E00008F101018846B9420FDA8045F8DB1AF883
:1036F00008100029F4D108E008F101018846814250
:10370000FADB1AF808100029F6D105985B46A0EB01
:10371000080721463846179A00F094FA284400EB2F
:10372000080507E04DE029E10DE01AF8010B5A46C3
:1037300017999047B8F10108F7D25B462146384601
:10374000179A13E142E00A220092C4F302524FF0AA
:10375000000A022A08D059F804CB032A4FEAEC7178
:103760000AD00DE029E02AE009F1070121F0070263
:10377000F2E802C1914609E00FFA8CFC4FEAEC71C5
:10378000042A03D14FFA8CFC4FEAEC71002907DAC6
:103790000A460021DCF1000C61EB02012D2202E05F
:1037A000220504D52B228DF80420012203E0E20734
:1037B00001D02022F7E7904659E00A2102E01022CA
:1037C0000DE010214FF0000A00910BE010224FF0A5
:1037D000000A44F004040827009203E008224FF096
:1037E000000A0092C4F30252022A05D059F804CB11
:1037F0000021032A08D009E009F1070121F007029E
:10380000F2E802C1914605E01FFA8CFC042A01D1BE
:103810000CF0FF0C4FF00008220728D5702806D0C6
:10382000009B83F0100353EA0A0305D00EE0402208
:103830008DF80420012208E05CEA010206D0302263
:103840008DF804208DF8050002229046009B83F03D
:10385000080353EA0A030AD15CEA010201D16207B4
:1038600005D530228DF804204FF001087F1E58281E
:1038700004D034A003900EA802900DE036A0F9E722
:1038800053466046009AFCF7BBFC84460398825C72
:103890000298401E029002705CEA0100F0D102988A
:1038A00006A9081A00F1200A600702D524F4803422
:1038B00000E00127574502DDA7EB0A0000E00020E9
:1038C00000EB0A01009005984144401A0590E0037E
:1038D00006D45B462146179A059800F0B3F90544D3
:1038E000002706E001A85A46C05D179990476D1C55
:1038F0007F1C4745F6DBE0030CD55B462146179A53
:10390000059800F09FF9054404E030205A461799C5
:1039100090476D1C0099481E00900029F5DC08E0D6
:10392000029802995A460078491C029117999047CB
:103930006D1CBAF10001AAF1010AF1DC65E1000099
:103940000928010030313233343536373839616275
:103950006364656600000000303132333435363739
:1039600038394142434445460000000000F058F910
:103970000544761C307800287FF4ECAD19B0284659
:10398000BDE8F08F620700D4062709F1070222F094
:10399000070CFCE80223E14603F000485FEA080C4C
:1039A00002D00FF2702C0DE05FEA045C02D50FF23A
:1039B000682C07E05FEAC47C02D00FF2602C01E0C3
:1039C000AFF2700C4FF0FF3823F00043CDF850C039
:1039D00065280CD006DC452809D046281DD047288C
:1039E0003DD13DE0662818D067287ED138E000211F
:1039F000112F01DB112000E0781CCDE9000106A9A0
:103A00000EA8FFF7EDFCDDE90F010E9A03910021EE
:103A1000009207F1010A04914DE04FF00040009739
:103A2000CDE9011006A90EA8FFF7DAFCDDE90F02C7
:103A300003920E9B11990022DDF80CA000930492D2
:103A400011B9791C00EB010AB7EB0A0004D4C0F1EC
:103A5000FF3007F1010A0490AAEB0700019044E04F
:103A6000012F00DA01270021112F01DD112000E0D4
:103A70003846CDE9000106A90EA8FFF7B1FCDDE943
:103A80000F010E9A0391002104910092BA4621077A
:103A90000CD40399514500DA8A46BAF1010F05DDCD
:103AA000009AAAF10101515C302908D0B84202DA2B
:103AB00010F1040F06DA0121CDE9011015E0AAF199
:103AC0000101E9E7002805DC049901440491AAEB0F
:103AD000000102E0411C514500DD8A460499401A6C
:103AE000401C01904FF000400290200704D4019840
:103AF000504501DBCDF8048000208DF84F0002987E
:103B00000DF14F07B0F1004F25D02B200E900298F9
:103B10004FF0020800280CDA404202902D200E904F
:103B200007E00A210298FCF7E4FB3031029007F825
:103B3000011DB8F10001A8F10108F2DC029800288B
:103B4000EFD1791E0E980870307800F0200040F018
:103B5000450007F8020D12A8C01B00F107081498D1
:103B6000007800B1012000EB0A01019801EBE0713F
:103B700005984144401A401E0590E00306D45B4678
:103B80002146179A059800F05DF8054414980078CE
:103B900018B15A46179990476D1CE00324D55B462F
:103BA0002146179A059800F04DF805441CE004984A
:103BB000002807DBDDE90301884203DD0098405C53
:103BC000179901E0179930205A469047049805F15B
:103BD0000105401C04900198401E019004D12E2044
:103BE0005A46179990476D1CBAF10001AAF1010AD3
:103BF000DDDC05E017F8010B5A46179990476D1C5C
:103C0000B8F10001A8F10108F4DC5B462146179ADF
:103C10000598ABE62D0000002B00000020000000FE
:103C20002DE9F041044600251E461746880404D4B9
:103C300005E039462020B0476D1C641EF9D52846A2
:103C4000BDE8F0812DE9F041044600251E4690466E
:103C5000C80301D5302700E02027880404D505E0FB
:103C600041463846B0476D1C641EF9D52846BDE86C
:103C7000F0810A68531C0B601070704770B50546E0
:103C800001F0F0FF040011D1242002F0CBFD044626
:103C900001F0DEFF0462002325706FF00041236213
:103CA0006361A3616360A360C4E90313204670BD30
:103CB0002DE9F34F04004FF001062DED108B91B06C
:103CC0009FEDFE9ADFF8F8837ED03046C8F8386062
:103CD000D8F84C20022152F82030401C022883EDF5
:103CE000019AF7DDC8F838603546C8F858103346F1
:103CF000D8F82410022051F823205B1C022B82EDFF
:103D0000019AF7DDC8F838502946C8F85800D8F8A5
:103D100010000A90022250F82130491C0A2983ED34
:103D2000019AF7DDC8F838502846C8F85820D8F866
:103D300054100C915FF0010251F8203003EB820324
:103D4000521C052A83ED009AF6DD401C0228F1DDA5
:103D5000C8F838502846C8F858202E46D8F80C2005
:103D6000CDF82C20022152F82630761C0A2E83ED45
:103D7000019AF7DD0A9D8A1FC8F858108146C8E9E4
:103D80000D060146C8F830005FF00103E66955F8FA
:103D900020C0401C02EB83073E445B1C96ED000AEA
:103DA000022B8CED010AF1DD491C0529ECDDC8F878
:103DB00038904D46C8E90C10D8F850002E4600BF88
:103DC00050F82630022100E092E0761C022E83EDAE
:103DD000019AF5DDC8F838602B46C8F83050C8F8AD
:103DE000581000BF266A02EB8307216950F823C0F0
:103DF0005B1C02EB8606022B8959394491ED000ABF
:103E00008CED010AEEDDC8F83850C8F83030D8F82B
:103E1000201000BF51F8256002236D1C022D86ED95
:103E2000019AF7DD8B46A6490C98049001208B651A
:103E3000C1E90E500A6E0092C96D089101225BF82B
:103E40002010551F81ED019A012105EB820C089E7F
:103E5000276A23697F1A56F8206053F827705BF8A9
:103E6000203056F82260674406EB810693ED010A84
:103E7000D6ED000A97ED001A491C042900EE810ACC
:103E800083ED010AE3DD521C022ADDDD012105EB91
:103E900080020E92276AA669009A7F1A56F8276058
:103EA00052F820300E9F5BF8202003EB81033E4444
:103EB000D3ED000A92ED010A96ED001A491C022981
:103EC00000EEC10A82ED010AE4DD276A0121A6693C
:103ED00000220E9D5BF8203056F82760D3ED010AD2
:103EE000354495ED000A30EE600A83ED010AFCE3EB
:103EF000282003F0E5FE0A2003F0E8FE02F0B6F801
:103F000003F05CF96E4C8034606003F05DF9206072
:103F100003F060F9E06003F063F9A06003F066F974
:103F200020616068F7EE008A9FED668AFFEE009AD6
:103F30004168C1ED018A416881ED029A416881EDD5
:103F4000039A416881ED049A416881ED059A4168C0
:103F500081ED069A416881ED079A416881ED089AE2
:103F6000416881ED099A416881ED0A9A816881ED85
:103F7000019A8168C1ED028A816881ED039A8168A6
:103F800081ED049A816881ED059A816881ED069A38
:103F9000816881ED079A816881ED089A816881EDD9
:103FA000099A816881ED0A9AC16881ED019AC16818
:103FB00081ED029AC168C1ED038AC16881ED049A5E
:103FC000C16881ED059AC16881ED069AC16881EDED
:103FD000079AC16881ED089AC16881ED099AC168A4
:103FE00081ED0A9A016981ED019A016981ED029AD8
:103FF000016981ED039A0169C1ED048A016981EDCE
:10400000059A016981ED069A016981ED079A0169B6
:1040100081ED089A016981ED099A016981ED0A9A99
:10402000416981ED019A416981ED029A416981ED11
:10403000039A416981ED049A4169C1ED058A41699C
:1040400081ED069A416981ED079A416981ED089AEF
:10405000416981ED099A416981ED0A9A816981ED91
:10406000019A816981ED029A816981ED039A8169E2
:1040700081ED049A816981ED059A8169C1ED068A15
:10408000816981ED079A816981ED089A816981EDE5
:10409000099A816981ED0A9AC16981ED019AC16924
:1040A00081ED029AC16981ED039AC16981ED049A9B
:1040B000C16981ED059AC16906E0000000000000B9
:1040C000A40000200000008081ED069AC169C1EDC6
:1040D000078AC16981ED089AC16981ED099AC169B0
:1040E00081ED0A9A016A81ED019A016A81ED029AD5
:1040F000016A81ED039A016A81ED049A016A81EDFA
:10410000059A016A81ED069A016A81ED079A016AB2
:10411000C1ED088A016A81ED099A016A81ED0A9A66
:10412000416A81ED019A416A81ED029A416A81ED0D
:10413000039A416A81ED049A416A81ED059A416AC8
:1041400081ED069A416A81ED079A416A81ED089AEC
:10415000416AC1ED098A416A81ED0A9A816A81ED5D
:10416000019A816A81ED029A816A81ED039A816ADE
:1041700081ED049A816A81ED059A816A81ED069A42
:10418000816A81ED079A816A81ED089A816A81EDE1
:10419000099A816AC1ED0A8AC16AC1ED019AC16AB0
:1041A00081ED028AC16A81ED038AC16A81ED048AC8
:1041B000C16A81ED058AC16A81ED068AC16A81ED15
:1041C000078AC16A81ED088AC16A81ED098AC16ADC
:1041D00081ED0A8A016B81ED018A016BC1ED029AC2
:1041E000016B81ED038A016B81ED048A016B81ED26
:1041F000058A016B81ED068A016B81ED078A016BEF
:1042000081ED088A016B81ED098A016B81ED0A8AD3
:10421000416B81ED018A416B81ED028A416BC1EDF9
:10422000039A416B81ED048A416B81ED058A416BF4
:1042300081ED068A416B81ED078A416B81ED088A29
:10424000416B81ED098A416B81ED0A8A816B81EDB9
:10425000018A816B81ED028A816B81ED038A816B1A
:10426000C1ED049A816B81ED058A816B81ED068A2F
:10427000816B81ED078A816B81ED088A816B81ED0D
:10428000098A816B81ED0A8AC16B81ED018AC16B5C
:1042900081ED028AC16B81ED038AC16B81ED048AD5
:1042A000C16BC1ED059AC16B81ED068AC16B81EDD1
:1042B000078AC16B81ED088AC16B81ED098AC16BE8
:1042C00081ED0A8A016C81ED018A016C81ED028A1F
:1042D000016C81ED038A016C81ED048A016C81ED32
:1042E000058A016CC1ED069A016C81ED078A016CAB
:1042F00081ED088A016C81ED098A016C81ED0A8AE1
:10430000416C81ED018A416C81ED028A416C81ED45
:10431000038A416C81ED048A416C81ED058A416C10
:1043200081ED068A416CC1ED079A416C81ED088AE6
:10433000416C81ED098A416C81ED0A8A816C81EDC5
:10434000018A816C81ED028A816C81ED038A816C26
:1043500081ED048A816C81ED058A816C81ED068A8C
:10436000816C81ED078A816CC1ED089A816C81EDC9
:10437000098A816C81ED0A8AC16C81ED018AC16C68
:1043800081ED028AC16C81ED038AC16C81ED048AE2
:10439000C16C81ED058AC16C81ED068AC16C81ED2D
:1043A000078AC16C81ED088AC16CC1ED099AC16CA4
:1043B00081ED0A8A016D81ED018A016D81ED028A2C
:1043C000016D81ED038A016D81ED048A016D81ED3E
:1043D000058A016D81ED068A016D81ED078A016D07
:1043E00081ED088A016D81ED098A016DC1ED0A9A9E
:1043F000416DC1ED018A9FEDFE3A9FEDFE0ADFEDB2
:10440000FE0A9FEDFE1ADFEDFE1A9FEDFE2ADFED9C
:10441000FE2A416D81ED029A416D81ED039A416D55
:1044200081ED049A416D81ED059A416D81ED069A09
:10443000416D81ED079A416D81ED089A416D81EDE5
:10444000099A416D81ED0A9A816D81ED019A816D24
:10445000C1ED028A816D81ED039A816D81ED049A2F
:10446000816D81ED059A816D81ED069A816D81EDF9
:10447000079A816D81ED089A816D81ED099A816DB0
:1044800081ED0A9AC16DC1ED018AC16D81ED029A7B
:10449000C16DC1ED038AC16D81ED049AC16D81EDDD
:1044A000059AC16D81ED069AC16D81ED079AC16DC6
:1044B00081ED089AC16D81ED099AC16D81ED0A9A6D
:1044C000016E81ED019A016EC1ED028A016E81EDEE
:1044D000039A016EC1ED048A016E81ED059A016EA9
:1044E00081ED069A016E81ED079A016E81ED089AC1
:1044F000016E81ED099A016E81ED0A9A416EC1ED5E
:10450000018A416E81ED029A416EC1ED038A416ECE
:1045100081ED049A416EC1ED058A416E81ED069AE6
:10452000416E81ED079A416E81ED089A416E81EDF1
:10453000099A416E81ED0A9A816E81ED019A816E30
:10454000C1ED028A816E81ED039A816EC1ED048A0C
:10455000816E81ED059A816EC1ED068A816E81EDD5
:10456000079A816E81ED089A816E81ED099A816EBC
:1045700081ED0A9AC16EC1ED018AC16E81ED029A88
:10458000C16EC1ED038AC16E81ED049AC16EC1EDA9
:10459000058AC16E81ED069AC16EC1ED078AC16EB2
:1045A00081ED089AC16E81ED099AC16E81ED0A9A7A
:1045B000016F81ED019A016FC1ED028A016F81EDFA
:1045C000039A016FC1ED048A016F81ED059A016FB5
:1045D000C1ED068A016F81ED079A016FC1ED088A6E
:1045E000016F81ED099A016F81ED0A9A416FC1ED6A
:1045F000018A416F81ED029A416FC1ED038A416FDB
:1046000081ED049A416FC1ED058A416F81ED069AF3
:10461000416FC1ED078A416F81ED089A416FC1ED8D
:10462000098A416F81ED0A9A816F81ED019A816F4C
:10463000C1ED028A816F81ED039A816FC1ED048A19
:10464000816F81ED059A816FC1ED068A816F81EDE1
:10465000079A816FC1ED088A816F81ED099A816F98
:10466000C1ED0A8AC16FC1ED019AC16F81ED028A65
:10467000C16F81ED038AC16F81ED048AC16F81ED45
:10468000058AC16F81ED068AC16F81ED078AC16F0E
:1046900081ED088AC16F81ED098AC16F81ED0A8AB7
:1046A000D0F8801081ED018AD0F88010C1ED029A17
:1046B000D0F8801081ED038AD0F8801081ED048A53
:1046C000D0F8801081ED058AD0F8801081ED068A3F
:1046D000D0F8801081ED078AD0F8801081ED088A2B
:1046E000D0F8801081ED098A00E0FDE3D0F8801059
:1046F00081ED0A8AD0F88410C1ED019AD0F88410B7
:1047000081ED028AD0F88410C1ED039AD0F88410AC
:1047100081ED048AD0F8841081ED058AD0F88410E8
:1047200081ED068AD0F8841081ED078AD0F88410D4
:1047300081ED088AD0F8841081ED098AD0F88410C0
:1047400081ED0A8AD0F8881081ED018AD0F88810AE
:10475000C1ED029AD0F8881081ED038AD0F8881054
:10476000C1ED049AD0F8881081ED058AD0F8881040
:1047700081ED068AD0F8881081ED078AD0F888107C
:1047800081ED088AD0F8881081ED098AD0F8881068
:1047900081ED0A8AD0F88C10C1ED019AD0F88C1006
:1047A00081ED028AD0F88C10C1ED039AD0F88C10FC
:1047B00081ED048AD0F88C10C1ED059AD0F88C10E8
:1047C00081ED068AD0F88C1081ED078AD0F88C1024
:1047D00081ED088AD0F88C1081ED098AD0F88C1010
:1047E00081ED0A8AD0F8901081ED018A0EE0000078
:1047F000E474064341942442C60DC8425C8FFD41D7
:10480000B6997742E3D9A141026BCD41D0F890101F
:10481000C1ED029AD0F8901081ED038AD0F8901083
:10482000C1ED049AD0F8901081ED058AD0F890106F
:10483000C1ED069AD0F8901081ED078AD0F890105B
:1048400081ED088AD0F8901081ED098AD0F8901097
:1048500081ED0A8AD0F89410C1ED019AD0F8941035
:1048600081ED028AD0F89410C1ED039AD0F894102B
:1048700081ED048AD0F89410C1ED059AD0F8941017
:1048800081ED068AD0F89410C1ED079AD0F8941003
:1048900081ED088AD0F8941081ED098AD0F894103F
:1048A00081ED0A8AD0F8981081ED018AD0F898102D
:1048B000C1ED029AD0F8981081ED038AD0F89810D3
:1048C000C1ED049AD0F8981081ED058AD0F89810BF
:1048D000C1ED069AD0F8981081ED078AD0F89810AB
:1048E000C1ED089AD0F8981081ED098AD0F8981097
:1048F00081ED0A8AD0F89C10C1ED019AD0F89C1085
:1049000081ED028AD0F89C10C1ED039AD0F89C107A
:1049100081ED048AD0F89C10C1ED059AD0F89C1066
:1049200081ED068AD0F89C10C1ED079AD0F89C1052
:1049300081ED088AD0F89C10C1ED099AD0F89C103E
:1049400081ED0A8AD0F8A01081ED018AD0F8A0107C
:10495000C1ED029AD0F8A01081ED038AD0F8A01022
:10496000C1ED049AD0F8A01081ED058AD0F8A0100E
:10497000C1ED069AD0F8A01081ED078AD0F8A010FA
:10498000C1ED089AD0F8A01081ED098AD0F8A000F6
:10499000C0ED0A9A2068416881ED013A416881EDD5
:1049A000020A4168C1ED030A416881ED041A4168B9
:1049B000C1ED051A416881ED062A4168C1ED072A5B
:1049C0009FEDFE5ADFEDFE5A9FEDFE6ADFEDFE6AB7
:1049D0009FEDFE7ADFEDFE7A9FEDFE2ADFEDFE2AE7
:1049E0009FEDF89A9FEDFDAADFEDFDAA9FEDFDBAC0
:1049F000DFEDFDBA9FEDFD3ADFEDFD3A9FEDF2CA26
:104A0000DFEDF7CA9FEDFBDADFEDFBDA9FEDFBEAA6
:104A10009FEDFB4ADFEDFB4ADFEDECEA9FEDF1FA9B
:104A2000DFEDF5FA416881ED085A9FEDF75A4168CC
:104A300081ED095A416881ED0A5A816881ED010AC8
:104A40008168C1ED025A816881ED036A8168C1ED18
:104A5000046A816881ED057A8168C1ED067A816812
:104A600081ED072A8168C1ED082A816881ED095A24
:104A7000816881ED0A5AC168C1ED010AC16881ED02
:104A8000029AC16881ED03AA9FEDE00AC168C1EDF9
:104A900004AADFEDDF0AC16881ED05BADFEDDD5A5A
:104AA000C168C1ED06BAC16881ED073A9FEDDA6AC7
:104AB000C168C1ED083AC16881ED095AC16881ED4C
:104AC0000A5A016981ED011A1FEDB21A016981EDDF
:104AD00002CADFEDBF6A0169C1ED03CA9FEDC27A68
:104AE000016981ED04DADFEDC57A0169C1ED05DA0E
:104AF0009FEDC79A016981ED06EA9FEDC8AA016999
:104B000081ED074ADFEDC6AA0169C1ED084A0169D6
:104B100081ED095A9FEDC3BA016981ED0A5A4169D5
:104B2000C1ED011A4169C1ED02EA416981ED03FA63
:104B30005FEDCB1A4169C1ED04FADFEDBBBA416903
:104B400081ED050A9FEDB90A4169C1ED060A416987
:104B5000C1ED075A416981ED086A416981ED095A41
:104B6000DFED960A416981ED0A5A9FEDB1CA81696C
:104B700081ED011A8169B0EE001AC1ED026A816906
:104B800081ED037A8169C1ED047A816981ED059A2D
:104B9000816981ED06AA8169C1ED07AA816981ED6C
:104BA00008BA816981ED095A816981ED0A5AC169A2
:104BB000C1ED011AC16981ED022AC16981ED033A93
:104BC000C16981ED044AC169C1ED055AC169C1EDF0
:104BD00006AAC169C1ED07BAC16981ED080AC169B8
:104BE00081ED095AC16981ED0A5A016AC1ED010AD4
:104BF000016AC1ED022A016AC1ED033A016AC1ED01
:104C0000044A016A81ED056A016A81ED06BA016A0A
:104C100081ED070A016A81ED08CA016A01231A467B
:104C200081ED095A016A81ED0A5A416A81ED015A02
:104C3000416A81ED025A416A81ED035A416A81ED70
:104C4000045A416A81ED055A416A81ED065A416A6A
:104C500081ED075A416A81ED085A416A81ED091ACE
:104C6000416A81ED0A5A816A81ED015A816A81EDBA
:104C7000025A816A81ED035A816A81ED045A816A80
:104C800081ED055A816A81ED065A816A81ED075AE4
:104C9000816A81ED085A816A81ED095A806A022190
:104CA00080ED0A1A184600F0E7FE0123C8F84C0010
:104CB00002211A46184600F0DFFEA4F1800101230C
:104CC0001A4648620A21184600F0D6FEA4F1800177
:104CD0000122052308610221104600F0CDFEA4F157
:104CE000800101231A4648650A21184600F0C4FED7
:104CF000A4F1800101231A46C8600221184600F081
:104D0000BBFEA4F1800101231A4608650221184662
:104D100000F0B2FE0122C8F820000223114610461E
:104D200000F0AAFE0123C8F81C000A211A46184602
:104D300000F0A2FE0123C8F828000A211A461846EE
:104D400000F09AFE0A23C8F82C00012219461046EA
:104D500000F092FEC8F8640041689FED2B0ADFED79
:104D6000350A81ED010A41689FED331ADFED332AE0
:104D700081ED020A41689FED323ADFED324AC1ED22
:104D8000030A41689FED305ADFED306A81ED041A65
:104D900041689FED2F7ADFED2F1A9FED2F2ADFED6F
:104DA0002F3A9FED2F4ADFED2F5A9FED2F6ADFED4F
:104DB0002F7A9FED2F9AC1ED052A5BE0A9EF0C41F8
:104DC0002D7209427EF5F7418A2BC64171839A41C3
:104DD000AA437C4157BD03418723DD407E14B04286
:104DE000D763DF4147C661427DB39641891EC14109
:104DF00036A106411355C4414E119341BC5772412F
:104E0000544C0041F9CCD8400000000044713C42B1
:104E100036827A41FEC3A74126DFF140B0B8714126
:104E2000A88AEC4066A4CA40FCC082412A55B14021
:104E30006DE5DB40BE58A3C0DBA5CFBFCA4FF3C0B2
:104E400012DEF6BF9B3A0DC16B46FEBF90CF16C176
:104E50009BACFFBFA6D2A1BFA0A736C0A75ADDBF9B
:104E60007AFC6AC02941F3BFBEFA79C0AD4FFBBFDF
:104E70006B467EC0416881ED063A4168C1ED074A44
:104E8000416881ED085A4168C1ED096A416881EDC8
:104E90000A7A816881ED010A816881ED020A8168E0
:104EA000C1ED031A816881ED042A8168C1ED053ADC
:104EB000816881ED064A8168C1ED075A816881EDFC
:104EC000086A8168C1ED097A816881ED0A9AC16832
:104ED00081ED010AC16881ED020AC16881ED030A12
:104EE000C16881ED040A00E048E3C168C1ED050A2C
:104EF000C16881ED061AC168C1ED072AC16881ED5C
:104F0000083AC168C1ED094AC16881ED0A5A0169D0
:104F100081ED010A016981ED020A016981ED030A4F
:104F2000016981ED040A0169C1ED051A016981ED8C
:104F3000062A0169C1ED073A016981ED084A016954
:104F4000C1ED095A016981ED0A6A416981ED010AE1
:104F5000416981ED020A416981ED030A416981EDF0
:104F6000040A416981ED050A416981ED060A41693A
:104F7000C1ED070A416981ED081A4169C1ED092AAD
:104F8000416981ED0A3A816981ED010A816981ED0A
:104F9000020A816981ED030A816981ED040A816950
:104FA00081ED050A816981ED060A8169C1ED071A63
:104FB000816981ED082A8169C1ED093A816981ED34
:104FC0000A4AC16981ED010AC169B0EE409A81EDDA
:104FD000020AC16981ED030AC16981ED040AC16950
:104FE00081ED050AC16981ED060AC16981ED070AF3
:104FF000C16981ED080AC169C1ED090AC16981ED84
:105000000A1A016A81ED010A016A81ED020A016A48
:1050100081ED030A016A81ED040A016A81ED050A46
:10502000016A81ED060A016A81ED070A016A81EDD4
:10503000080A016AC1ED091A016A81ED0A2A416A6A
:1050400081ED010A416A81ED020A416A81ED030A9C
:10505000416A81ED040A416A81ED050A416A81EDE8
:10506000060A416A81ED070A416A81ED080A416A30
:1050700081ED090A416A81ED0A0A816A81ED010A1E
:10508000816A81ED020A816A81ED030A816A81EDFC
:10509000040A816A81ED050A816A81ED069A816AB6
:1050A00081ED079A816A81ED089A816A01231A4687
:1050B00081ED099A806A282180ED0A9A184600F04D
:1050C000DBFC0122C8F8140002231046282100F05E
:1050D000D3FCC8F86800416881ED019A416881ED10
:1050E000029A816881ED019A816881ED029AC16816
:1050F00081ED019AC16881ED029A016981ED019A01
:10510000016981ED029A416981ED019A416981ED60
:10511000029A816981ED019A816981ED029AC169E2
:1051200081ED019AC16981ED029A016A81ED019ACE
:10513000016A81ED029A416A81ED019A416A81ED2D
:10514000029A816A81ED019A816A81ED029AC16AAF
:1051500081ED019AC16A81ED029A016B81ED019A9C
:10516000016B81ED029A416B81ED019A416B81EDFA
:10517000029A816B81ED019A816B81ED029AC16B7C
:1051800081ED019AC16B81ED029A016C81ED019A6A
:10519000016C81ED029A416C81ED019A416C81EDC7
:1051A000029A816C81ED019A816C81ED029AC16C49
:1051B00081ED019AC16C81ED029A016D81ED019A38
:1051C000016D81ED029A416DC1ED018A416D81ED64
:1051D000029A816D81ED019A816DC1ED028AC16DE6
:1051E000C1ED018AC16D81ED029A016E81ED019AD6
:1051F000016EC1ED028A416EC1ED018A416E81ED01
:10520000029A816E81ED019A816EC1ED028AC16EB2
:10521000C1ED018AC16E81ED029A016F81ED019AA3
:10522000016FC1ED028A416FC1ED018A416F81EDCD
:10523000029A816F81ED019A816FC1ED028AC16F7F
:10524000C1ED019AC16F81ED028AD0F8801081ED25
:10525000018AD0F88010C1ED029AD0F88410C1ED17
:10526000019AD0F8841081ED028AD0F8881081ED7F
:10527000018AD0F88810C1ED029AD0F88C10C1EDE7
:10528000019AD0F88C1081ED028AD0F8901081ED4F
:10529000018AD0F89010C1ED029AD0F89410C1EDB7
:1052A000019AD0F8941081ED028AD0F89810012369
:1052B0001A4681ED018AD0F89810C1ED029AD0F813
:1052C0009C10C1ED019AD0F89C1081ED028AD0F8B3
:1052D000A01081ED018AD0F8A0002821C0ED029A2B
:1052E000184600F0C9FB0123C8F8180028211A4607
:1052F000184600F0C1FB9FEDFE8AC8F86C0004213F
:10530000426882ED018A826882ED018AC26882ED7C
:10531000018A026982ED018A426982ED018A82690D
:1053200082ED018AC26982ED018A026A82ED018AF8
:10533000426A82ED018A826A82ED018AC26A82ED46
:10534000018A026B82ED018A426B82ED018A826BD7
:1053500082ED018AC26B82ED018A026C82ED018AC4
:10536000426C82ED018A826C82ED018AC26C82ED10
:10537000018A026D82ED018A426DC2ED018A826D61
:10538000C2ED018AC26DC2ED018A026EC2ED018AD0
:10539000426EC2ED018A826EC2ED018AC26EC2ED1A
:1053A000018A026FC2ED018A426FC2ED018A826FEB
:1053B000C2ED018AC26FC2ED018AD0F88020C2ED31
:1053C000018AD0F88420C2ED018AD0F88820C2ED8D
:1053D000018AD0F88C20C2ED018AD0F89020C2ED6D
:1053E000018AD0F894200223C2ED018AD0F89820D7
:1053F000C2ED018AD0F89C20C2ED018AD0F8A0004D
:105400000122C0ED018ACDE900611946104600F085
:1054100075FB9FEDB80ADFEDB80A9FEDB81ADFED16
:10542000B81A9FEDB82ADFEDB82A9FEDB83ADFED44
:10543000B83AC8F85C00022341680122496881ED4E
:10544000019A4168496881ED020A41684968C1EDE5
:10545000030A4168496881ED049A4168896881EDD1
:10546000019A4168896881ED021A41688968C1ED35
:10547000031A4168896881ED049A8168496881ED61
:10548000019A8168496881ED022A81684968C1ED05
:10549000032A8168496881ED049A8168896881EDF1
:1054A000019A8168896881ED023A81688968C1ED55
:1054B000033A80681946806880ED049A104600F02F
:1054C000DBFA9FED940ADFED940A9FED941ADFED6D
:1054D000941AC8F8600001224168022381ED010A94
:1054E0004168C1ED020A816881ED011A80681146A8
:1054F000C0ED021A104600F0BFFAC8F87000012291
:105500004168022381ED018A4068114680ED028ADC
:10551000104600F0B1FA9FED830AC8F8740001222A
:105520004168022381ED010A4068114680ED020ABC
:10553000104600F0A1FAC8F8780001224168022361
:10554000C1ED018A40681146C0ED028A104600F0A4
:1055500093FAC8F87C004168C1ED019A4068C0ED3B
:10556000029A11B0BDEC108BBDE8FC8F4A1E022AD6
:1055700000DD02224FF0040E042904DAB1F1000E1E
:105580004FF0000900DDF146049B5BF820504FF01E
:10559000010A53F8206095ED010A06EB810383EDC3
:1055A000000A01235E1F06EB8A05109523E000BF69
:1055B000089DD4F82080D4F810C055F82060049DD0
:1055C00056F82A6055F820706FF0030505EB88083F
:1055D00006EB830607EB8105D6ED000A5CF808C0F0
:1055E0005B1C109E95ED000A664496ED001A00EED5
:1055F000810A85ED000A4B45DADD0AF1010ABAF1AC
:10560000020FCEDD5FF001036FF0030609F1010523
:1056100006EB830A21E000BF089ED4F820802769AA
:10562000A8EB050856F820C08844049E57F8288047
:105630005CF823C056F8206008EB0A070CEB850CD9
:1056400006EB8106DCED000A96ED000A97ED001AE4
:105650006D1C00EE810A86ED000A042DDCDD5B1C6A
:10566000022BD1DD012518E0009EA1EB050C56F8B8
:105670002070049E07EB85076D1CD7ED000A56F8D5
:10568000206006EB8C0C06EB81069CED001A96ED73
:10569000000A00EEC10A86ED000A9542E4DD02F13F
:1056A000010A20E0049DD4F820C0A66955F82080A6
:1056B000009D55F82070ACEB0A0505EB010C08EBDA
:1056C000810507EB8A0756F82CC00AF1010A0E9EE5
:1056D00095ED000A6644D7ED000A96ED001A00EE3B
:1056E000C10A85ED000ABAF1020FDBDD491C1BE09F
:1056F000CDCCCC3DC1582340155E70BFA8D2213F10
:1057000023709EBED9A54F3FE8F76DBE9CA7B63F5C
:1057100003FF89BEF37F5BBF1E6A383E0F65F3BE91
:1057200067A65D3DCDCCCCBD05297FF71FAF401CE2
:1057300002287EF783AB9F4E4FF0010BDDE90BC5CE
:105740005F46C6F834B0C6F80090C6E90F03C6F845
:1057500030B03846C6E9111AC6E901E25FF001012E
:105760005CF82030401C55F82120491C022902EB2E
:10577000870292ED000A83ED010AF1DD7F1C052FFF
:10578000ECDD4FF0FF323763C6E90D010A235D46B9
:10579000CDE900B2DDE90A01B26A02F0AFF90A20F0
:1057A0000090CDE90105D6E90A120346706E00F0BB
:1057B0004FFB804F284635638037F26AD7F80810D0
:1057C00052F8203001EB800C401C93ED010A0A28AE
:1057D0008CED000AF4DD3063022100912823CDE92D
:1057E00001157269316DB06E00F032FB009528230F
:1057F0000195F06ED6E9051202F080F9356329466D
:10580000F868B26900EB810C52F82130491C282954
:1058100093ED010A8CED000AF4DD356329463A69FF
:1058200002EB8103491C022983ED009AF8DD28224E
:105830003163BFEE000A014600F0E8FB01F012F907
:1058400035632B46706AD7F81010814601EB83024E
:1058500050F823705B1C92ED000A022B87ED010AC1
:10586000F4DD544D01206FF003014A462B63286498
:105870006E6FEB6CD5E91EBE0496D5F870A000BF24
:10588000DAF8046052F8205006EB800696ED000A24
:10589000D5ED010AB4EEE00AF1EE10FA01D285ED81
:1058A000010A049D6E6852F8205006EB800696EDC2
:1058B000000AD5ED010AB4EEE00AF1EE10FA01DDBE
:1058C00085ED010A276A256952F820C001EB870798
:1058D00053F82060DCED010AEF5901EB80052F44FD
:1058E00097ED000A30EE200A86ED010ADBF804701D
:1058F00053F8206007EB8007D7ED000AF4EEC00AEA
:10590000F1EE10FA01D2C6ED010ADEF8047053F888
:10591000206007EB800797ED000AD6ED010AB4EE90
:10592000E00AF1EE10FA01DD86ED010A266A276928
:1059300053F820C001EB860652F82080401CDCEDB5
:10594000010ABE590228354495ED000A30EEC00A1E
:1059500088ED010A94DD174B012211469A63186401
:10596000DC69012054F8215005EB8005401C022819
:1059700085ED009AF6DD491C0129F2DD1A644D46D9
:105980009963986555F82210606800EB820091EDEC
:10599000010A521C022A80ED000AF3DD1A646168D4
:1059A000229811B0091DBDEC108BBDE8FC4F02F030
:1059B000A1B80000A4000020022008B501F082FD7B
:1059C0009FED0E0A02200090C82203460C481146A3
:1059D0009FED091AF0EE400A00F024FC084901F19D
:1059E000340000F09DFC00210846FEF761F9BDE897
:1059F0000840022001F07EBC0AD7233C00000000D2
:105A0000C4050020032010B501F05CFD044800F03F
:105A1000BBFCFDF7ADFCBDE81040032001F06ABC03
:105A2000C40500202DE9F0410C460746800000F037
:105A3000F9FE050002D0A600002407E0FEE730468C
:105A400000F0F0FE45F8240028B1641CBC42F6DBEF
:105A50002846BDE8F081FEE7042010B500F0E2FE24
:105A60000446242000F0DEFEFF22206000210270A8
:105A70000162204610BD00002DE9F0470446914622
:105A80000F1B88467F1CA3EB0906B800001D761C7F
:105A900000F0C8FE050003D1012114A000F0D6FFDC
:105AA00077432D1DA5EB8405B800001D00F0BAFE5C
:105AB00045F8240018B901210CA000F0C7FF55F8E3
:105AC0002410601C091DA1EB890145F8241008E091
:105AD00005EB800151F8041C01EB860145F820100C
