:020000040800F2
:1000000080100020DD010008572B00081B2A000883
:10001000552B0008090B00080532000800000000FD
:100020000000000000000000000000005B2B000842
:10003000BD0B000800000000592B00085D2B0008D4
:10004000F7010008F7010008F7010008F7010008B0
:10005000F7010008F7010008F7010008F7010008A0
:10006000F7010008F7010008F7010008F701000890
:10007000F7010008F7010008F7010008F701000880
:10008000F7010008F7010008C5090008F70100089A
:10009000F7010008F7010008F7010008F701000860
:1000A000F7010008F7010008F7010008F701000850
:1000B000512C0008F7010008F7010008F7010008BB
:1000C000F7010008F7010008F7010008F701000830
:1000D000F7010008F9310008F7010008F7010008EE
:1000E000F7010008F7010008F7010008F701000810
:1000F000F7010008F7010008F7010008F701000800
:10010000F7010008F7010008F7010008F7010008EF
:10011000F7010008F7010008F7010008F7010008DF
:100120000D0B0008F7010008F7010008F7010008AF
:10013000F7010008F7010008F7010008F7010008BF
:10014000F7010008F7010008F7010008F7010008AF
:10015000F7010008F7010008F7010008F70100089F
:10016000F7010008F7010008F7010008F70100088F
:10017000F7010008F7010008F7010008000000007F
:10018000F7010008F7010008F7010008F70100086F
:10019000F7010008F7010008F7010008F70100085F
:1001A000F7010008F7010008F7010008F70100084F
:1001B000F7010008F7010008F7010008F70100083F
:1001C000F7010008F7010008DFF80CD000F006FB8B
:1001D00000480047BD6A000880100020064880479C
:1001E00006480047FEE7FEE7FEE7FEE7FEE7FEE71C
:1001F000FEE7FEE7FEE7FEE7FD2B0008C901000869
:100200002DE9F05F0546002092469B46884606464B
:10021000814640241BE0284641464746224600F0DE
:100220008DF853465A46C01A914110D311461846CC
:10023000224600F074F82D1A67EB01084F4622465B
:100240000120002100F06BF817EB00094E41201E41
:10025000A4F10104DFDC484631462A464346BDE8A6
:10026000F09FD2B201E000F8012B491EFBD270478B
:100270000022F6E710B513460A4604461946FFF772
:10028000F0FF204610BD421C10F8011B0029FBD1D5
:10029000801A704700F0004230F000400AD0C10DD3
:1002A00001F56071C0F3160042EA0151C20840072F
:1002B0001143704700200146704701F0004330B4FD
:1002C00021F0004150EA010206D00A0DA2F5607249
:1002D000C1F31301002A02DC30BC00207047440F38
:1002E00044EAC104C100E01830BC00EBC25000F089
:1002F00035B830B50B46014600202022012409E024
:1003000021FA02F59D4205D303FA02F5491B04FACE
:1003100002F52844151EA2F10102F1DC30BD202AAD
:1003200004DB203A00FA02F1002070479140C2F14C
:10033000200320FA03F3194390407047202A04DB7E
:10034000203A21FA02F00021704721FA02F3D0404E
:10035000C2F1200291400843194670470029A8BF06
:100360007047401C490008BF20F00100704710B4DE
:10037000B0FA80FC00FA0CF050EA010404BF10BC93
:10038000704749B1CCF1200421FA04F411FA0CF1C0
:1003900018BF012121430843A3EB0C01CB1D4FEAF9
:1003A00000614FEA102042BF002010BC704700EBF4
:1003B000C35010440029A4BF10BC7047401C490022
:1003C00008BF20F0010010BC70472DE9FE4F8046A9
:1003D00081EA0300C00F0C46009021F0004123F099
:1003E0000045B8EB0200A94105D24046214690469F
:1003F0001C460B46024623F00040104347D0270D11
:10040000C7F30A00C3F30A510290401A0190402832
:100410006BDAC3F3130040F4801B0098924620B1BE
:100420000023D2EB030A63EB0B0B01985946C0F192
:1004300040025046FFF773FF06460D4650465946A8
:10044000019A00F0DDF910EB08006141002487EA11
:10045000115284EAE7731A4340D0009A62B3019ABA
:10046000012A4FEA075215DC001B61EB02014FF035
:10047000004202EA0752CDE90042001C41F580111A
:1004800032462B4600F0DDF903B0BDE8F08F404660
:100490002146F9E7001B61EB0201001C41F58013C6
:1004A00000185B412018A2F5001747EB030140EA52
:1004B000D570B6196D4111E06D084FEA360645EA70
:1004C000C0754FEA0752001B61EB0201001C41F5A9
:1004D000801149084FEA30000019514132462B463D
:1004E00003B0BDE8F04F00F09DB900980122400034
:1004F0000023D0EB020263EBE073009821464FEA41
:10050000E074B8EB000061EB0401E9E783F000431D
:100510005BE781F0004158E72DE9FE4F81EA0304D3
:1005200004F0004421F0004100944FF0000B23F050
:10053000004350EA01045ED052EA03045BD0C3F3E7
:100540000A54C1F30A552C44A4F2F3340194A0FBDD
:100550000254C1F3130141F48011C3F3130343F4B4
:10056000801301FB024400FB034E840A970A44EA0D
:10057000815447EA8357A4FB076802958D0A05FB5F
:1005800007854FEA932C04FB0C542705029D4FEA84
:10059000065847EA1637B5EB08056EEB070C870ED1
:1005A000920E47EA811742EA8312A7FB0201B6EBDB
:1005B0000B0164EB00042B0D43EA0C335E1844EB93
:1005C0001C50DA465146E7FB0201C5F313044FEA1B
:1005D0000B3343EA14534FEA0432019C43EA060307
:1005E000A4F10C040294009CCDE900B400F029F9B8
:1005F00003B0BDE8F08F00200146F9E72DE9F04D8A
:1006000081EA030404F0004B21F0004514464FF04A
:10061000000A23F0004150EA050220D054EA01020A
:100620001DD0C5F30A570246C5F31303C1F31300E7
:10063000C1F30A5640F4801543F48013A7EB060873
:10064000101BD64608F2FD3873EB050002D308F103
:10065000010801E092185B41B8F1000F03DA0020B5
:100660000146BDE8F08D00204FF480110646844617
:100670000EE0171B73EB050705D3121B63EB050395
:1006800006434CEA010C49084FEA300092185B41DE
:1006900050EA0107EDD152EA030012D082EA0400C9
:1006A00083EA0501084305D0101BAB4106D20122A5
:1006B000002306E000224FF0004302E06FF0010249
:1006C00053101AEB06004CEB085110EB0A0041EBFB
:1006D0000B01BDE8F04D00F0A5B82DE9F04D002369
:1006E0001A461B1A8A4103DB00200146BDE8F08D43
:1006F000C1F30A52C1F3130141F480154FF0000B0E
:10070000D10702D100186D41521E0027044640F265
:10071000FF11384601EB620A3E4680460246002041
:100720004FF48011FFF70AFEC2197141BB1846EB66
:100730000100B4EB030C75EB000C04D3E41A65EB79
:10074000000517460E46241908F101006D41804648
:100750003428E3DDF91946EB0600091BA84103D252
:100760004FF0FF32134601E0002213461BEB070057
:1007700046EB0A51BDE8F04D00F054B8C1F30A52FF
:10078000C1F3130140F2FF3341F480119A4202DABF
:1007900000200146704740F233439A42A2F23342AE
:1007A00002DC5242FFF7CABDFFF7B9BD30B5041EE7
:1007B00071F1000404DB4FF00044404264EB01019E
:1007C000141E73F1000405DB1C464FF00043524237
:1007D00063EB0403994208BF904230BD064C074DBD
:1007E00006E0E06840F0010394E807009847103401
:1007F000AC42F6D3FFF7ECFC747E0008947E000850
:10080000202A06DBCB17203A41FA02F043EAE073D4
:1008100006E041FA02F3D040C2F1200291400843C1
:100820001946704710B5141E73F1000408DA401C15
:1008300041F1000192185B411A4301D120F00100FF
:1008400010BD2DE9F04D92469B4611B1B1FA81F2EF
:1008500002E0B0FA80F220329046FFF760FD0446D5
:100860000F4640EA0A0041EA0B0153465A46084344
:1008700013D0114653EA010019D0C8F14002504686
:10088000FFF75CFD05460E46504659464246FFF7C7
:1008900046FD084305D0012004E020463946BDE866
:1008A000F08D0020054346EAE0762C4337430A9852
:1008B0006305E40AA0EB08000022FD0A44EA47545D
:1008C0000A3002D500200146E9E701051019694107
:1008D000DDE9084500196941BDE8F04DA2E770B5B2
:1008E0008C1810F8015B15F0070301D110F8013BDB
:1008F0002A1106D110F8012B03E010F8016B01F862
:10090000016B5B1EF9D12B0705D40023521E0DD4B9
:1009100001F8013BFAE710F8013BCB1A921C03E007
:1009200013F8015B01F8015B521EF9D5A142D8D33F
:10093000002070BD10B50146806B026C12F0500FA4
:1009400005D0026CD20626D500F02DFA10BD016C40
:1009500041F40071016401688A6812F0405F17D1A8
:100960008269AAB9CA6A12F4700F02D08A68520565
:100970000ED44A6822F020024A60016C21F4807192
:100980000164016CC90403D4016C41F001010164EC
:1009900000F0CAF910BD806BC26C0846BDE810407B
:1009A000104710B5806B40210164416C41F0040197
:1009B000416400F0F8F910BD10B5806B00F0F2F959
:1009C00010BD0000014800F0EFB9000098040020BD
:1009D0004A496FF0706210B5D1F8043323F4403304
:1009E000C1F80433D1F8043344682343C1F8043315
:1009F00001684B6823F480734B60016803694C689D
:100A000044EA03234B6001684B6823F040734B605A
:100A1000016884684B6823434B6001688B6823F44A
:100A200000638B600168C4688B6823438B60816AB4
:100A3000D14201688A6822F070628A6001680DD034
:100A4000836A8A681A438A6001688A6822F0405281
:100A50008A600168C36A8A681A4302E08A6822F0E1
:100A600040528A6001688A6822F002028A60016846
:100A700082698B6843EA42028A6090F8201000295C
:100A8000016811D01E4A4B6843F400634B60016853
:100A90004B6823F460434B600168446A4B6802EB87
:100AA000443213434B6003E04A6822F400624A6018
:100AB0000168144BCA6A22F47002CA620168848B0E
:100AC000CA6A03EB04531A43CA6201688A6822F4B3
:100AD00000728A60016890F830208B6843EA4222F5
:100AE0008A6001688A6822F480628A6001684069CD
:100AF0008A6842EA8020886010BD00000020014022
:100B000000E0FFFF0000F0FFFEE70000014800F0FA
:100B100027BC0000F405002001681823CAB2103A6F
:100B2000B2FBF3F2054B6FF30901032A9B5CC3652B
:100B300000D9091D8165084670470000527E0008F3
:100B400010B583694FF0C074826A0146002053B12A
:100B5000B3F5005F15D072B1012A0CD0022A0AD079
:100B6000032A09D104E01AB1012A06D0022A03D1CE
:100B7000C96AC90100D5012010BDC96AA142FAD0D5
:100B800010BD002AF7D0012AF2D0022AF3D0032A9E
:100B9000F3D010BD30B50468256825F480252560A4
:100BA000046863608368402B036803D09960006821
:100BB000C26030BD9A600068C16030BD7047704748
:100BC00070470000F8B50025009590F83C20012AF8
:100BD00018D0012280F83C200A6807234E4C066892
:100BE000092A1AD90A3A02EB4207F268BB409A4333
:100BF000F2600E680268A64206D10B7AD66846EA11
:100C0000036308E00220F8BD0A3E8B68D76806EB54
:100C10004606B3403B43D3600EE002EB4207326925
:100C2000BB409A43326103680E788A681F6906EBFD
:100C30004606B2403A431A614A681F23072A13D274
:100C40000668521E02EB8207726BBB409A437263C6
:100C500003680E790A88761E5F6B92B206EB8606F1
:100C6000B2403A435A6327E006680D2A12D2D21FD7
:100C700002EB8207326BBB409A43326302680E7903
:100C80000B88F61F176B9BB206EB8606B3403B43FF
:100C9000136311E00D3A02EB8207F26ABB409A43FC
:100CA000F26202680E790B880D3ED76A9BB206EBA2
:100CB0008606B3403B43D362184A0368934208D187
:100CC0000B68122B05D1D2F8043343F48003C2F829
:100CD0000433036893421AD10B68A34201D0112B4D
:100CE00015D1D2F8043343F40003C2F80433096881
:100CF000A1420CD10A490B4A0968B1FBF2F101EBA0
:100D00008101490000E0491E00910029FBD180F8D3
:100D10003C500020F8BD00001200001000200140EF
:100D20006401002040420F001A49002330B51A4ADE
:100D300018460B60C1F8043002EBC0050B6852F88E
:100D40003040401C642823440B606B684C6823448B
:100D50004B60F1DB91ED001ADFED100A9FED100AF8
:100D6000B8EE411A0B481038C1EE201A31EEC01A05
:100D7000C1EE001A01EE103AB8EE411AC0ED001AA9
:100D8000C1EE201A71EEC00A80EE801A80ED011AC1
:100D900030BD0000B8000020780100200000C842EB
:100DA00000F0FF447047704770B504460068016862
:100DB0004268C1F34001C2F3401251B34AB3216CFF
:100DC000C90603D4216C41F400712164816811F0DB
:100DD000405F17D1A169A9B9C16A11F4700F02D09F
:100DE000816849050ED4416821F020014160206CE2
:100DF00020F480702064206CC00403D4206C40F088
:100E0000010020642046FFF78FFF21686FF0120079
:100E10000860206801684268C1F38001C2F3C01213
:100E200089B382B3216CC90603D4216C41F400510B
:100E30002164816811F4401F1ED1816B11F4401FA1
:100E400002D08168490517D44168490514D48168E6
:100E500011F0405F10D1A16971B9416821F08001A2
:100E60004160206C20F480502064206CC00503D4C5
:100E7000206C40F0010020642046FFF7A1FE2168AD
:100E80006FF00C00086020680168436811F0010FE2
:100E9000C3F380110ED069B10068C0070AD0206C7E
:100EA00040F480302064204600F046F821686FF05E
:100EB00001000860206801684268C1F34011002900
:100EC000C2F380620DD0002A0BD0616C6FF0200558
:100ED00041F00201616405602046FFF764FF20686D
:100EE000056070BD70B504004FF0000503D0206CA4
:100EF000002610B107E0012070BD204600F01EF86A
:100F0000666484F83C60206CC00610D4206C20F429
:100F1000885040F0020020642046FFF759FD6664C7
:100F2000206C20F0020040F00100206400E0012568
:100F300084F83C60284670BD70470000F0B587B06B
:100F4000064614216846FFF793F921493068884224
:100F50003CD12048016841F480610160006800F4E0
:100F6000806005901B481438016841F00101016060
:100F700000680025694600F00100059003200090FC
:100F8000CDE90105144800F07DFB15484FF4807C45
:100F9000124C8105021584E823000F13C4E90352A3
:100FA00083142046C4E907C56562C4E9053700F02B
:100FB000A7FA08B1FFF703FEB46300220321A6637A
:100FC000122000F0ABFC122000F09AFC07B0F0BD3C
:100FD000002201404438024000000240F405002095
:100FE0001064024018B50022009290F83C100129CC
:100FF00007D0012180F83C1001688B68DB0702D024
:1010000011E0022018BD8C682A4B44F001048C606A
:1010100029490968B1FBF3F101EB410100E0491EE8
:1010200000910029FBD103689968C90740D0016C81
:1010300040F20164A14341F480710164596849059B
:1010400005D5016C21F4005141F480510164016C1B
:10105000C90404D5416C21F00601416400E04264FA
:101060006FF02204154980F83C201C60D1F804235D
:10107000D20607D002688A420AD1936813F0405F13
:1010800002D005E000680BE0936843F08043936072
:10109000D1F80413C9060BD400680949884207D166
:1010A000816811F0405F03D1816841F08041816027
:1010B000002018BD40420F006401002000200140C4
:1010C00000220140F8B50D4604460021009190F839
:1010D0003C00012807D0012084F83C002068836888
:1010E000DB0702D011E00220F8BD8668364B46F0DF
:1010F0000106866035480068B0FBF3F000EB400065
:1011000000E0401E00900028FBD120688368DB07C8
:1011100058D0236C40F20166B34343F480732364D8
:101120004068400505D5206C20F4005040F4805004
:101130002064206CC00404D5606C20F0060060645C
:1011400000E061646FF0220084F83C10A36B20493A
:10115000D963A36B1F491964A36B1F49D964216824
:1011600008602068416841F08061416020688168C2
:1011700041F48071816021681346A06B2A464C318E
:1011800000F030FA1549D1F80403C006206811D0E8
:10119000884207D1826812F0405F03D1826842F032
:1011A00080428260D1F80403C0060BD40C49206849
:1011B000884207D1816811F0405F03D1816841F016
:1011C000804181600020F8BD40420F006401002092
:1011D00035090008B9090008A309000800200140EA
:1011E0000022014070B54379012B1AD001244471CB
:1011F00002230371056840F6FE76D1E900310B4306
:1012000029689640B1439340C0260B432B60016888
:1012100096400A68B2430A6000230471437118467D
:1012200070BD022070BD70B5040003D02079002588
:1012300010B105E0012070BD2046657100F008F88E
:1012400002212171012025612071002070BD000064
:1012500010B586B0044614216846FFF709F8114915
:10126000206888421BD11048016841F0005101609C
:10127000006800F0005005900B481038016841F0FC
:101280000101016000680321002200F001000590C7
:1012900030208DE807000548694600F0F3F906B0F4
:1012A00010BD0000007400404038024000000240C1
:1012B00008B50029016800910068104404D014307A
:1012C00000900360002008BD0830F9E730B542798E
:1012D000012A17D00122427102240471002902FA66
:1012E00001F301680C6844EA03040C6001680B68B0
:1012F0000AD00D6803F48024B4F5802F05F4601340
:101300000FD015E0022030BD0C6803F00403042B5D
:1013100004F038040CD1382C0AD14B6843F0010397
:1013200005E0B3F5601F03D14B6843F002034B6047
:10133000002102714171084630BD90F83510022934
:1013400003D08021416501207047052180F83510C8
:101350000068016821F00101016000207047000071
:101360002DE9F84304464FF00009644B0820CDF8FE
:1013700000904FF41652A56D94F85C101B682E680F
:10138000B3FBF2F700FA01F131420FD021680A688D
:1013900052070BD50A6822F004020A6094F85C1028
:1013A0008840A860606D40F00100606594F85C10B2
:1013B0004FF0010808FA01F0304208D0216849696D
:1013C000090604D5A860606D40F00200606594F8DD
:1013D0005C1004208840304208D0216809688907E1
:1013E00004D5A860606D40F00400606594F85C105E
:1013F00010208840304218D021680968090714D5A8
:10140000A86020680168490304D50068000308D576
:10141000A16C07E00168C90503D4016821F0080147
:101420000160216C09B12046884794F85C102020A7
:101430008840304231D021680968C9062DD5A8609E
:1014400094F8350005282068016806D0490347D57F
:10145000006800031DD4616C1CE021F016010160DE
:101460002068416921F080014161206C08B9A06CBD
:1014700020B12068016821F00801016094F85C3017
:101480003F229A40AA6084F8349084F83580216D18
:101490001FE0E16B09B120468847606D00282BD022
:1014A000606DC00714D0052084F8350020680168FD
:1014B00021F0010101600098401C0090B84203D85F
:1014C00020680068C007F6D184F8349084F835802D
:1014D000E16C002910D001B02046BDE8F043084778
:1014E0000168C905D5D4036823F01003036084F8AC
:1014F000349084F83580CCE7BDE8F883640100209F
:101500002DE9F047044600F0A9F9054664B14FF013
:10151000000984F83490022184F8351020680168AD
:1015200021F0010101600EE00120BDE8F08700BF5D
:1015300000F094F9401B052805D92021616503209E
:1015400084F83500F1E720680068C007F0D1D4E9DD
:101550000020D4E90251D4E9043C284304F11805E1
:1015600019430843116895E8E00140EA0C001C4B60
:101570002843194040EA060040EA0700B8F1040F8A
:1015800040EA010003D1D4E90B131943084310606A
:1015900020680126656A4069042D20F0070045EAAD
:1015A00000050CD1D4E90A01054341B12046FFF7FB
:1015B000C7FA20B14020606584F83560B4E7206840
:1015C00045612046FFF7A8FA94F85C303F229A4024
:1015D0008260C4F8549084F835600020A5E70000CC
:1015E0003F8010F02DE9F041044690F834000025CA
:1015F0000128A66D0ED094F835C00127002084F88C
:101600003470BCF1010F07D0022584F8340028465D
:10161000BDE8F0810220FBE7022784F835706065A1
:101620002046FFF7B7FA94F85C103F208840B0607E
:101630002068016841F0160101602068416941F0AD
:1016400080014161206C20B12068016841F00801EF
:1016500001602068016841F001010160D7E70000E6
:1016600070B5044600F0FAF80546601C02D0044844
:101670000078044400F0F2F8401BA042FAD370BD99
:10168000580100202DE9F84FDFF89CE100224FF0CF
:1016900001084FF0030B4FF00F0A00BF0B6808FA68
:1016A00002F42340A34271D14D68022D01D0122DC6
:1016B0000FD1D5080E69570700EB8505A9462D6A9D
:1016C000FF0E0AFA07FCBE4025EA0C052E43C9F8B6
:1016D00020600F79550006680BFA05FC07F0030738
:1016E00026EA0C06AF40374307604E68012E05D04E
:1016F000022E03D0112E01D0122E0ED18668CF6893
:1017000026EA0C06AF403743876046680F79A64348
:10171000C7F30017974037434760C4688E6824EAD0
:101720000C04AE402643C6604C68E40075D53F4CBF
:10173000256845F480452560246822F00306950756
:1017400004F4804400943A4C2D0F2644D6F80848FF
:10175000DFF8E0C00AFA05F7604524EA070401D182
:1017600000272EE0344FB84201D1012729E0334F42
:10177000B84201D1022724E0314FB84201D10327FA
:101780001FE0304FB84202D104271AE045E02E4F47
:10179000B84201D1052714E02C4FB84201D10627E9
:1017A0000FE02B4FB84201D107270AE0294FB8427A
:1017B00001D1082705E0284FB84201D1092700E0F0
:1017C0000A27AF4027437546C6F808784E68DEF80A
:1017D0000040F60324EA030400D51C43124E2C609B
:1017E000361D4D683468AD0324EA030400D51C435C
:1017F0000D4F346008374D683C68ED0224EA03045D
:1018000000D51C43084D3C600C354E682C68B60270
:1018100024EA030400D51C432C60521C102AFFF458
:101820003DAFBDE8F88F0000003C01404438024065
:101830000030014000000240000402400008024065
:10184000000C024000100240001402400018024048
:10185000001C024000200240002402400148806831
:101860007047000058010020024881680278114446
:101870008160704758010020032010B500F06EF819
:10188000052000F005F800F023F8002010BD00004E
:1018900070B50D4D04464FF47A700C4A29781268E1
:1018A000B0FBF1F0B2FBF0F000F0A0FD48B9102C55
:1018B00007D200222146501E00F030F800206C6054
:1018C00070BD012070BD000058010020640100209F
:1018D0000A4808B5016841F080510160006800F0D5
:1018E000805000900548001D016841F4804101606E
:1018F000006800F48040009008BD000040380240BD
:10190000002809DB410900F01F028900012001F1D4
:10191000E0219040C1F80001704700000E4BF0B488
:101920001B680D46C3F30223C3F10706042E00D93A
:101930000426191D072901D2002300E0DB1E012423
:1019400004FA06F19C40491E2940641E9940144047
:101950002143F0BC01F07CBC0CED00E0064900F036
:10196000070210B54FF6FF040868044B204040EA18
:1019700002201843086010BD0CED00E00000FA05DD
:101980001848F8B5016841F0805101600068164CB4
:1019900000F080500090206840F480302060FFF715
:1019A0005DFF4FF47A76054605E000BFFFF756FF6E
:1019B000401BB0420FD86068C003F7D5206840F4E0
:1019C00000302060FFF74AFF054606E0FFF746FFBC
:1019D000401BB04201D90320F8BD60688003F5D5F3
:1019E0000020F8BD40380240007000402DE9F84F5B
:1019F00004460078DFF824944FF000063746C0070D
:101A00000ED0D9F8001021F40001C9F80010D9F85F
:101A10000010626B1143C9F80010606B00B9012619
:101A2000FE4D2068843500030ED5E16B286820F454
:101A3000401008432860E06BB0F5801F01D010B162
:101A400002E0012600E0012720684FF4800BC0026D
:101A50000CD5216C286820F4400008432860206CD5
:101A6000584501D1012601E000B901272068C101D4
:101A700000D50126800666D5E8483830016841F077
:101A8000805101600068DFF898A300F0805000905A
:101A9000DAF8001041F48071CAF80010FFF7DEFE9A
:101AA000804605E0FFF7DAFEA0EB080064287DD849
:101AB000DAF80000C005F5D5DFF8608308F16808A2
:101AC000D8F8000010F440702AD0218E01F4407143
:101AD000814225D0D8F80010D8F8002021F44071B8
:101AE00042F48032C8F80020D8F8002022F4803276
:101AF000C8F80020C8F80010D8F80000C0070FD0C0
:101B0000FFF7ACFE824607E0FFF7A8FEA0EB0A0154
:101B100041F288308142CAD8D8F800008007F3D556
:101B2000206BC0F3012103297ED0D9F8001021F4E5
:101B3000F811C9F80010228ED8F80010C2F30B0279
:101B40001143C8F800102078C00607D5286820F097
:101B5000807028602868A16B084328602188AF48FE
:101B60008830490405D5626E016821F44031114383
:101B700001602188090405D5A26E016821F4402185
:101B8000114301602168C90305D5E26E016821F4A3
:101B90004011114301602168890305D5226F016856
:101BA00021F4400111430160217800E018E1490669
:101BB00005D5626C016821F00301114301602178B1
:101BC000090605D5A26C016821F00C0111430160E2
:101BD0002188C90505D5E26C016821F03001114367
:101BE00001602188890505D5226D016821F0C001B9
:101BF000114301602188490505D5626D016821F412
:101C00004071114301602188090505D5A26D016865
:101C100021F44061114301602188C90407D5E26DB8
:101C2000016821F4405100E041E011430160218846
:101C3000890405D5226E016821F4404111430160F9
:101C40002168490205D5A26F016821F08061114326
:101C5000016021684FF0006A890209D5E26F0168CE
:101C600021F0006111430160E16F514500D101276E
:101C700021680A0700D50127490305D5626F01686D
:101C800021F04071114301602168090206D5D4F8A2
:101C90008020016821F0805111430160DFF88491B8
:101CA000012E0ED02068B0F1007F0AD08FE05E4A8E
:101CB000D9F80030104023F4F8120243C9F800208C
:101CC00039E7D9F800004E4620F08060C9F80000DE
:101CD000FFF7C4FD804605E0FFF7C0FDA0EB08005C
:101CE00064287DD830680001F6D421784B487C30D8
:101CF000C90712D0616B81B9237A62680168D0F894
:101D000000C09201C1F3014142EA0142CCF30361F8
:101D100042EA016141EA0371016021680A0303D5C7
:101D2000E26BB2F5801F04D0C9021AD5216C594567
:101D300017D16368016894F80CC002689B01C1F375
:101D4000014143EA0141C2F3027241EA0C6141EAF6
:101D5000027101602968626A21F01F01521E11435D
:101D600029602168C90110D5238A62680168D0F80A
:101D700000C09201C1F3036142EA034242EA0162F8
:101D8000CCF3027142EA01710160216889010CD52E
:101D90006168228A237B94F808C0890141EA0241E4
:101DA00041EA036141EA0C7101603168B04641F0DB
:101DB00080613160FFF752FD064604E0FFF74EFDFB
:101DC000801B64280CD8D8F800000001F6D56FB34A
:101DD000D9F800004E4620F08050C9F8000000E01D
:101DE00079E0FFF73BFD074605E000BFFFF736FD52
:101DF000C01B64286FD83068C0438000F6D5074800
:101E0000216880300A0301D5E26B1AB1C90225D5D9
:101E1000216C19BB63690168277E08E0083802401D
:101E20000070004000380240FFFCFF0F5AE00268DB
:101E3000C1F301419B0143EA0143C2F3027143EA4A
:101E4000076242EA0171016029686FF0FF03A26A2C
:101E500021F4F85103EB0222114329602168890221
:101E600012D5E16F51450FD1238C62690168076873
:101E70009201C1F3036142EA034242EA0162C7F3FD
:101E8000027142EA017101602178090716D5616982
:101E90000268D0F800C08B01277FC2F30362CCF345
:101EA000014143EA014141EA026141EA07710160EF
:101EB0002868E16A20F4403008432860306840F028
:101EC00080503060FFF7CAFC044607E0FFF7C6FC0D
:101ED000001B642802D90320BDE8F88F3068C04396
:101EE0008000F3D40020F7E72DE9F04705000F4606
:101EF00063D0444E306800F00F00B84209D2306819
:101F000020F00F0038433060306800F00F00B84216
:101F100053D128683C4C810712D5400703D520686F
:101F200040F4E05020602878000703D5206840F492
:101F300060402060A968206820F0F000084320601D
:101F40002878C0072AD0304968680839012810D09D
:101F50000968022810D0890700292EDA216821F0AB
:101F6000030101432160FFF779FC804641F2883983
:101F70000DE009688903EFE78901EDE7FFF76EFCE3
:101F8000A0EB0801494502D90320BDE8F087686845
:101F9000216801F00C01B1EB800FEFD1306800F047
:101FA0000F00B8420BD9306820F00F003843306082
:101FB000306800F00F00B84201D00120E5E7287832
:101FC000400705D5E968206820F4E0500843206008
:101FD0002878000706D52869216821F4604141EA84
:101FE000C000206000F036F82168084AC1F30311F0
:101FF000515CC840064908600520FFF749FC0020F5
:10200000C3E70000003C0240083802405A7E000846
:10201000640100200449054809680068044AC1F3C6
:102020008221515CC840704708380240640100209A
:102030006A7E00080449054809680068044AC1F33B
:102040004231515CC84070470838024064010020AA
:102050006A7E0008154910B51548096811F00C0290
:1020600013D04110042A0FD0082A0ED10F4C241F80
:102070002268236802F03F025B0207D52068C0F3A4
:102080008810A0FB010106E0084610BD2168C1F3DD
:102090008811A1FB00010023FEF7B2F82168C1F30B
:1020A0000141491C4900B0FBF1F010BD0838024065
:1020B0000024F4002DE9F84F05004FF000076ED022
:1020C0002878DFF81C93A9F1040AC007AAF10404D8
:1020D0004CD0D9F800104846C1F38101012908D03D
:1020E0000068C0F3810002280AD1DAF8000040023B
:1020F00006D52068800339D568680028DFD035E030
:102100006868B0F5803F0BD010B1B0F5A02F11D0AA
:10211000206820F480302060206820F4802002E0D5
:10212000206840F480302060686890B1FFF796FB2B
:1021300006460AE0206840F480202060F0E700BFF7
:10214000FFF78CFB801B642872D820688003F7D5CA
:102150000CE0FFF783FB064605E000BFFFF77EFBC0
:10216000801B6428F0D820688003F7D42878800783
:1021700042D5D9F80010484611F00C0F08D000687D
:10218000C0F3810002280BD1DAF80000400207D426
:102190002068800718D5E868012800D114E01CE108
:1021A000E8680028206817D040F001002060FFF7A1
:1021B00055FB064605E000BFFFF750FB801B0228D9
:1021C000C2D820688007F7D52869216821F0F80176
:1021D00041EAC00020600FE020F001002060FFF71E
:1021E0003DFB064605E000BFFFF738FB801B0228D9
:1021F0001ED820688007F7D42878000729D57848AA
:1022000069696C3000298046016812D041F00101F3
:102210000160FFF723FB064605E000BFFFF71EFB4A
:10222000801B022804D8D8F800008007F6D510E0FB
:1022300089E021F001010160FFF710FB064604E090
:10224000FFF70CFB801B02287DD8D8F80000800720
:10225000F6D4287840076BD5DFF8848108F1380878
:10226000D8F80000C0000BD4D8F8001041F080511D
:10227000C8F80010D8F80000012700F08050009046
:1022800058480168C90512D40168834641F4807139
:102290000160FFF7E3FA064605E000BFFFF7DEFA4C
:1022A000801B64284FD8DBF80000C005F6D54C4EE3
:1022B000A868683601280AD008B1052811D030680E
:1022C00020F001003060306820F0040002E0306847
:1022D00040F001003060A868A0B1FFF7BFFA834664
:1022E0000CE0306840F004003060F0E7FFF7B6FA29
:1022F000A0EB0B0141F28830814266D8306880073C
:10230000F4D50EE0FFF7AAFA834607E0FFF7A6FA36
:10231000A0EB0B0141F28830814256D8306880072B
:10232000F4D42FB1D8F8001021F08051C8F8001073
:10233000A869C8B3D9F80010C1F3810102294CD0B3
:102340000228206800E040E020F08070206003D088
:10235000FFF784FA05463BE0FFF780FA064604E003
:10236000FFF77CFA801B02282FD820688001F7D461
:10237000D5E90962D5E907011B4B570895F82C20D0
:10238000084303EB074343EA8611084340EA02602F
:1023900040F00050CAF80000206840F080702060D3
:1023A000FFF75CFA054606E015E000BFFFF756FAB6
:1023B000401B022809D820688001F7D50BE000BF38
:1023C000FFF74CFA401B022802D90320BDE8F88F22
:1023D00020688001F4D40020F8E70120F6E700002F
:1023E00008380240007000400000FFFF401EB0F1BE
:1023F000807F10B501D3012010BD4FF0E024606153
:102400000F21601700F024FF0020A0610721216147
:1024100010BD70477047704770B590F83C20012A96
:1024200024D0134C012580F83C50022280F83D2036
:1024300002685368A242966802D00E4CA24203D1B1
:102440004C6823F4700323430C6823F070038968FD
:102450001C435460002326F08006026831439160DB
:1024600080F83D5080F83C30184670BD022070BDA9
:10247000000001400004014010B5040003D094F8AE
:102480003D0010B107E0012010BD002084F83C00A1
:10249000204600F00DF8022084F83D002068211D40
:1024A00000F0DCFB012084F83D00002010BD00009E
:1024B00008B501681048B1F1804F0BD00F4A914226
:1024C00007D1016841F008010160006800F00800D0
:1024D000009008BD016841F0010101600068002220
:1024E000012100F0010000901C20FFF717FABDE861
:1024F00008401C20FFF704BA40380240000C00409E
:102500000168094ACB6843F00103CB600168886821
:102510001040062806D0B0F5803F03D0086840F090
:1025200001000860002070470700010070B50446F4
:1025300090F83C00012817D0324B012584F83C501C
:10254000022084F83D0022689068184020F47F4003
:1025500090600868502830D00DDC20284DD005DC74
:1025600098B310283BD148E0022070BD302844D0F9
:10257000402834D139E0602828D0702806D0B0F542
:10258000805F2CD0B0F5005F29D10AE04A6820684E
:10259000D1E9021300F0C8FB2068816841F077019F
:1025A00009E04A682068D1E9021300F0BDFB206809
:1025B000816841F48041816011E0CA6849682068FF
:1025C00000F0C3FB2068502107E016E0CA684968A4
:1025D000206800F0CBFB2068602100F0AEFB0020FB
:1025E00084F83D5084F83C0070BDCA684968206892
:1025F00000F0ABFB20684021EFE72268014610465F
:10260000EBE7000088FFFEFF704770B504460068E6
:1026100000250169C943890715D4C168C9438907E1
:1026200011D4EA1E026101212177206880698007A8
:10263000204602D0FFF7E8FF04E000F0A7F82046AC
:1026400000F0A5F8257720680169C943490717D428
:10265000C168C943490713D402216FF00402026123
:1026600021772068806910F4407F204602D0FFF770
:10267000CBFF04E000F08AF8204600F088F82577C8
:1026800020680169C943090716D4C168C94309070D
:1026900012D404216FF00802026121772068C0691A
:1026A0008007204602D0FFF7AFFF04E000F06EF88D
:1026B000204600F06CF8257720680169C943C906F7
:1026C00017D4C168C943C90613D408216FF010029A
:1026D000026121772068C06910F4407F204602D053
:1026E000FFF792FF04E000F051F8204600F04FF8A9
:1026F000257720680169C943C90708D1C168C94362
:10270000C90704D1891E0161204600F041F8206804
:102710000169C943090609D4C168C943090605D43A
:102720006FF0800101612046FFF774FE20680169A7
:10273000C943C90509D4C168C943090605D46FF462
:10274000807101612046FFF764FE20680169C9437A
:10275000490609D4C168C943490605D46FF0400150
:102760000161204600F01BF820680169C943890611
:102770000BD4C168C943890607D46FF020010161F9
:102780002046BDE87040FFF746BE70BD70477047F9
:102790000068B0F1804F01D105F022BB704770474F
:1027A00070470146406F896F084370472DE9F0413B
:1027B000026804460025D0691168936810F00F0F75
:1027C0005BD003F0010601F49077374369D0C70767
:1027D00007D0CF0505D501271762E26F42F001024D
:1027E000E267820708D5DA0706D0276802223A6234
:1027F000E26F42F00402E267420708D5DA0706D02A
:10280000236804221A62E26F42F00202E2670207C2
:102810000AD501F02002324306D0236808221A624A
:10282000E26F42F00802E267E26F002A32D08006CF
:1028300005D5880603D5216E09B120468847216851
:10284000E06F8968490601D4000725D5204600F0CD
:102850002BFB20688168490619D5816821F0400169
:102860008160E06E98B11A490165E06EFEF765FD82
:1028700000280FD0E06E016D06E0830611D58B06AF
:102880000FD5216E12E02046BDE8F04108472046F2
:10289000FFF786FFBDE8F0812046FFF781FFE5677F
:1028A000F8E7030605D50B0603D5616E0029EAD1CA
:1028B000F0E74006EED54806ECD513682021204607
:1028C00023F0400313606167656600F0A5F8E1E757
:1028D000952E000810B5040002D0606F10B107E01B
:1028E000012010BD002084F87000204600F026F87A
:1028F000242060672068016821F001010160204602
:1029000000F0E2FA0128ECD0606A10B1204600F035
:102910003FFA2068416821F4904141602068816855
:1029200021F02A0181602068016841F00101016005
:102930002046BDE8104000F08FBA000010B586B008
:10294000044614216846FDF793FC16492068884226
:1029500026D11548016841F010010160006800F0BF
:102960001000059010481438016841F00101016021
:1029700000680221002200F00100059003230724D3
:102980004FF4C0608DE81F0008486946FEF77AFEE4
:10299000002225201146FEF7C1FF2520FEF7B0FFDB
:1029A00006B010BD00100140443802400000024053
:1029B00070B5436F202B28D1B1B1AAB190F8703017
:1029C000012B22D08668012480F8704000234366E2
:1029D0002125C164B6F5805FA0F85020A0F85220F0
:1029E000C367456702D003E0012070BD016951B1A2
:1029F0000749416680F870300068016841F0800145
:102A00000160002070BD0349F3E7022070BD0000A3
:102A10005D3100081D3100087047FEE77FB50125D4
:102A20001548002413492A040094019402260294B4
:102A30000394C0E900120561856184600F4980F844
:102A40002040C0E90A14C661C46080F83050456176
:102A5000FEF748FA062000946946CDE90150064881
:102A6000FEF7B0F8009569460348CDE90164FEF72A
:102A7000A9F87FBD00220140980400200100000F4A
:102A800010B588B01248002440F2E7324FF0804180
:102A900042F6302300940194029403940494059424
:102AA000069480E81600C0E903348461FFF7E4FC73
:102AB0004FF48050009006486946FFF737FD044800
:102AC00004A904940694FFF7A7FC08B010BD000009
:102AD000F404002010B588B0114800240F49621E8C
:102AE0000094019402940394049405940694C0E91C
:102AF0000014C0E9024204618461FFF7BDFC4FF499
:102B00008050009006486946FFF710FD044804A96C
:102B100004940694FFF780FC08B010BD000C004040
:102B2000340500200A48002130B4084C08224FF434
:102B3000E1330460C0E90131C160C0E90412816180
:102B4000C1610162416230BCFFF7C4BE00100140A8
:102B500074050020FEE7704770477047FEF784BE9B
:102B600030B5B3B0302121A8FDF782FB14212DA888
:102B7000FDF77EFB84216846FDF77AFB1D4801685E
:102B800041F080510160006800F0805032901A4896
:102B9000016841F44041016000680123022400F40F
:102BA0004040329098050421D822CDE9274029A839
:102BB0001D0480E816002C9421A8CDE92135FFF7EB
:102BC00079FAFEF7DDFEE1024FF4A0502DABCDE91E
:102BD00030010F22002583E8340007212DA8FFF7DC
:102BE00083F94020119500906846FEF7FFFE33B050
:102BF00030BD00004038024000700040104A30B53F
:102C00001048146800210F4B44F47004146008331A
:102C100005680D4A0D4C45F0010505601960036813
:102C2000051D1340074A03600C322C600568E3055C
:102C3000034C25F480250560803C1160236030BD85
:102C400088ED00E000380240FFFFF6FE103000245F
:102C50000148FFF7DABC0000F4040020F0B5274B70
:102C60004FF0804E264D02689842264E264F274C44
:102C700009D0704507D0A84205D0B04203D0B84271
:102C800001D0A04205D1D1F804C022F070024CEA74
:102C9000020298421BD0704519D0A84217D0B0420A
:102CA00015D0B84213D0A04211D0194DA8420ED071
:102CB000184DA8420BD0184DA84208D0174DA84275
:102CC00005D0174DA84202D0164DA84203D1CD68B9
:102CD00022F440722A434D6922F080022A430260A6
:102CE00098428A68C2620A68826201D0A04201D119
:102CF0000969016301214161F0BD0000000001404C
:102D00000004004000080040000C004000040140A6
:102D100000400140004401400048014000180040CC
:102D2000001C00400020004042EA032283680A435E
:102D300023F47F410A4382607047826822F0700268
:102D40000A4342F007018160704710B5036A046AC4
:102D500023F00A0324F00104046284690B4324F085
:102D6000F00141EA02118161036210BD10B5036AEE
:102D700023F0100303628369046A23F4704324F090
:102D8000A00443EA0232826144EA0111016210BDEB
:102D900090F82410C90706D00168836A4A6822F4B3
:102DA00000321A434A6090F82410890706D501685A
:102DB000C36A4A6822F480321A434A6090F82410A9
:102DC000490706D50168036B4A6822F480221A433A
:102DD0004A6090F82410090706D50168436B4A68D9
:102DE00022F400421A434A6090F82410C90606D51E
:102DF0000168836B8A6822F480521A438A6090F8D3
:102E00002410890606D50168C36B8A6822F4005233
:102E10001A438A6090F82410490611D50168036CA2
:102E20004A6822F480121A434A60016CB1F5801F8F
:102E300006D10168436C4A6822F4C0021A434A6012
:102E400090F82410090606D50168826C486820F4C1
:102E5000002010434860704738B500250446C56718
:102E6000FEF7FCFC03462068006800070BD56FF0F6
:102E70007E400090002220464FF4001100F08CF9B3
:102E800008B1032038BD2020606784F87050A06727
:102E9000002038BD10B5806B0021A0F85A10A0F8B2
:102EA0005210FFF77DFC10BD10B5016820220023F1
:102EB0000C6824F490740C6001688C6824F00104A0
:102EC0008C608267036610BD2DE9F041044680687E
:102ED000DFF818C2864F2368D4E90452E169284319
:102EE0001E6800250A438349104306EA0C06064380
:102EF0001E604FF400422068E668436823F44053A4
:102F0000334343602368A669206AD3F808C030437E
:102F10002CF4306606439E602068B8420AD10868E7
:102F200010F0030052D001287BD002287AD0032869
:102F30006ED186E0704B98420AD1086810F00C0000
:102F400079D004287BD0082877D00C2860D178E08D
:102F50006A4B98420AD1086810F030006BD01028F4
:102F60006DD0202869D0302852D16AE0644B984255
:102F70000AD1086810F0C0005DD040285FD08028DA
:102F80005BD0C02844D15CE05E4B98420DD108680C
:102F900010F440704FD0B0F5807F50D0B0F5007F76
:102FA0004BD0B0F5407F33D14BE0574B98420FD117
:102FB000086810F4406009D0B0F5806F3FD0B0F5DC
:102FC000006F3AD0B0F5406F22D13AE0012120E005
:102FD0004E4B98420DD1086810F440502BD0B0F5FC
:102FE000805F2CD0B0F5005F27D0B0F5405F0FD1E7
:102FF00027E0474B98420BD1086810F440401AD0A4
:10300000B0F5804F1BD0904217D0B0F5404F18D08C
:103010001021E0694FF6EF76904238D109295DD250
:1030200002E00CE009E006E0DFE801F00D102758AF
:103030002A5858582D000021EBE70221E9E7042126
:10304000E7E70821E5E7FEF7E5FF01E0FEF7F2FF1D
:103050000146D4F80400490001EB5001B1FBF0F047
:1030600080B2A0F11001B14238D84FF6F073216858
:10307000C0F342021840104324E026496068EBE7A1
:10308000FEF7E8FFE4E760684FF48031E4E70929E0
:1030900024D2DFE801F0050819231C2323231F0095
:1030A000FEF7B8FF01E0FEF7C5FF0146D4F80400C3
:1030B00001EB5001B1FBF0F080B2A0F11001B14280
:1030C0000CD82168C8600AE013496068F0E7FEF791
:1030D000C1FFEAE7606802EB5001EBE70125002041
:1030E000206660662846BDE8F0810000F369FFEFC6
:1030F0000010014090380240004400400048004069
:10310000004C004000500040001401400078004096
:10311000007C00400048E8010024F400416F2129B0
:1031200010D1B0F8521071B1C16C02680988C1F3B6
:1031300008019162C16C891CC164B0F85210491E2B
:10314000A0F85210704701680A6822F080020A60F5
:103150000068016841F0400101607047416F21291A
:103160000ED1B0F8521061B1C16C02680978916259
:10317000C16C491CC164B0F85210491EA0F852102D
:10318000704701680A6822F080020A6000680168DE
:1031900041F04001016070472DE9F0419846174623
:1031A0000E460446069D08E0681C06D0FEF756FB56
:1031B000A0EB0800A8420BD855B12068C06936EAD8
:1031C000000017D00020B842EED00020BDE8F0810A
:1031D0002168202000220B6823F4D0730B60216843
:1031E0008B6823F001038B606067A067032084F87D
:1031F0007020EBE70120E6E70148FFF7D7BA0000AF
:1032000074050020FEE700000FB4054B10B503A9BC
:10321000044A029800F07EF910BC5DF814FB00002F
:10322000835F0008680100200FB4084B10B504A9A3
:1032300002AA039800F06EF9044602A9002000F0EB
:1032400000FD204610BC5DF814FB0000433C000864
:10325000090700284FEA116104DB00F1E02080F843
:103260000014704700F00F0000F1E02080F8141DFA
:10327000704710B502F0B2FD10BD10B502F0D4FDDC
:1032800010BD10B502F092FE10BD00B52DED048BFF
:10329000B0EE409AF0EE609A83B051EC190BFDF756
:1032A0001CFA41EC180B18EE100A18EE901A8DED6E
:1032B000008B002818BF0120084320F00040C0F117
:1032C0007F6000F1E040C00F14D019EE101A19EE23
:1032D000900A8DED009B002918BF0121084320F0C2
:1032E0000040C0F17F6000F1E040C00F04BF01204A
:1032F00000F058F8B0EE480A03B0F0EE680ABDECF2
:10330000048B00BD10B502F053FE10BD10B502F0E5
:103310005BFE10BD10B503F0E9FA10BD0048704720
:10332000A800002010B503F019FC10BD02E008C889
:10333000121F08C1002AFAD170477047002001E02F
:1033400001C1121F002AFBD17047000010B50022F6
:10335000044611462DED028B9FED108AD0ED000A38
:103360000F48B0EE480A00EE880ABCEEC00A10EE24
:10337000103AFDF79DFFD4ED010AB0EE480A002295
:10338000074800EE880A1021BDEC028BBDE8104012
:10339000BCEEC00A10EE103AFDF78ABF00F0FF4401
:1033A000E00400200149086070470000740100201B
:1033B0002DE9FF5FDDE90220010DDDF838B00243A1
:1033C00018D044F61050A1F2FF3141430D140F986C
:1033D000012820D0A5EB0B00401C5FEA000A4FF04B
:1033E0000004474EDFF81C91A046504616D5CAF19E
:1033F000000728E00F98012443A2012808D00021EB
:1034000000980F9BC0E90021C0E90243BDE8FF9F7F
:103410006FEA0B01F4E7CBF10000DEE7074612E0AC
:10342000F80707D02246334640464946FDF774F870
:10343000804689462246334610461946FDF76CF809
:1034400004460E467F10002FEAD1DDE90201BAF1F1
:10345000000F42464B4602DAFDF75EF801E0FDF749
:10346000CDF804460E460022284BFDF79FF903D8FD
:103470004FF0FF30014607E00022254B2046314641
:10348000FCF7A3FFFDF77AF9102409E0002C0ADB12
:103490000A220023FCF7B4FE019B30321A55641E49
:1034A00050EA0102F2D1641C019AC4F111031444E0
:1034B0000F9A012A03D0012208430DD10AE00843E4
:1034C00004D000204FF0110B0F9080E7A3EB0B0509
:1034D0006D1E0DE05B4504DD4FF0000205F10105B6
:1034E00004E003DA4FF00002A5F10105002AECD058
:1034F00000980F99C0E90231C0E9004586E7000055
:10350000000024400000F03F300000000000F043C5
:103510000000E03F2DE9FF4F95B09B4689460646E7
:1035200000250FE2252877D100242746F84A0121FB
:10353000059400E0044316F8013F203B01FA03F034
:103540001042F7D130782A2811D06FF02F0330784D
:10355000A0F13002092A16D8059A44F0020402EBC1
:10356000820203EB42021044761C0590EFE759F803
:10357000042B0592002A03DA504244F400540590CB
:1035800044F00204761C30782E2816D116F8010F6C
:1035900044F004042A280DD06FF02F023078A0F1F7
:1035A0003003092B09D807EB870302EB4303C71845
:1035B000761CF3E759F8047B761C30786C280FD022
:1035C00006DC4C2817D068280DD06A2814D104E0F6
:1035D000742810D07A280FD10DE044F400140AE0CA
:1035E00044F4801401E044F440147278824202D121
:1035F00004F58014761C761C307866280BD013DC1A
:10360000582877D009DC002875D04528F6D0462800
:10361000F4D047281AD19DE118E0632835D06428FA
:1036200079D0652812D195E1702873D008DC67281D
:10363000F1D069286FD06E280DD06F2806D1B5E083
:1036400073282CD0752875D0782874D05A461799CD
:1036500090476D1C75E1C4F30250022809D003287D
:103660000DD0D9F8001004280DD00D6009F104091F
:1036700067E1D9F80010EA17C1E90052F6E7D9F876
:1036800000100D80F2E70D70F0E719F8041B8DF8BB
:10369000001000208DF80100EA46012003E059F8EF
:1036A00004AB4FF0FF3061074FF0000102D40DE092
:1036B00008F101018846B9420FDA8045F8DB1AF8B3
:1036C00008100029F4D108E008F101018846814280
:1036D000FADB1AF808100029F6D105985B46A0EB32
:1036E000080721463846179A00F094FA284400EB60
:1036F000080507E04DE029E10DE01AF8010B5A46F4
:1037000017999047B8F10108F7D25B462146384631
:10371000179A13E142E00A220092C4F302524FF0DA
:10372000000A022A08D059F804CB032A4FEAEC71A8
:103730000AD00DE029E02AE009F1070121F0070293
:10374000F2E802C1914609E00FFA8CFC4FEAEC71F5
:10375000042A03D14FFA8CFC4FEAEC71002907DAF6
:103760000A460021DCF1000C61EB02012D2202E08F
:10377000220504D52B228DF80420012203E0E20764
:1037800001D02022F7E7904659E00A2102E01022FA
:103790000DE010214FF0000A00910BE010224FF0D5
:1037A000000A44F004040827009203E008224FF0C6
:1037B000000A0092C4F30252022A05D059F804CB41
:1037C0000021032A08D009E009F1070121F00702CE
:1037D000F2E802C1914605E01FFA8CFC042A01D1EF
:1037E0000CF0FF0C4FF00008220728D5702806D0F7
:1037F000009B83F0100353EA0A0305D00EE0402239
:103800008DF80420012208E05CEA010206D0302293
:103810008DF804208DF8050002229046009B83F06D
:10382000080353EA0A030AD15CEA010201D16207E4
:1038300005D530228DF804204FF001087F1E58284E
:1038400004D034A003900EA802900DE036A0F9E752
:1038500053466046009AFCF7D3FC84460398825C8A
:103860000298401E029002705CEA0100F0D10298BA
:1038700006A9081A00F1200A600702D524F4803452
:1038800000E00127574502DDA7EB0A0000E0002019
:1038900000EB0A01009005984144401A0590E003AE
:1038A00006D45B462146179A059800F0B3F9054403
:1038B000002706E001A85A46C05D179990476D1C85
:1038C0007F1C4745F6DBE0030CD55B462146179A83
:1038D000059800F09FF9054404E030205A461799F6
:1038E00090476D1C0099481E00900029F5DC08E007
:1038F000029802995A460078491C029117999047FC
:103900006D1CBAF10001AAF1010AF1DC65E10000C9
:1039100009280100303132333435363738396162A5
:103920006364656600000000303132333435363769
:1039300038394142434445460000000000F058F940
:103940000544761C307800287FF4ECAD19B0284689
:10395000BDE8F08F620700D4062709F1070222F0C4
:10396000070CFCE80223E14603F000485FEA080C7C
:1039700002D00FF2702C0DE05FEA045C02D50FF26A
:10398000682C07E05FEAC47C02D00FF2602C01E0F3
:10399000AFF2700C4FF0FF3823F00043CDF850C069
:1039A00065280CD006DC452809D046281DD04728BC
:1039B0003DD13DE0662818D067287ED138E000214F
:1039C000112F01DB112000E0781CCDE9000106A9D0
:1039D0000EA8FFF7EDFCDDE90F010E9A039100211F
:1039E000009207F1010A04914DE04FF0004000976A
:1039F000CDE9011006A90EA8FFF7DAFCDDE90F02F8
:103A000003920E9B11990022DDF80CA00093049202
:103A100011B9791C00EB010AB7EB0A0004D4C0F11C
:103A2000FF3007F1010A0490AAEB0700019044E07F
:103A3000012F00DA01270021112F01DD112000E004
:103A40003846CDE9000106A90EA8FFF7B1FCDDE973
:103A50000F010E9A0391002104910092BA462107AA
:103A60000CD40399514500DA8A46BAF1010F05DDFD
:103A7000009AAAF10101515C302908D0B84202DA5B
:103A800010F1040F06DA0121CDE9011015E0AAF1C9
:103A90000101E9E7002805DC049901440491AAEB3F
:103AA000000102E0411C514500DD8A460499401A9C
:103AB000401C01904FF000400290200704D4019870
:103AC000504501DBCDF8048000208DF84F000298AE
:103AD0000DF14F07B0F1004F25D02B200E9002982A
:103AE0004FF0020800280CDA404202902D200E9080
:103AF00007E00A210298FCF7FCFB3031029007F83E
:103B0000011DB8F10001A8F10108F2DC02980028BB
:103B1000EFD1791E0E980870307800F0200040F048
:103B2000450007F8020D12A8C01B00F10708149801
:103B3000007800B1012000EB0A01019801EBE0716F
:103B400005984144401A401E0590E00306D45B46A8
:103B50002146179A059800F05DF8054414980078FE
:103B600018B15A46179990476D1CE00324D55B465F
:103B70002146179A059800F04DF805441CE004987A
:103B8000002807DBDDE90301884203DD0098405C83
:103B9000179901E0179930205A469047049805F18B
:103BA0000105401C04900198401E019004D12E2074
:103BB0005A46179990476D1CBAF10001AAF1010A03
:103BC000DDDC05E017F8010B5A46179990476D1C8C
:103BD000B8F10001A8F10108F4DC5B462146179A10
:103BE0000598ABE62D0000002B000000200000002F
:103BF0002DE9F041044600251E461746880404D4EA
:103C000005E039462020B0476D1C641EF9D52846D2
:103C1000BDE8F0812DE9F041044600251E4690469E
:103C2000C80301D5302700E02027880404D505E02B
:103C300041463846B0476D1C641EF9D52846BDE89C
:103C4000F0810A68531C0B601070704770B5054610
:103C500002F08AF9040011D1242002F049FF044641
:103C600002F078F90462002325706FF000412362AE
:103C70006361A3616360A360C4E90313204670BD60
:103C80002DE9F34F04002DED048B83B0DFEDFE8AA8
:103C9000FE4D7DD001262E6531462B69022053F85A
:103CA0002120491C0A29C2ED018AF7DDC5E914600B
:103CB000D5F80480324600BF58F822000221521C79
:103CC0000A2AC0ED018AF7DDC5E914612A68304689
:103CD0004FEA0209022152F82070401C0A28C7ED61
:103CE000018AF7DDC5E91461686C3246022150F89B
:103CF0002270521C022AC7ED018AF7DDAB4630461E
:103D00008D1FB246CBF83800CBE914210146CBF821
:103D100034600122276A66693F1A53F821C0491CA2
:103D200056F8276005EB8207521C3E44022A96EDA6
:103D3000000A8CED010AEDDD401C0528E9DDDC46BA
:103D400050460146CCE90EA2CBF834A05FF0010248
:103D5000E36905EB820658F820703344401C93ED6C
:103D6000000A521C022A87ED010AF1DD491C0529CF
:103D7000ECDDCCE90EA250464B460146CBF834A010
:103D80005FF00102276A53F820C005EB820800E0CB
:103D900098E1A669401C521C022A56F82760464446
:103DA00096ED000A8CED010AECDD491C0529E7DDE2
:103DB000D846CBF850A0CBF83C2056463346C8E94D
:103DC0000D10DBF8201000BF51F8230002225B1C0D
:103DD000022BC0ED018AF7DDC8F834603046C8E92F
:103DE000143200BF04F1180251F820C08CCA52F8F6
:103DF000277005EB800213443A4493ED000AD2ED9C
:103E0000000A401C022830EE600A8CED010AE9DD50
:103E1000C8F834004FF0020BCDF800B04746CDE9AA
:103E200001B6D8F818205B46D8F8580002F062F9BD
:103E30004FF00A0ACDF800A0CDE901A6FA690223E5
:103E40003969F86D02F056F94FF0FF390223CDE9D8
:103E50000069D7E906017A6903F0F0FE3E65304655
:103E6000D7F81420022152F82030401C0228C3ED5C
:103E7000018AF7DDC7E91461B96C3246022351F8B3
:103E80002200521C022AC0ED018AF7DD7E63304613
:103E9000C7E91423236A05EB800C226951F82080BE
:103EA000401C05EB83030228D258624492ED000ABD
:103EB00088ED010AEEDD78630A23CDE900697A6AAC
:103EC000D7E9001003F0BAFECDF800A00A23CDE92F
:103ED00001A6BA6AD0463969386E02F00BF907F1CB
:103EE0002401CDE900690A2307C903F0A7FECDF834
:103EF00000800A23CDE90186786ED7E90B1202F023
:103F0000F9F8DFF888A130467E630AF1800A3A6B3F
:103F1000DAF8081052F8203001EB800C401C93EDC9
:103F2000010A0A288CED000AF4DD78632823CDF815
:103F300000B0B146CDE901B6BA68D846B96CB86EE2
:103F400002F0D8F8CDE90086F86E2823D7E90212EE
:103F500003F074FE7E635146DAF80C00D7F80C20AB
:103F600000EB860C52F82630761C282E93ED010AC1
:103F70008CED000AF4DDC7F834904E460B694A46D2
:103F800003EB820C521C022ACCED008AF8DDBFEE56
:103F9000000AD04601467A63282202F089F902F02D
:103FA000C7FE7E6332467869D8F81010814600BF9C
:103FB00001EB820350F822C0521C93ED000A022A42
:103FC0008CED010AF4DD314B012049465A63186437
:103FD000D3F874A05A6CD3E91EBE1B6F00935E68C1
:103FE00051F8203006EB800696ED000AD3ED010A69
:103FF000B4EEE00AF1EE10FA01D283ED010ADAF82C
:10400000046051F8203006EB800696ED000AD3EDEF
:10401000010AB4EEE00AF1EE10FA01DD83ED010AC7
:10402000276A236951F820C005EB870752F8206002
:10403000DCED010ADF5905EB80031F4497ED000A10
:1040400070EE200AC6ED010ADBF8047052F8206019
:1040500007EB800797ED000AB4EEE00AF1EE10FAE4
:1040600001D286ED010ADEF8047052F8206007EBF9
:10407000800797ED000AD6ED010AB4EEE00AF1EEF2
:1040800010FA07DD04E0000000000000C00000207E
:1040900086ED010A266A276952F820C005EB8606DC
:1040A00051F82080401CDCED010ABE59022833443F
:1040B00093ED000A30EEC00A88ED010A01F359863B
:1040C000009B8CE7282003F095FE0A2003F098FE61
:1040D00002F01EF903F0D8F9FE4C606003F0DAF943
:1040E000206003F0DDF9E06003F0E0F9A06003F088
:1040F000E3F920616068F7EE009A9FEDF70ABFEEE2
:10410000008A4168C1ED019A4168C1ED028A4168A7
:10411000C1ED038A4168C1ED048A4168C1ED058A99
:104120004168C1ED068A4168C1ED078A4168C1ED69
:10413000088A4168C1ED098A4168C1ED0A8A81682F
:10414000C1ED018A8168C1ED029A8168C1ED038ADF
:104150008168C1ED048A8168C1ED058A8168C1ED7D
:10416000068A8168C1ED078A8168C1ED088A816885
:10417000C1ED098A8168C1ED0A8AC168C1ED018A71
:10418000C168C1ED028AC168C1ED039AC168C1ED81
:10419000048AC168C1ED058AC168C1ED068AC1689B
:1041A000C1ED078AC168C1ED088AC168C1ED098AFD
:1041B000C168C1ED0A8A0169C1ED018A0169C1EDD9
:1041C000028A0169C1ED038A0169C1ED049A01699E
:1041D000C1ED058A0169C1ED068A0169C1ED078A51
:1041E0000169C1ED088A0169C1ED098A0169C1ED62
:1041F0000A8A4169C1ED018A4169C1ED028A4169BA
:10420000C1ED038A4169C1ED048A4169C1ED059A96
:104210004169C1ED068A4169C1ED078A4169C1ED75
:10422000088A4169C1ED098A4169C1ED0A8A81693B
:10423000C1ED018A8169C1ED028A8169C1ED038AFC
:104240008169C1ED048A8169C1ED058A8169C1ED89
:10425000069A8169C1ED078A8169C1ED088A816981
:10426000C1ED098A8169C1ED0A8AC169C1ED018A7E
:10427000C169C1ED028AC169C1ED038AC169C1ED9D
:10428000048AC169C1ED058AC169C1ED068AC169A7
:10429000C1ED079AC169C1ED088AC169C1ED098AFA
:1042A000C169C1ED0A8A016AC1ED018A016AC1EDE5
:1042B000028A016AC1ED038A016AC1ED048A016ABA
:1042C000C1ED058A016AC1ED068A016AC1ED078A5E
:1042D000016AC1ED089A016AC1ED098A016AC1ED5E
:1042E0000A8A416AC1ED018A416AC1ED028A416AC6
:1042F000C1ED038A416AC1ED048A416AC1ED058AB4
:10430000416AC1ED068A416AC1ED078A416AC1ED81
:10431000088A416AC1ED099A416AC1ED0A8A816A37
:10432000C1ED018A816AC1ED028A816AC1ED038A09
:10433000816AC1ED048A816AC1ED058A816AC1ED95
:10434000068A816AC1ED078A816AC1ED088A816A9D
:10435000C1ED098A816AC1ED0A9AC16A81ED018ABB
:10436000C16A81ED020AC16A81ED030AC16A81ED69
:10437000040AC16A81ED050AC16A81ED060AC16AB3
:1043800081ED070AC16A81ED080AC16A81ED090A57
:10439000C16A81ED0A0A016B81ED010A016B81EDB1
:1043A000028A016B81ED030A016B81ED040A016B46
:1043B00081ED050A016B81ED060A016B81ED070AAB
:1043C000016B81ED080A016B81ED090A016B81ED3A
:1043D0000A0A416B81ED010A416B81ED020A416BD2
:1043E00081ED038A416B81ED040A416B81ED050A81
:1043F000416B81ED060A416B81ED070A416B81ED4E
:10440000080A416B81ED090A416B81ED0A0A816B53
:1044100081ED010A816B81ED020A816B81ED030A56
:10442000816B81ED048A816B81ED050A816B81EDE1
:10443000060A816B81ED070A816B81ED080A816BA9
:1044400081ED090A816B81ED0A0AC16B81ED010AD8
:10445000C16B81ED020AC16B81ED030AC16B81ED75
:10446000040AC16B81ED058AC16B81ED060AC16B3F
:1044700081ED070AC16B81ED080AC16B81ED090A64
:10448000C16B81ED0A0A016C81ED010A016C81EDBD
:10449000020A016C81ED030A016C81ED040A016CD2
:1044A00081ED050A016C81ED068A016C81ED070A38
:1044B000016C81ED080A016C81ED090A016C81ED46
:1044C0000A0A416C81ED010A416C81ED020A416CDE
:1044D00004E00000400100200000008081ED030A9C
:1044E000416C81ED040A416C81ED050A416C81ED5E
:1044F000060A416C81ED078A416C81ED080A416C26
:1045000081ED090A416C81ED0A0A816C81ED010A95
:10451000816C81ED020A816C81ED030A816C81ED71
:10452000040A816C81ED050A816C81ED060A816CBB
:1045300081ED070A816C81ED088A816C81ED090AA1
:10454000816C81ED0A0AC16C81ED010AC16C81EDBB
:10455000020AC16C81ED030AC16C81ED040AC16CD1
:1045600081ED050AC16C81ED060AC16C81ED070A77
:10457000C16C81ED080AC16C81ED098AC16C81EDC5
:104580000A0A016D81ED010A016D81ED020A016DDA
:1045900081ED030A016D81ED040A016D81ED050ACB
:1045A000016D81ED060A016D81ED070A016D81ED56
:1045B000080A016D81ED090A016D81ED0A8A416DDC
:1045C000C1ED019A9FEDFE4ADFEDFE1A9FEDFE2A36
:1045D000DFEDFE2A9FEDFE3ADFEDFE3A9FEDFE1A7B
:1045E000416DF0EE680AB0EE409AC1ED020A416DED
:1045F000C1ED030A416DC1ED040A416DC1ED050A2B
:10460000416DC1ED060A416DC1ED070A416DC1ED75
:10461000080A416DC1ED090A416DC1ED0A0A816DBB
:10462000C1ED010A816DC1ED029A816DC1ED030AF0
:10463000816DC1ED040A816DC1ED050A816DC1ED89
:10464000060A816DC1ED070A816DC1ED080A816D11
:10465000C1ED090A816DC1ED0A0AC16DC1ED019A72
:10466000C16DC1ED020AC16DC1ED039AC16DC1ED0D
:10467000040AC16DC1ED050AC16DC1ED060AC16D27
:10468000C1ED070AC16DC1ED080AC16DC1ED090A8E
:10469000C16DC1ED0A0A016EC1ED010A016EC1EDE5
:1046A000029A016EC1ED030A016EC1ED049A016E1A
:1046B000C1ED050A016EC1ED060A016EC1ED070AE2
:1046C000016EC1ED080A016EC1ED090A016EC1ED6E
:1046D0000A0A416EC1ED019A416EC1ED020A416EB6
:1046E000C1ED039A416EC1ED040A416EC1ED059A18
:1046F000416EC1ED060A416EC1ED070A416EC1ED82
:10470000080A416EC1ED090A416EC1ED0A0A816EC7
:10471000C1ED010A816EC1ED029A816EC1ED030AFD
:10472000816EC1ED049A816EC1ED050A816EC1ED05
:10473000069A816EC1ED070A816EC1ED080A816E8D
:10474000C1ED090A816EC1ED0A0AC16EC1ED019A7F
:10475000C16EC1ED020AC16EC1ED039AC16EC1ED19
:10476000040AC16EC1ED059AC16EC1ED060AC16EA3
:10477000C1ED079AC16EC1ED080AC16EC1ED090A0B
:10478000C16EC1ED0A0A016FC1ED010A016FC1EDF1
:10479000029A016FC1ED030A016FC1ED049A016F26
:1047A000C1ED050A016FC1ED069A016FC1ED070A5F
:1047B000016FC1ED089A016FC1ED090A016FC1EDEA
:1047C0000A0A416FC1ED019A416FC1ED020A416FC2
:1047D000C1ED039A416FC1ED040A416FC1ED059A25
:1047E000416FC1ED060A416FC1ED079A416FC1EDFE
:1047F000080A416FC1ED099A416FC1ED0A0A816F44
:10480000C1ED010A816FC1ED029A816FC1ED030A0A
:10481000816FC1ED049A816FC1ED050A816FC1ED11
:10482000069A816FC1ED070A816FC1ED089A816F09
:10483000C1ED090A816FC1ED0A9AC16F81ED018A4C
:10484000C16F81ED020AC16F81ED030AC16F81ED75
:10485000040AC16F81ED050AC16F81ED060AC16FBF
:1048600081ED070AC16F81ED080AC16F81ED090A68
:10487000C16F81ED0A0AD0F8801081ED010AD0F8ED
:10488000801081ED028AD0F8801081ED030AD0F803
:10489000801081ED040AD0F8801081ED050AD0F86F
:1048A000801081ED060AD0F8801081ED070AD0F85B
:1048B000801081ED080AD0F8801081ED090AD0F847
:1048C000801081ED0A0AD0F8841081ED018AD0F8B9
:1048D000841081ED020AD0F8841081ED038AD0F8AB
:1048E000841081ED040AD0F8841081ED050AD0F817
:1048F000841081ED060AD0F8841081ED070AD0F803
:10490000841081ED080AD0F8841081ED090AD0F8EE
:10491000841081ED0A0AD0F8881081ED010AD0F8E0
:10492000881081ED028AD0F8881081ED030AD0F852
:10493000881081ED048AD0F8881081ED050AD0F83E
:10494000881081ED060AD0F8881081ED070AD0F8AA
:10495000881081ED080AD0F8881081ED090AD0F896
:10496000881081ED0A0AD0F88C1081ED018AD0F808
:104970008C1081ED020AD0F88C1081ED038AD0F8FA
:104980008C1081ED040AD0F88C1081ED058AD0F8E6
:104990008C1081ED060AD0F88C1081ED070AD0F852
:1049A0008C1081ED080AD0F88C1081ED090AD0F83E
:1049B0008C1081ED0A0AD0F8901081ED010A0DE00B
:1049C000E474064341942442C60DC8425C8FFD4105
:1049D000B6997742E3D9A141026BCD41D0F890104E
:1049E00081ED028AD0F8901081ED030AD0F8901082
:1049F00081ED048AD0F8901081ED050AD0F890106E
:104A000081ED068AD0F8901081ED070AD0F8901059
:104A100081ED080AD0F8901081ED090AD0F89010C5
:104A200081ED0A0AD0F8941081ED018AD0F8941033
:104A300081ED020AD0F8941081ED038AD0F8941029
:104A400081ED040AD0F8941081ED058AD0F8941015
:104A500081ED060AD0F8941081ED078AD0F8941001
:104A600081ED080AD0F8941081ED090AD0F894106D
:104A700081ED0A0AD0F8981081ED010AD0F898105B
:104A800081ED028AD0F8981081ED030AD0F89810D1
:104A900081ED048AD0F8981081ED050AD0F89810BD
:104AA00081ED068AD0F8981081ED070AD0F89810A9
:104AB00081ED088AD0F8981081ED090AD0F8981095
:104AC00081ED0A0AD0F89C1081ED018AD0F89C1083
:104AD00081ED020AD0F89C1081ED038AD0F89C1079
:104AE00081ED040AD0F89C1081ED058AD0F89C1065
:104AF00081ED060AD0F89C1081ED078AD0F89C1051
:104B000081ED080AD0F89C1081ED098AD0F89C103C
:104B100081ED0A0AD0F8A01081ED010AD0F8A010AA
:104B200081ED028AD0F8A01081ED030AD0F8A01020
:104B300081ED048AD0F8A01081ED050AD0F8A0100C
:104B400081ED068AD0F8A01081ED070AD0F8A010F8
:104B500081ED088AD0F8A01081ED090AD0F8A000F4
:104B600080ED0A8A2068416881ED014A4168C1ED03
:104B7000021A416881ED032A4168C1ED042A4168A7
:104B800081ED053A4168C1ED063A416881ED071AA9
:104B90009FEDFE0A416881ED080A4168C1ED098A6E
:104BA0004168C1ED0A8A8168C1ED011A9FEDF80ADA
:104BB000816881ED020A9FEDF70A816881ED030AA1
:104BC0009FEDF50A816881ED040A9FEDF40A816882
:104BD00081ED050ADFEDF20A9FEDF20A8168C1ED71
:104BE000060A9FEDF14A816881ED070A816881ED2F
:104BF000084A8168C1ED098A8168C1ED0A8AC168E5
:104C000081ED012ADFEDE30AC168C1ED020ADFEDA3
:104C1000E70AC168C1ED030ADFEDE50AC168C1ED2D
:104C2000040ADFEDE40AC168C1ED050ADFEDE20A1E
:104C3000DFEDE24AC168C1ED060ADFEDE10AC168B5
:104C4000C1ED074AC168C1ED080AC168C1ED098A12
:104C5000C168C1ED0A8A0169C1ED012ADFEDCE1AF2
:104C60000169C1ED021ADFEDD21A0169C1ED031A23
:104C7000DFEDD41A0169C1ED041ADFEDD31A016921
:104C8000C1ED051A9FEDD12ADFEDD11A016981ED41
:104C9000062ADFEDD02A0169C1ED071A0169C1EDCD
:104CA000082A0169C1ED098A0169C1ED0A8A4169D1
:104CB00081ED013A9FEDB92A416981ED022A9FED0C
:104CC000BD2A416981ED032A9FEDBF2A416981ED2B
:104CD000042A9FEDC12A416981ED052A9FEDBF2A73
:104CE0009FEDBF5A416981ED062A9FEDBE3A4169A9
:104CF00081ED075A416981ED083A4169C1ED098AA0
:104D00004169C1ED0A8A8169C1ED013A9FEDA42A8A
:104D1000816981ED022A9FEDA82A816981ED032A2C
:104D20009FEDAA2A816981ED042A9FEDAC2A816951
:104D300081ED052A9FEDAC2ADFEDAC3A816981ED6A
:104D4000062A9FEDAB2A8169C1ED073A816981EDA1
:104D5000082A8169C1ED098A8169C1ED0A8AC169A0
:104D600081ED011AC16981ED020AC169C1ED034AF1
:104D7000C169C1ED041AC16981ED055AC169C1ED6E
:104D8000063A9FED9C1A9FED9C0AC16981ED071AB6
:104D9000C16981ED080AC169C1ED098AC169C1ED26
:104DA0000A8A9FED7A1A016A81ED011A016A81ED82
:104DB000024A016AC1ED030A016AC1ED042A016ACF
:104DC00081ED053A016A81ED062A016A81ED070A43
:104DD0009FED8A0A016A81ED080A016AC1ED098A1C
:104DE000016AC1ED0A8A416A0123B0EE000A1A463F
:104DF000C1ED018A416AC1ED028A416AC1ED038AAF
:104E0000416AC1ED048A416AC1ED058A416AC1ED7A
:104E1000068A416AC1ED078A416AC1ED088A416A82
:104E200081ED090A416AC1ED0A8A816AC1ED018AF0
:104E3000816AC1ED028A816AC1ED038A816AC1ED8E
:104E4000048A816AC1ED058A816AC1ED068A816A98
:104E5000C1ED078A816AC1ED088A816AC1ED098ABC
:104E6000806A0A2180ED0A0A184601F017F801232A
:104E700028610A211A46184601F010F8A4F18001B1
:104E800001231A4648600A21184601F007F8A4F1E8
:104E9000800101231A4608600221184600F0FEFF37
:104EA000A4F1800101231A4648640221184600F04B
:104EB000F5FFA4F1800101231A4608620221184679
:104EC00000F0ECFFA4F1800101231A4648610221A1
:104ED000184600F0E3FF0122A864022311461046A1
:104EE00000F0DCFF0123E86402211A46184600F0B6
:104EF000D5FF0223A86101221946104600F0CEFF1B
:104F0000A865012341681A469FED3D0A81ED010A1B
:104F100041689FED3C0A81ED020A81689FED3A0AE3
:104F200081ED010A806802219FED380A80ED020AB6
:104F3000184600F0B3FF0122E8610A23104602215F
:104F400000F0ACFFE86541689FED310A81ED010A90
:104F500041689FED300A81ED020A41689FED2E0AFB
:104F600081ED030A41689FED2D0A81ED040A416835
:104F70009FED2B0A81ED050A41689FED2A0A81ED1C
:104F8000060A41689FED280A50E00000A9EF0C4195
:104F90002D7209427EF5F7418A2BC64171839A41F1
:104FA000AA437C4157BD03418723DD407E14B042B4
:104FB000D763DF4147C661427DB39641891EC14137
:104FC00036A106411355C4414E119341BC5772415D
:104FD000544C0041F9CCD84044713C4236827A416D
:104FE000FEC3A74126DFF140B0B87141A88AEC406A
:104FF00066A4CA40FCC082412A55B1406DE5DB4041
:10500000AAB2AC3E72E4AEBD6430D0BD35F6023F0C
:10501000A1829F3FA5BF073ED9BE223FF6147F3D28
:105020000E9EA13E9895DB3C017C193E81ED070A5E
:105030009FEDFE0A416881ED080A9FEDFD0A416877
:1050400081ED090A9FEDFB0A416881ED0A0A9FED97
:10505000FA0A816881ED010A9FEDF80A816881ED05
:10506000020A9FEDF70A816881ED030A9FEDF50AB8
:10507000816881ED040A9FEDF40A816881ED050ADB
:105080009FEDF20A816881ED060A9FEDF10A8168C1
:1050900081ED070A9FEDEF0A816881ED080A9FED17
:1050A000EE0A816881ED090A9FEDEC0A8068012310
:1050B0000A211A4680ED0A0A184600F0EFFE012385
:1050C00068620A211A46184600F0E8FE0A23A86220
:1050D00001221946104600F0E1FE9FEDE10A286624
:1050E000416881ED010A9FEDDF0A416881ED020A06
:1050F0009FEDDD0A416881ED030A9FEDDC0A4168FE
:1051000081ED040A9FEDDA0A416881ED050A9FED01
:10511000D90A416881ED060A9FEDD70A416881ED01
:10512000070A9FEDD60ADFEDD60A416881ED080A2D
:105130009FEDD40A4168C1ED090A416881ED0A0A70
:105140009FEDD11A816881ED011A9FEDD01A816817
:1051500081ED021A9FEDCE1A816881ED031A9FED51
:10516000CD1A816881ED041A9FEDCB1A816881ED1B
:10517000051A9FEDCA1A816881ED061A9FEDC81ABB
:10518000816881ED071ADFEDC71A9FEDC71A8168A4
:10519000C1ED081ADFEDC51A816881ED091A816831
:1051A000C1ED0A1A9FEDC22AC16881ED012A9FED67
:1051B000C12AC16881ED022A9FEDBF2AC16881ED35
:1051C000032A9FEDBE2AC16881ED042A9FEDBC2A07
:1051D000C16881ED052A9FEDBB2A9FEDBB3AC168EE
:1051E00081ED062ADFEDB94AC16881ED073AC16851
:1051F000C1ED084AC168C1ED090AC16881ED0A0A1A
:105200009FEDB32A016981ED012A9FEDB22A016960
:1052100081ED022A9FEDB02A016981ED032A9FEDFD
:10522000AF2A016981ED042A9FEDAD2A016981ED64
:10523000052A9FEDAC2A9FEDAC4A016981ED062A53
:105240009FEDAA2A016981ED074A016981ED082ACB
:10525000016981ED091A0169C1ED0A1ADFEDA42A7D
:105260004169C1ED012ADFEDA32A4169C1ED022A9E
:10527000DFEDA12A4169C1ED032ADFEDA03ADFEDA0
:10528000A02A4169C1ED043ADFED9E3A4169C1EDC2
:10529000052A4169C1ED063A9FED8B5A416981EDBE
:1052A000075A9FED8A5A416981ED085A4169C1ED5B
:1052B000090ADFED950A416981ED0A0A8169C1EDAC
:1052C000010A9FED920A816981ED020A9FED900A21
:1052D000816981ED030A9FED8F0A9FED8F5A8169E5
:1052E00081ED040ADFED8D5A816981ED055A8169EE
:1052F000C1ED065A9FED7C0A816981ED070A9FED99
:105300007B0A816981ED080A816981ED091A816949
:10531000C1ED0A1A9FED820AC16981ED010A9FED74
:10532000810A9FED811AC16981ED020A9FED7F0A12
:10533000C16981ED031AC16981ED040AC169C1ED3A
:10534000052AC169C1ED063AC16981ED073AC16913
:10535000C1ED084ADFED4A1AC169C1ED091ADFED56
:10536000491AC169C1ED0A1ADFED711A016AC1ED6E
:10537000011ADFED701A016AC1ED021ADFED6E1A33
:10538000016AC1ED031ADFED6D1A016AC1ED041A5D
:10539000016A81ED055A016AC1ED065A016A81ED83
:1053A000074A016A81ED082ADFED3F1A016AC1ED63
:1053B000091A016ADFED3D1AC1ED0A1ADFED601A24
:1053C000416AC1ED011A416AC1ED020A416A81EDEB
:1053D000031A416A81ED040A9FED490A416A81ED91
:1053E000050A9FED480A416A81ED060A416A9FED70
:1053F000360A81ED070A416A9FED340A81ED080AF9
:10540000416A9FED1F0A81ED090A416A9FED1D0A5D
:1054100081ED0A0A9FED4B0A816A81ED010A9FED39
:105420004A0A816A81ED020A90E000001E7F313C49
:1054300073284A3D2D1E4A3B5BB8753D3A125E3FCC
:10544000B5F0F6BD2594763EF596AFBD0F6D873D60
:10545000D5182CBDE715913CA67C6BBC0A39753B71
:10546000C1582340A8D2213F13EE9F3F11206E3E2A
:10547000B6951C3FE633AF3D3E4F993E30E8003DC8
:10548000531A163E5AB03D3CD9A54F3F9CA7B63F94
:10549000E1E01C3E6D53D13E4C0BED3C36E4EF3D5C
:1054A0005E16B33BCB75093D084D873A2D881D3CF0
:1054B000CA4F7340AA5A5D3FEB38EE3F02DDA23E71
:1054C000553D693FF9A7EF3D685CE43E4654303DE9
:1054D00012DE763F7AFCEA3F4E823A3E3DA6063F18
:1054E00071E80C3D8E4F1A3EA3E9D43BD4D7303D32
:1054F0009B3A8D402741733F5F460A4007FAB23E10
:10550000F661873F03AF033E6D467E3FC2FAF93F27
:10551000001B403E9A3D0F3FD822113D1228243EE9
:1055200090CF9640AB4F7B3F05A813408AE7B83E2B
:1055300099AC7F3F6B46FE3F9629413EBBB3113F7E
:1055400063809B403FF07F3F7C81FF3F816A012366
:105550001FED070A1A4681ED030A816A1FED090A49
:1055600081ED040A816A1FED140A81ED050A816A42
:105570001FED160A81ED060A816A1FED250A81EDED
:10558000070A816A1FED270A81ED080A816A1FED6B
:105590003A0A81ED090A806A0A211FED3C0A80ED72
:1055A0000A0A184600F07AFC0123E8620A211A462A
:1055B000184600F073FC0A2328630122194610469E
:1055C00000F06CFC68664168C1ED018A9FEDFE4AFF
:1055D0004168C1ED028ADFEDFD2A416881ED034A91
:1055E0004168C1ED042A9FEDFA0ADFEDFA1A41681D
:1055F00081ED050A9FEDF83A4168C1ED061ADFED2D
:10560000F73A416881ED073A4168C1ED083A9FEDEC
:10561000F40A416881ED090A9FEDF20A416881EDC3
:105620000A0A8168C1ED018A9FEDEF1A8168C1ED18
:10563000028A9FEDEE0A816881ED031A9FEDEC2A44
:10564000816881ED040ADFEDEB0A816881ED052AAE
:10565000DFEDE94A8168C1ED060A9FEDE85A8168ED
:10566000C1ED074A816881ED085ADFEDE55A81688E
:10567000C1ED095ADFEDE35A8168C1ED0A5AC168EC
:10568000C1ED018AC168C1ED028AC168C1ED038A1A
:10569000C168C1ED048ADFEDCC5AC168C1ED055A7D
:1056A000DFEDCA5AC168C1ED065ADFEDC95AC168BB
:1056B000C1ED075AC168C1ED081AC16881ED093A08
:1056C000C168C1ED0A3A0169C1ED018A0169C1ED04
:1056D000028A0169C1ED038A0169C1ED048A016989
:1056E00081ED051A016981ED060A016981ED072A3C
:1056F0000169C1ED080A0169C1ED094A016981ED3D
:105700000A5A4169C1ED018A4169C1ED028A4169C4
:10571000C1ED038A4169C1ED048A4169C1ED058A81
:105720004169C1ED068A9FEDA83A416981ED073ACA
:105730009FEDA63A416981ED083A9FEDA53A41698E
:1057400081ED093A4169C1ED0A1A8169C1ED018A09
:105750008169C1ED028A8169C1ED038A8169C1ED68
:10576000048A8169C1ED058A8169C1ED068A816972
:1057700081ED071A816981ED080A816981ED092AA5
:105780008169C1ED0A0AC169C1ED018AC169C1ED32
:10579000028AC169C1ED038AC16901231A46C1EDBC
:1057A000048AC169C1ED058AC169C1ED068AC16972
:1057B000C1ED078AC169C1ED088AC16981ED094A55
:1057C000C169C1ED0A2A016AC1ED018A016AC1ED10
:1057D000028A016AC1ED038A016AC1ED048A016A85
:1057E000C1ED058A016AC1ED068A016AC1ED078A29
:1057F000016AC1ED088A016A81ED091A016A81ED29
:105800000A0A416AC1ED018A416AC1ED028A416A10
:10581000C1ED038A416AC1ED048A416AC1ED058A7E
:10582000416AC1ED068A416AC1ED078A416AC1ED4C
:10583000088A416AC1ED098A416AC1ED0A8A816A12
:10584000C1ED018A816AC1ED028A816AC1ED038AD4
:10585000816AC1ED048A816AC1ED058A816AC1ED60
:10586000068A816AC1ED078A816AC1ED088A816A68
:10587000C1ED098A806AC0ED0A8A2821184600F025
:105880000DFB0122A86002231046282100F006FB30
:10589000A8664168C1ED018A4168C1ED028A81684C
:1058A000C1ED018A8168C1ED028AC168C1ED018A3A
:1058B000C168C1ED028A0169C1ED018A0169C1EDCA
:1058C000028A4169C1ED018A4169C1ED028A81699B
:1058D000C1ED018A8169C1ED028AC169C1ED018A08
:1058E000C169C1ED028A016AC1ED018A016AC1ED97
:1058F000028A416AC1ED018A416AC1ED028A816A68
:10590000C1ED018A816AC1ED028AC16AC1ED018AD5
:10591000C16AC1ED028A016BC1ED018A016BC1ED63
:10592000028A416BC1ED018A416BC1ED028A816B34
:10593000C1ED018A816BC1ED028AC16BC1ED018AA3
:10594000C16BC1ED028A016CC1ED018A016CC1ED30
:10595000028A416CC1ED018A416CC1ED028A816C01
:10596000C1ED018A816CC1ED028AC16CC1ED018A71
:10597000C16CC1ED028A016DC1ED018A016DC1EDFD
:10598000028A416DC1ED019A416DC1ED028A816DBE
:10599000C1ED018A816DC1ED029AC16DC1ED019A1F
:1059A000C16DC1ED028A016EC1ED018A016EC1EDCA
:1059B000029A416EC1ED019A416EC1ED028A816E7B
:1059C000C1ED018A816E1FE0BE58A3C0DBA5CFBF29
:1059D000CA4FF3C012DEF6BF9B3A0DC16B46FEBF45
:1059E00090CF16C19BACFFBFA6D2A1BFA0A736C067
:1059F000A75ADDBF7AFC6AC02941F3BFBEFA79C05D
:105A0000AD4FFBBF6B467EC0C1ED029AC16E012255
:105A10000223C1ED019AC16EC1ED028A016FC1ED91
:105A2000018A016FC1ED029A416FC1ED019A416F88
:105A3000C1ED028A816FC1ED018A816FC1ED029AC9
:105A4000C16F81ED018AC16F81ED029AD0F880109B
:105A500081ED019AD0F8801081ED028AD0F884108F
:105A600081ED018AD0F8841081ED029AD0F8881077
:105A700081ED019AD0F8881081ED028AD0F88C105F
:105A800081ED018AD0F88C1081ED029AD0F8901047
:105A900081ED019AD0F8901081ED028AD0F894102F
:105AA00081ED018AD0F8941081ED029AD0F8981017
:105AB00081ED019AD0F8981081ED028AD0F89C10FF
:105AC00081ED018AD0F89C1081ED029AD0F8A010E7
:105AD00081ED019AD0F8A000282180ED028A1046BD
