:020000040800F2
:10000000C8540420DD0100086D390008B33500082C
:1000100069390008890C0008114C00080000000034
:100020000000000000000000000000007D4000080B
:10003000A70D0008000000006F39000835430008D4
:10004000F7010008F7010008F7010008F7010008B0
:10005000F7010008F7010008F7010008F7010008A0
:10006000F7010008F7010008F7010008F701000890
:10007000F7010008F7010008F7010008F701000880
:10008000F7010008F7010008090B0008F701000854
:10009000F7010008F7010008F7010008F701000860
:1000A000F7010008F7010008F7010008F701000850
:1000B00079440008F7010008F7010008F70100087B
:1000C000F7010008F7010008F7010008F701000830
:1000D000F7010008014C0008F7010008F7010008CB
:1000E000F7010008F7010008F7010008F701000810
:1000F000F7010008F7010008F7010008F701000800
:10010000F7010008F7010008F7010008F7010008EF
:10011000F7010008F7010008F7010008F7010008DF
:100120008D0C0008F7010008F7010008F70100082E
:10013000F7010008F7010008F7010008F7010008BF
:10014000F7010008F7010008F7010008F7010008AF
:10015000F7010008F7010008F7010008F70100089F
:10016000F7010008F7010008F7010008F70100088F
:10017000F7010008F7010008F7010008000000007F
:10018000F7010008F7010008F7010008F70100086F
:10019000F7010008F7010008F7010008F70100085F
:1001A000F7010008F7010008F7010008F70100084F
:1001B000F7010008F7010008F7010008F70100083F
:1001C000F7010008F7010008DFF80CD000F01AFC76
:1001D00000480047F1E20008C85404200648804760
:1001E00006480047FEE7FEE7FEE7FEE7FEE7FEE71C
:1001F000FEE7FEE7FEE7FEE715440008C901000838
:100200002DE9F05F0546002092469B46884606464B
:10021000814640241BE0284641464746224600F0DE
:10022000D2FA53465A46C01A914110D31146184685
:10023000224600F0B9FA2D1A67EB01084F46224614
:100240000120002100F0B0FA17EB00094E41201EFA
:10025000A4F10104DFDC484631462A464346BDE8A6
:10026000F09F2DE9F0410024061B254671F10006A0
:1002700005DA01240027D0EB070067EB0101161E09
:1002800073F1000605DA0027D2EB0702012567EBC0
:100290000303FFF7B5FF86460E4617469C46AC4261
:1002A00004D00025D0EB050E65EB010624B100203B
:1002B000D2EB000760EB030C704631463A466346CA
:1002C000BDE8F08140EA01039B0703D009E008C9BB
:1002D000121F08C0042AFAD203E011F8013B00F80B
:1002E000013B521EF9D27047D2B201E000F8012B57
:1002F000491EFBD270470022F6E710B513460A46A6
:1003000004461946FFF7F0FF204610BD421C10F8C6
:10031000011B0029FBD1801A704710B548430446E1
:1003200004F062FD002805D00021002C02D0641EDC
:100330000155FAE710BD2DE9FE4F804681EA030022
:10034000C00F0C46009021F0004123F00045B8EBAF
:100350000200A94105D24046214690461C460B4664
:10036000024623F00040104347D0270DC7F30A0090
:10037000C3F30A510290401A019040286BDAC3F38C
:10038000130040F4801B0098924620B10023D2EB6A
:10039000030A63EB0B0B01985946C0F1400250462B
:1003A00000F002FA06460D4650465946019A00F002
:1003B0001AFA10EB08006141002487EA115284EA1E
:1003C000E7731A4340D0009A62B3019A012A4FEAB8
:1003D000075215DC001B61EB02014FF0004202EAFC
:1003E0000752CDE90042001C41F5801132462B46F0
:1003F00000F051FA03B0BDE8F08F40462146F9E71E
:10040000001B61EB0201001C41F5801300185B41E9
:100410002018A2F5001747EB030140EAD570B61982
:100420006D4111E06D084FEA360645EAC0754FEAA6
:100430000752001B61EB0201001C41F580114908C5
:100440004FEA30000019514132462B4603B0BDE857
:10045000F04F00F011BA0098012240000023D0EBC9
:10046000020263EBE073009821464FEAE074B8EBB8
:10047000000061EB0401E9E783F000435BE781F0F2
:10048000004158E72DE9FE4F81EA030404F00044DF
:1004900021F0004100944FF0000B23F0004350EA9C
:1004A00001045ED052EA03045BD0C3F30A54C1F3E3
:1004B0000A552C44A4F2F3340194A0FB0254C1F376
:1004C000130141F48011C3F3130343F4801301FBC0
:1004D000024400FB034E840A970A44EA815447EA27
:1004E0008357A4FB076802958D0A05FB07854FEA31
:1004F000932C04FB0C542705029D4FEA065847EA4B
:100500001637B5EB08056EEB070C870E920E47EA1F
:10051000811742EA8312A7FB0201B6EB0B0164EBE1
:1005200000042B0D43EA0C335E1844EB1C50DA46F2
:100530005146E7FB0201C5F313044FEA0B3343EACC
:1005400014534FEA0432019C43EA0603A4F10C045D
:100550000294009CCDE900B400F09DF903B0BDE821
:10056000F08F00200146F9E72DE9F04D81EA030400
:1005700004F0004B21F0004514464FF0000A23F030
:10058000004150EA050220D054EA01021DD0C5F313
:100590000A570246C5F31303C1F31300C1F30A5609
:1005A00040F4801543F48013A7EB0608101BD646D1
:1005B00008F2FD3873EB050002D308F1010801E0F1
:1005C00092185B41B8F1000F03DA00200146BDE844
:1005D000F08D00204FF48011064684460EE0171B74
:1005E00073EB050705D3121B63EB050306434CEAC7
:1005F000010C49084FEA300092185B4150EA0107AC
:10060000EDD152EA030012D082EA040083EA050128
:10061000084305D0101BAB4106D20122002306E09F
:1006200000224FF0004302E06FF0010253101AEB7A
:1006300006004CEB085110EB0A0041EB0B01BDE842
:10064000F04D00F019B9F0B4CA17CB0F504051402B
:10065000C61841F100054FEAC372314628004FF039
:10066000960303D0B623F0BC00F0D8B83046002182
:10067000F9E770B5C1F30A5201F000450024C1F357
:10068000130140F2FF3341F480119A4202DA002054
:10069000014670BD40F233439A42A2F2334203DC7A
:1006A000524200F090F801E000F07EF82C43F0D0C8
:1006B0000023D0EB030063EB010170BD00F00042AA
:1006C00030F000400AD0C10D01F56071C0F3160092
:1006D00042EA0151C2084007114370470020014619
:1006E0007047000030B5041E71F1000404DB4FF0C8
:1006F0000044404264EB0101141E73F1000405DB69
:100700001C464FF00043524263EB04038B4208BF88
:10071000824230BD30B5041E71F1000404DB4FF09D
:100720000044404264EB0101141E73F1000405DB38
:100730001C464FF00043524263EB0403994208BF4A
:10074000904230BD01F0004330B421F0004150EA46
:10075000010206D00A0DA2F56072C1F31301002A4E
:1007600002DC30BC00207047440F44EAC104C100E1
:10077000E01830BC00EBC25000F047B830B50B4673
:10078000014600202022012409E021FA02F59D42C1
:1007900005D303FA02F5491B04FA02F52844151E95
:1007A000A2F10102F1DC30BD202A04DB203A00FA7C
:1007B00002F1002070479140C2F1200320FA03F3B8
:1007C000194390407047202A04DB203A21FA02F0B6
:1007D0000021704721FA02F3D040C2F1200291407B
:1007E000084319467047202A06DBCB17203A41FA06
:1007F00002F043EAE07306E041FA02F3D040C2F1AE
:10080000200291400843194670470029A8BF70474D
:10081000401C490008BF20F00100704710B4B0FA36
:1008200080FC00FA0CF050EA010404BF10BC7047D1
:1008300049B1CCF1200421FA04F411FA0CF118BFEB
:10084000012121430843A3EB0C01CB1D4FEA0061BA
:100850004FEA102042BF002010BC704700EBC3508D
:1008600010440029A4BF10BC7047401C490008BFB9
:1008700020F0010010BC704710B5141E73F1000485
:1008800008DA401C41F1000192185B411A4301D182
:1008900020F0010010BD2DE9F04D92469B4611B1AC
:1008A000B1FA81F202E0B0FA80F220329046FFF70E
:1008B0007BFF04460F4640EA0A0041EA0B0153461B
:1008C0005A46084313D0114653EA010019D0C8F123
:1008D00040025046FFF777FF05460E465046594600
:1008E0004246FFF761FF084305D0012004E020469F
:1008F0003946BDE8F08D0020054346EAE0762C43FA
:1009000037430A986305E40AA0EB08000022FD0AB9
:1009100044EA47540A3002D500200146E9E70105C0
:1009200010196941DDE9084500196941BDE8F04D3C
:10093000A2E72DE9F04D00231A461B1A8A4103DB7A
:1009400000200146BDE8F08DC1F30A52C1F3130146
:1009500041F480154FF0000BD10702D100186D4112
:10096000521E0027044640F2FF11384601EB620A8E
:100970003E468046024600204FF48011FFF723FFD9
:10098000C2197141BB1846EB0100B4EB030C75EBC7
:10099000000C04D3E41A65EB000517460E46241933
:1009A00008F101006D4180463428E3DDF91946EB7A
:1009B0000600091BA84103D24FF0FF32134601E0A5
:1009C000002213461BEB070046EB0A51BDE8F04D31
:1009D000FFF752BFC1F30A52C1F3130140F2FF33D4
:1009E00041F480119A4202DA00200146704740F239
:1009F00033439A42A2F2334202DC5242FFF7E3BE93
:100A0000FFF7D2BE064C074D06E0E06840F0010358
:100A100094E8070098471034AC42F6D3FFF7D8FBB0
:100A2000801D0108A01D010830B58C1810F8012B9D
:100A300012F00F0301D110F8013B120906D110F892
:100A4000012B03E010F8015B01F8015B5B1EF9D19B
:100A500001E001F8013B521EFBD1A142E6D3002088
:100A600030BD70B50546AC6B206C00F0500050BB3B
:100A7000206C40F4007020642068806800F04050D2
:100A8000E8B9A069D8B92068C06A00F4700020B144
:100A90002068806800F4806088B92068406820F091
:100AA000200021684860206C20F480702064206C55
:100AB00000F4805018B9206C40F0010020642046FA
:100AC00000F04EFA0BE0206C00F0100018B1204648
:100AD00000F0A3FA03E0A06BC16C2846884770BD04
:100AE00070B50546AC6B40202064606C40F004009B
:100AF0006064204600F091FA70BD70B50446A56BA5
:100B0000284600F089FA70BD10B5024800F086FA58
:100B100010BD0000B80100205849096821F4403197
:100B2000574AC2F804131146D1F80413426811431E
:100B3000524A11600168496821F48071026851606D
:100B400001684A68016942EA01210268516001684E
:100B5000496821F040710268516001684968826803
:100B60001143026851600168896821F400610268DC
:100B7000916001688968C268114302689160414AC6
:100B8000816A914218D00168896821F07061026819
:100B9000916001688968826A114302689160016806
:100BA000896821F040510268916001688968C26AD1
:100BB0001143026891600BE00168896821F070615F
:100BC000026891600168896821F040510268916073
:100BD0000168896821F002010268916001688A68F1
:100BE000816942EA4101026891602021095CA1B15A
:100BF0000168496841F40061026851600168496810
:100C000021F460410268516001684A68416A491EE6
:100C100042EA41310268516005E00168496821F407
:100C20000061026851600168C96A21F470010268BC
:100C3000D1620168CA6A818B491E42EA0151026889
:100C4000D1620168896821F40071026891600168CD
:100C50008A6890F8301042EA412102689160016888
:100C6000896821F480610268916001688A6841693D
:100C700042EA81210268916070470000042301402C
:100C8000002001400100000F00BFFEE710B5024840
:100C900000F05CFD10BD0000000200200146087855
:100CA00010381823B0FBF3F20848805CC865032AAB
:100CB00005D908686FF30900001D886503E008681E
:100CC0006FF309008865886D704700004C1D0108AE
:100CD000014600208A6A8B69CBB932B1012A0DD056
:100CE000022A03D0032A10D10EE000BFCB6A03F022
:100CF0008073B3F1807F00D1012007E0CB6AB3F1AC
:100D0000C07F00D1012001E000E000BF34E08B692A
:100D1000B3F5005F1AD132B1012A07D0022A03D0FD
:100D2000032A11D10AE000BF01200EE0CB6A03F0D4
:100D30008073B3F1807F00D1012006E0CB6AB3F16C
:100D4000C07F00D1012000E000BF15E032B1012AD0
:100D500005D0022A04D0032A0CD103E000BF00BF53
:100D6000012008E0CB6A03F08073B3F1807F00D1EB
:100D7000012000E000BF00BF704730B50468246860
:100D800024F4802405682C60046863608468402C27
:100D900004D10468A2600468E16003E00468A16013
:100DA0000468E26030BD70477047704718B502466E
:100DB0000020009000BF92F83C00012801D10220E1
:100DC00018BD012082F83C0000BF0868092822D91C
:100DD0001068C0680B780A3B03EB43040723A34069
:100DE00098431368D860594B0868984207D1106837
:100DF000C0680B7A40EA03601368D8601FE00B7884
:100E00000A3B03EB4303886898401368DB68184388
:100E10001368D86013E0106800690B7803EB430493
:100E20000723A3409843136818610B7803EB43032F
:100E30008868984013681B691843136818614868EC
:100E4000072817D21068406B0B795B1E03EB8304F5
:100E50001F23A340984313685863088880B20B7916
:100E60005B1E03EB8303984013685B6B18431368A6
:100E7000586331E048680D2817D21068006B0B7971
:100E8000DB1F03EB83041F23A340984313681863FD
:100E9000088880B20B79DB1F03EB8303984013684B
:100EA0001B6B18431368186316E01068C06A0B794F
:100EB0000D3B03EB83041F23A34098431368D862C0
:100EC000088880B20B790D3B03EB830398401368CD
:100ED000DB6A18431368D8621D4B1068984208D12A
:100EE0000868122805D11B48006840F48000C3F848
:100EF0000403174B1068984220D1144B086898429D
:100F000002D00868112819D11248006840F4000086
:100F1000104B18600D4B086898420FD10E480068BE
:100F20000E4BB0FBF3F000EB80004000009002E0BD
:100F30000098401E009000980028F9D100BF0020C2
:100F400082F83C0000BF00BF3AE70000120000102A
:100F500000200140042301402801002040420F00EE
:100F60000021274A1160274A116051601AE0254983
:100F70000968234A12685200234B53F82220114477
:100F8000204A116011464A681D4909684900491CF8
:100F900053F8211011441B4A516019490968491C32
:100FA000174A1160164909686429E0DB154991ED7B
:100FB000000AB8EE400ADFED150A80EE201A9FED18
:100FC000140A31EE400ADFED120A80EE201A1149B0
:100FD00081ED001A0B4991ED010AB8EE400ADFEDF0
:100FE0000B0A80EE201A9FED0A0A31EE400ADFED6F
:100FF000080A80EE201A074981ED011A70470000A7
:101000001C00002020000020840300200000C842B3
:1010100000F0FF44080000207047704770B5044698
:101020000025002620680068C0F34005206840685D
:10103000C0F3401695B38EB3206C00F0100018B9C1
:10104000206C40F4007020642068806800F04050FC
:10105000E8B9A069D8B92068C06A00F4700020B16E
:101060002068806800F4806088B92068406820F0BB
:10107000200021684860206C20F480702064206C7F
:1010800000F4805018B9206C40F001002064204624
:10109000FFF766FF6FF012002168086020680068A3
:1010A000C0F3800520684068C0F3C016E5B3DEB326
:1010B000206C00F0100018B9206C40F4005020643F
:1010C0002068806800F4401038BB2068806B00F412
:1010D000401020B12068806800F48060E8B9206882
:1010E000406800F48060C0B92068806800F040501B
:1010F00098B9A06988B92068406820F0800021680C
:101100004860206C20F480502064206C00F48070D3
:1011100018B9206C40F0010020642046FFF745FE1E
:101120006FF00C00216808602068006800F001057D
:1011300020684068C0F3801685B17EB120680068E1
:1011400000F0010050B1206C40F480302064204653
:1011500000F052F86FF00100216808602068006814
:10116000C0F3401520684068C0F380667DB176B159
:10117000606C40F0020060646FF02000216808603D
:101180002046FFF74AFF6FF020002168086070BD1D
:1011900070B5044600250CB9012070BD1549A06A40
:1011A000884200D000BF206C30B9204600F026F8FD
:1011B0000020606484F83C00206C00F0100088B9C6
:1011C000206C20F4885040F0020020642046FFF795
:1011D000A3FC00206064206C20F0020040F00100BD
:1011E000206400E0012500BF002084F83C0000BF1F
:1011F0002846D2E70100000F7047000010B586B006
:101200000446142101A8FFF776F82A49206888428D
:101210004DD100BF2848006840F48060264908602E
:101220000846006800F48060009000BF00BF00BF67
:1012300021481438006840F001001F491439086043
:101240000846006800F00100009000BF00BF0320C6
:10125000019002900020039001A9184800F05CFC66
:1012600017481849086080054860002115488160CA
:10127000C1604FF480610161890041618900816131
:101280008911C16100210162416200F07FFB08B158
:10129000FFF78AFD00BF0B48A063846300BF0022F4
:1012A0000321122000F0B8FD122000F0A5FD06B0C9
:1012B00010BD0000002201404438024000000240FE
:1012C000106402400002002008B501460020009092
:1012D00000BF91F83C00012801D1022008BD012087
:1012E00081F83C0000BF0868806800F00100A0B9E8
:1012F0000868806840F001000A689060394800681A
:10130000394AB0FBF2F000EB4000009002E0009898
:10131000401E009000980028F9D10868806800F00D
:10132000010000285BD0086C40F20162904340F459
:10133000807008640868406800F4806028B1086C18
:1013400020F4005040F480500864086C00F4805091
:10135000B0F5805F04D1486C20F00600486401E0DD
:101360000020486400BF002081F83C0000BF6FF0FF
:1013700022000A6810601D48006800F01F0058B97C
:101380000868806800F0405048BB0868806840F0FA
:1013900080400A68906022E0154A086890420AD1AD
:1013A0000868806800F0405028B90868806840F0FC
:1013B00080400A6890600D48006800F0100070B925
:1013C0000C4A086890420AD10868806800F04050D2
:1013D00028B90868806840F080400A689060002062
:1013E0007CE700002801002040420F000423014058
:1013F0000020014000220140F8B504460D46164683
:101400000020009000BF94F83C00012801D1022088
:10141000F8BD012084F83C0000BF2068806800F01F
:101420000100A0B92068806840F001002168886050
:10143000474800684749B0FBF1F000EB40000090DE
:1014400002E00098401E009000980028F9D1206822
:10145000806800F00100002878D0206C40F2016123
:10146000884340F4807020642068406800F4806005
:1014700028B1206C20F4005040F480502064206C8F
:1014800000F48050B0F5805F04D1606C20F006005D
:10149000606401E00020606400BF002084F83C002C
:1014A00000BF2D48A16BC8632C48A16B08642C4871
:1014B000A16BC8646FF02200216808602068406852
:1014C00040F08060216848602068806840F4807047
:1014D00021688860226802F14C0133462A46A06BDD
:1014E00000F0CAFA1F48006800F01F0058B92068D1
:1014F000806800F0405028B92068806840F0804043
:101500002168886022E01849206888420AD1206852
:10151000806800F0405028B92068806840F0804022
:10152000216888600F48006800F0100070B90F490A
:10153000206888420AD12068806800F0405028B9AD
:101540002068806840F080402168886000205FE764
:101550002801002040420F00630A0008FB0A00082F
:10156000E10A00080423014000200140002201405C
:1015700070B503460024002500BF5879012801D129
:10158000022070BD0120587100BF02201871186838
:10159000046840F6FE7090408443D1E9000640EABA
:1015A000060505FA02F00443186804601868066826
:1015B000C02090408643186806600120187100BF63
:1015C0000020587100BF00BFDBE710B504460CB91E
:1015D000012010BD207920B900206071204600F064
:1015E00009F80220207100202061012020710020D4
:1015F000EFE7000010B586B00446142101A8FEF7FD
:101600007AFE17492068884227D100BF1548006834
:1016100040F00050134908600846006800F0005090
:10162000009000BF00BF00BF0E481038006840F0B7
:1016300001000C49103908600846006800F00100FC
:10164000009000BF00BF30200190032002900020D6
:10165000039001A9044800F05FFA06B010BD000035
:1016600000740040403802400000024038B5044693
:10167000002000902068009029B902F10800009D28
:101680002844009004E002F11400009D28440090DA
:1016900000980360002038BD30B5024600230024C6
:1016A00000BF5079012801D1022030BD01205071C6
:1016B00000BF022010711068006801258D4028438A
:1016C0001568286091B91068006800F0040310687C
:1016D000006800F03804042B1CD1382C1AD1106893
:1016E000406840F001001568686013E01068006809
:1016F00000F480231068006800F46014B3F5802FB4
:1017000008D1B4F5601F05D11068406840F00200B0
:10171000156868600120107100BF0020507100BF83
:1017200000BFC2E7014691F83500022803D08020AF
:10173000486501207047052081F835000868006879
:1017400020F001000A6810600020F3E7F8B50446B5
:10175000002000908C4800684FF41651B0FBF1F760
:10176000A56D2E6894F85C1008208840304098B130
:101770002068006800F0040070B12068006820F064
:1017800004002168086094F85C1008208840A86074
:10179000606D40F00100606594F85C1001208840A5
:1017A000304068B12068406900F0800040B194F892
:1017B0005C1001208840A860606D40F00200606508
:1017C00094F85C1004208840304068B120680068BC
:1017D00000F0020040B194F85C1004208840A8603A
:1017E000606D40F00400606594F85C101020884043
:1017F000304078B32068006800F0080050B394F8D7
:101800005C1010208840A8602068006800F48020E8
:1018100080B12068006800F4002028B9206CC8B1AD
:101820002046216C884715E0A06C98B12046A16C39
:1018300088470FE02068006800F4807028B92068AD
:10184000006820F0080021680860206C10B1204674
:10185000216C884794F85C10202088403040002894
:1018600065D02068006800F0100000285FD094F870
:101870005C1020208840A86094F83500052828D105
:101880002068006820F01600216808602068406920
:1018900020F0800021684861206C08B9A06C28B154
:1018A0002068006820F008002168086094F85C1047
:1018B0003F208840A86000BF002084F8340000BFAB
:1018C000012084F83500206D10B12046216D884735
:1018D000F8BD2068006800F4802080B120680068AE
:1018E00000F4002028B9606C10B12046616C884774
:1018F0001DE0E06BD8B12046E16B884717E0206817
:10190000006800F4807068B92068006820F010005A
:101910002168086000BF002084F8340000BF012067
:1019200084F83500E06B10B12046E16B8847606DAC
:1019300038B3606D00F00100F0B1052084F8350087
:101940002068006820F001002168086000BF00984E
:10195000401C0090B84200D905E02068006800F003
:1019600001000028F3D100BF00BF002084F834003C
:1019700000BF012084F83500E06C10B12046E16C16
:10198000884700BFA4E70000280100202DE9F041AE
:101990000446002500F0CCF9074614B90120BDE843
:1019A000F081606A00B100BF00BF002084F83400FD
:1019B00000BF022084F835002068006820F0010094
:1019C000216808600AE000F0B3F9C01B052805D9BA
:1019D00020206065032084F83500E0E72068006877
:1019E00000F001000028EED120680568214805407C
:1019F000D4E901010843E1680843216908436169AA
:101A00000843A1690843E1690843216A0843054383
:101A1000606A042803D1D4E90B0108430543206818
:101A200005602068456925F00705606A0543606A1E
:101A300004280DD1A06A0543E06A48B12046FFF7AB
:101A400047F928B140206065012084F83500A6E7F9
:101A5000206845612046FFF721F9064694F85C109E
:101A60003F208840B06000206065012084F8350088
:101A7000002094E73F8010F02DE9F04704460D4622
:101A800016461F464FF00008D4F8589000BF94F84F
:101A90003400012802D10220BDE8F087012084F83B
:101AA000340000BF94F8350001282BD1022084F8BF
:101AB0003500002060653B46324629462046FFF748
:101AC0005CF994F85C103F208840C9F80800206851
:101AD000006840F01600216808602068406940F006
:101AE000800021684861206C28B12068006840F0BF
:101AF0000800216808602068006840F00100216843
:101B0000086006E000BF002084F8340000BF4FF0FA
:101B100002084046C0E70000F8B502460B46002127
:101B200000250024002000BFE4E0012606FA01F5AC
:101B30001E6806EA0504AC4271D15E68022E02D02E
:101B40005E68122E13D1CF0802F1200656F8270046
:101B50004E07F70E0F26BE40B0434F07FF0E1E691B
:101B6000BE403043CF0802F1200646F82700106837
:101B70004F000326BE40B0431E7906F003064F0017
:101B8000BE40304310605E68012E08D05E68022EB1
:101B900005D05E68112E02D05E68122E13D19068B7
:101BA0004F000326BE40B0434F00DE68BE403043C6
:101BB0009060506801268E40B0431E79C6F300162F
:101BC0008E4030435060D0684F000326BE40B04383
:101BD0004F009E68BE403043D0605E6806F080567D
:101BE000B6F1805FA8D100BF444E366846F4804607
:101BF000424F3E603E46366806F48046009600BF7F
:101C000000BF3F4E8F0856F827008E07370F0F266C
:101C1000BE40B0433B4EB24202D100262EE068E007
:101C2000394EB24201D1012628E0384EB24201D1EC
:101C3000022623E0364EB24201D103261EE0354E85
:101C4000B24201D1042619E0334EB24201D1052639
:101C500014E0324EB24201D106260FE0304EB242BD
:101C600001D107260AE02F4EB24201D1082605E035
:101C70002D4EB24201D1092600E00A268F073F0F00
:101C8000BE4030431E4E8F0846F82700274E30686E
:101C9000A0435E6806F48036B6F5803F00D120434D
:101CA000224E3060361D3068A0435E6806F4003670
:101CB000B6F5003F00D120431C4E361D3060361D66
:101CC0003068A0435E6806F48016B6F5801F00D128
:101CD0002043164E08363060361D3068A0435E68DB
:101CE00006F40016B6F5001F00D120430F4E0C3647
:101CF0003060491C1029FFF418AFF8BD4438024089
:101D00000838014000000240000402400008024080
:101D1000000C024000100240001402400018024073
:101D2000001C02400020024000240240003C014010
:101D300001480068704700001C010020034800684B
:101D40000349097808440149086070471C010020D4
:101D50002401002010B5032000F09CF8052000F0BD
:101D600005F800F029F8002010BD000070B5044609
:101D70000E4800784FF47A71B1FBF0F00C49096815
:101D8000B1FBF0F5284601F061F808B1012070BD03
:101D9000102C07D200222146501E00F03DF80548C5
:101DA000046001E00120F2E70020F0E724010020B8
:101DB000280100202001002008B500BF0D48006860
:101DC00040F080500B4908600846006800F08050E1
:101DD000009000BF00BF00BF081D006840F48040B5
:101DE000091D08600846006800F48040009000BFAC
:101DF00000BF08BD4038024001460846002809DB04
:101E000000F01F0301229A4043099B0003F1E023E5
:101E1000C3F8002100BF70472DE9F05F80460D46F2
:101E20001646002702F01AFF074639462A4633466F
:101E300001F00700C0F1070ABAF1040F02D94FF010
:101E4000040A01E0C0F1070AD14600F1040ABAF120
:101E5000070F02D24FF0000A01E0A0F1030AD446B6
:101E60004FF0010A0AFA09FAAAF1010A0AEA020A7B
:101E70000AFA0CFA4FF0010B0BFA0CFBABF1010B59
:101E80000BEA030B4AEA0B042146404602F0EEFE41
:101E9000BDE8F09F00BF00F00702064B19684FF63F
:101EA000FF031940044B0B4343EA0221014B196025
:101EB00000BF70470CED00E00000FA0538B50024C3
:101EC00000BF2048006840F080501E490860084666
:101ED000006800F08050009000BF00BF1A48006802
:101EE00040F4803018490860FFF722FF044607E0FD
:101EF000FFF71EFF001BB0F57A7F01D9032038BD24
:101F00001148406800F48030B0F5803FF0D10E48B1
:101F1000006840F400300C490860FFF709FF0446F0
:101F200007E0FFF705FF001BB0F57A7F01D903201A
:101F3000E5E70548406800F40030B0F5003FF0D117
:101F40000020DCE740380240007000402DE9F843F3
:101F50000446002600250027A846A946207800F060
:101F6000010088B100BFFE48006820F40000FC4971
:101F7000086008460068616B0843F949086000BFC3
:101F8000606B08B94FF00108206800F40020B0F53C
:101F9000002F13D1F2488430006820F44010E16B28
:101FA0000843EF4984310860E06BB0F5801F01D130
:101FB0004FF00108E06B08B94FF00109206800F408
:101FC0008010B0F5801F13D1E5488430006820F4FC
:101FD0004000216C0843E24984310860206CB0F570
:101FE000800F01D14FF00108206C08B94FF00109B2
:101FF000206800F08070B0F1807F01D14FF00108BF
:10200000207800F02000202870D100BFD44838305C
:10201000006840F08050D2493831086008460068B6
:1020200000F08050009000BF00BFCE48006840F430
:102030008070CC490860FFF77BFE064607E0FFF79B
:1020400077FE801B642802D90320BDE8F883C548C9
:10205000006800F480700028F1D0C1486830006842
:1020600000F4407585B3208E00F44070A8422BD058
:10207000BB486830006820F44075B9486830006893
:1020800040F48030B649683108600846006820F4A2
:102090008030086008460560006800F0010098B1D3
:1020A000FFF746FE064608E0FFF742FE801B41F2BE
:1020B0008831884201D90320C7E7A9486830006801
:1020C000C0F340000028EFD000BF208E00F4407025
:1020D000B0F5407F0BD1A248006820F4F810A24A66
:1020E000216B114008439E49086006E010E09C48BF
:1020F000006820F4F8109A49086099486830006830
:10210000218EC1F30B01084395496831086000BF77
:10211000207800F01000102810D100BF90488430C3
:10212000006820F080708E4984310860084600689D
:10213000A16B08438A498431086000BF208800F4FD
:102140008040B0F5804F09D185488830006820F480
:102150004030616E0843824988310860208800F46D
:102160000040B0F5004F09D17D488830006820F468
:102170004020A16E08437A4988310860206800F445
:102180008030B0F5803F09D175488830006820F470
:102190004010E16E0843724988310860206800F4FD
:1021A0000030B0F5003F09D16D488830006820F458
:1021B0004000216F08436A4988310860207800F0A8
:1021C0004000402809D166488830006820F00300AC
:1021D000616C0843624988310860207800F0800013
:1021E000802809D15E488830006820F00C00A16C7E
:1021F00008435B4988310860208800F48070B0F59E
:10220000807F09D156488830006820F03000E16CAA
:102210000843534988310860208800F40070B0F505
:10222000007F09D14E488830006820F0C000216D41
:1022300008434B4988310860208800F48060B0F57D
:10224000806F09D146488830006820F44070616D85
:102250000843434988310860208800F40060B0F5E5
:10226000006F09D13E488830006820F44060A16DBD
:1022700008433B4988310860208800F48050B0F55D
:10228000805F09D136488830006820F44050E16D05
:102290000843334988310860208800F40050B0F5C5
:1022A000005F09D12E488830006820F44040216E3C
:1022B00008432B4988310860206800F48000B0F59D
:1022C000800F09D126488830006820F08060A16F17
:1022D0000843234988310860206800F40010B0F5F5
:1022E000001F0FD11E488830006820F00060E16FA9
:1022F00008431B4988310860E06FB0F1006F01D1DD
:102300004FF00109207800F00800082801D14FF0B3
:102310000109206800F48020B0F5802F09D1104811
:102320008830006820F04070616F08430C498831A4
:102330000860206800F40000B0F5000F0AD10848DA
:102340008830006820F08050D4F880100843044999
:1023500088310860B8F1010F0BD0206806E000005A
:102360000838024000700040FFFCFF0FB0F1007F12
:102370007DD1AD48006820F08060AB490860FFF770
:10238000D7FC064606E0FFF7D3FC801B642801D982
:1023900003205AE6A4480068C0F3C0600028F2D1C8
:1023A000207800F00100B8B1606BA8B99E48843075
:1023B0000068C0F301459C4884300068C0F303679F
:1023C0006068800140EA054040EA0761207A41EAFE
:1023D0000070954984310860206800F40020B0F551
:1023E000002F03D1E06BB0F5801F09D0206800F406
:1023F0008010B0F5801F24D1206CB0F5800F20D163
:10240000894884300068C0F30145874884300068FB
:10241000C0F302776068800140EA0541207B41EA11
:10242000006040EA07708049843108607E488C3043
:10243000006820F01F00616A491E08437A498C3108
:102440000860206800F08070B0F1807F17D1764876
:1024500084300068C0F30365734884300068C0F3BB
:10246000027760688101208A41EA004000E031E0A3
:1024700040EA056040EA07706B49843108602068D3
:1024800000F00070B0F1007F0DD160688101208AFA
:1024900041EA0041207B41EA0061207A41EA007074
:1024A0006149843108606048006840F080605E499E
:1024B0000860FFF73DFC064606E0FFF739FC801B8D
:1024C000642801D90320C0E557480068C0F3C06004
:1024D0000028F2D0B9F1010F7ED15348006820F0F6
:1024E000805051490860FFF723FC064606E0FFF7DD
:1024F0001FFC801B642801D90320A6E54A48006818
:10250000C0F340700028F2D1206800F40020B0F53C
:10251000002F01D1E06B38B1206800F48010B0F5D5
:10252000801F22D1206C00BB3F4888300068C0F378
:1025300001453D4888300068C0F30277606980013A
:1025400040EA0541207E41EA006040EA07703649D2
:1025500088310860081D006820F4F851A06A401E08
:1025600041EA002030498C310860206800F40010F6
:10257000B0F5001F19D1E06FB0F1006F15D12A48F6
:1025800088300068C0F30365274888300068C0F3CE
:10259000027760698101208C41EA004040EA0560D1
:1025A00040EA0770204988310860207800F0080070
:1025B000082820D11C4888300068C0F303651A48F9
:1025C00088300068C0F301476069800140EA074035
:1025D00040EA0561207F00E024E041EA00701249F2
:1025E00088310860081D006820F44030E16A084323
:1025F0000D498C3108600C48006840F080500A4951
:102600000860FFF795FB064606E0FFF791FB801B8D
:10261000642801D9032018E503480068C0F340701E
:102620000028F2D0002010E50038024070B50446C2
:102630000D4600260CB9012070BD5C48006800F012
:102640000F00A8420ED25948006820F00F0028431E
:10265000564908600846006800F00F00A84201D003
:102660000120E9E7207800F0020002281DD120783F
:1026700000F00400042805D14D48006840F4E05003
:102680004B490860207800F00800082805D1484828
:10269000006840F46040464908604548006820F002
:1026A000F000A168084342490860207800F001006A
:1026B00090B36068012807D13D4808380068C0F32E
:1026C0004040A0B90120B7E76068022807D1384828
:1026D00008380068C0F3406048B90120ACE73448CE
:1026E00008380068C0F3400008B90120A4E730486A
:1026F000006820F00300616808432D490860FFF777
:1027000017FB064609E0FFF713FB801B41F28831F7
:10271000884202D903208FE707E02548006800F0CF
:102720000C006168B0EB810FEDD12048006800F02B
:102730000F00A8420ED91D48006820F00F00284362
:102740001A4908600846006800F00F00A84201D04E
:10275000012071E7207800F00400042807D1144814
:10276000006820F4E050E1680843114908602078CF
:1027700000F00800082808D10D48006820F46040E7
:10278000216940EAC1000A49086000F03DF80849A3
:102790000968C1F30311074A515CC8400649086043
:1027A0000520FFF7E3FA002046E70000003C024066
:1027B00008380240541D0108280100200148006823
:1027C000704700002801002000B5FFF7F7FF04491B
:1027D0000968C1F38221034A515CC84000BD000072
:1027E00008380240641D010800B5FFF7E7FF0449FF
:1027F0000968C1F34231034A515CC84000BD000082
:1028000008380240641D01082DE9F0470024002526
:102810000026A1462548006800F00C0020B10428DD
:1028200005D008283AD105E0DFF8849039E0DFF8D8
:10283000849036E01D48001F006800F03F041B48EC
:10284000001F006800F4800078B11A481749091F7A
:102850000968C1F38811A0FB0170014622460023DC
:102860003846FDF7CDFC05460EE011480F49091F1B
:102870000968C1F38811A0FB0170014622460023BC
:102880003846FDF7BDFC05460848001F0068C0F348
:102890000140401C4600B5FBF6F902E0DFF810905D
:1028A00000BF00BF4846BDE8F0870000083802407E
:1028B0000024F40000127A00F8B5044600260CB992
:1028C0000120F8BD207800F00100002871D0F84800
:1028D000006800F00C0004280DD0F548006800F0F6
:1028E0000C00082813D1F248001F006800F4800093
:1028F000B0F5800F0BD1EE4808380068C0F34040B7
:10290000002869D06068002866D10120D9E700BF9F
:102910006068B0F5803F08D1E5480838006840F4A9
:102920008030E349083908602EE0606868B9E04803
:102930000838006820F48030DD490839086008460E
:10294000006820F4802008601EE06068B0F5A02FC9
:102950000DD1D7480838006840F48020D4490839A0
:1029600008600846006840F4803008600CE0D048F9
:102970000838006820F48030CD49083908600846DE
:10298000006820F48020086000BF606890B1FFF705
:10299000CFF9054606E0FFF7CBF9401B642801D9C3
:1029A00003208EE7C24808380068C0F34040002882
:1029B000F1D011E0FFF7BCF9054606E0FFF7B8F9E2
:1029C000401B642801D903207BE7B9480838006818
:1029D000C0F340400028F1D1207800F00200022826
:1029E00069D1B348006800F00C0058B1B0480068E5
:1029F00000F00C0008281CD1AD48001F006800F44E
:102A00008000B0B9AA4808380068C0F3400020B17F
:102A1000E068012801D0012053E7A5480838006884
:102A200020F0F800216940EAC100A1490839086096
:102A300041E0E06828B39E480838006840F0010093
:102A40009B4908390860FFF773F9054606E0FFF770
:102A50006FF9401B022801D9032032E79448083857
:102A60000068C0F340000028F1D0914808380068A1
:102A700020F0F800216940EAC1008D49083908605A
:102A800019E08B480838006820F0010088490839AF
:102A90000860FFF74DF9054606E0FFF749F9401BCE
:102AA000022801D903200CE7814808380068C0F3E8
:102AB00040000028F1D1207800F00800082836D125
:102AC0006069D0B17A486C30006840F00100784904
:102AD0006C310860FFF72CF9054606E0FFF728F98E
:102AE000401B022801D90320EBE671486C300068D6
:102AF000C0F340000028F1D019E06D486C30006848
:102B000020F001006A496C310860FFF711F90546B1
:102B100006E0FFF70DF9401B022801D90320D0E69B
:102B200063486C300068C0F340000028F1D1207881
:102B300000F00400042874D15D483830006800F0CB
:102B4000805080B900BF5A483830006840F080504B
:102B50005749383108600846006800F080500090FE
:102B600000BF00BF01265348006800F48070B0B970
:102B70005048006840F480704E490860FFF7D8F86C
:102B8000054606E0FFF7D4F8401B642801D903206E
:102B900097E64848006800F480700028F2D000BF33
:102BA000A068012808D142486830006840F0010060
:102BB0003F49683108602DE0A06868B93C4868303A
:102BC000006820F001003A49683108600846006852
:102BD00020F0040008601DE0A06805280DD13448ED
:102BE0006830006840F004003149683108600846E8
:102BF000006840F0010008600CE02D486830006873
:102C000020F001002A49683108600846006820F079
:102C10000400086000BFA068A8B1FFF789F8054666
:102C200009E02EE0FFF784F8401B41F2883188422A
:102C300001D9032045E61E4868300068C0F3400013
:102C40000028EFD013E0FFF773F8054608E0FFF720
:102C50006FF8401B41F28831884201D9032030E6E9
:102C6000134868300068C0F340000028EFD1012EFF
:102C700007D10F483830006820F080500C493831B7
:102C80000860A069E8B30A48006800F00C00082852
:102C900066D0A06902284BD105480838006820F0AA
:102CA0008070034908390860FFF742F805460AE0DA
:102CB0000838024000700040FFF73AF8401B022835
:102CC00001D90320FDE528480068C0F340600028D2
:102CD000F2D1E06940F00050216A0843616A40EA9D
:102CE00081110122A06AC2EB500041EA00412C2070
:102CF000005D41EA00601C49091D0860081F00686A
:102D000000E02FE040F08070091F0860FFF710F826
:102D1000054606E0FFF70CF8401B022801D9032006
:102D2000CFE511480068C0F340600028F2D019E0F8
:102D30000D48006820F080700B490860FEF7F8FF2E
:102D4000054606E0FEF7F4FF401B022801D90320E8
:102D5000B7E505480068C0F340600028F2D101E003
:102D60000120AEE50020ACE5003802402DE9F0413D
:102D700004460E46002700BF2079012802D1022018
:102D8000BDE8F0810120207100BF6079012822D1C7
:102D900002206071FEF7CCFF05460EE0FEF7C8FF8B
:102DA000401B022809D9012060710220A06000BFE9
:102DB0000020207100BF0120E2E72068406800F099
:102DC00001000028EAD020688068E060E068306098
:102DD0000120607102E00420A060012700BF0020F4
:102DE000207100BF3846CBE710B504460CB901206E
:102DF00010BD607920B900202071204600F00EF847
:102E0000022060712068006840F0040021680860BA
:102E1000012060710020A06000BFE9E708B5094A01
:102E2000016891420DD100BF0749096841F0400196
:102E3000054A11601146096801F04001009100BF88
:102E400000BF08BD000806503438024070B5044683
:102E50002546681EB0F1807F01D301200FE0681E77
:102E60004FF0E02148610F214FF0FF3001F0FEFEEE
:102E700000204FF0E021886107200861002070BD2C
:102E8000704770477047000030B502460B4600BFE0
:102E900092F83C00012801D1022030BD012082F8C7
:102EA0003C0000BF022082F83D00106841681068B5
:102EB0008468114D1068A84203D0104D1068A842D4
:102EC00003D121F470015868014321F070011868A2
:102ED000014324F08004986804431068416010683E
:102EE0008460012082F83D0000BF002082F83C0091
:102EF00000BF00BFD1E70000000001400004014016
:102F000010B504460CB9012010BD94F83D0028B955
:102F1000002084F83C00204600F00CF8022084F8E1
:102F20003D00211D206801F0AFFA012084F83D002A
:102F30000020E9E738B504462068B0F1804F16D18B
:102F400000BF1448006840F00100124908600846BC
:102F5000006800F00100009000BF00BF00220121C6
:102F60001C20FEF759FF1C20FEF746FF11E00A491E
:102F7000206888420DD100BF0648006840F0080074
:102F8000044908600846006800F00800009000BF8F
:102F900000BF38BD40380240000C004001460868C0
:102FA000C06840F001000B68D86008688068084B72
:102FB00000EA0302062A08D0B2F5803F05D008686F
:102FC000006840F001000B681860002070470000A6
:102FD000070001002DE9F04104460D4600BF94F8BA
:102FE0003C00012802D10220BDE8F081012084F8D4
:102FF0003C0000BF022084F83D0020688668374806
:10300000064026F47F46206886602868502833D022
:103010000CDC202850D004DC00284BD0102851D1E3
:1030200049E0302849D040284CD139E060282DD0E3
:10303000702807D0B0F5805F03D0B0F5005F41D1B4
:103040000DE040E0D5E902136A68206801F088FAD3
:103050002068866846F077062068866033E0D5E908
:1030600002136A68206801F07BFA2068806840F4E7
:1030700080402168886026E0EA686968206801F07D
:1030800083FA5021206801F076FA1CE0EA6869684A
:10309000206801F08CFA6021206801F06CFA12E0DF
:1030A000EA686968206801F06FFA4021206801F041
:1030B00062FA08E000BF00BF00BF2968206801F085
:1030C0005AFA00E000BF00BF012084F83D0000BFB5
:1030D000002084F83C0000BF00BF85E788FFFEFFAA
:1030E000704710B5044620680069C0F34000D8B1AD
:1030F0002068C068C0F34000B0B16FF002002168E2
:103100000861012020772068806900F0030018B171
:103110002046FFF7E5FF05E0204600F0BEF8204618
:1031200000F0BCF80020207720680069C0F3800020
:10313000D8B12068C068C0F38000B0B16FF004005F
:1031400021680861022020772068806900F44070BF
:1031500018B12046FFF7C4FF05E0204600F09DF8B7
:10316000204600F09BF80020207720680069C0F31B
:10317000C000D8B12068C068C0F3C000B0B16FF023
:10318000080021680861042020772068C06900F0E9
:10319000030018B12046FFF7A3FF05E0204600F02A
:1031A0007CF8204600F07AF800202077206800693B
:1031B000C0F30010D8B12068C068C0F30010B0B1EF
:1031C0006FF0100021680861082020772068C0692E
:1031D00000F4407018B12046FFF782FF05E020465A
:1031E00000F05BF8204600F059F8002020772068B6
:1031F000006900F0010058B12068C06800F00100CB
:1032000030B16FF0010021680861204600F047F8F6
:1032100020680069C0F3C01058B12068C068C0F3CE
:10322000C01030B16FF08000216808612046FFF7C0
:1032300028FE20680069C0F3002058B12068C068EB
:10324000C0F3C01030B16FF480702168086120466F
:10325000FFF716FE20680069C0F3801058B120689F
:10326000C068C0F3801030B16FF040002168086181
:10327000204600F01DF820680069C0F3401058B1E6
:103280002068C068C0F3401030B16FF020002168A2
:1032900008612046FFF7F6FD10BD7047704710B576
:1032A00004462068B0F1804F01D10DF087FB10BDBE
:1032B0007047704701464B6F8A6F43EA02007047C0
:1032C0002DE9F04704462068C56920680668206833
:1032D000876805F00F08B8F1000F0CD105F0200049
:1032E00048B106F0200030B1206E10B12046216EAA
:1032F0008847BDE8F087B8F1000F71D007F00100F2
:1033000018B906F49070002879D005F0010048B192
:1033100006F4807030B1012021680862E06F40F04F
:103320000100E06705F0020048B107F0010030B18C
:10333000022021680862E06F40F00400E06705F0B9
:10334000040048B107F0010030B104202168086290
:10335000E06F40F00200E06705F0080060B106F0A1
:10336000200010B907F0010030B108202168086280
:10337000E06F40F00800E067E06F80B305F02000E8
:1033800038B106F0200020B1206E10B12046216E29
:103390008847D4F87C902068806800F0400040287E
:1033A00002D009F0080020B3204601F0C0F92068DF
:1033B000806800F04000402817D12068806820F025
:1033C000400021688860E06E58B11948E16E0865D8
:1033D000E06EFEF7A7F910B1E06E016D88470DE0D1
:1033E0000DE02046FFF765FF08E02046FFF761FF8C
:1033F00004E02046FFF75DFF0020E06779E705F075
:10340000800040B106F0800028B1606E10B1204607
:10341000616E88476DE705F0400030B106F040006E
:1034200018B1204601F094F963E700BF61E700009E
:103430001747000810B504460CB9012010BDA0695B
:1034400000B100E000BF606F28B9002084F8700070
:10345000204600F029F8242060672068006820F0EA
:10346000010021680860204601F082F9012800D19E
:10347000E4E7606A10B1204601F0ADF820684068CA
:1034800020F49040216848602068806820F02A007D
:10349000216888602068006840F0010021680860A9
:1034A000204601F014F9C9E710B586B0044614218E
:1034B00001A8FCF720FF1D492068884234D100BFD5
:1034C0001B48006840F01000194908600846006871
:1034D00000F01000009000BF00BF00BF1448143877
:1034E000006840F00100124914390860084600687D
:1034F00000F00100009000BF00BF4FF4C0600190D9
:1035000002200290002003900320049007200590E1
:1035100001A90848FEF700FB002211462520FEF70E
:103520007BFC2520FEF768FC06B010BD00100140B2
:10353000443802400000024010B50346586F20286E
:1035400030D101B10AB9012010BD00BF93F870005D
:10355000012801D10220F7E7012083F8700000BFA5
:10356000D964A3F85020A3F8522000205866D867E9
:10357000212058679868B0F5805F04D1186910B9A8
:103580000948586601E00948586600BF002083F8E2
:10359000700000BF1868006840F080001C68206060
:1035A0000020D1E70220CFE7154B0008594B000857
:1035B000704700BFFEE72DE9FE4F064689461446D8
:1035C0009A46DDE90CB5CDF800B04B462A46D4E961
:1035D000047138460CF045FA206ACDE901A5009047
:1035E000D4E904713846D4E9062300F011FDCDF882
:1035F00000B02B463246D4E9047138460CF04EFA3E
:10360000BDE8FE8F2DE9F04F8FB083468A46904685
:103610009946DAE91512DAF85C00CDE9012100904B
:103620000BF110000FC8CDE90C0100F025FA04469B
:103630000D4600210846611A75EB000004DA2046A9
:1036400029460FB0BDE8F08F0821A4FB010201F06C
:10365000CBFBDAF82010C8610421A4FB010201F0C1
:10366000C3FBDAF820100862DAE91713DAF85420FD
:10367000DAF86400CDE90723CDE90910DAE9083169
:10368000DAF85020DAF858001B6ACDE90332CDE9A8
:103690000510DAF82000D0E90601DBF82020CDE99A
:1036A000002002910BF110000FC8CDE90C0100F0D1
:1036B0009BFA06460F460023F01A77EB030102DA65
:1036C00030463946BDE7B6EB080077EB090003DA70
:1036D0006FF001004110B4E700200146B1E700009F
:1036E0001FB5002000900190029003901C481D49D6
:1036F00008604FF48030486000211A488160012141
:1037000001618161002180F82010C1621649816247
:103710000021C1600221C161012180F830104161A6
:10372000FDF736FD08B1FDF73FFB002000900120BA
:1037300001900620029069460A48FDF737FB08B160
:10374000FDF732FB01200090022001900020029042
:1037500069460448FDF72AFB08B1FDF725FB1FBDAC
:1037600000220140B80100200100000F1CB500201C
:10377000009001900E480F4908600846FDF725FFAC
:1037800008B1FDF711FB002000900190002269466E
:103790000848FDF7EDFE08B1FDF706FB102269466B
:1037A0000448FDF7E5FE08B1FDF7FEFA1CBD000078
:1037B000007400406002002008B500BF0A4800689D
:1037C00040F48000084908600846006800F4800062
:1037D000009000BF00BF002204213820FEF71CFB30
:1037E0003820FEF709FB08BD3038024008B500BF9D
:1037F0000D48006840F080000B49086008460068EA
:1038000000F08000009000BF00BF00BF08460068C5
:1038100040F0010008600846006800F001000090D8
:1038200000BF00BF08BD00003038024010B5054899
:10383000054908600846FFF7D7FA08B1FDF7B4FA62
:1038400010BD0000000806507402002000B587B0CB
:103850000020039004900590069000900190029043
:103860004FF080401449086040F2E7304860002182
:103870001148816042F63021C160002101618161FF
:10388000FFF73EFB08B1FDF78FFA4FF4805003902D
:1038900003A90948FFF79EFB08B1FDF785FA002050
:1038A0000090029069460448FFF7EEFA08B1FDF770
:1038B0007BFA07B000BD00008402002000B587B08D
:1038C00000200390049005900690009001900290D3
:1038D00013481449086000204860002111488160A5
:1038E000491EC160002101618161FFF709FB08B138
:1038F000FDF75AFA4FF48050039003A90948FFF7E7
:1039000069FB08B1FDF750FA00200090029069466B
:103910000448FFF7B9FA08B1FDF746FA07B000BD51
:10392000000C0040C402002010B50D480D4908608D
:103930004FF4E130486000210A488160C1600161B4
:103940000821416100218161C161016200200549B6
:1039500048620846FFF76EFD08B1FDF725FA10BD75
:10396000001001400403002000BFFEE770477047CD
:103970002DE9F04F04460D4617469C46DDE90986C1
:103980004FF0000A524653462DE007EBC209D9E931
:10399000000118E05CF8309006EB890999ED000A07
:1039A00008EB8009D9ED000A06EB820999ED001AAF
:1039B00000EEC10A5CF8309006EB890989ED000A37
:1039C000401C41F100014FF0010912EB090907EB1E
:1039D000C90ADAE9009AB0EB090971EB0A09D9DBE7
:1039E000521C43F10003B2EB040973EB0509CCDB75
:1039F000BDE8F08F2DE9F04F04460D4617469C4672
:103A0000DDE90986601E65F100012BE007EBC009C6
:103A1000D9E9002316E006EB800999ED000A08EBCE
:103A20008209D9ED000A5CF8329006EB890999ED1C
:103A3000001A00EEC10A06EB800989ED000A521C4B
:103A400043F100034FF0010910EB090907EBC90A24
:103A5000DAE9009AB2EB090973EB0A09DBDB401ED5
:103A600061F100014FF0000AD146B0EB0A0A71EB98
:103A70000909CBDABDE8F08F2DE9FF5F82B08046FF
:103A800089469246DDF840C0002000900190002158
:103A90000A460B4630E000210CEBC20BCBF80010BD
:103AA000CBF804108B46119800EBC200C0F800B0B0
:103AB000C0F804B04FF0FF3B129800EBC200C0F812
:103AC00000B0C0F804B00AEBC20103C94FF0010B0B
:103AD00012EB0B0B0AEBCB0EDEE900BE80EA0B000B
:103AE00081EA0E01084304D1401E014606B0BDE83C
:103AF000F09F521C43F10003B2EB080073EB090086
:103B0000C9DB002425464FE00CEBC40030C00AEBB3
:103B1000C400C0C83DE0059800EBC6000CC8A01A60
:103B200075EB030003DA4FF0FF300146DEE726E0D5
:103B3000129800EBC200D0E900104FF0FF3E81EA7E
:103B40000E0180EA0E00014303D1129800EBC2007F
:103B500030C0119800EBC200D0E900B04FF0010E68
:103B60001BEB0E0B40F10000119901EBC201C1E902
:103B700000B00CEBC20030C0129850F832200CEBB1
:103B8000C20103C9604069400843D1D1761C47F1A6
:103B90000007601C0AEBC00103C9301A77EB010073
:103BA000B9DB641C45F10005B4EB080075EB0900B6
:103BB000AADB002213460EE0119800EBC200D0E908
:103BC000001BDDE9000E08184BEB0E0BCDE9000BD6
:103BD000521C43F10003B2EB080073EB0900EBDB6E
:103BE000DDE9000182E700002DE9FF5F2DED048B88
:103BF00094B0DDF8A8A00020009001902E990391C8
:103C00002F99079118992F9800EBC1000690022177
:103C10001898A0FB01102F9800EBC1000590309878
:103C200004900020279A10605060044605462DE05D
:103C3000279800EBC40006C82C9800EBC400D0E91C
:103C4000003CC91842EB0C00621C279B03EBC2022C
:103C5000C2E900104FF00001039801559FEDE90AF9
:103C6000049800EB840080ED000A9FEDE60A0AEB61
:103C7000840080ED000A279800EBC40006C8059870
:103C800000EBC40006C0641C45F10005DDE9180125
:103C9000201A75EB0100CBDB269890ED000A8AED27
:103CA000000A9AED000A10EE101A0846FCF706FD0D
:103CB00041EC190B9FEDD40B53EC102BFCF712FDCC
:103CC00008D14FF0FF30014614B0BDEC048B04B0B6
:103CD000BDE8F09F9AED000A10EE101A0846FCF7B6
:103CE000EDFC41EC190B9FEDC80B53EC102BFCF7CE
:103CF00011FD06D2DDE90001401C41F10002CDE9D1
:103D000000029AED000AF7EE000A80EE801A2B9866
:103D100080ED001A0126002769E100201090119023
:103D2000701C1A9901EBC00103C9CDE908011A986A
:103D300000EBC60030C889E01B9800EBC40103C942
:103D4000CDE90E01DDE90E0170407940084309D14B
:103D5000269800EB840090ED000A0AEB860080EDC7
:103D6000000A70E0269800EB840090ED000ADDF870
:103D70003880049901EB880080ED000ADDE90E89A6
:103D8000039810F8080000285CD10121039800F87E
:103D900008100698C0E9008901200021CDE90A0138
:103DA0002D990E9801EBC001D1E900891BE0039821
:103DB00010F80800012800D122E00121039800F842
:103DC000081006990A9801EBC001C1E90089DDE9F4
:103DD0000A01401C41F10002CDE90A022D9800EBD6
:103DE000C801D1E900894FF0FF3188EA010089EA72
:103DF0000101084304D0B8EB060079EB0700D6DBDD
:103E000000BF18E0DDE90A01401E61F10002CDE9C2
:103E10000A02069901EBC0000CC84FF0010BDDE966
:103E2000100110EB0B0B41F1000CCDE910BC079910
:103E300001EBC0000CC00023DDE90A0158405940E5
:103E40000843DFD100BF641C45F10005DDE908012E
:103E5000201A75EB0100FFF66FAFDDE910104C1E64
:103E600060F1000581E0079850F834000C90059A45
:103E70000C9802EBC00103C9CDE9080104990C9824
:103E800001EB800090ED008A27990C9801EBC001AE
:103E900003C9CDE9120120E02899129851F83000A9
:103EA000049901EB800090ED000A2999129801EB2A
:103EB0008000D0ED000A00EEC80A2899129851F847
:103EC0003000049901EB800080ED000ADDE9120169
:103ED000401C41F10002CDE91202DDE91230DDE9BA
:103EE0000812591A9041D7DB2899089801EBC000B5
:103EF000C0C02B990C9801EB800090ED000A20EED9
:103F0000080A2999089801EB800080ED000A0AEB65
:103F1000860090ED000A2999089801EB8000D0ED09
:103F2000000A08EE600A0AEB860080ED000A059997
:103F30000C9801EBC000D0E90020521C40F10000B9
:103F40000B460C9903EBC101C1E900209FED2D0A3E
:103F500004990C9801EB800080ED000A002203997F
:103F60000C980A54641E65F1000500210846611A88
:103F700075EB0000BFF677AF0AEB860090ED000A04
:103F800010EE101A0846FCF799FB9FED1F0B53EC3F
:103F9000102BFCF7A7FB03D14FF0FF30014693E64F
:103FA0000AEB860090ED000A10EE101A0846FCF7A6
:103FB00085FB9FED150B53EC102BFCF7ABFB06D2EA
:103FC000DDE900305A1C40F10000CDE900200AEB89
:103FD000860090ED000AF7EE000A80EE801A2B981A
:103FE00000EB860080ED001A761C47F10007DDE942
:103FF0001801301A77EB0100FFF68FAEDDE9000102
:1040000062E6000000000000000000000000000068
:104010002DE9FF5F82B006460F469246DDE9109B10
:10402000DDF84880CDE90098524630463946059B78
:10403000FFF79EFC00210C460D4610E008EB8400C3
:1040400090ED000A0BEB8400D0ED000A20EE200A70
:1040500008EB840080ED000A641C45F10005A01BFC
:1040600075EB0700EADBCDE9009852463046394649
:10407000059BFFF7BFFC06B0BDE8F09F704700004E
:1040800070B52DED0E8BB0EE40AAF0EE60AAB0EE4A
:10409000419AF0EE619A04460D4619EE900AFCF73B
:1040A0000DFB41EC1C0BB0EE4C0AF0EE6C0A00F07C
:1040B0002BFEB0EE40BAF0EE60BA19EE100AFCF733
:1040C000FDFA41EC1C0BB0EE4C0AF0EE6C0A00F06D
:1040D0001BFEB0EE40EAF0EE60EA53EC1B2B51EC15
:1040E0001E0BFCF717FB12D889EE898AF0EE498A7D
:1040F00048EE298AB0EE4A0A0AEE880A80EE28DAEB
:10410000B0EE6A0A0AEE480AC0EE28DA11E089EE3B
:10411000298AF0EE698A48EE098AB0EE6A0A0AEE48
:10412000080A80EE28DAB0EE4A0A1AEE880AC0EED3
:1041300028DA84ED00DAC5ED00DA18EE900AFCF713
:10414000BDFA41EC1B0B9FED060B53EC102BFCF75B
:10415000C9FA03D10120BDEC0E8B70BD0020FAE737
:10416000000000000000000010B504461CB1034828
:10417000816820468847002010BD00002C010020E7
:1041800010B52DED0E8BB0EE408AF0EE608A18EE81
:10419000100AFCF793FA41EC1B0BB0EE4B0AF0EE61
:1041A0006B0A00F0B1FDB0EE40AAF0EE60AA51EC4F
:1041B0001A0BFCF7C7FA08EE100A18EE900AFCF783
:1041C0007DFA41EC1B0BB0EE4B0AF0EE6B0A00F0EF
:1041D0009BFDB0EE40AAF0EE60AA51EC1A0BFCF782
:1041E000B1FA08EE900AB4EEE88AF1EE10FA37DB85
:1041F00038EE280AB4EE480AF1EE10FA02D1B0EE19
:10420000489A64E0C8EE889A29EEA90A10EE101ABE
:104210000846FCF753FA41EC1E0B9FED2F0B53ECB5
:10422000102BFCF788F841EC1D0BB0EE4D0AF0EEB8
:104230006D0A00F073FDB0EE40BAF0EE60BA18EE11
:10424000100AFCF73BFA41EC1C0B53EC1B2BFCF760
:1042500019F941EC1A0BFCF775FA09EE100A36E071
:1042600038EE880AB4EE680AF1EE10FA02D1B0EE28
:10427000689A2CE0C8EE289A29EEA90A10EE101AC6
:104280000846FCF71BFA41EC1D0B9FED130B53EC9A
:10429000102BFCF750F841EC1C0BB0EE4C0AF0EE82
:1042A0006C0A00F03BFDB0EE40AAF0EE60AA18EEFA
:1042B000900AFCF703FA41EC1B0B53EC1A2BFCF7AA
:1042C000E1F841EC1E0BFCF73DFA09EE100AB0EEE6
:1042D000490ABDEC0E8B10BD000000000000F03F4D
:1042E0002DE9F04104460D4604B9012405B9012524
:1042F00004FB05F600EE104AF8EE400A00EE105AF4
:10430000B8EE400A60EE800A00EE106AB8EE400A8D
:10431000F4EE400AF1EE10FA01D0002704E0044860
:1043200001683046884707463846BDE8F0810000FE
:104330002C01002010B5FDF701FD10BD00B5B3B094
:10434000302127A8FBF7D7FF142122A8FBF7D3FFC2
:10435000842101A8FBF7CFFF00BF2B48006840F085
:104360008050294908600846006800F0805000909D
:1043700000BF00BF00BF2548006840F4404023490B
:1043800008600846006800F44040009000BF00BF8D
:10439000012027900004289002202D90410527A895
:1043A000C16104210162D821416202218162092197
:1043B000C162FEF781FA08B1FCF7F6FCFDF77EFD5D
:1043C00008B1FCF7F1FC0F2022900220239000207E
:1043D00024904FF4A05025904FF480502690072150
:1043E00022A8FEF723F908B1FCF7DEFC084801908B
:1043F00000201290209001A8FDF7A8FD08B1FCF75D
:10440000D3FC33B000BD00004038024000700040D3
:10441000400020001448006840F470001249086011
:104420001248006840F001001049086000200F4960
:10443000083108600D4800680D4908400B490860C4
:104440000C48091D0860081F006820F48020091F1F
:104450000860002005490C3108604FF000600249F7
:10446000803908607047000088ED00E000380240A5
:10447000FFFFF6FE1030002410B50248FEF731FEB3
:1044800010BD00008402002010B50268294B98423C
:104490000ED0B0F1804F0BD0274B984208D0274B5D
:1044A000984205D0264B984202D0264B984203D121
:1044B00022F070024B681A431E4B984220D0B0F194
:1044C000804F1DD01C4B98421AD01C4B984217D0DD
:1044D0001B4B984214D01B4B984211D01A4B984258
:1044E0000ED01A4B98420BD0194B984208D0194B5A
:1044F000984205D0184B984202D0184B984203D1ED
:1045000022F44072CB681A4322F080034C6943EADC
:10451000040202608B68C3620B688362054B984299
:1045200002D0084B984201D10B6903630123436118
:1045300010BD0000000001400004004000080040E1
:10454000000C0040000401400040014000440140D4
:104550000048014000180040001C004000200040BE
:1045600030B50C46816821F47F4142EA032525439A
:104570002943816030BD0A46816821F0700142F014
:10458000070319438160704730B50B461446026A31
:10459000056A25F001050562816921F0F00141EA13
:1045A000041122F00A021A438161026230BD30B563
:1045B0000B461446056A25F0100505628169026AFA
:1045C00021F4704141EA043122F0A00242EA0312D0
:1045D0008161026230BD90F8241001F0010139B10F
:1045E0000168496821F40031826A11430268516010
:1045F00090F8241001F00201022907D101684968EE
:1046000021F48031C26A11430268516090F824108D
:1046100001F00401042907D10168496821F48021CF
:10462000026B11430268516090F8241001F00801F8
:10463000082907D10168496821F40041426B114300
:104640000268516090F8241001F01001102907D180
:104650000168896821F48051826B1143026891607E
:1046600090F8241001F02001202907D10168896801
:1046700021F40051C26B11430268916090F824103C
:1046800001F04001402913D10168496821F48011EB
:10469000026C114302685160016CB1F5801F07D1B3
:1046A0000168496821F4C001426C114302685160FD
:1046B00090F8241001F08001802907D10168496831
:1046C00021F40021826C114302685160704738B5B3
:1046D00004460020E067FDF72BFB054620680068D4
:1046E00000F0080008280CD16FF07E402B46002215
:1046F0004FF400110090204600F04EFA08B103205C
:1047000038BD20206067A06700BF002084F87000DB
:1047100000BF00BFF4E770B50546AC6B0020A4F8FD
:104720005A00A4F852002046FEF7C3FD70BD016890
:10473000096821F49071026811600168896821F0AC
:1047400001010268916020218167002101667047A4
:1047500010B504462068006820F040002168086019
:1047600020206067002060662046FEF721FF10BD14
:104770002DE9F04704460026B1462169A0680843A8
:1047800061690843E16940EA010720680068D5498A
:1047900008403843216808602068406820F4405091
:1047A000E168084321684860A769206A07432068D8
:1047B000806820F4306038432168886000BFCA49AF
:1047C0002068884216D1C948006800F0030030B163
:1047D000012808D0022804D0032808D105E00125CB
:1047E00007E0022505E0042503E0082501E0102587
:1047F00000BFC9E0BE492068884216D1BB480068A6
:1048000000F00C0030B1042808D0082804D00C288F
:1048100008D105E0002507E0022505E0042503E0B6
:10482000082501E0102500BFAEE0B24920688842AB
:1048300016D1AE48006800F0300030B1102808D022
:10484000202804D0302808D105E0002507E0022503
:1048500005E0042503E0082501E0102500BF93E0F2
:10486000A5492068884216D1A048006800F0C00021
:1048700030B1402808D0802804D0C02808D105E0F5
:10488000002507E0022505E0042503E0082501E0F6
:10489000102500BF78E099492068884219D19348D3
:1048A000006800F4407048B1B0F5807F0AD0B0F5E0
:1048B000007F05D0B0F5407F08D105E0002507E076
:1048C000022505E0042503E0082501E0102500BFCE
:1048D0005AE08B492068884219D18448006800F466
:1048E000406048B1B0F5806F0AD0B0F5006F05D0D8
:1048F000B0F5406F08D105E0012507E0022505E08D
:10490000042503E0082501E0102500BF3CE07D49B7
:104910002068884219D17548006800F4405048B1B9
:10492000B0F5805F0AD0B0F5005F05D0B0F5405F0C
:1049300008D105E0002507E0022505E0042503E095
:10494000082501E0102500BF1EE06F49206888425D
:1049500019D16648006800F4404048B1B0F5804F76
:104960000AD0B0F5004F05D0B0F5404F08D105E0B2
:10497000002507E0022505E0042503E0082501E005
:10498000102500BF00E0102500BFE069B0F5004F22
:1049900057D1042D28D005DC4DB1012D11D0022DA9
:1049A00036D118E0082D29D0102D31D131E0FDF796
:1049B0000BFF4000616800EB5100B0FBF1F086B2E4
:1049C0002AE0FDF711FF4000616800EB5100B0FBE9
:1049D000F1F086B220E04D49606801EB500061685B
:1049E000B0FBF1F086B217E0FDF70EFF4000616802
:1049F00000EB5100B0FBF1F086B20DE04FF48031D6
:104A0000606801EB50006168B0FBF1F086B203E032
:104A100000BF4FF0010900BF00BF102E0ED3B6F546
:104A2000803F0BD24FF6F07006EA0008C6F3420052
:104A300048EA00082068C0F80C804DE04FF00109FA
:104A40004AE0042D26D005DC4DB1012D10D0022DF9
:104A500033D116E0082D26D0102D2ED12EE0FDF7F3
:104A6000B3FE616800EB5100B0FBF1F086B228E0C4
:104A7000FDF7BAFE616800EB5100B0FBF1F086B2C1
:104A80001FE02349606801EB50006168B0FBF1F062
:104A900086B216E0FDF7B8FE616800EB5100B0FB8E
:104AA000F1F086B20DE04FF40041606801EB500078
:104AB0006168B0FBF1F086B203E000BF4FF001097E
:104AC00000BF00BF102E05D3B6F5803F02D220688C
:104AD000C66001E04FF0010900202066606648468C
:104AE000BDE8F087F369FFEF001001409038024005
:104AF0000044004000480040004C0040005000408E
:104B00000014014000780040007C00400048E801AB
:104B10000024F400426F212A1DD1B0F8522062B95E
:104B20000268126822F0800203681A600268126844
:104B300042F0400203681A600DE0C16C0A88C2F3BB
:104B4000080203689A62C26C921CC264B0F85220D8
:104B5000521EA0F852207047416F21291BD1B0F896
:104B6000521061B90168096821F080010268116082
:104B70000168096841F04001026811600BE0C16CF6
:104B8000097802689162C16C491CC164B0F8521086
:104B9000491EA0F8521070472DE9F04104460D4619
:104BA00017469846069E1FE0701CE8B1FDF7C0F856
:104BB000A0EB0800B04200D8B6B92068006820F425
:104BC000D070216808602068806820F001002168AA
:104BD000886020206067A06700BF002084F8700014
:104BE00000BF0320BDE8F0812068C0692840A842CA
:104BF00001D1012000E00020B842D5D00020F1E72B
:104C000010B50248FEF75CFB10BD00000403002055
:104C100000BFFEE70FB4054B10B503A9044A029884
:104C200000F00CFA10BC5DF814FB0000EFD2000895
:104C3000440100200FB4084B10B504A902AA039840
:104C400000F0FCF9044602A9002000F08EFD204689
:104C500010BC5DF814FB00006B57000802480068A8
:104C6000C0F30220704700000CED00E010B50028F2
:104C700004DB0A07130E054A135406E00A07140E54
:104C8000034A00F00F031B1FD45410BD00E400E0E2
:104C900018ED00E010B507F0CFF910BD10B507F022
:104CA000F5F910BD30B528B1144C031F0020216860
:104CB0000A4605E0084630BD9A4203D810465268BD
:104CC000002AF9D1002800D041680BD00468A3EB7A
:104CD0000005A54204D11B681C440346046002E0A1
:104CE000436000E023603AB11C68D51AA54203D1A5
:104CF00015682C441C6052685A6030BD4801002081
:104D000010B508F05FFB10BD2DED020B019820F0EF
:104D1000004001909DED000B02B0704700B52DEDF5
:104D2000048BB0EE409AF0EE609A83B051EC190B10
:104D3000FBF7FFFD41EC180B18EE100A18EE901A65
:104D40008DED008B002818BF0120084320F00040A3
:104D5000C0F17F6000F1E040C00F14D019EE101ACE
:104D600019EE900A8DED009B002918BF0121084320
:104D700020F00040C0F17F6000F1E040C00F04BFB0
:104D8000012000F09BF8B0EE480A03B0F0EE680A8C
:104D9000BDEC048B00BD10B52DED028BB1EEC08AC9
:104DA00018EE100A20F00040C0F1FF40C00F0AD0FA
:104DB00010EE100A20F00040C0F1FF40C00F04BF09
:104DC000012000F07BF8B0EE480ABDEC028B10BD6C
:104DD00010B508F069FB10BD10B508F099FB10BDC7
:104DE00010B509F0BDF910BD2DE9F04782460F4C12
:104DF00010480D4E0E4F001B4FF0000820F0070525
:104E00004FF0010900221146504608F0A1FE00288B
:104E100002D1306810B10020BDE8F0873C60C4E9E1
:104E20000058C6F80090EDE74C010020CC1400209B
:104E300048010020C81404200048704708000020E2
:104E400010B509F081FE10BD02E008C8121F08C1AC
:104E5000002AFAD170477047002001E001C1121FFB
:104E6000002AFBD17047000010B50446D4ED000ABB
:104E70009FED101A9FED0F0A00EE810ABCEEC00AEA
:104E800010EE103A002211460B48FCF7EFFBD4ED70
:104E9000010A9FED081A9FED070A00EE810ABCEE99
:104EA000C00A10EE103A002210210348FCF7DEFB86
:104EB00010BD000000F0FF446002002001490860BE
:104EC00070470000500100200BF076FD10B504463D
:104ED00020460CF00FFF10BD2DE9FF5FDDE9022039
:104EE000010DDDF838B0024318D044F61050A1F29D
:104EF000FF3141430D140F98012820D0A5EB0B0082
:104F0000401C5FEA000A4FF00004474EDFF81C9196
:104F1000A046504616D5CAF1000728E00F98012494
:104F200043A2012808D0002100980F9BC0E900216E
:104F3000C0E90243BDE8FF9F6FEA0B01F4E7CBF144
:104F40000000DEE7074612E0F80707D022463346A6
:104F500040464946FBF796FA804689462246334644
:104F600010461946FBF78EFA04460E467F10002FB6
:104F7000EAD1DDE90201BAF1000F42464B4602DAFE
:104F8000FBF780FA01E0FBF7EFFA04460E46002239
:104F9000284BFBF7BFFB03D84FF0FF30014607E07B
:104FA0000022254B20463146FBF7C5F9FBF712FDE1
:104FB000102409E0002C0ADB0A220023FBF720F969
:104FC000019B30321A55641E50EA0102F2D1641C72
:104FD000019AC4F1110314440F9A012A03D001224B
:104FE00008430DD10AE0084304D000204FF0110B14
:104FF0000F9080E7A3EB0B056D1E0DE05B4504DD14
:105000004FF0000205F1010504E003DA4FF0000261
:10501000A5F10105002AECD000980F99C0E90231F2
:10502000C0E9004586E70000000024400000F03F92
:10503000300000000000F0430000E03F2DE9FF4F8A
:1050400095B09B468946064600250FE2252877D174
:1050500000242746F84A0121059400E0044316F88D
:10506000013F203B01FA03F01042F7D130782A28A3
:1050700011D06FF02F033078A0F13002092A16D832
:10508000059A44F0020402EB820203EB4202104450
:10509000761C0590EFE759F8042B0592002A03DAF5
:1050A000504244F40054059044F00204761C3078D9
:1050B0002E2816D116F8010F44F004042A280DD02A
:1050C0006FF02F023078A0F13003092B09D807EBDD
:1050D000870302EB4303C718761CF3E759F8047BF8
:1050E000761C30786C280FD006DC4C2817D0682846
:1050F0000DD06A2814D104E0742810D07A280FD17A
:105100000DE044F400140AE044F4801401E044F497
:1051100040147278824202D104F58014761C761C09
:10512000307866280BD013DC582877D009DC0028AB
:1051300075D04528F6D04628F4D047281AD19DE1ED
:1051400018E0632835D0642879D0652812D195E11C
:10515000702873D008DC6728F1D069286FD06E28DA
:105160000DD06F2806D1B5E073282CD0752875D0E6
:10517000782874D05A46179990476D1C75E1C4F38E
:105180000250022809D003280DD0D9F800100428B5
:105190000DD00D6009F1040967E1D9F80010EA1794
:1051A000C1E90052F6E7D9F800100D80F2E70D7062
:1051B000F0E719F8041B8DF8001000208DF80100AD
:1051C000EA46012003E059F804AB4FF0FF306107D5
:1051D0004FF0000102D40DE008F101018846B94208
:1051E0000FDA8045F8DB1AF808100029F4D108E03E
:1051F00008F1010188468142FADB1AF808100029FB
:10520000F6D105985B46A0EB080721463846179A69
:1052100000F094FA284400EB080507E04DE029E18E
:105220000DE01AF8010B5A4617999047B8F101089A
:10523000F7D25B4621463846179A13E142E00A222C
:105240000092C4F302524FF0000A022A08D059F823
:1052500004CB032A4FEAEC710AD00DE029E02AE0E2
:1052600009F1070121F00702F2E802C1914609E0C5
:105270000FFA8CFC4FEAEC71042A03D14FFA8CFC34
:105280004FEAEC71002907DA0A460021DCF1000C34
:1052900061EB02012D2202E0220504D52B228DF8BC
:1052A0000420012203E0E20701D02022F7E7904624
:1052B00059E00A2102E010220DE010214FF0000A0F
:1052C00000910BE010224FF0000A44F0040408277C
:1052D000009203E008224FF0000A0092C4F3025249
:1052E000022A05D059F804CB0021032A08D009E08E
:1052F00009F1070121F00702F2E802C1914605E039
:105300001FFA8CFC042A01D10CF0FF0C4FF00008AE
:10531000220728D5702806D0009B83F0100353EA9B
:105320000A0305D00EE040228DF80420012208E097
:105330005CEA010206D030228DF804208DF80500C9
:1053400002229046009B83F0080353EA0A030AD125
:105350005CEA010201D1620705D530228DF80420F4
:105360004FF001087F1E582804D034A003900EA8E7
:1053700002900DE036A0F9E753466046009AFAF72E
:105380003FFF84460398825C0298401E02900270A0
:105390005CEA0100F0D1029806A9081A00F1200A7F
:1053A000600702D524F4803400E00127574502DD70
:1053B000A7EB0A0000E0002000EB0A01009005982E
:1053C0004144401A0590E00306D45B462146179AF3
:1053D000059800F0B3F90544002706E001A85A46F5
:1053E000C05D179990476D1C7F1C4745F6DBE003B5
:1053F0000CD55B462146179A059800F09FF90544A5
:1054000004E030205A46179990476D1C0099481EB9
:1054100000900029F5DC08E0029802995A460078CD
:10542000491C0291179990476D1CBAF10001AAF12D
:10543000010AF1DC65E10000092801003031323356
:1054400034353637383961626364656600000000C0
:1054500030313233343536373839414243444546AA
:105460000000000000F058F90544761C3078002850
:105470007FF4ECAD19B02846BDE8F08F620700D488
:10548000062709F1070222F0070CFCE80223E14697
:1054900003F000485FEA080C02D00FF2702C0DE018
:1054A0005FEA045C02D50FF2682C07E05FEAC47C77
:1054B00002D00FF2602C01E0AFF2700C4FF0FF3819
:1054C00023F00043CDF850C065280CD006DC4528F9
:1054D00009D046281DD047283DD13DE0662818D088
:1054E00067287ED138E00021112F01DB112000E078
:1054F000781CCDE9000106A90EA8FFF7EDFCDDE957
:105500000F010E9A03910021009207F1010A049104
:105510004DE04FF000400097CDE9011006A90EA81C
:10552000FFF7DAFCDDE90F0203920E9B11990022CE
:10553000DDF80CA00093049211B9791C00EB010A6C
:10554000B7EB0A0004D4C0F1FF3007F1010A049060
:10555000AAEB0700019044E0012F00DA01270021A7
:10556000112F01DD112000E03846CDE9000106A928
:105570000EA8FFF7B1FCDDE90F010E9A039100219F
:1055800004910092BA4621070CD40399514500DAE0
:105590008A46BAF1010F05DD009AAAF10101515CBA
:1055A000302908D0B84202DA10F1040F06DA0121DE
:1055B000CDE9011015E0AAF10101E9E7002805DCB9
:1055C000049901440491AAEB000102E0411C5145F9
:1055D00000DD8A460499401A401C01904FF00040BB
:1055E0000290200704D40198504501DBCDF80480D7
:1055F00000208DF84F0002980DF14F07B0F1004FD9
:1056000025D02B200E9002984FF0020800280CDACB
:10561000404202902D200E9007E00A210298FBF7ED
:10562000ADF83031029007F8011DB8F10001A8F182
:105630000108F2DC02980028EFD1791E0E9808705C
:10564000307800F0200040F0450007F8020D12A865
:10565000C01B00F107081498007800B1012000EB8E
:105660000A01019801EBE07105984144401A401E7F
:105670000590E00306D45B462146179A059800F092
:105680005DF805441498007818B15A461799904768
:105690006D1CE00324D55B462146179A059800F05F
:1056A0004DF805441CE00498002807DBDDE9030100
:1056B000884203DD0098405C179901E0179930207B
:1056C0005A469047049805F10105401C0490019842
:1056D000401E019004D12E205A46179990476D1C08
:1056E000BAF10001AAF1010ADDDC05E017F8010BAF
:1056F0005A46179990476D1CB8F10001A8F10108AE
:10570000F4DC5B462146179A0598ABE62D000000B5
:105710002B000000200000002DE9F0410446002588
:105720001E461746880404D405E039462020B047B9
:105730006D1C641EF9D52846BDE8F0812DE9F041C5
:10574000044600251E469046C80301D5302700E0D8
:105750002027880404D505E041463846B0476D1C33
:10576000641EF9D52846BDE8F0810A68531C0B6019
:105770001070704770B52DED028B044600210D4668
:105780000E46204603F0D8F8B0EE408AA06E80EDB9
:10579000148AE06D90ED000AF1EE040A20EE200A72
:1057A000B4EEC80AF1EE10FA0BD3E06DD0ED000AAA
:1057B000B1EE041A80EE810AB4EEC80AF1EE10FAD6
:1057C0000FDDB0EE480A204609F0A4FF05460E465C
:1057D000A06ED0E91220521C40F10000A16EC1E978
:1057E000122028463146BDEC028B70BD70B50546CF
:1057F000284607F085F804468CB92420FFF7F4FA10
:10580000044607F071F80462257000202062606190
:10581000A0616060A06020616FF00040E060204601
:1058200070BD2DE9FF5FA6B006234FF0000CDDE947
:105830002601A0FB032B01FB03B100FB0C13DDE9E8
:105840003810891A60EB0302CDE920123A991191C0
:10585000119816902699119800EBC100119011989B
:1058600015902699119800EBC10011901198149091
:105870002699119800EBC100119011981390269968
:10588000119800EBC100119011981290269911986F
:1058900000EBC1001190119810902699119800EB1F
:1058A000C1001190119817902099119800EBC10038
:1058B0001190DDF854A010990F91002122912391AD
:1058C00000200446054619E0169A02EBC402DDE901
:1058D000220103C20AEBC402DDE9220103C23699A8
:1058E00001EBC400D0E900C2DDE922011CEB00009D
:1058F0004A41CDE92202641C45F10005DDE926108C
:10590000611A75EB0000DFDB00263746C8E02898F7
:1059100000EBC60003C8CDE91C01701C289901EBFF
:10592000C00103C9CDE91A01DDE91C01CDE924015B
:10593000A3E02999249801EBC00030C8A01B75EBA7
:10594000070029DA5AF834100AEBC400D0E9002025
:10595000521C40F100000AEBC403C3E90020179871
:1059600000EBC100C0C05AF836100AEBC600D0E9FF
:105970000020521C40F100000AEBC603C3E90020DE
:10598000179800EBC10030C0DDE924305A1C40F10B
:105990000000CDE924200EE084EA060085EA070134
:1059A000084307D1DDE92401401C41F10002CDE9A3
:1059B00024026AE069E0601C289901EBC00103C978
:1059C000CDE918010F9800EBC40103C9CDE91E0110
:1059D00044E029991E9801EBC000D0E90089B8EB9A
:1059E000060079EB07002ADA5AF838100AEBC800EB
:1059F000D0E90020521C40F100000AEBC803C3E9C3
:105A00000020179800EBC10030C05AF834100AEBA0
:105A1000C400D0E90020521C40F100000AEBC4038E
:105A2000C3E90020179800EBC100C0E90089DDE957
:105A30001E305A1C40F10000CDE91E200EE088EA1D
:105A4000060089EA0701084307D1DDE91E01401C71
:105A500041F10002CDE91E0207E006E0DDE9183160
:105A6000DDE91E20D21A8841B3DB00BF0F9A02EB9A
:105A7000C402DDE91E10C2E90010DDE91A32DDE9D9
:105A80002410C91A9041FFF654AF00BF0F9A02EBE1
:105A9000C602DDE92410C2E90010761C47F10007B8
:105AA000DDE92601301A77EB0100FFF630AF002464
:105AB000254643E00F9800EBC40103C9CDE91E0160
:105AC0002FE029991E9801EBC000D0E900895AF80F
:105AD00038100AEBC800D0E90020521C40F1000049
