:020000040800F2
:10000000504B0420DD010008E72B0008AB2A000854
:10001000E52B0008ED0A00089D32000800000000F2
:10002000000000000000000000000000EB2B0008B2
:10003000A10B000800000000E92B0008ED2B0008D0
:10004000F7010008F7010008F7010008F7010008B0
:10005000F7010008F7010008F7010008F7010008A0
:10006000F7010008F7010008F7010008F701000890
:10007000F7010008F7010008F7010008F701000880
:10008000F7010008F7010008A9090008F7010008B6
:10009000F7010008F7010008F7010008F701000860
:1000A000F7010008F7010008F7010008F701000850
:1000B000E92C0008F7010008F7010008F701000823
:1000C000F7010008F7010008F7010008F701000830
:1000D000F701000891320008F7010008F701000855
:1000E000F7010008F7010008F7010008F701000810
:1000F000F7010008F7010008F7010008F701000800
:10010000F7010008F7010008F7010008F7010008EF
:10011000F7010008F7010008F7010008F7010008DF
:10012000F10A0008F7010008F7010008F7010008CC
:10013000F7010008F7010008F7010008F7010008BF
:10014000F7010008F7010008F7010008F7010008AF
:10015000F7010008F7010008F7010008F70100089F
:10016000F7010008F7010008F7010008F70100088F
:10017000F7010008F7010008F7010008000000007F
:10018000F7010008F7010008F7010008F70100086F
:10019000F7010008F7010008F7010008F70100085F
:1001A000F7010008F7010008F7010008F70100084F
:1001B000F7010008F7010008F7010008F70100083F
:1001C000F7010008F7010008DFF80CD000F006FB8B
:1001D00000480047516C0008504B042006488047F7
:1001E00006480047FEE7FEE7FEE7FEE7FEE7FEE71C
:1001F000FEE7FEE7FEE7FEE7952C0008C9010008D0
:100200002DE9F05F0546002092469B46884606464B
:10021000814640241BE0284641464746224600F0DE
:100220008DF853465A46C01A914110D311461846CC
:10023000224600F074F82D1A67EB01084F4622465B
:100240000120002100F06BF817EB00094E41201E41
:10025000A4F10104DFDC484631462A464346BDE8A6
:10026000F09FD2B201E000F8012B491EFBD270478B
:100270000022F6E710B513460A4604461946FFF772
:10028000F0FF204610BD421C10F8011B0029FBD1D5
:10029000801A704700F0004230F000400AD0C10DD3
:1002A00001F56071C0F3160042EA0151C20840072F
:1002B0001143704700200146704701F0004330B4FD
:1002C00021F0004150EA010206D00A0DA2F5607249
:1002D000C1F31301002A02DC30BC00207047440F38
:1002E00044EAC104C100E01830BC00EBC25000F089
:1002F00035B830B50B46014600202022012409E024
:1003000021FA02F59D4205D303FA02F5491B04FACE
:1003100002F52844151EA2F10102F1DC30BD202AAD
:1003200004DB203A00FA02F1002070479140C2F14C
:10033000200320FA03F3194390407047202A04DB7E
:10034000203A21FA02F00021704721FA02F3D0404E
:10035000C2F1200291400843194670470029A8BF06
:100360007047401C490008BF20F00100704710B4DE
:10037000B0FA80FC00FA0CF050EA010404BF10BC93
:10038000704749B1CCF1200421FA04F411FA0CF1C0
:1003900018BF012121430843A3EB0C01CB1D4FEAF9
:1003A00000614FEA102042BF002010BC704700EBF4
:1003B000C35010440029A4BF10BC7047401C490022
:1003C00008BF20F0010010BC70472DE9FE4F8046A9
:1003D00081EA0300C00F0C46009021F0004123F099
:1003E0000045B8EB0200A94105D24046214690469F
:1003F0001C460B46024623F00040104347D0270D11
:10040000C7F30A00C3F30A510290401A0190402832
:100410006BDAC3F3130040F4801B0098924620B1BE
:100420000023D2EB030A63EB0B0B01985946C0F192
:1004300040025046FFF773FF06460D4650465946A8
:10044000019A00F0DDF910EB08006141002487EA11
:10045000115284EAE7731A4340D0009A62B3019ABA
:10046000012A4FEA075215DC001B61EB02014FF035
:10047000004202EA0752CDE90042001C41F580111A
:1004800032462B4600F0DDF903B0BDE8F08F404660
:100490002146F9E7001B61EB0201001C41F58013C6
:1004A00000185B412018A2F5001747EB030140EA52
:1004B000D570B6196D4111E06D084FEA360645EA70
:1004C000C0754FEA0752001B61EB0201001C41F5A9
:1004D000801149084FEA30000019514132462B463D
:1004E00003B0BDE8F04F00F09DB900980122400034
:1004F0000023D0EB020263EBE073009821464FEA41
:10050000E074B8EB000061EB0401E9E783F000431D
:100510005BE781F0004158E72DE9FE4F81EA0304D3
:1005200004F0004421F0004100944FF0000B23F050
:10053000004350EA01045ED052EA03045BD0C3F3E7
:100540000A54C1F30A552C44A4F2F3340194A0FBDD
:100550000254C1F3130141F48011C3F3130343F4B4
:10056000801301FB024400FB034E840A970A44EA0D
:10057000815447EA8357A4FB076802958D0A05FB5F
:1005800007854FEA932C04FB0C542705029D4FEA84
:10059000065847EA1637B5EB08056EEB070C870ED1
:1005A000920E47EA811742EA8312A7FB0201B6EBDB
:1005B0000B0164EB00042B0D43EA0C335E1844EB93
:1005C0001C50DA465146E7FB0201C5F313044FEA1B
:1005D0000B3343EA14534FEA0432019C43EA060307
:1005E000A4F10C040294009CCDE900B400F029F9B8
:1005F00003B0BDE8F08F00200146F9E72DE9F04D8A
:1006000081EA030404F0004B21F0004514464FF04A
:10061000000A23F0004150EA050220D054EA01020A
:100620001DD0C5F30A570246C5F31303C1F31300E7
:10063000C1F30A5640F4801543F48013A7EB060873
:10064000101BD64608F2FD3873EB050002D308F103
:10065000010801E092185B41B8F1000F03DA0020B5
:100660000146BDE8F08D00204FF480110646844617
:100670000EE0171B73EB050705D3121B63EB050395
:1006800006434CEA010C49084FEA300092185B41DE
:1006900050EA0107EDD152EA030012D082EA0400C9
:1006A00083EA0501084305D0101BAB4106D20122A5
:1006B000002306E000224FF0004302E06FF0010249
:1006C00053101AEB06004CEB085110EB0A0041EBFB
:1006D0000B01BDE8F04D00F0A5B82DE9F04D002369
:1006E0001A461B1A8A4103DB00200146BDE8F08D43
:1006F000C1F30A52C1F3130141F480154FF0000B0E
:10070000D10702D100186D41521E0027044640F265
:10071000FF11384601EB620A3E4680460246002041
:100720004FF48011FFF70AFEC2197141BB1846EB66
:100730000100B4EB030C75EB000C04D3E41A65EB79
:10074000000517460E46241908F101006D41804648
:100750003428E3DDF91946EB0600091BA84103D252
:100760004FF0FF32134601E0002213461BEB070057
:1007700046EB0A51BDE8F04D00F054B8C1F30A52FF
:10078000C1F3130140F2FF3341F480119A4202DABF
:1007900000200146704740F233439A42A2F23342AE
:1007A00002DC5242FFF7CABDFFF7B9BD30B5041EE7
:1007B00071F1000404DB4FF00044404264EB01019E
:1007C000141E73F1000405DB1C464FF00043524237
:1007D00063EB0403994208BF904230BD064C074DBD
:1007E00006E0E06840F0010394E807009847103401
:1007F000AC42F6D3FFF7ECFC148400083484000804
:10080000202A06DBCB17203A41FA02F043EAE073D4
:1008100006E041FA02F3D040C2F1200291400843C1
:100820001946704710B5141E73F1000408DA401C15
:1008300041F1000192185B411A4301D120F00100FF
:1008400010BD2DE9F04D92469B4611B1B1FA81F2EF
:1008500002E0B0FA80F220329046FFF760FD0446D5
:100860000F4640EA0A0041EA0B0153465A46084344
:1008700013D0114653EA010019D0C8F14002504686
:10088000FFF75CFD05460E46504659464246FFF7C7
:1008900046FD084305D0012004E020463946BDE866
:1008A000F08D0020054346EAE0762C4337430A9852
:1008B0006305E40AA0EB08000022FD0A44EA47545D
:1008C0000A3002D500200146E9E701051019694107
:1008D000DDE9084500196941BDE8F04DA2E730B5F2
:1008E0008C1810F8012B12F00F0301D110F8013B06
:1008F000120906D110F8012B03E010F8015B01F892
:10090000015B5B1EF9D101E001F8013B521EFBD1F6
:10091000A142E6D3002030BD10B50146806B026CC9
:1009200012F0500F05D0026CD20626D500F02DFA39
:1009300010BD016C41F40071016401688A6812F015
:10094000405F17D18269AAB9CA6A12F4700F02D047
:100950008A6852050ED44A6822F020024A60016C6F
:1009600021F480710164016CC90403D4016C41F06D
:100970000101016400F0CAF910BD806BC26C084629
:10098000BDE81040104710B5806B40210164416CF8
:1009900041F00401416400F0F8F910BD10B5806B1E
:1009A00000F0F2F910BD0000014800F0EFB90000BE
:1009B000540500204A496FF0706210B5D1F8043335
:1009C00023F44033C1F80433D1F80433446823439B
:1009D000C1F8043301684B6823F480734B600168ED
:1009E00003694C6844EA03234B6001684B6823F0B9
:1009F00040734B60016884684B6823434B60016817
:100A00008B6823F400638B600168C4688B682343A0
:100A10008B60816AD14201688A6822F070628A60C4
:100A200001680DD0836A8A681A438A6001688A68FF
:100A300022F040528A600168C36A8A681A4302E061
:100A40008A6822F040528A6001688A6822F00202B5
:100A50008A60016882698B6843EA42028A6090F882
:100A600020100029016811D01E4A4B6843F400632E
:100A70004B6001684B6823F460434B600168446A33
:100A80004B6802EB443213434B6003E04A6822F4A4
:100A900000624A600168144BCA6A22F47002CA629A
:100AA0000168848BCA6A03EB04531A43CA62016863
:100AB0008A6822F400728A60016890F830208B689E
:100AC00043EA42228A6001688A6822F480628A606E
:100AD000016840698A6842EA8020886010BD000091
:100AE0000020014000E0FFFF0000F0FFFEE70000F3
:100AF000014800F027BC0000C00600200168182350
:100B0000CAB2103AB2FBF3F2054B6FF30901032AA4
:100B10009B5CC36500D9091D8165084670470000CC
:100B2000F283000810B583694FF0C074826A0146F1
:100B3000002053B1B3F5005F15D072B1012A0CD07B
:100B4000022A0AD0032A09D104E01AB1012A06D0E8
:100B5000022A03D1C96AC90100D5012010BDC96AA2
:100B6000A142FAD010BD002AF7D0012AF2D0022A01
:100B7000F3D0032AF3D010BD30B50468256825F4FE
:100B800080252560046863608368402B036803D078
:100B900099600068C26030BD9A600068C16030BD75
:100BA0007047704770470000F8B50025009590F831
:100BB0003C20012A18D0012280F83C200A68072333
:100BC0004E4C0668092A1AD90A3A02EB4207F26823
:100BD000BB409A43F2600E680268A64206D10B7AC7
:100BE000D66846EA036308E00220F8BD0A3E8B6837
:100BF000D76806EB4606B3403B43D3600EE002EBFA
:100C000042073269BB409A43326103680E788A68B2
:100C10001F6906EB4606B2403A431A614A681F2331
:100C2000072A13D20668521E02EB8207726BBB4082
:100C30009A43726303680E790A88761E5F6B92B2DC
:100C400006EB8606B2403A435A6327E006680D2A4F
:100C500012D2D21F02EB8207326BBB409A4332633F
:100C600002680E790B88F61F176B9BB206EB86069F
:100C7000B3403B43136311E00D3A02EB8207F26A83
:100C8000BB409A43F26202680E790B880D3ED76A28
:100C90009BB206EB8606B3403B43D362184A036817
:100CA000934208D10B68122B05D1D2F8043343F4D8
:100CB0008003C2F80433036893421AD10B68A3423D
:100CC00001D0112B15D1D2F8043343F40003C2F83C
:100CD00004330968A1420CD10A490B4A0968B1FBE7
:100CE000F2F101EB8101490000E0491E0091002969
:100CF000FBD180F83C500020F8BD0000120000102D
:100D000000200140BC01002040420F001A4900238E
:100D100030B51A4A18460B60C1F8043002EBC00522
:100D20000B6852F83040401C642823440B606B6809
:100D30004C6823444B60F1DB91ED001ADFED100AA3
:100D40009FED100AB8EE411A0B480838C1EE201A80
:100D500031EEC01AC1EE001A01EE103AB8EE411A97
:100D6000C0ED001AC1EE201A71EEC00A80EE801AA2
:100D700080ED011A30BD0000B400002034020020D4
:100D80000000C84200F0FF447047704770B5044649
:100D9000006801684268C1F34001C2F3401251B3D8
:100DA0004AB3216CC90603D4216C41F4007121645B
:100DB000816811F0405F17D1A169A9B9C16A11F426
:100DC000700F02D0816849050ED4416821F02001DE
:100DD0004160206C20F480702064206CC00403D437
:100DE000206C40F0010020642046FFF78FFF21684F
:100DF0006FF012000860206801684268C1F380014A
:100E0000C2F3C01289B382B3216CC90603D4216C2A
:100E100041F400512164816811F4401F1ED1816B9F
:100E200011F4401F02D08168490517D44168490573
:100E300014D4816811F0405F10D1A16971B9416883
:100E400021F080014160206C20F480502064206CEF
:100E5000C00503D4206C40F0010020642046FFF759
:100E6000A1FE21686FF00C000860206801684368EB
:100E700011F0010FC3F380110ED069B10068C007F3
:100E80000AD0206C40F480302064204600F046F800
:100E900021686FF001000860206801684268C1F3B2
:100EA00040110029C2F380620DD0002A0BD0616C82
:100EB0006FF0200541F00201616405602046FFF7F4
:100EC00064FF2068056070BD70B504004FF0000538
:100ED00003D0206C002610B107E0012070BD204631
:100EE00000F01EF8666484F83C60206CC00610D4E4
:100EF000206C20F4885040F0020020642046FFF768
:100F000059FD6664206C20F0020040F0010020646E
:100F100000E0012584F83C60284670BD7047000061
:100F2000F0B587B0064614216846FFF7A1F92149BC
:100F3000306888423CD12048016841F480610160FA
:100F4000006800F4806005901B481438016841F087
:100F50000101016000680025694600F0010005906C
:100F600003200090CDE90105144800F06BFB154803
:100F70004FF4807C124C8105021584E823000F1386
:100F8000C4E9035283142046C4E907C56562C4E975
:100F9000053700F0A7FA08B1FFF703FEB46300229B
:100FA0000321A663122000F099FC122000F088FCB7
:100FB00007B0F0BD0022014044380240000002406A
:100FC000C00600201064024018B50022009290F87C
:100FD0003C10012907D0012180F83C1001688B6882
:100FE000DB0702D011E0022018BD8C682A4B44F0C8
:100FF00001048C6029490968B1FBF3F101EB41015F
:1010000000E0491E00910029FBD103689968C907D7
:1010100040D0016C40F20164A14341F4807101644D
:101020005968490505D5016C21F4005141F48051FE
:101030000164016CC90404D5416C21F006014164CE
:1010400000E042646FF02204154980F83C201C60E7
:10105000D1F80423D20607D002688A420AD19368E5
:1010600013F0405F02D005E000680BE0936843F0A6
:1010700080439360D1F80413C9060BD40068094972
:10108000884207D1816811F0405F03D1816841F047
:1010900080418160002018BD40420F00BC0100204B
:1010A0000020014000220140F8B50D460446002111
:1010B000009190F83C00012807D0012084F83C0002
:1010C00020688368DB0702D011E00220F8BD866843
:1010D000364B46F00106866035480068B0FBF3F0F9
:1010E00000EB400000E0401E00900028FBD120688B
:1010F0008368DB0758D0236C40F20166B34343F4A6
:10110000807323644068400505D5206C20F40050AE
:1011100040F480502064206CC00404D5606C20F042
:101120000600606400E061646FF0220084F83C1007
:10113000A36B2049D963A36B1F491964A36B1F4993
:10114000D964216808602068416841F0806141608D
:101150002068816841F48071816021681346A06B2A
:101160002A464C3100F030FA1549D1F80403C00684
:10117000206811D0884207D1826812F0405F03D105
:10118000826842F080428260D1F80403C0060BD42A
:101190000C492068884207D1816811F0405F03D173
:1011A000816841F0804181600020F8BD40420F001D
:1011B000BC010020190900089D09000887090008E2
:1011C000002001400022014070B54379012B1AD064
:1011D0000124447102230371056840F6FE76D1E9CB
:1011E00000310B4329689640B1439340C0260B431E
:1011F0002B60016896400A68B2430A6000230471BC
:101200004371184670BD022070BD70B5040003D054
:101210002079002510B105E0012070BD20466571E0
:1012200000F008F8022121710120256120710020C1
:1012300070BD000010B586B0044614216846FFF763
:1012400017F81149206888421BD11048016841F005
:1012500000510160006800F0005005900B48103804
:10126000016841F00101016000680321002200F0E3
:101270000100059030208DE807000548694600F020
:10128000E1F906B010BD0000007400404038024093
:101290000000024008B50029016800910068104470
:1012A00004D0143000900360002008BD0830F9E736
:1012B00030B54279012A17D001224271022404710B
:1012C000002902FA01F301680C6844EA03040C6087
:1012D00001680B680AD00D6803F48024B4F5802FF0
:1012E00005F460130FD015E0022030BD0C6803F048
:1012F0000403042B04F038040CD1382C0AD14B68B9
:1013000043F0010305E0B3F5601F03D14B6843F0E0
:1013100002034B60002102714171084630BD90F814
:101320003510022903D08021416501207047052135
:1013300080F835100068016821F00101016000208B
:10134000704700002DE9F84304464FF00009644B54
:101350000820CDF800904FF41652A56D94F85C105B
:101360001B682E68B3FBF2F700FA01F131420FD08F
:1013700021680A6852070BD50A6822F004020A6045
:1013800094F85C108840A860606D40F001006065D2
:1013900094F85C104FF0010808FA01F0304208D0D0
:1013A00021684969090604D5A860606D40F0020013
:1013B000606594F85C1004208840304208D02168B1
:1013C0000968890704D5A860606D40F00400606575
:1013D00094F85C1010208840304218D021680968C9
:1013E000090714D5A86020680168490304D500687E
:1013F000000308D5A16C07E00168C90503D40168A2
:1014000021F008010160216C09B12046884794F859
:101410005C1020208840304231D021680968C9061C
:101420002DD5A86094F8350005282068016806D0FD
:10143000490347D5006800031DD4616C1CE021F00E
:10144000160101602068416921F080014161206C32
:1014500008B9A06C20B12068016821F00801016082
:1014600094F85C303F229A40AA6084F8349084F863
:101470003580216D1FE0E16B09B120468847606D22
:1014800000282BD0606DC00714D0052084F83500EB
:101490002068016821F0010101600098401C009063
:1014A000B84203D820680068C007F6D184F83490A9
:1014B00084F83580E16C002910D001B02046BDE8E9
:1014C000F04308470168C905D5D4036823F0100329
:1014D000036084F8349084F83580CCE7BDE8F88365
:1014E000BC0100202DE9F047044600F097F90546BD
:1014F00064B14FF0000984F83490022184F835106B
:101500002068016821F0010101600EE00120BDE8C2
:10151000F08700BF00F082F9401B052805D9202183
:101520006165032084F83500F1E720680068C00792
:10153000F0D1D4E90020D4E90251D4E9043C284395
:1015400004F1180519430843116895E8E00140EAE1
:101550000C001C4B2843194040EA060040EA0700F3
:10156000B8F1040F40EA010003D1D4E90B13194389
:101570000843106020680126656A4069042D20F048
:10158000070045EA00050CD1D4E90A01054341B141
:101590002046FFF7C7FA20B14020606584F8356027
:1015A000B4E7206845612046FFF7A8FA94F85C305C
:1015B0003F229A408260C4F8549084F8356000203D
:1015C000A5E700003F8010F02DE9F041044690F8B7
:1015D000340000250128A66D0ED094F835C00127EF
:1015E000002084F83470BCF1010F07D0022584F884
:1015F00034002846BDE8F0810220FBE7022784F88A
:10160000357060652046FFF7B7FA94F85C103F200C
:101610008840B0602068016841F0160101602068D0
:10162000416941F080014161206C20B1206801686E
:1016300041F0080101602068016841F0010101608A
:10164000D7E700002DE9F84FDFF89CE100224FF0CA
:1016500001084FF0030B4FF00F0A00BF0B6808FAA8
:1016600002F42340A34271D14D68022D01D0122D06
:101670000FD1D5080E69570700EB8505A9462D6ADD
:10168000FF0E0AFA07FCBE4025EA0C052E43C9F8F6
:1016900020600F79550006680BFA05FC07F0030778
:1016A00026EA0C06AF40374307604E68012E05D08E
:1016B000022E03D0112E01D0122E0ED18668CF68D3
:1016C00026EA0C06AF403743876046680F79A64389
:1016D000C7F30017974037434760C4688E6824EA11
:1016E0000C04AE402643C6604C68E40075D53F4C00
:1016F000256845F480452560246822F00306950797
:1017000004F4804400943A4C2D0F2644D6F808483F
:10171000DFF8E0C00AFA05F7604524EA070401D1C2
:1017200000272EE0344FB84201D1012729E0334F82
:10173000B84201D1022724E0314FB84201D103273A
:101740001FE0304FB84202D104271AE045E02E4F87
:10175000B84201D1052714E02C4FB84201D1062729
:101760000FE02B4FB84201D107270AE0294FB842BA
:1017700001D1082705E0284FB84201D1092700E030
:101780000A27AF4027437546C6F808784E68DEF84A
:101790000040F60324EA030400D51C43124E2C60DB
:1017A000361D4D683468AD0324EA030400D51C439C
:1017B0000D4F346008374D683C68ED0224EA03049D
:1017C00000D51C43084D3C600C354E682C68B602B1
:1017D00024EA030400D51C432C60521C102AFFF499
:1017E0003DAFBDE8F88F0000003C014044380240A6
:1017F00000300140000002400004024000080240A6
:10180000000C024000100240001402400018024088
:10181000001C024000200240002402400148806871
:1018200070470000B001002002488168027811442E
:1018300081607047B0010020032010B500F06EF801
:10184000052000F005F800F023F8002010BD00008E
:1018500070B50D4D04464FF47A700C4A2978126821
:10186000B0FBF1F0B2FBF0F000F008FE48B9102C2C
:1018700007D200222146501E00F030F800206C6094
:1018800070BD012070BD0000B0010020BC0100202F
:101890000A4808B5016841F080510160006800F015
:1018A000805000900548001D016841F480410160AE
:1018B000006800F48040009008BD000040380240FD
:1018C000002809DB410900F01F028900012001F115
:1018D000E0219040C1F80001704700000E4BF0B4C9
:1018E0001B680D46C3F30223C3F10706042E00D97B
:1018F0000426191D072901D2002300E0DB1E012464
:1019000004FA06F19C40491E2940641E9940144087
:101910002143F0BC01F0E8BC0CED00E0064900F00A
:10192000070210B54FF6FF040868044B204040EA58
:1019300002201843086010BD0CED00E00000FA051D
:101940001848F8B5016841F0805101600068164CF4
:1019500000F080500090206840F480302060FFF755
:101960005DFF4FF47A76054605E000BFFFF756FFAE
:10197000401BB0420FD86068C003F7D5206840F420
:1019800000302060FFF74AFF054606E0FFF746FFFC
:10199000401BB04201D90320F8BD60688003F5D533
:1019A0000020F8BD40380240007000402DE9F84F9B
:1019B00004460078DFF824944FF000063746C0074D
:1019C0000ED0D9F8001021F40001C9F80010D9F8A0
:1019D0000010626B1143C9F80010606B00B901265A
:1019E000FE4D2068843500030ED5E16B286820F495
:1019F000401008432860E06BB0F5801F01D010B1A3
:101A000002E0012600E0012720684FF4800BC002AD
:101A10000CD5216C286820F4400008432860206C15
:101A2000584501D1012601E000B901272068C10114
:101A300000D50126800666D5E8483830016841F0B7
:101A4000805101600068DFF898A300F0805000909A
:101A5000DAF8001041F48071CAF80010FFF7DEFEDA
:101A6000804605E0FFF7DAFEA0EB080064287DD889
:101A7000DAF80000C005F5D5DFF8608308F16808E2
:101A8000D8F8000010F440702AD0218E01F4407183
:101A9000814225D0D8F80010D8F8002021F44071F8
:101AA00042F48032C8F80020D8F8002022F48032B6
:101AB000C8F80020C8F80010D8F80000C0070FD000
:101AC000FFF7ACFE824607E0FFF7A8FEA0EB0A0195
:101AD00041F288308142CAD8D8F800008007F3D597
:101AE000206BC0F3012103297ED0D9F8001021F426
:101AF000F811C9F80010228ED8F80010C2F30B02BA
:101B00001143C8F800102078C00607D5286820F0D7
:101B1000807028602868A16B084328602188AF483E
:101B20008830490405D5626E016821F440311143C3
:101B300001602188090405D5A26E016821F44021C5
:101B4000114301602168C90305D5E26E016821F4E3
:101B50004011114301602168890305D5226F016896
:101B600021F4400111430160217800E018E14906A9
:101B700005D5626C016821F00301114301602178F1
:101B8000090605D5A26C016821F00C011143016022
:101B90002188C90505D5E26C016821F030011143A7
:101BA00001602188890505D5226D016821F0C001F9
:101BB000114301602188490505D5626D016821F452
:101BC0004071114301602188090505D5A26D0168A6
:101BD00021F44061114301602188C90407D5E26DF9
:101BE000016821F4405100E041E011430160218887
:101BF000890405D5226E016821F44041114301603A
:101C00002168490205D5A26F016821F08061114366
:101C1000016021684FF0006A890209D5E26F01680E
:101C200021F0006111430160E16F514500D10127AE
:101C300021680A0700D50127490305D5626F0168AD
:101C400021F04071114301602168090206D5D4F8E2
:101C50008020016821F0805111430160DFF88491F8
:101C6000012E0ED02068B0F1007F0AD08FE05E4ACE
:101C7000D9F80030104023F4F8120243C9F80020CC
:101C800039E7D9F800004E4620F08060C9F800001E
:101C9000FFF7C4FD804605E0FFF7C0FDA0EB08009C
:101CA00064287DD830680001F6D421784B487C3018
:101CB000C90712D0616B81B9237A62680168D0F8D4
:101CC00000C09201C1F3014142EA0142CCF3036139
:101CD00042EA016141EA0371016021680A0303D508
:101CE000E26BB2F5801F04D0C9021AD5216C5945A8
:101CF00017D16368016894F80CC002689B01C1F3B6
:101D0000014143EA0141C2F3027241EA0C6141EA36
:101D1000027101602968626A21F01F01521E11439D
:101D200029602168C90110D5238A62680168D0F84A
:101D300000C09201C1F3036142EA034242EA016238
:101D4000CCF3027142EA01710160216889010CD56E
:101D50006168228A237B94F808C0890141EA024124
:101D600041EA036141EA0C7101603168B04641F01B
:101D700080613160FFF752FD064604E0FFF74EFD3B
:101D8000801B64280CD8D8F800000001F6D56FB38A
:101D9000D9F800004E4620F08050C9F8000000E05D
:101DA00079E0FFF73BFD074605E000BFFFF736FD92
:101DB000C01B64286FD83068C0438000F6D5074840
:101DC000216880300A0301D5E26B1AB1C90225D51A
:101DD000216C19BB63690168277E08E0083802405E
:101DE0000070004000380240FFFCFF0F5AE002681C
:101DF000C1F301419B0143EA0143C2F3027143EA8B
:101E0000076242EA0171016029686FF0FF03A26A6C
:101E100021F4F85103EB0222114329602168890261
:101E200012D5E16F51450FD1238C626901680768B3
:101E30009201C1F3036142EA034242EA0162C7F33D
:101E4000027142EA017101602178090716D56169C2
:101E50000268D0F800C08B01277FC2F30362CCF385
:101E6000014143EA014141EA026141EA077101602F
:101E70002868E16A20F4403008432860306840F068
:101E800080503060FFF7CAFC044607E0FFF7C6FC4D
:101E9000001B642802D90320BDE8F88F3068C043D6
:101EA0008000F3D40020F7E72DE9F04705000F4646
:101EB00063D0444E306800F00F00B84209D2306859
:101EC00020F00F0038433060306800F00F00B84257
:101ED00053D128683C4C810712D5400703D52068B0
:101EE00040F4E05020602878000703D5206840F4D3
:101EF00060402060A968206820F0F000084320605E
:101F00002878C0072AD0304968680839012810D0DD
:101F10000968022810D0890700292EDA216821F0EB
:101F2000030101432160FFF779FC804641F28839C3
:101F30000DE009688903EFE78901EDE7FFF76EFC23
:101F4000A0EB0801494502D90320BDE8F087686885
:101F5000216801F00C01B1EB800FEFD1306800F087
:101F60000F00B8420BD9306820F00F0038433060C2
:101F7000306800F00F00B84201D00120E5E7287872
:101F8000400705D5E968206820F4E0500843206048
:101F90002878000706D52869216821F4604141EAC4
:101FA000C000206000F036F82168084AC1F3031130
:101FB000515CC840064908600520FFF749FC002035
:101FC000C3E70000003C024008380240FA830008E2
:101FD000BC0100200449054809680068044AC1F3AF
:101FE0008221515CC840704708380240BC01002083
:101FF0000A8400080449054809680068044AC1F3D6
:102000004231515CC840704708380240BC01002092
:102010000A840008154910B51548096811F00C022A
:1020200013D04110042A0FD0082A0ED10F4C241FC0
:102030002268236802F03F025B0207D52068C0F3E4
:102040008810A0FB010106E0084610BD2168C1F31D
:102050008811A1FB00010023FEF7D2F82168C1F32B
:102060000141491C4900B0FBF1F010BD08380240A5
:102070000024F4002DE9F84F05004FF000076ED062
:102080002878DFF81C93A9F1040AC007AAF1040418
:102090004CD0D9F800104846C1F38101012908D07D
:1020A0000068C0F3810002280AD1DAF8000040027B
:1020B00006D52068800339D568680028DFD035E070
:1020C0006868B0F5803F0BD010B1B0F5A02F11D0EB
:1020D000206820F480302060206820F4802002E016
:1020E000206840F480302060686890B1FFF796FB6C
:1020F00006460AE0206840F480202060F0E700BF38
:10210000FFF78CFB801B642872D820688003F7D50A
:102110000CE0FFF783FB064605E000BFFFF77EFB00
:10212000801B6428F0D820688003F7D428788007C3
:1021300042D5D9F80010484611F00C0F08D00068BD
:10214000C0F3810002280BD1DAF80000400207D466
:102150002068800718D5E868012800D114E01CE148
:10216000E8680028206817D040F001002060FFF7E1
:1021700055FB064605E000BFFFF750FB801B022819
:10218000C2D820688007F7D52869216821F0F801B6
:1021900041EAC00020600FE020F001002060FFF75E
:1021A0003DFB064605E000BFFFF738FB801B022819
:1021B0001ED820688007F7D42878000729D57848EA
:1021C00069696C3000298046016812D041F0010134
:1021D0000160FFF723FB064605E000BFFFF71EFB8B
:1021E000801B022804D8D8F800008007F6D510E03C
:1021F00089E021F001010160FFF710FB064604E0D1
:10220000FFF70CFB801B02287DD8D8F80000800760
:10221000F6D4287840076BD5DFF8848108F13808B8
:10222000D8F80000C0000BD4D8F8001041F080515D
:10223000C8F80010D8F80000012700F08050009086
:1022400058480168C90512D40168834641F4807179
:102250000160FFF7E3FA064605E000BFFFF7DEFA8C
:10226000801B64284FD8DBF80000C005F6D54C4E23
:10227000A868683601280AD008B1052811D030684E
:1022800020F001003060306820F0040002E0306887
:1022900040F001003060A868A0B1FFF7BFFA8346A4
:1022A0000CE0306840F004003060F0E7FFF7B6FA69
:1022B000A0EB0B0141F28830814266D8306880077C
:1022C000F4D50EE0FFF7AAFA834607E0FFF7A6FA77
:1022D000A0EB0B0141F28830814256D8306880076C
:1022E000F4D42FB1D8F8001021F08051C8F80010B4
:1022F000A869C8B3D9F80010C1F3810102294CD0F4
:102300000228206800E040E020F08070206003D0C8
:10231000FFF784FA05463BE0FFF780FA064604E043
:10232000FFF77CFA801B02282FD820688001F7D4A1
:10233000D5E90962D5E907011B4B570895F82C2010
:10234000084303EB074343EA8611084340EA02606F
:1023500040F00050CAF80000206840F08070206013
:10236000FFF75CFA054606E015E000BFFFF756FAF6
:10237000401B022809D820688001F7D50BE000BF78
:10238000FFF74CFA401B022802D90320BDE8F88F62
:1023900020688001F4D40020F8E70120F6E700006F
:1023A00008380240007000400000FFFF2DE9F047B0
:1023B0000446007900278A4601280ED0607901255D
:1023C0004FF000092571012809D00420A0600127E1
:1023D00084F804903846BDE8F0870220FBE74FF010
:1023E000020884F80580FFF719FA06460CE000BFE2
:1023F000FFF714FA801B022806D96571C4F808801B
:10240000012084F80490E6E720684068C043C007D4
:10241000EED120688068E060CAF800006571D7E7F7
:1024200070B5040003D06079002510B105E00120EB
:1024300070BD2046257100F00DF802206071012169
:102440002068026842F0040202606171A560002009
:1024500070BD000008B500680649884208D10648EA
:10246000016841F040010160006800F04000009008
:1024700008BD00000008065034380240401EB0F18C
:10248000807F10B501D3012010BD4FF0E0246061C2
:102490000F21601700F028FF0020A06107212161B3
:1024A00010BD70477047704770B590F83C20012A06
:1024B00024D0134C012580F83C50022280F83D20A6
:1024C00002685368A242966802D00E4CA24203D121
:1024D0004C6823F4700323430C6823F0700389686D
:1024E0001C435460002326F080060268314391604B
:1024F00080F83D5080F83C30184670BD022070BD19
:10250000000001400004014010B5040003D094F81D
:102510003D0010B107E0012010BD002084F83C0010
:10252000204600F00DF8022084F83D002068211DAF
:1025300000F0E0FB012084F83D00002010BD000009
:1025400008B501681048B1F1804F0BD00F4A914295
:1025500007D1016841F008010160006800F008003F
:10256000009008BD016841F001010160006800228F
:10257000012100F0010000901C20FFF7AFF9BDE839
:1025800008401C20FFF79CB940380240000C004076
:102590000168094ACB6843F00103CB600168886891
:1025A0001040062806D0B0F5803F03D0086840F000
:1025B00001000860002070470700010070B5044664
:1025C00090F83C00012817D0324B012584F83C508C
:1025D000022084F83D0022689068184020F47F4073
:1025E00090600868502830D00DDC20284DD005DCE4
:1025F00098B310283BD148E0022070BD302844D069
:10260000402834D139E0602828D0702806D0B0F5B1
:10261000805F2CD0B0F5005F29D10AE04A682068BD
:10262000D1E9021300F0CCFB2068816841F077010A
:1026300009E04A682068D1E9021300F0C1FB206874
:10264000816841F48041816011E0CA68496820686E
:1026500000F0C7FB2068502107E016E0CA6849680F
:10266000206800F0CFFB2068602100F0B2FB002062
:1026700084F83D5084F83C0070BDCA684968206801
:1026800000F0AFFB20684021EFE7226801461046CA
:10269000EBE7000088FFFEFF704770B50446006856
:1026A00000250169C943890715D4C168C943890751
:1026B00011D4EA1E02610121217720688069800718
:1026C000204602D0FFF7E8FF04E000F0A7F820461C
:1026D00000F0A5F8257720680169C943490717D498
:1026E000C168C943490713D402216FF00402026193
:1026F00021772068806910F4407F204602D0FFF7E0
:10270000CBFF04E000F08AF8204600F088F8257737
:1027100020680169C943090716D4C168C94309077C
:1027200012D404216FF00802026121772068C06989
:102730008007204602D0FFF7AFFF04E000F06EF8FC
:10274000204600F06CF8257720680169C943C90666
:1027500017D4C168C943C90613D408216FF0100209
:10276000026121772068C06910F4407F204602D0C2
:10277000FFF792FF04E000F051F8204600F04FF818
:10278000257720680169C943C90708D1C168C943D1
:10279000C90704D1891E0161204600F041F8206874
:1027A0000169C943090609D4C168C943090605D4AA
:1027B0006FF0800101612046FFF774FE2068016917
:1027C000C943C90509D4C168C943090605D46FF4D2
:1027D000807101612046FFF764FE20680169C943EA
:1027E000490609D4C168C943490605D46FF04001C0
:1027F0000161204600F01BF820680169C943890681
:102800000BD4C168C943890607D46FF02001016168
:102810002046BDE87040FFF746BE70BD7047704768
:102820000068B0F1804F01D105F0A6BD7047704738
:1028300070470146406F896F084370472DE9F041AA
:10284000026804460025D0691168936810F00F0FE4
:102850005BD003F0010601F49077374369D0C707D6
:1028600007D0CF0505D501271762E26F42F00102BC
:10287000E267820708D5DA0706D0276802223A62A3
:10288000E26F42F00402E267420708D5DA0706D099
:10289000236804221A62E26F42F00202E267020732
:1028A0000AD501F02002324306D0236808221A62BA
:1028B000E26F42F00802E267E26F002A32D080063F
:1028C00005D5880603D5216E09B1204688472168C1
:1028D000E06F8968490601D4000725D5204600F03D
:1028E0002FFB20688168490619D5816821F04001D5
:1028F0008160E06E98B11A490165E06EFEF70FFD48
:1029000000280FD0E06E016D06E0830611D58B061E
:102910000FD5216E12E02046BDE8F0410847204661
:10292000FFF786FFBDE8F0812046FFF781FFE567EE
:10293000F8E7030605D50B0603D5616E0029EAD139
:10294000F0E74006EED54806ECD513682021204676
:1029500023F0400313606167656600F0A5F8E1E7C6
:102960002D2F000810B5040002D0606F10B107E0F1
:10297000012010BD002084F87000204600F026F8E9
:10298000242060672068016821F001010160204671
:1029900000F0E6FA0128ECD0606A10B1204600F0A1
:1029A00043FA2068416821F49041416020688168C1
:1029B00021F02A0181602068016841F00101016075
:1029C0002046BDE8104000F093BA000010B586B074
:1029D000044614216846FDF74BFC164920688842DE
:1029E00026D11548016841F010010160006800F02F
:1029F0001000059010481438016841F00101016091
:102A000000680221002200F0010005900323072442
:102A10004FF4C0608DE81F0008486946FEF712FEBB
:102A2000002225201146FEF759FF2520FEF748FF1A
:102A300006B010BD001001404438024000000240C2
:102A400070B5436F202B28D1B1B1AAB190F8703086
:102A5000012B22D08668012480F870400023436651
:102A60002125C164B6F5805FA0F85020A0F852205F
:102A7000C367456702D003E0012070BD016951B111
:102A80000749416680F870300068016841F08001B4
:102A90000160002070BD0349F3E7022070BD000013
:102AA000F5310008B53100087047FEE77FB5012514
:102AB0001548002413492A04009401940226029424
:102AC0000394C0E900120561856184600F4980F8B4
:102AD0002040C0E90A14C661C46080F830504561E6
:102AE000FEF7F2F9062000946946CDE90150064848
:102AF000FEF75AF8009569460348CDE90164FEF7F0
:102B000053F87FBD00220140540500200100000F52
:102B100010B588B01248002440F2E7324FF08041EF
:102B200042F6302300940194029403940494059493
:102B3000069480E81600C0E903348461FFF7E4FCE2
:102B40004FF48050009006486946FFF737FD04486F
:102B500004A904940694FFF7A7FC08B010BD000078
:102B6000C005002010B588B0114800240F49621E2E
:102B70000094019402940394049405940694C0E98B
:102B80000014C0E9024204618461FFF7BDFC4FF408
:102B90008050009006486946FFF710FD044804A9DC
:102BA00004940694FFF780FC08B010BD000C0040B0
:102BB000000600200A48002130B4084C08224FF4D7
:102BC000E1330460C0E90131C160C0E904128161F0
:102BD000C1610162416230BCFFF7C4BE0010014018
:102BE00040060020FEE7704770477047FEF71CBEA6
:102BF00070B5B4B0302121A8FDF73AFB14212DA8FF
:102C0000FDF736FB84216846FDF732FB1E4801685C
:102C100041F080510160006800F0805032901B4804
:102C2000016841F44041016000680224D82500F4A5
:102C30004040329001200926820501040423CDE999
:102C40002742CDE92101CDE92935CDE92B4621A83F
:102C5000FFF710FAFEF774FEE2024FF4A0510025D0
:102C6000CDE930122DAA0F20072182E831002DA8CE
:102C7000FFF71AF9064811951F9500906846FEF770
:102C800095FE34B070BD0000403802400070004036
:102C900040002000104A30B51048146800210F4B46
:102CA00044F470041460083305680D4A0D4C45F077
:102CB0000105056019600368051D1340074A03609C
:102CC0000C322C600568E305034C25F48025056073
:102CD000803C1160236030BD88ED00E00038024088
:102CE000FFFFF6FE103000240148FFF7D6BC0000BD
:102CF000C0050020F0B5274B4FF0804E264D0268EE
:102D00009842264E264F274C09D0704507D0A8423E
:102D100005D0B04203D0B84201D0A04205D1D1F8CD
:102D200004C022F070024CEA020298421BD07045A7
:102D300019D0A84217D0B04215D0B84213D0A04243
:102D400011D0194DA8420ED0184DA8420BD0184DE5
:102D5000A84208D0174DA84205D0174DA84202D06E
:102D6000164DA84203D1CD6822F440722A434D6922
:102D700022F080022A43026098428A68C2620A688E
:102D8000826201D0A04201D1096901630121416140
:102D9000F0BD0000000001400004004000080040B9
:102DA000000C00400004014000400140004401408C
:102DB0000048014000180040001C00400020004076
:102DC00042EA032283680A4323F47F410A43826074
:102DD0007047826822F070020A4342F00701816066
:102DE000704710B5036A046A23F00A0324F0010453
:102DF000046284690B4324F0F00141EA021181610D
:102E0000036210BD10B5036A23F0100303628369E7
:102E1000046A23F4704324F0A00443EA023282617E
:102E200044EA0111016210BD90F82410C90706D0D0
:102E30000168836A4A6822F400321A434A6090F8B3
:102E40002410890706D50168C36A4A6822F48032D3
:102E50001A434A6090F82410490706D50168036BAD
:102E60004A6822F480221A434A6090F82410090725
:102E700006D50168436B4A6822F400421A434A604F
:102E800090F82410C90606D50168836B8A6822F47D
:102E900080521A438A6090F82410890606D501688A
:102EA000C36B8A6822F400521A438A6090F8241097
:102EB000490611D50168036C4A6822F480121A434E
:102EC0004A60016CB1F5801F06D10168436C4A6805
:102ED00022F4C0021A434A6090F82410090606D56D
:102EE0000168826C486820F40020104348607047F5
:102EF00038B500250446C567FEF790FC03462068F8
:102F0000006800070BD56FF07E400090002220463D
:102F10004FF4001100F08CF908B1032038BD2020D7
:102F2000606784F87050A067002038BD10B5806BD2
:102F30000021A0F85A10A0F85210FFF779FC10BD3C
:102F400010B50168202200230C6824F490740C60F2
:102F500001688C6824F001048C608267036610BDF0
:102F60002DE9F04104468068DFF818C2864F2368D7
:102F7000D4E90452E16928431E6800250A438349C5
:102F8000104306EA0C0606431E604FF40042206818
:102F9000E668436823F44053334343602368A669DB
:102FA000206AD3F808C030432CF4306606439E6094
:102FB0002068B8420AD1086810F0030052D00128F6
:102FC0007BD002287AD003286ED186E0704B9842DD
:102FD0000AD1086810F00C0079D004287BD00828AA
:102FE00077D00C2860D178E06A4B98420AD1086803
:102FF00010F030006BD010286DD0202869D0302818
:1030000052D16AE0644B98420AD1086810F0C000BF
:103010005DD040285FD080285BD0C02844D15CE0E0
:103020005E4B98420DD1086810F440704FD0B0F557
:10303000807F50D0B0F5007F4BD0B0F5407F33D1CA
:103040004BE0574B98420FD1086810F4406009D00C
:10305000B0F5806F3FD0B0F5006F3AD0B0F5406F5B
:1030600022D13AE0012120E04E4B98420DD1086870
:1030700010F440502BD0B0F5805F2CD0B0F5005F3D
:1030800027D0B0F5405F0FD127E0474B98420BD1D6
:10309000086810F440401AD0B0F5804F1BD0904221
:1030A00017D0B0F5404F18D01021E0694FF6EF76F9
:1030B000904238D109295DD202E00CE009E006E037
:1030C000DFE801F00D1027582A5858582D0000212C
:1030D000EBE70221E9E70421E7E70821E5E7FEF74E
:1030E00079FF01E0FEF786FF0146D4F804004900AD
:1030F00001EB5001B1FBF0F080B2A0F11001B14240
:1031000038D84FF6F0732168C0F3420218401043DC
:1031100024E026496068EBE7FEF77CFFE4E760689F
:103120004FF48031E4E7092924D2DFE801F00508F3
:1031300019231C2323231F00FEF74CFF01E0FEF799
:1031400059FF0146D4F8040001EB5001B1FBF0F047
:1031500080B2A0F11001B1420CD82168C8600AE029
:1031600013496068F0E7FEF755FFEAE7606802EB95
:103170005001EBE701250020206660662846BDE887
:10318000F0810000F369FFEF001001409038024029
:103190000044004000480040004C00400050004007
:1031A0000014014000780040007C00400048E80125
:1031B0000024F400416F212910D1B0F8521071B1F0
:1031C000C16C02680988C1F308019162C16C891C55
:1031D000C164B0F85210491EA0F85210704701683F
:1031E0000A6822F080020A600068016841F040012C
:1031F00001607047416F21290ED1B0F8521061B1C2
:10320000C16C026809789162C16C491CC164B0F854
:103210005210491EA0F85210704701680A6822F047
:1032200080020A600068016841F040010160704757
:103230002DE9F041984617460E460446069D08E0E3
:10324000681C06D0FEF7EAFAA0EB0800A8420BD8EB
:1032500055B12068C06936EA000017D00020B84296
:10326000EED00020BDE8F0812168202000220B680C
:1032700023F4D0730B6021688B6823F001038B600B
:103280006067A067032084F87020EBE70120E6E781
:103290000148FFF7D3BA000040060020FEE7000017
:1032A0000FB4054B10B503A9044A029800F084F945
:1032B00010BC5DF814FB000045630008C00100204D
:1032C0000FB4084B10B504A902AA039800F074F9D2
:1032D000044602A9002000F006FD204610BC5DF85F
:1032E00014FB0000E73C0008090700284FEA1161C1
:1032F00004DB00F1E02080F80014704700F00F00BC
:1033000000F1E02080F8141D704710B502F012FFA4
:1033100010BD10B502F038FF10BD10B503F028F84D
:1033200010BD00B52DED048BB0EE409AF0EE609A22
:1033300083B051EC190BFDF7D0F941EC180B18EEE6
:10334000100A18EE901A8DED008B002818BF01208E
:10335000084320F00040C0F17F6000F1E040C00F62
:1033600014D019EE101A19EE900A8DED009B002969
:1033700018BF0121084320F00040C0F17F6000F138
:10338000E040C00F04BF012000F058F8B0EE480A3A
:1033900003B0F0EE680ABDEC048B00BD10B502F07E
:1033A000E9FF10BD10B502F0F1FF10BD10B503F03C
:1033B0005BFB10BD00487047AC00002010B503F067
:1033C00097FC10BD02E008C8121F08C1002AFAD1FC
:1033D00070477047002001E001C1121F002AFBD195
:1033E0007047000010B50022044611462DED028BF7
:1033F0009FED108AD0ED000A0F48B0EE480A00EEAB
:10340000880ABCEEC00A10EE103AFDF743FFD4ED77
:10341000010AB0EE480A0022074800EE880A10218F
:10342000BDEC028BBDE81040BCEEC00A10EE103AB5
:10343000FDF730BF00F0FF449C0500200149086003
:1034400070470000CC01002004F094FF10B504F098
:10345000A1FF10BD2DE9FF5FDDE90220010DDDF8C0
:1034600038B0024318D044F61050A1F2FF31414366
:103470000D140F98012820D0A5EB0B00401C5FEA2B
:10348000000A4FF00004474EDFF81C91A04650465A
:1034900016D5CAF1000728E00F98012443A201289D
:1034A00008D0002100980F9BC0E90021C0E9024329
:1034B000BDE8FF9F6FEA0B01F4E7CBF10000DEE708
:1034C000074612E0F80707D02246334640464946F1
:1034D000FDF722F8804689462246334610461946B3
:1034E000FDF71AF804460E467F10002FEAD1DDE9F9
:1034F0000201BAF1000F42464B4602DAFDF70CF822
:1035000001E0FDF77BF804460E460022284BFDF74C
:103510004DF903D84FF0FF30014607E00022254B5C
:1035200020463146FCF751FFFDF728F9102409E049
:10353000002C0ADB0A220023FCF762FE019B3032DA
:103540001A55641E50EA0102F2D1641C019AC4F1BA
:10355000110314440F9A012A03D0012208430DD10C
:103560000AE0084304D000204FF0110B0F9080E7D1
:10357000A3EB0B056D1E0DE05B4504DD4FF0000273
:1035800005F1010504E003DA4FF00002A5F10105A1
:10359000002AECD000980F99C0E90231C0E900453B
:1035A00086E70000000024400000F03F30000000EB
:1035B0000000F0430000E03F2DE9FF4F95B09B462F
:1035C0008946064600250FE2252877D100242746A4
:1035D000F84A0121059400E0044316F8013F203B1E
:1035E00001FA03F01042F7D130782A2811D06FF099
:1035F0002F033078A0F13002092A16D8059A44F03A
:10360000020402EB820203EB42021044761C059096
:10361000EFE759F8042B0592002A03DA504244F4EC
:103620000054059044F00204761C30782E2816D100
:1036300016F8010F44F004042A280DD06FF02F0271
:103640003078A0F13003092B09D807EB870302EB90
:103650004303C718761CF3E759F8047B761C3078CF
:103660006C280FD006DC4C2817D068280DD06A28AB
:1036700014D104E0742810D07A280FD10DE044F45E
:1036800000140AE044F4801401E044F44014727819
:10369000824202D104F58014761C761C30786628AC
:1036A0000BD013DC582877D009DC002875D04528CA
:1036B000F6D04628F4D047281AD19DE118E06328B7
:1036C00035D0642879D0652812D195E1702873D05F
:1036D00008DC6728F1D069286FD06E280DD06F28DC
:1036E00006D1B5E073282CD0752875D0782874D011
:1036F0005A46179990476D1C75E1C4F30250022891
:1037000009D003280DD0D9F8001004280DD00D6081
:1037100009F1040967E1D9F80010EA17C1E900527C
:10372000F6E7D9F800100D80F2E70D70F0E719F810
:10373000041B8DF8001000208DF80100EA460120DE
:1037400003E059F804AB4FF0FF3061074FF0000180
:1037500002D40DE008F101018846B9420FDA804534
:10376000F8DB1AF808100029F4D108E008F101018B
:1037700088468142FADB1AF808100029F6D105982C
:103780005B46A0EB080721463846179A00F094FAEA
:10379000284400EB080507E04DE029E10DE01AF8A8
:1037A000010B5A4617999047B8F10108F7D25B46CA
:1037B00021463846179A13E142E00A220092C4F3E8
:1037C00002524FF0000A022A08D059F804CB032A0B
:1037D0004FEAEC710AD00DE029E02AE009F1070177
:1037E00021F00702F2E802C1914609E00FFA8CFCD1
:1037F0004FEAEC71042A03D14FFA8CFC4FEAEC71CA
:10380000002907DA0A460021DCF1000C61EB020115
:103810002D2202E0220504D52B228DF8042001225E
:1038200003E0E20701D02022F7E7904659E00A21A1
:1038300002E010220DE010214FF0000A00910BE091
:1038400010224FF0000A44F004040827009203E01D
:1038500008224FF0000A0092C4F30252022A05D057
:1038600059F804CB0021032A08D009E009F1070127
:1038700021F00702F2E802C1914605E01FFA8CFC34
:10388000042A01D10CF0FF0C4FF00008220728D5C4
:10389000702806D0009B83F0100353EA0A0305D07A
:1038A0000EE040228DF80420012208E05CEA0102CB
:1038B00006D030228DF804208DF8050002229046B3
:1038C000009B83F0080353EA0A030AD15CEA010271
:1038D00001D1620705D530228DF804204FF0010890
:1038E0007F1E582804D034A003900EA802900DE04B
:1038F00036A0F9E753466046009AFCF781FC8446FF
:103900000398825C0298401E029002705CEA0100FB
:10391000F0D1029806A9081A00F1200A600702D522
:1039200024F4803400E00127574502DDA7EB0A00AC
:1039300000E0002000EB0A01009005984144401A85
:103940000590E00306D45B462146179A059800F0DF
:10395000B3F90544002706E001A85A46C05D17994F
:1039600090476D1C7F1C4745F6DBE0030CD55B469A
:103970002146179A059800F09FF9054404E030208D
:103980005A46179990476D1C0099481E00900029CF
:10399000F5DC08E0029802995A460078491C029129
:1039A000179990476D1CBAF10001AAF1010AF1DCE8
:1039B00065E10000092801003031323334353637F3
:1039C000383961626364656600000000303132336B
:1039D000343536373839414243444546000000000B
:1039E00000F058F90544761C307800287FF4ECADDF
:1039F00019B02846BDE8F08F620700D4062709F108
:103A0000070222F0070CFCE80223E14603F000481D
:103A10005FEA080C02D00FF2702C0DE05FEA045C44
:103A200002D50FF2682C07E05FEAC47C02D00FF2E7
:103A3000602C01E0AFF2700C4FF0FF3823F0004330
:103A4000CDF850C065280CD006DC452809D04628A2
:103A50001DD047283DD13DE0662818D067287ED18B
:103A600038E00021112F01DB112000E0781CCDE9A6
:103A7000000106A90EA8FFF7EDFCDDE90F010E9A83
:103A800003910021009207F1010A04914DE04FF0EB
:103A900000400097CDE9011006A90EA8FFF7DAFC57
:103AA000DDE90F0203920E9B11990022DDF80CA0B4
:103AB0000093049211B9791C00EB010AB7EB0A00DC
:103AC00004D4C0F1FF3007F1010A0490AAEB07000B
:103AD000019044E0012F00DA01270021112F01DDC0
:103AE000112000E03846CDE9000106A90EA8FFF735
:103AF000B1FCDDE90F010E9A0391002104910092BF
:103B0000BA4621070CD40399514500DA8A46BAF126
:103B1000010F05DD009AAAF10101515C302908D09E
:103B2000B84202DA10F1040F06DA0121CDE90110E2
:103B300015E0AAF10101E9E7002805DC0499014438
:103B40000491AAEB000102E0411C514500DD8A46C8
:103B50000499401A401C01904FF000400290200749
:103B600004D40198504501DBCDF8048000208DF885
:103B70004F0002980DF14F07B0F1004F25D02B20D8
:103B80000E9002984FF0020800280CDA4042029092
:103B90002D200E9007E00A210298FCF7AAFB303195
:103BA000029007F8011DB8F10001A8F10108F2DC4C
:103BB00002980028EFD1791E0E980870307800F036
:103BC000200040F0450007F8020D12A8C01B00F1CC
:103BD00007081498007800B1012000EB0A01019851
:103BE00001EBE07105984144401A401E0590E00346
:103BF00006D45B462146179A059800F05DF8054407
:103C00001498007818B15A46179990476D1CE00334
:103C100024D55B462146179A059800F04DF80544D7
:103C20001CE00498002807DBDDE90301884203DD7E
:103C30000098405C179901E0179930205A46904748
:103C4000049805F10105401C04900198401E019064
:103C500004D12E205A46179990476D1CBAF10001E5
:103C6000AAF1010ADDDC05E017F8010B5A461799A5
:103C700090476D1CB8F10001A8F10108F4DC5B4627
:103C80002146179A0598ABE62D0000002B00000096
:103C9000200000002DE9F041044600251E4617468D
:103CA000880404D405E039462020B0476D1C641E0A
:103CB000F9D52846BDE8F0812DE9F04104460025FC
:103CC0001E469046C80301D5302700E0202788040F
:103CD00004D505E041463846B0476D1C641EF9D551
:103CE0002846BDE8F0810A68531C0B6010707047CD
:103CF00070B5054602F0F4FA040011D1242002F058
:103D0000C1FF044602F0E2FA0462002325706FF05E
:103D1000004123626361A3616360A360C4E903138C
:103D2000204670BD2DE9F34F04002DED028B83B0CA
:103D3000FE4D7CD001279FEDFE8AAF633846EB68CD
:103D4000022253F82010401C082881ED018AF7DD7B
:103D5000C5E90E72D5F80880394600BF58F8212011
:103D60000220491C0A2982ED018AF7DDC5E90E709F
:103D700069683E464FEA0109022051F82620761C68
:103D80000A2E82ED018AF7DDC5E90E70286B3A46EE
:103D9000022150F82260521C022A86ED018AF7DDCA
:103DA000AA46BB468D1F3846CAF82470CAE90E21C0
:103DB0003946CAF820700122276A66693F1A53F80B
:103DC00021C0491C56F8276005EB8207521C3E446F
:103DD000022A96ED000A8CED010AEDDD401C042854
:103DE000E9DDDC46D346CAE909C26046CAF820C00C
:103DF00001460122E36958F82070401C05EB820659
:103E00003344521C93ED000A022A87ED010AF1DDCA
:103E1000491C0529EDDDCBE909C2E2464B46604667
:103E20006146CBF820C0012253F820C000E002E137
:103E3000276A05EB8208A669401C521C022A56F824
:103E40002760464496ED000A8CED010AECDD491C22
:103E50000529E8DDD846CBF838A0CBF82820D44691
:103E60006346C8E90810DBF81C1000BF51F82300B6
:103E700002225B1C022B80ED018AF7DDC8E90E32BD
:103E80006046CBF820C000BF04F1180251F8207042
:103E90004CCA52F8266005EB80021344324493ED7D
:103EA000000AD2ED000A401C022830EE600A87EDBD
:103EB000010AE9DD9D4F0126022213463862009275
:103EC000CDE901267A69386C03F036FB08200090B2
:103ED000CDE90106BA690223F968786C03F02CFB7E
:103EE000B01E0223CDE90060D7E905013A6904F06C
:103EF0006FF9FE6238690090D7E914BED7E9129ACB
:103F0000D7F8301050F82620D9F80430D2ED010A45
:103F100003EB860393ED000AB4EEE00AF1EE10FA2B
:103F200001D282ED010ADAF8043050F8262003EBC2
:103F3000860393ED000AD2ED010AB4EEE00AF1EE39
:103F400010FA01DD82ED010A276A226950F826C0C5
:103F500005EB870751F82630DCED010AD75905EB50
:103F60008602174497ED000A70EE200AC3ED010A9D
:103F7000DBF8047051F8263007EB860797ED000A4E
:103F8000B4EEE00AF1EE10FA01D283ED010ADEF898
:103F9000047051F8263007EB860797ED000AD3ED41
:103FA000010AB4EEE00AF1EE10FA01DD83ED010A38
:103FB000236A276951F826C005EB830350F8268051
:103FC000761CDCED010AFB58022E1A4492ED000A21
:103FD00030EEC00A88ED010A94DD544B0120014601
:103FE000DE6298635C6B012254F8215005EB820578
:103FF000521C022A85ED008AF6DD491C0129F2DDFA
:10400000009DD862C3E90E12616855F8202001EBCB
:104010008001401C92ED010A022881ED000AF3DDC7
:10402000D8626168069803B0091DBDEC028BBDE83B
:10403000FC4F04F0C9B8012308211A46184602F0C3
:10404000DDF80123E8600A211A46184602F0D6F886
:104050000123A8600A211A46184602F0CFF801236E
:10406000686002211A46184602F0C8F80123286346
:1040700002211A46184602F0C1F80122E861022323
:104080001146104602F0BAF80123686302211A466D
:10409000184602F0B3F8022368610122194610465F
:1040A00002F0ACF82864012341681A469FED210A0A
:1040B000DFED210A81ED010A41689FED201ADFED55
:1040C000201AC1ED020A816881ED011A806802217F
:1040D000C0ED021A184602F091F80122A8610823E7
:1040E0001046022102F08AF89FED160ADFED160A4B
:1040F0009FED161ADFED161A9FED162ADFED162A30
:104100009FED163ADFED163A9FED164ADFED164A9F
:104110009FED165ADFED165A9FED166ADFED166A0F
:104120009FED167ADFED167A68642BE0BC00002064
:1041300000000000AAB2AC3E72E4AEBD6430D0BD57
:1041400035F6023F8A939F3F45C8073E0290223FC3
:10415000D78D7F3DECD69B3E7BECD93CC6E3CD3D75
:1041600020EFFD3BA354763D34115E3F1133F0BD8B
:10417000746D763E27A399BDE284853D5873E2BCF9
:1041800090DD643C416801231A4681ED010A4168D3
:10419000C1ED020A416881ED031A4168C1ED041ABC
:1041A000416881ED052A4168C1ED062A416881ED2B
:1041B000073A4168C1ED083A816881ED014A81689A
:1041C000C1ED024A816881ED035A8168C1ED045A4C
:1041D000816881ED056A8168C1ED066A816881EDBB
:1041E000077A80680221C0ED087A184602F006F8C6
:1041F0000122286102231146104601F0FFFFA86446
:104200000122416802239FED1B0A81ED010A4068EB
:10421000114680ED020A104601F0F0FFE864012229
:10422000416802239FED140A81ED010A406811469E
:1042300080ED020A104601F0E1FF28650122416885
:104240000223B7EE000A81ED010A4068114680EDB5
:10425000020A104601F0D2FF68654168BFEE000A0D
:1042600081ED010A406880ED020A03B0BDEC028BCB
:10427000BDE8FC8F0AD7233C0AD723BC2DE9F34FB6
:10428000FF4E04002DED048B83B09FEDFE8A06F1F6
:1042900080057CD00121A962B36E0A46022753F83B
:1042A0002200521C082A80ED018AF7DDC5E90A17B1
:1042B000D6F85C80084600BF58F820700222401CE7
:1042C0000A2887ED018AF7DDC5E90A12B26D0846B2
:1042D0004FEA0209022752F820C0401C0A288CED40
:1042E000018AF7DDC5E90A17E8690A46022750F88E
:1042F00022C0521C022A8CED018AF7DDAA4608462C
:10430000BD1F8B46B646CAF81000CAE90A27CAF88C
:104310000C100122276A66693F1A53F821C0491C14
:1043200056F8276005EB8207521C3E44022A96EDA0
:10433000000A8CED010AEDDD401C0428E9DDCAE924
:1043400004B25846CAF80CB001460122E36958F895
:104350002070401C05EB82063344521C93ED000A8A
:10436000022A87ED010AF1DD491C0529EDDDCAE9C4
:1043700004B258464B460146CAF80CB05FF0010241
:10438000276A53F820C0A66905EB820800E0C0E167
:1043900056F82760401C521C4644022A96ED000A3B
:1043A0008CED010AECDD491C0529E7DD5646CAF80B
:1043B00028B0CAF81420DC4677466346C6E90310E5
:1043C000DEF87810022251F823005B1C022B80EDEE
:1043D000018AF7DDC6E90A32D046F1466046CAF8DE
:1043E0000CC000BF04F1180251F820704CCA52F8FA
:1043F000266005EB80021344324493ED000AD2EDAF
:10440000000A401C022830EE600A87ED010AE9DD4F
:10441000C8F80C00022200926646CDE9012CD8F8BB
:1044200030001346DEF87020774603F085F84FF031
:10443000080BCDF800B0CDE901B67A6F0223B96E52
:10444000D8F8340003F078F84FF0FF3A0223CDE9B2
:10445000006AD7E91C01FA6E03F0BAFEC8F82860BA
:104460003046FA6E022152F82030401C022883EDBB
:10447000018AF7DD47463246C7E90A61D8F82010BD
:10448000022351F82200521C022A80ED018AF7DD36
:10449000FE603046C7E90A23236A05EB800C2269D7
:1044A00051F82080401C05EB83030228D258624457
:1044B00092ED000A88ED010AEEDDC846F860CDE90C
:1044C000006AD9F87C200A23D8E9161003F080FE90
:1044D000CDF800B00A23CDE901B63A68D8F86810E3
:1044E000B86B03F029F8CDE9006AD8F87C000A23FC
:1044F000D7E9001203F06CFE0A200090CDE9010616
:10450000D7E901120346F86B03F016F8FE60304657
:10451000BA68396E01EB800C52F82030401C0A2832
:1045200093ED010A8CED000AF4DDF86002210091A0
:104530002823CDE90116D8F86020396A386C02F0DA
:10454000FBFF009628230196786CD8E9181203F037
:104550003FFEFE603046796ED8F8642001EB800C97
:1045600052F82030401C282893ED010A8CED000AF7
:10457000F4DDFE603046BA6E02EB8003401C022878
:1045800083ED008AF8DD2822F860BFEE000A0846B5
:1045900003F0B0F803F0DEF9FE603246D8F86C00A4
:1045A000B96E814601EB820350F822C0521C93ED94
:1045B000000A022A8CED010AF4DD314B014601208C
:1045C0008033DA609861D3E914ABDE6CDA69009667
:1045D000D3F848E051F82030DEF80460D3ED010A4A
:1045E00006EB800696ED000AB4EEE00AF1EE10FA52
:1045F00001D283ED010A009B5E6851F8203006EB82
:10460000800696ED000AD3ED010AB4EEE00AF1EE61
:1046100010FA01DD83ED010A276A236951F820C0F1
:1046200005EB870752F82060DCED010ADF5905EB46
:1046300080031F4497ED000A70EE200AC6ED010AC0
:10464000DAF8047052F8206007EB800797ED000A53
:10465000B4EEE00AF1EE10FA01D286ED010ADBF8C1
:10466000047052F8206007EB800797ED000AD6ED42
:10467000010AB4EEE00AF1EE10FA07DD04E00000F2
:10468000BC0000200000000086ED010A266A2769B0
:1046900052F820C005EB860651F82080401CDCED66
:1046A000010ABE590228334493ED000A30EEC00AD5
:1046B00088ED010A8EDDFF4C01221146A262A06145
:1046C000636A012053F8215005EB8005401C022845
:1046D00085ED008AF6DD491C0129F2DDA2614D4617
:1046E000C4E90A10586855F8221000EB8200521CE9
:1046F00091ED010A022A80ED000AF3DDA2615968FA
:10470000089803B0091DBDEC048BBDE8FC4F03F015
:104710005BBD282001F0B4FD0A2001F0B7FD01F0D7
:1047200067FF02F0C3FBE86502F0C6FBA86502F074
:10473000C9FB686602F0CCFB286602F0CFFBA866D6
:10474000E86DB7EE009ADFEDDC8AFFEE009A416873
:1047500081ED019A416881ED028A416881ED038A09
:10476000416881ED048A416881ED058A416881EDE7
:10477000068A416881ED078A416881ED088A4168AF
:1047800081ED098A416881ED0A8A816881ED018A9B
:10479000816881ED029A816881ED038A816881EDEB
:1047A000048A816881ED058A816881ED068A8168C5
:1047B00081ED078A816881ED088A816881ED098A27
:1047C000816881ED0A8AC16881ED018AC16881ED45
:1047D000028AC16881ED039AC16881ED048AC168CB
:1047E00081ED058AC16881ED068AC16881ED078A7D
:1047F000C16881ED088AC16881ED098AC16881EDCF
:104800000A8A016981ED018A016981ED028A0169E3
:1048100081ED038A016981ED049A016981ED058AC0
:10482000016981ED068A016981ED078A016981EDDF
:10483000088A016981ED098A016981ED0A8A416965
:1048400081ED018A416981ED028A416981ED038A26
:10485000416981ED048A416981ED059A416981EDE3
:10486000068A416981ED078A416981ED088A4169BB
:1048700081ED098A416981ED0A8A816981ED018AA8
:10488000816981ED028A816981ED038A816981ED07
:10489000048A816981ED058A816981ED069A8169C1
:1048A00081ED078A816981ED088A816981ED098A34
:1048B000816981ED0A8AC16981ED018AC16981ED51
:1048C000028AC16981ED038AC16981ED048AC169E7
:1048D00081ED058AC16981ED068AC16981ED079A7A
:1048E000C16981ED088AC16981ED098AC16981EDDB
:1048F0000A8A016A81ED018A016A81ED028A016AF0
:1049000081ED038A016A81ED048A016A81ED058ADD
:10491000016A81ED068A016A81ED078A016A81EDEB
:10492000089A016A81ED098A016A81ED0A8A416A61
:1049300081ED018A416A81ED028A416A81ED038A33
:10494000416A81ED048A416A81ED058A416A81EDFF
:10495000068A416A81ED078A416A81ED088A416AC7
:1049600081ED099A416A81ED0A8A816A81ED018AA5
:10497000816A81ED028A816A81ED038A816A81ED13
:10498000048A816A81ED058A816A81ED068A816ADD
:1049900081ED078A816A81ED088A816A81ED098A41
:1049A000816A81ED0A9AC16AC1ED019AC16AC1EDBD
:1049B000028AC16AC1ED038AC16AC1ED048AC16A73
:1049C000C1ED058AC16AC1ED068AC16AC1ED078AD7
:1049D000C16AC1ED088AC16AC1ED098AC16AC1ED27
:1049E0000A8A016BC1ED018A016BC1ED029A016B6C
:1049F000C1ED038A016BC1ED048A016BC1ED058A2B
:104A0000016BC1ED068A016BC1ED078A016BC1ED37
:104A1000088A016BC1ED098A016BC1ED0A8A416BFD
:104A2000C1ED018A416BC1ED028A416BC1ED039A70
:104A3000416BC1ED048A416BC1ED058A416BC1ED4B
:104A4000068A416BC1ED078A416BC1ED088A416B53
:104A5000C1ED098A416BC1ED0A8A816BC1ED018A02
:104A6000816BC1ED028A816BC1ED038A816BC1ED5F
:104A7000049A816BC1ED058A816BC1ED068A816B59
:104A8000C1ED078A816BC1ED088A816BC1ED098A8E
:104A9000816BC1ED0A8AC16BC1ED018AC16BC1EDA9
:104AA000028AC16BC1ED038AC16BC1ED048AC16B7F
:104AB00004E000003C01002000000080C1ED059AE8
:104AC000C16BC1ED068AC16BC1ED078AC16BC1ED37
:104AD000088AC16BC1ED098AC16BC1ED0A8A016CFC
:104AE000C1ED018A016CC1ED028A016CC1ED038A3E
:104AF000016CC1ED048A016CC1ED058A016CC1ED48
:104B0000069A016CC1ED078A016CC1ED088A016C3F
:104B1000C1ED098A016CC1ED0A8A416CC1ED018ABF
:104B2000416CC1ED028A416CC1ED038A416CC1ED5B
:104B3000048A416CC1ED058A416CC1ED068A416C65
:104B4000C1ED079A416CC1ED088A416CC1ED098A3B
:104B5000416CC1ED0A8A816CC1ED018A816CC1EDA5
:104B6000028A816CC1ED038A816CC1ED048A816C7B
:104B7000C1ED058A816CC1ED068A816CC1ED078AA1
:104B8000816CC1ED089A816CC1ED098A816CC1ED1F
:104B90000A8AC16CC1ED018AC16CC1ED028AC16C87
:104BA000C1ED038AC16CC1ED048AC16CC1ED058AF7
:104BB000C16CC1ED068AC16CC1ED078AC16CC1ED43
:104BC000088AC16CC1ED099AC16CC1ED0A8A016DF8
:104BD000C1ED018A016DC1ED028A016DC1ED038A4B
:104BE000016DC1ED048A016DC1ED058A016DC1ED54
:104BF000068A016DC1ED078A016DC1ED088A016D5C
:104C0000C1ED098A016DC1ED0A9A416D81ED019AEC
:104C1000DFEDFE3ADFEDFE1A9FEDFE2ADFEDFE2A04
:104C20009FEDFE3A9FEDFE1ADFEDFE0A416DB0EEFC
:104C3000480A81ED020A416D81ED030A416D81ED63
:104C4000040A416D81ED050A416D81ED060A416D51
:104C500081ED070A416D81ED080A416D81ED090A78
:104C6000416D81ED0A0A816D81ED010A816D81ED51
:104C7000029A816D81ED030A816D81ED040A816DD7
:104C800081ED050A816D81ED060A816D81ED070ACE
:104C9000816D81ED080A816D81ED090A816D81EDDB
:104CA0000A0AC16D81ED019AC16D81ED020AC16DE3
:104CB00081ED039AC16D81ED040AC16D81ED050A94
:104CC000C16D81ED060AC16D81ED070AC16D81EDEF
:104CD000080AC16D81ED090AC16D81ED0A0A016EF4
:104CE00081ED010A016E81ED029A016E81ED030AE8
:104CF000016E81ED049A016E81ED050A016E81ED70
:104D0000060A016E81ED070A016E81ED080A016E47
:104D100081ED090A016E81ED0A0A416E81ED019A69
:104D2000416E81ED020A416E81ED039A416E81ED83
:104D3000040A416E81ED059A416E81ED060A416ECD
:104D400081ED070A416E81ED080A416E81ED090A85
:104D5000416E81ED0A0A816E81ED010A816E81ED5D
:104D6000029A816E81ED030A816E81ED049A816E53
:104D700081ED050A816E81ED069A816E81ED070A4B
:104D8000816E81ED080A816E81ED090A816E81EDE7
:104D90000A0AC16E81ED019AC16E81ED020AC16EEF
:104DA00081ED039AC16E81ED040AC16E81ED059A11
:104DB000C16E81ED060AC16E81ED079AC16E81ED6B
:104DC000080AC16E81ED090AC16E81ED0A0A016F00
:104DD00081ED010A016F81ED029A016F81ED030AF5
:104DE000016F81ED049A016F81ED050A016F81ED7C
:104DF000069A016F81ED070A016F81ED089A016F34
:104E000081ED090A016F81ED0A0A416F81ED019A76
:104E1000416F81ED020A416F81ED039A416F81ED8F
:104E2000040A416F81ED059A416F81ED060A416FD9
:104E300081ED079A416F81ED080A416F81ED099A72
:104E4000416F81ED0A0A816F81ED010A816F81ED69
:104E5000029A816F81ED030A816F81ED049A816F5F
:104E600081ED050A816F81ED069A816F81ED070A58
:104E7000816F81ED089A816F81ED090A816F81ED63
:104E80000A9AC16FC1ED019AC16FC1ED028AC16F6B
:104E9000C1ED038AC16FC1ED048AC16FC1ED058AFE
:104EA000C16FC1ED068AC16FC1ED078AC16FC1ED47
:104EB000088AC16FC1ED098AC16FC1ED0A8AD0F8B5
:104EC0008010C1ED018AD0F88010C1ED029AD0F8AF
:104ED0008010C1ED038AD0F88010C1ED048AD0F8AB
:104EE0008010C1ED058AD0F88010C1ED068AD0F897
:104EF0008010C1ED078AD0F88010C1ED088AD0F883
:104F00008010C1ED098AD0F88010C1ED0A8AD0F86E
:104F10008410C1ED019AD0F88410C1ED028AD0F856
:104F20008410C1ED039AD0F88410C1ED048AD0F842
:104F30008410C1ED058AD0F88410C1ED068AD0F83E
:104F40008410C1ED078AD0F88410C1ED088AD0F82A
:104F50008410C1ED098AD0F88410C1ED0A8AD0F816
:104F60008810C1ED018AD0F88810C1ED029AD0F8FE
:104F70008810C1ED038AD0F88810C1ED049AD0F8EA
:104F80008810C1ED058AD0F88810C1ED068AD0F8E6
:104F90008810C1ED078AD0F88810C1ED088AD0F8D2
:104FA0008810C1ED098AD0F88810C1ED0A8AD0F8BE
:104FB0008C10C1ED019AD0F88C10C1ED028AD0F8A6
:104FC0008C10C1ED039AD0F88C10C1ED048AD0F892
:104FD0008C10C1ED059AD0F88C10C1ED068AD0F87E
:104FE0008C10C1ED078AD0F88C10C1ED088AD0F87A
:104FF0008C10C1ED098AD0F88C10C1ED0A8AD0F866
:105000009010C1ED018AD0F890100DE017A804436C
:1050100041942442C60DC8425C8FFD41B699774247
:10502000E3D9A141026BCD41C1ED029AD0F89010B5
:10503000C1ED038AD0F89010C1ED049AD0F8901019
:10504000C1ED058AD0F89010C1ED069AD0F8901005
:10505000C1ED078AD0F89010C1ED088AD0F8901001
:10506000C1ED098AD0F89010C1ED0A8AD0F89410E9
:10507000C1ED019AD0F89410C1ED028AD0F89410D5
:10508000C1ED039AD0F89410C1ED048AD0F89410C1
:10509000C1ED059AD0F89410C1ED068AD0F89410AD
:1050A000C1ED079AD0F89410C1ED088AD0F8941099
:1050B000C1ED098AD0F89410C1ED0A8AD0F8981091
:1050C000C1ED018AD0F89810C1ED029AD0F898107D
:1050D000C1ED038AD0F89810C1ED049AD0F8981069
:1050E000C1ED058AD0F89810C1ED069AD0F8981055
:1050F000C1ED078AD0F89810C1ED089AD0F8981041
:10510000C1ED098AD0F89810C1ED0A8AD0F89C1038
:10511000C1ED019AD0F89C10C1ED028AD0F89C1024
:10512000C1ED039AD0F89C10C1ED048AD0F89C1010
:10513000C1ED059AD0F89C10C1ED068AD0F89C10FC
:10514000C1ED079AD0F89C10C1ED088AD0F89C10E8
:10515000C1ED099AD0F89C10C1ED0A8AD0F8A010D0
:10516000C1ED018AD0F8A010C1ED029AD0F8A010CC
:10517000C1ED038AD0F8A010C1ED049AD0F8A010B8
:10518000C1ED058AD0F8A010C1ED069AD0F8A010A4
:10519000C1ED078AD0F8A010C1ED089AD0F8A01090
:1051A000C1ED098AD0F8A000C0ED0A9AA86D416847
:1051B000C1ED013A4168C1ED021A416881ED032A4F
:1051C0004168C1ED042A416881ED053A416881EDED
:1051D000061A4168C1ED070A9FEDFE0A416881ED9C
:1051E000080A416881ED098A416881ED0A8A81686F
:1051F000C1ED011A9FEDF80A816881ED020A9FED69
:10520000F70A816881ED030A9FEDF50A816881ED57
:10521000040A9FEDF40A816881ED050A9FEDF20A08
:10522000816881ED060A9FEDF10ADFEDF11A8168D0
:1052300081ED070A8168C1ED081A816881ED098A4C
:10524000816881ED0A8AC16881ED012A9FEDE30A38
:10525000C16881ED020A9FEDE70AC16881ED030A8A
:105260009FEDE50AC16881ED040A9FEDE40AC1687B
:1052700081ED050A9FEDE20ADFEDE23AC16881EDBA
:10528000060A9FEDE12AC168C1ED073AC16881EDC8
:10529000082AC16881ED098AC16881ED0A8A01691D
:1052A000C1ED012A9FEDCE0A016981ED020A9FED51
:1052B000D20A016981ED030A9FEDD40A016981EDEB
:1052C000040A9FEDD30A016981ED050ADFEDD12AB9
:1052D0009FEDD10A0169C1ED062ADFEDD02A0169EF
:1052E00081ED070A0169C1ED082A016981ED098A8A
:1052F000016981ED0A8A416981ED013A9FEDB93A70
:10530000416981ED023A9FEDBD3A416981ED033A71
:105310009FEDBF3A416981ED043A9FEDC13A416981
:1053200081ED053A9FEDBF3A9FEDBF4A416981ED9E
:10533000063A9FEDBE3A416981ED074A416981ED28
:10534000083A416981ED098A416981ED0A8A8169DA
:1053500081ED011A9FEDA41A816981ED021A9FED7A
:10536000A81A816981ED031A9FEDAA1A816981ED5E
:10537000041A9FEDAC1A816981ED051A9FEDAC1AF4
:10538000DFEDAC4A816981ED061A9FEDAB1A8169A8
:10539000C1ED074A816981ED081A816981ED098AA9
:1053A000816981ED0A8AC169C1ED010ADFED8F0AC9
:1053B000C169C1ED020AC169C1ED033AC16981ED5C
:1053C000040AC16981ED054AC169C1ED064ADFEDF4
:1053D0009B0A9FED9B0AC169C1ED070AC16981ED76
:1053E000080AC16981ED098AC16981ED0A8ADFED88
:1053F000790A016AC1ED010A016AC1ED021A016A66
:1054000081ED032A016AC1ED042A016A81ED053AA2
:10541000016A81ED061A016A81ED070A9FED890A8A
:10542000016A81ED080A016A81ED098A016A81ED4C
:105430000A8A416A81ED018A416A81ED028A416AE4
:1054400081ED038A416A81ED048A416A81ED058A12
:10545000416A81ED068A416A81ED078A9FED7A0AE9
:10546000416A01231A4681ED088A416A81ED090AE1
:10547000416A81ED0A8A816A81ED018A816A81ED42
:10548000028A816A81ED038A816A81ED048A816AD8
:1054900081ED058A816A81ED068A816A81ED078A3C
:1054A000816A81ED088A816A81ED098A806A082112
:1054B00080ED0A0A184600F0A1FE0123B0660A2119
:1054C0001A46184600F09AFE604901231A46C8653C
:1054D0000A21184600F092FE5C4901231A468865AD
:1054E0000221184600F08AFE0123E86102211A46D3
:1054F000184600F083FE554901231A4688670221A9
:10550000184600F07BFE514901231A46C866022165
:10551000184600F073FE012228620223114610464D
:1055200000F06CFE0123686202211A46184600F062
:1055300065FE0223306701221946104600F05EFE28
:105540009FED430A2863416881ED010A9FED410AFE
:10555000416801231A4681ED020A81689FED3E0AE7
:1055600081ED010A806802219FED3C0A80ED020A6C
:10557000184600F043FE01227067082310460221FE
:1055800000F03CFE686341689FED350A81ED010A39
:1055900041689FED340A81ED020A41689FED320AAD
:1055A00081ED030A41689FED310A81ED040A4168EB
:1055B0009FED2F0A81ED050A41689FED2E0A81EDCE
:1055C000060A41689FED2C0A81ED070A41689FEDAC
:1055D0002B0A55E0A9EF0C41FA3E02427EF5F74155
:1055E0008A2BC64171839A41AA437C4157BD03412E
:1055F0008723DD40E47AAC42D763DF4147C661428E
:105600007DB39641891EC14136A10641ADEEB5413B
:105610004E119341BC577241544C0041F9CCD840D3
:10562000113E354236827A41FEC3A74126DFF14062
:10563000E3EB5441A88AEC4066A4CA402BB568410C
:105640002A55B140D34BA240CDCC4C3EBC000020EB
:10565000A885DB3E44D82DBE6A2E5CBE34AB3D3FF0
:105660009144BD3F136D6B3D3E24463FA9A63F3D8F
:10567000BB03C53E706FC93C9E83023E4476FF3B30
:1056800081ED080A9FEDFE0A816881ED010A9FED18
:10569000FD0A816881ED020A9FEDFB0A816881EDB8
:1056A000030A9FEDFA0A816881ED040A9FEDF80A6A
:1056B000816881ED050A9FEDF70A816881ED060A90
:1056C0009FEDF50A816881ED070A9FEDF40A806875
:1056D00001230A211A4680ED080A184600F08EFDC3
:1056E0000123F0670A211A46184600F087FD0122BF
:1056F0002860082310460A2100F080FD9FEDE80A8B
:10570000A863416881ED010A9FEDE60A416881EDD9
:10571000020A9FEDE50A416881ED030A9FEDE30A65
:10572000416881ED040A9FEDE20A416881ED050AB6
:105730009FEDE00ADFEDE02A416881ED060ADFED2A
:10574000DF3A4168C1ED072A4168C1ED083A9FED93
:10575000DC0A816881ED010A9FEDDA0A816881ED3A
:10576000020A9FEDD90A816881ED030A9FEDD70AED
:10577000816881ED040A9FEDD60A816881ED050AF2
:105780009FEDD40A9FEDD43A816881ED060A9FED22
:10579000D34A816881ED073A816881ED084A9FED1F
:1057A000D00AC16881ED010A9FEDCE0AC16881ED82
:1057B000020A9FEDCD0AC16881ED030A9FEDCB0A75
:1057C000DFEDCB0AC16881ED040A9FEDCA0AC1680A
:1057D000C1ED050AC16881ED060AC168C1ED072A5D
:1057E000C168C1ED083A9FEDC41A016981ED011A43
:1057F0009FEDC21A016981ED021A9FEDC11A01697C
:1058000081ED031ADFEDBF1A9FEDBF1A0169C1EDEB
:10581000041ADFEDBE4A016981ED051A0169C1ED87
:10582000064A016981ED073A016981ED084ADFED19
:10583000B81A4169C1ED011A9FEDB62ADFEDB61A1B
:10584000416981ED022A9FEDB52A4169C1ED031A34
:10585000416981ED042A4169C1ED050A416981ED83
:10586000060A4169C1ED072A4169C1ED083A9FED79
:10587000AC5A816981ED015A9FEDAA5A816981ED87
:10588000025A9FEDA95A816981ED035A9FEDA75AEB
:10589000816981ED045A816981ED051A8169C1ED43
:1058A000064A816981ED073A9FEDA15A816981ED30
:1058B000084ADFEDA05AC16981ED015AC169C1ED05
:1058C000025AC169C1ED031AC16981ED042AC16997
:1058D000C1ED050AC16981ED060AC169C1ED072A5A
:1058E000DFED950AC169C1ED083A9FED940A016A9E
:1058F000C1ED010A016A81ED020ADFED8B2A016A1E
:10590000C1ED032ADFED892A016AC1ED042A016A8B
:1059100081ED051A016AC1ED064A016A81ED073A77
:10592000016A81ED084A416A81ED015A416AC1ED7F
:10593000025A416AC1ED031A416A81ED042A9FEDC2
:105940006C1ADFED6C1A9FED5C2ADFED5C2A9FED8F
:10595000763ADFED763A9FED6C4ADFED6C4A9FEDCB
:105960005E5ADFED5E5A416A01231A4681ED051A3F
:10597000416AC1ED061A416A81ED072A416AC1ED0B
:10598000082A816AC1ED010A816A81ED020A816AF1
:1059900081ED033A816AC1ED043A816A81ED054ADD
:1059A000816AC1ED064A816A81ED075A806A0A213F
:1059B000C0ED085A184600F021FC012368600A2156
:1059C0001A46184600F01AFC0A23A860012219465C
:1059D000104600F013FC9FED5A0ADFED5A0A9FEDC6
:1059E0005A2ADFED5A2ADFED5A5A9FED5A4A9FEDA7
:1059F0005A6ADFED5A6A9FED5A1ADFED5A1A9FED87
:105A00005A3ADFED5A3ADFED5A4A9FED5A5A9FED66
:105A10005A7ADFED5A7AE863416881ED018A41687C
:105A200081ED028A416881ED030A4168C1ED040AF3
:105A3000416881ED052A4168C1ED062A4168C1ED42
:105A4000075A416881ED084A416881ED096A416859
:105A5000C1ED0A6A816881ED018A816881ED028A5F
:105A6000816881ED031A8168C1ED041A816881EDB6
:105A7000053A8168C1ED063A8168C1ED074A7FE0C9
:105A8000DA1FF8BDD9EC963F6FF58CBEA91DA53E77
:105A900088812EBEE81FB13DE02177BD5440943C83
:105AA000C1582340A8D2213F13EE9F3F11206E3EE4
:105AB000B6951C3FE633AF3D3E4F993E30E8003D82
:105AC000D9A54F3F9CA7B63FE1E01C3E6D53D13EA8
:105AD0004C0BED3C36E4EF3D5E16B33BCB75093D18
